{
  "_format": "hh-sol-artifact-1",
  "contractName": "SnakeBotNFT",
  "sourceName": "contracts/SnakeBotNFT.sol",
  "abi": [
    {
      "inputs": [],
      "stateMutability": "nonpayable",
      "type": "constructor"
    },
    {
      "inputs": [],
      "name": "ERC721EnumerableForbiddenBatchMint",
      "type": "error"
    },
    {
      "inputs": [
        {
          "internalType": "address",
          "name": "sender",
          "type": "address"
        },
        {
          "internalType": "uint256",
          "name": "tokenId",
          "type": "uint256"
        },
        {
          "internalType": "address",
          "name": "owner",
          "type": "address"
        }
      ],
      "name": "ERC721IncorrectOwner",
      "type": "error"
    },
    {
      "inputs": [
        {
          "internalType": "address",
          "name": "operator",
          "type": "address"
        },
        {
          "internalType": "uint256",
          "name": "tokenId",
          "type": "uint256"
        }
      ],
      "name": "ERC721InsufficientApproval",
      "type": "error"
    },
    {
      "inputs": [
        {
          "internalType": "address",
          "name": "approver",
          "type": "address"
        }
      ],
      "name": "ERC721InvalidApprover",
      "type": "error"
    },
    {
      "inputs": [
        {
          "internalType": "address",
          "name": "operator",
          "type": "address"
        }
      ],
      "name": "ERC721InvalidOperator",
      "type": "error"
    },
    {
      "inputs": [
        {
          "internalType": "address",
          "name": "owner",
          "type": "address"
        }
      ],
      "name": "ERC721InvalidOwner",
      "type": "error"
    },
    {
      "inputs": [
        {
          "internalType": "address",
          "name": "receiver",
          "type": "address"
        }
      ],
      "name": "ERC721InvalidReceiver",
      "type": "error"
    },
    {
      "inputs": [
        {
          "internalType": "address",
          "name": "sender",
          "type": "address"
        }
      ],
      "name": "ERC721InvalidSender",
      "type": "error"
    },
    {
      "inputs": [
        {
          "internalType": "uint256",
          "name": "tokenId",
          "type": "uint256"
        }
      ],
      "name": "ERC721NonexistentToken",
      "type": "error"
    },
    {
      "inputs": [
        {
          "internalType": "address",
          "name": "owner",
          "type": "address"
        },
        {
          "internalType": "uint256",
          "name": "index",
          "type": "uint256"
        }
      ],
      "name": "ERC721OutOfBoundsIndex",
      "type": "error"
    },
    {
      "inputs": [
        {
          "internalType": "address",
          "name": "owner",
          "type": "address"
        }
      ],
      "name": "OwnableInvalidOwner",
      "type": "error"
    },
    {
      "inputs": [
        {
          "internalType": "address",
          "name": "account",
          "type": "address"
        }
      ],
      "name": "OwnableUnauthorizedAccount",
      "type": "error"
    },
    {
      "anonymous": false,
      "inputs": [
        {
          "indexed": true,
          "internalType": "address",
          "name": "owner",
          "type": "address"
        },
        {
          "indexed": true,
          "internalType": "address",
          "name": "approved",
          "type": "address"
        },
        {
          "indexed": true,
          "internalType": "uint256",
          "name": "tokenId",
          "type": "uint256"
        }
      ],
      "name": "Approval",
      "type": "event"
    },
    {
      "anonymous": false,
      "inputs": [
        {
          "indexed": true,
          "internalType": "address",
          "name": "owner",
          "type": "address"
        },
        {
          "indexed": true,
          "internalType": "address",
          "name": "operator",
          "type": "address"
        },
        {
          "indexed": false,
          "internalType": "bool",
          "name": "approved",
          "type": "bool"
        }
      ],
      "name": "ApprovalForAll",
      "type": "event"
    },
    {
      "anonymous": false,
      "inputs": [
        {
          "indexed": true,
          "internalType": "uint256",
          "name": "tokenId",
          "type": "uint256"
        },
        {
          "indexed": true,
          "internalType": "bytes32",
          "name": "botId",
          "type": "bytes32"
        },
        {
          "indexed": true,
          "internalType": "address",
          "name": "owner",
          "type": "address"
        }
      ],
      "name": "BotNFTMinted",
      "type": "event"
    },
    {
      "anonymous": false,
      "inputs": [
        {
          "indexed": true,
          "internalType": "address",
          "name": "previousOwner",
          "type": "address"
        },
        {
          "indexed": true,
          "internalType": "address",
          "name": "newOwner",
          "type": "address"
        }
      ],
      "name": "OwnershipTransferred",
      "type": "event"
    },
    {
      "anonymous": false,
      "inputs": [
        {
          "indexed": true,
          "internalType": "address",
          "name": "from",
          "type": "address"
        },
        {
          "indexed": true,
          "internalType": "address",
          "name": "to",
          "type": "address"
        },
        {
          "indexed": true,
          "internalType": "uint256",
          "name": "tokenId",
          "type": "uint256"
        }
      ],
      "name": "Transfer",
      "type": "event"
    },
    {
      "inputs": [
        {
          "internalType": "address",
          "name": "to",
          "type": "address"
        },
        {
          "internalType": "uint256",
          "name": "tokenId",
          "type": "uint256"
        }
      ],
      "name": "approve",
      "outputs": [],
      "stateMutability": "nonpayable",
      "type": "function"
    },
    {
      "inputs": [
        {
          "internalType": "address",
          "name": "owner",
          "type": "address"
        }
      ],
      "name": "balanceOf",
      "outputs": [
        {
          "internalType": "uint256",
          "name": "",
          "type": "uint256"
        }
      ],
      "stateMutability": "view",
      "type": "function"
    },
    {
      "inputs": [],
      "name": "botRegistry",
      "outputs": [
        {
          "internalType": "address",
          "name": "",
          "type": "address"
        }
      ],
      "stateMutability": "view",
      "type": "function"
    },
    {
      "inputs": [
        {
          "internalType": "bytes32",
          "name": "",
          "type": "bytes32"
        }
      ],
      "name": "botToTokenId",
      "outputs": [
        {
          "internalType": "uint256",
          "name": "",
          "type": "uint256"
        }
      ],
      "stateMutability": "view",
      "type": "function"
    },
    {
      "inputs": [
        {
          "internalType": "uint256",
          "name": "tokenId",
          "type": "uint256"
        }
      ],
      "name": "getApproved",
      "outputs": [
        {
          "internalType": "address",
          "name": "",
          "type": "address"
        }
      ],
      "stateMutability": "view",
      "type": "function"
    },
    {
      "inputs": [
        {
          "internalType": "address",
          "name": "_owner",
          "type": "address"
        }
      ],
      "name": "getBotsByOwner",
      "outputs": [
        {
          "internalType": "bytes32[]",
          "name": "",
          "type": "bytes32[]"
        }
      ],
      "stateMutability": "view",
      "type": "function"
    },
    {
      "inputs": [
        {
          "internalType": "address",
          "name": "owner",
          "type": "address"
        },
        {
          "internalType": "address",
          "name": "operator",
          "type": "address"
        }
      ],
      "name": "isApprovedForAll",
      "outputs": [
        {
          "internalType": "bool",
          "name": "",
          "type": "bool"
        }
      ],
      "stateMutability": "view",
      "type": "function"
    },
    {
      "inputs": [
        {
          "internalType": "address",
          "name": "_to",
          "type": "address"
        },
        {
          "internalType": "bytes32",
          "name": "_botId",
          "type": "bytes32"
        },
        {
          "internalType": "string",
          "name": "_botName",
          "type": "string"
        }
      ],
      "name": "mintBotNFT",
      "outputs": [
        {
          "internalType": "uint256",
          "name": "",
          "type": "uint256"
        }
      ],
      "stateMutability": "nonpayable",
      "type": "function"
    },
    {
      "inputs": [],
      "name": "name",
      "outputs": [
        {
          "internalType": "string",
          "name": "",
          "type": "string"
        }
      ],
      "stateMutability": "view",
      "type": "function"
    },
    {
      "inputs": [],
      "name": "owner",
      "outputs": [
        {
          "internalType": "address",
          "name": "",
          "type": "address"
        }
      ],
      "stateMutability": "view",
      "type": "function"
    },
    {
      "inputs": [
        {
          "internalType": "uint256",
          "name": "tokenId",
          "type": "uint256"
        }
      ],
      "name": "ownerOf",
      "outputs": [
        {
          "internalType": "address",
          "name": "",
          "type": "address"
        }
      ],
      "stateMutability": "view",
      "type": "function"
    },
    {
      "inputs": [],
      "name": "renounceOwnership",
      "outputs": [],
      "stateMutability": "nonpayable",
      "type": "function"
    },
    {
      "inputs": [
        {
          "internalType": "address",
          "name": "from",
          "type": "address"
        },
        {
          "internalType": "address",
          "name": "to",
          "type": "address"
        },
        {
          "internalType": "uint256",
          "name": "tokenId",
          "type": "uint256"
        }
      ],
      "name": "safeTransferFrom",
      "outputs": [],
      "stateMutability": "nonpayable",
      "type": "function"
    },
    {
      "inputs": [
        {
          "internalType": "address",
          "name": "from",
          "type": "address"
        },
        {
          "internalType": "address",
          "name": "to",
          "type": "address"
        },
        {
          "internalType": "uint256",
          "name": "tokenId",
          "type": "uint256"
        },
        {
          "internalType": "bytes",
          "name": "data",
          "type": "bytes"
        }
      ],
      "name": "safeTransferFrom",
      "outputs": [],
      "stateMutability": "nonpayable",
      "type": "function"
    },
    {
      "inputs": [
        {
          "internalType": "address",
          "name": "operator",
          "type": "address"
        },
        {
          "internalType": "bool",
          "name": "approved",
          "type": "bool"
        }
      ],
      "name": "setApprovalForAll",
      "outputs": [],
      "stateMutability": "nonpayable",
      "type": "function"
    },
    {
      "inputs": [
        {
          "internalType": "address",
          "name": "_registry",
          "type": "address"
        }
      ],
      "name": "setBotRegistry",
      "outputs": [],
      "stateMutability": "nonpayable",
      "type": "function"
    },
    {
      "inputs": [
        {
          "internalType": "bytes4",
          "name": "interfaceId",
          "type": "bytes4"
        }
      ],
      "name": "supportsInterface",
      "outputs": [
        {
          "internalType": "bool",
          "name": "",
          "type": "bool"
        }
      ],
      "stateMutability": "view",
      "type": "function"
    },
    {
      "inputs": [],
      "name": "symbol",
      "outputs": [
        {
          "internalType": "string",
          "name": "",
          "type": "string"
        }
      ],
      "stateMutability": "view",
      "type": "function"
    },
    {
      "inputs": [
        {
          "internalType": "uint256",
          "name": "index",
          "type": "uint256"
        }
      ],
      "name": "tokenByIndex",
      "outputs": [
        {
          "internalType": "uint256",
          "name": "",
          "type": "uint256"
        }
      ],
      "stateMutability": "view",
      "type": "function"
    },
    {
      "inputs": [
        {
          "internalType": "uint256",
          "name": "",
          "type": "uint256"
        }
      ],
      "name": "tokenIdToBot",
      "outputs": [
        {
          "internalType": "bytes32",
          "name": "",
          "type": "bytes32"
        }
      ],
      "stateMutability": "view",
      "type": "function"
    },
    {
      "inputs": [
        {
          "internalType": "address",
          "name": "owner",
          "type": "address"
        },
        {
          "internalType": "uint256",
          "name": "index",
          "type": "uint256"
        }
      ],
      "name": "tokenOfOwnerByIndex",
      "outputs": [
        {
          "internalType": "uint256",
          "name": "",
          "type": "uint256"
        }
      ],
      "stateMutability": "view",
      "type": "function"
    },
    {
      "inputs": [
        {
          "internalType": "uint256",
          "name": "tokenId",
          "type": "uint256"
        }
      ],
      "name": "tokenURI",
      "outputs": [
        {
          "internalType": "string",
          "name": "",
          "type": "string"
        }
      ],
      "stateMutability": "view",
      "type": "function"
    },
    {
      "inputs": [],
      "name": "totalSupply",
      "outputs": [
        {
          "internalType": "uint256",
          "name": "",
          "type": "uint256"
        }
      ],
      "stateMutability": "view",
      "type": "function"
    },
    {
      "inputs": [
        {
          "internalType": "address",
          "name": "from",
          "type": "address"
        },
        {
          "internalType": "address",
          "name": "to",
          "type": "address"
        },
        {
          "internalType": "uint256",
          "name": "tokenId",
          "type": "uint256"
        }
      ],
      "name": "transferFrom",
      "outputs": [],
      "stateMutability": "nonpayable",
      "type": "function"
    },
    {
      "inputs": [
        {
          "internalType": "address",
          "name": "newOwner",
          "type": "address"
        }
      ],
      "name": "transferOwnership",
      "outputs": [],
      "stateMutability": "nonpayable",
      "type": "function"
    }
  ],
  "bytecode": "0x60806040523480156200001157600080fd5b50336040518060400160405280600881526020017f536e616b65426f740000000000000000000000000000000000000000000000008152506040518060400160405280600581526020017f534e414b45000000000000000000000000000000000000000000000000000000815250816000908162000090919062000472565b508060019081620000a2919062000472565b505050600073ffffffffffffffffffffffffffffffffffffffff168173ffffffffffffffffffffffffffffffffffffffff16036200011a5760006040517f1e4fbdf70000000000000000000000000000000000000000000000000000000081526004016200011191906200059e565b60405180910390fd5b6200012b816200013260201b60201c565b50620005bb565b6000600a60009054906101000a900473ffffffffffffffffffffffffffffffffffffffff16905081600a60006101000a81548173ffffffffffffffffffffffffffffffffffffffff021916908373ffffffffffffffffffffffffffffffffffffffff1602179055508173ffffffffffffffffffffffffffffffffffffffff168173ffffffffffffffffffffffffffffffffffffffff167f8be0079c531659141344cd1fd0a4f28419497f9722a3daafe3b4186f6b6457e060405160405180910390a35050565b600081519050919050565b7f4e487b7100000000000000000000000000000000000000000000000000000000600052604160045260246000fd5b7f4e487b7100000000000000000000000000000000000000000000000000000000600052602260045260246000fd5b600060028204905060018216806200027a57607f821691505b60208210810362000290576200028f62000232565b5b50919050565b60008190508160005260206000209050919050565b60006020601f8301049050919050565b600082821b905092915050565b600060088302620002fa7fffffffffffffffffffffffffffffffffffffffffffffffffffffffffffffffff82620002bb565b620003068683620002bb565b95508019841693508086168417925050509392505050565b6000819050919050565b6000819050919050565b6000620003536200034d62000347846200031e565b62000328565b6200031e565b9050919050565b6000819050919050565b6200036f8362000332565b620003876200037e826200035a565b848454620002c8565b825550505050565b600090565b6200039e6200038f565b620003ab81848462000364565b505050565b5b81811015620003d357620003c760008262000394565b600181019050620003b1565b5050565b601f8211156200042257620003ec8162000296565b620003f784620002ab565b8101602085101562000407578190505b6200041f6200041685620002ab565b830182620003b0565b50505b505050565b600082821c905092915050565b6000620004476000198460080262000427565b1980831691505092915050565b600062000462838362000434565b9150826002028217905092915050565b6200047d82620001f8565b67ffffffffffffffff81111562000499576200049862000203565b5b620004a5825462000261565b620004b2828285620003d7565b600060209050601f831160018114620004ea5760008415620004d5578287015190505b620004e1858262000454565b86555062000551565b601f198416620004fa8662000296565b60005b828110156200052457848901518255600182019150602085019450602081019050620004fd565b8683101562000544578489015162000540601f89168262000434565b8355505b6001600288020188555050505b505050505050565b600073ffffffffffffffffffffffffffffffffffffffff82169050919050565b6000620005868262000559565b9050919050565b620005988162000579565b82525050565b6000602082019050620005b560008301846200058d565b92915050565b6135d680620005cb6000396000f3fe608060405234801561001057600080fd5b50600436106101735760003560e01c8063715018a6116100de578063c73449e711610097578063e504448f11610071578063e504448f14610482578063e985e9c5146104b2578063f2fde38b146104e2578063ffb91e0a146104fe57610173565b8063c73449e7146103f2578063c87b56dd14610422578063d420ad261461045257610173565b8063715018a6146103445780638d9845da1461034e5780638da5cb5b1461037e57806395d89b411461039c578063a22cb465146103ba578063b88d4fde146103d657610173565b806323b872dd1161013057806323b872dd1461024c5780632f745c591461026857806342842e0e146102985780634f6ccce7146102b45780636352211e146102e457806370a082311461031457610173565b806301ffc9a71461017857806306fdde03146101a8578063081812fc146101c6578063095ea7b3146101f657806318160ddd1461021257806319039bc514610230575b600080fd5b610192600480360381019061018d919061256f565b61051c565b60405161019f91906125b7565b60405180910390f35b6101b0610596565b6040516101bd9190612662565b60405180910390f35b6101e060048036038101906101db91906126ba565b610628565b6040516101ed9190612728565b60405180910390f35b610210600480360381019061020b919061276f565b610644565b005b61021a61065a565b60405161022791906127be565b60405180910390f35b61024a600480360381019061024591906127d9565b610667565b005b61026660048036038101906102619190612806565b6106b3565b005b610282600480360381019061027d919061276f565b6107b5565b60405161028f91906127be565b60405180910390f35b6102b260048036038101906102ad9190612806565b61085e565b005b6102ce60048036038101906102c991906126ba565b61087e565b6040516102db91906127be565b60405180910390f35b6102fe60048036038101906102f991906126ba565b6108f4565b60405161030b9190612728565b60405180910390f35b61032e600480360381019061032991906127d9565b610906565b60405161033b91906127be565b60405180910390f35b61034c6109c0565b005b610368600480360381019061036391906128f4565b6109d4565b60405161037591906127be565b60405180910390f35b610386610b66565b6040516103939190612728565b60405180910390f35b6103a4610b90565b6040516103b19190612662565b60405180910390f35b6103d460048036038101906103cf9190612994565b610c22565b005b6103f060048036038101906103eb9190612b04565b610c38565b005b61040c600480360381019061040791906127d9565b610c5d565b6040516104199190612c45565b60405180910390f35b61043c600480360381019061043791906126ba565b610d1e565b6040516104499190612662565b60405180910390f35b61046c60048036038101906104679190612c67565b610daf565b60405161047991906127be565b60405180910390f35b61049c600480360381019061049791906126ba565b610dc7565b6040516104a99190612ca3565b60405180910390f35b6104cc60048036038101906104c79190612cbe565b610ddf565b6040516104d991906125b7565b60405180910390f35b6104fc60048036038101906104f791906127d9565b610e73565b005b610506610ef9565b6040516105139190612728565b60405180910390f35b60007f780e9d63000000000000000000000000000000000000000000000000000000007bffffffffffffffffffffffffffffffffffffffffffffffffffffffff1916827bffffffffffffffffffffffffffffffffffffffffffffffffffffffff1916148061058f575061058e82610f1f565b5b9050919050565b6060600080546105a590612d2d565b80601f01602080910402602001604051908101604052809291908181526020018280546105d190612d2d565b801561061e5780601f106105f35761010080835404028352916020019161061e565b820191906000526020600020905b81548152906001019060200180831161060157829003601f168201915b5050505050905090565b600061063382611001565b5061063d82611089565b9050919050565b61065682826106516110c6565b6110ce565b5050565b6000600880549050905090565b61066f6110e0565b80600c60006101000a81548173ffffffffffffffffffffffffffffffffffffffff021916908373ffffffffffffffffffffffffffffffffffffffff16021790555050565b600073ffffffffffffffffffffffffffffffffffffffff168273ffffffffffffffffffffffffffffffffffffffff16036107255760006040517f64a0ae9200000000000000000000000000000000000000000000000000000000815260040161071c9190612728565b60405180910390fd5b600061073983836107346110c6565b611167565b90508373ffffffffffffffffffffffffffffffffffffffff168173ffffffffffffffffffffffffffffffffffffffff16146107af578382826040517f64283d7b0000000000000000000000000000000000000000000000000000000081526004016107a693929190612d5e565b60405180910390fd5b50505050565b60006107c083610906565b82106108055782826040517fa57d13dc0000000000000000000000000000000000000000000000000000000081526004016107fc929190612d95565b60405180910390fd5b600660008473ffffffffffffffffffffffffffffffffffffffff1673ffffffffffffffffffffffffffffffffffffffff168152602001908152602001600020600083815260200190815260200160002054905092915050565b61087983838360405180602001604052806000815250610c38565b505050565b600061088861065a565b82106108ce576000826040517fa57d13dc0000000000000000000000000000000000000000000000000000000081526004016108c5929190612d95565b60405180910390fd5b600882815481106108e2576108e1612dbe565b5b90600052602060002001549050919050565b60006108ff82611001565b9050919050565b60008073ffffffffffffffffffffffffffffffffffffffff168273ffffffffffffffffffffffffffffffffffffffff16036109795760006040517f89c62b640000000000000000000000000000000000000000000000000000000081526004016109709190612728565b60405180910390fd5b600360008373ffffffffffffffffffffffffffffffffffffffff1673ffffffffffffffffffffffffffffffffffffffff168152602001908152602001600020549050919050565b6109c86110e0565b6109d26000611284565b565b6000600c60009054906101000a900473ffffffffffffffffffffffffffffffffffffffff1673ffffffffffffffffffffffffffffffffffffffff163373ffffffffffffffffffffffffffffffffffffffff1614610a66576040517f08c379a0000000000000000000000000000000000000000000000000000000008152600401610a5d90612e39565b60405180910390fd5b6000600d60008681526020019081526020016000205414610abc576040517f08c379a0000000000000000000000000000000000000000000000000000000008152600401610ab390612ea5565b60405180910390fd5b600b6000815480929190610acf90612ef4565b91905055506000600b549050610ae5868261134a565b80600d60008781526020019081526020016000208190555084600e6000838152602001908152602001600020819055508573ffffffffffffffffffffffffffffffffffffffff1685827f1df34dc02702df778bf3dfb7df37d86b845160220cb0ecd088c523c887f1161460405160405180910390a480915050949350505050565b6000600a60009054906101000a900473ffffffffffffffffffffffffffffffffffffffff16905090565b606060018054610b9f90612d2d565b80601f0160208091040260200160405190810160405280929190818152602001828054610bcb90612d2d565b8015610c185780601f10610bed57610100808354040283529160200191610c18565b820191906000526020600020905b815481529060010190602001808311610bfb57829003601f168201915b5050505050905090565b610c34610c2d6110c6565b8383611368565b5050565b610c438484846106b3565b610c57610c4e6110c6565b858585856114d7565b50505050565b60606000610c6a83610906565b905060008167ffffffffffffffff811115610c8857610c876129d9565b5b604051908082528060200260200182016040528015610cb65781602001602082028036833780820191505090505b50905060005b82811015610d13576000610cd086836107b5565b9050600e600082815260200190815260200160002054838381518110610cf957610cf8612dbe565b5b602002602001018181525050508080600101915050610cbc565b508092505050919050565b6060610d2982611001565b506000600e60008481526020019081526020016000205490506000610d4d82611688565b90506000610d5a85611851565b82604051602001610d6c929190613140565b6040516020818303038152906040529050610d86816119b0565b604051602001610d9691906131e7565b6040516020818303038152906040529350505050919050565b600d6020528060005260406000206000915090505481565b600e6020528060005260406000206000915090505481565b6000600560008473ffffffffffffffffffffffffffffffffffffffff1673ffffffffffffffffffffffffffffffffffffffff16815260200190815260200160002060008373ffffffffffffffffffffffffffffffffffffffff1673ffffffffffffffffffffffffffffffffffffffff16815260200190815260200160002060009054906101000a900460ff16905092915050565b610e7b6110e0565b600073ffffffffffffffffffffffffffffffffffffffff168173ffffffffffffffffffffffffffffffffffffffff1603610eed5760006040517f1e4fbdf7000000000000000000000000000000000000000000000000000000008152600401610ee49190612728565b60405180910390fd5b610ef681611284565b50565b600c60009054906101000a900473ffffffffffffffffffffffffffffffffffffffff1681565b60007f80ac58cd000000000000000000000000000000000000000000000000000000007bffffffffffffffffffffffffffffffffffffffffffffffffffffffff1916827bffffffffffffffffffffffffffffffffffffffffffffffffffffffff19161480610fea57507f5b5e139f000000000000000000000000000000000000000000000000000000007bffffffffffffffffffffffffffffffffffffffffffffffffffffffff1916827bffffffffffffffffffffffffffffffffffffffffffffffffffffffff1916145b80610ffa5750610ff982611b4b565b5b9050919050565b60008061100d83611bb5565b9050600073ffffffffffffffffffffffffffffffffffffffff168173ffffffffffffffffffffffffffffffffffffffff160361108057826040517f7e27328900000000000000000000000000000000000000000000000000000000815260040161107791906127be565b60405180910390fd5b80915050919050565b60006004600083815260200190815260200160002060009054906101000a900473ffffffffffffffffffffffffffffffffffffffff169050919050565b600033905090565b6110db8383836001611bf2565b505050565b6110e86110c6565b73ffffffffffffffffffffffffffffffffffffffff16611106610b66565b73ffffffffffffffffffffffffffffffffffffffff1614611165576111296110c6565b6040517f118cdaa700000000000000000000000000000000000000000000000000000000815260040161115c9190612728565b60405180910390fd5b565b600080611175858585611db7565b9050600073ffffffffffffffffffffffffffffffffffffffff168173ffffffffffffffffffffffffffffffffffffffff16036111b9576111b484611fd1565b6111f8565b8473ffffffffffffffffffffffffffffffffffffffff168173ffffffffffffffffffffffffffffffffffffffff16146111f7576111f6818561201a565b5b5b600073ffffffffffffffffffffffffffffffffffffffff168573ffffffffffffffffffffffffffffffffffffffff160361123a5761123584612105565b611279565b8473ffffffffffffffffffffffffffffffffffffffff168173ffffffffffffffffffffffffffffffffffffffff16146112785761127785856121d6565b5b5b809150509392505050565b6000600a60009054906101000a900473ffffffffffffffffffffffffffffffffffffffff16905081600a60006101000a81548173ffffffffffffffffffffffffffffffffffffffff021916908373ffffffffffffffffffffffffffffffffffffffff1602179055508173ffffffffffffffffffffffffffffffffffffffff168173ffffffffffffffffffffffffffffffffffffffff167f8be0079c531659141344cd1fd0a4f28419497f9722a3daafe3b4186f6b6457e060405160405180910390a35050565b611364828260405180602001604052806000815250612261565b5050565b600073ffffffffffffffffffffffffffffffffffffffff168273ffffffffffffffffffffffffffffffffffffffff16036113d957816040517f5b08ba180000000000000000000000000000000000000000000000000000000081526004016113d09190612728565b60405180910390fd5b80600560008573ffffffffffffffffffffffffffffffffffffffff1673ffffffffffffffffffffffffffffffffffffffff16815260200190815260200160002060008473ffffffffffffffffffffffffffffffffffffffff1673ffffffffffffffffffffffffffffffffffffffff16815260200190815260200160002060006101000a81548160ff0219169083151502179055508173ffffffffffffffffffffffffffffffffffffffff168373ffffffffffffffffffffffffffffffffffffffff167f17307eab39ab6107e8899845ad3d59bd9653f200f220920489ca2b5937696c31836040516114ca91906125b7565b60405180910390a3505050565b60008373ffffffffffffffffffffffffffffffffffffffff163b1115611681578273ffffffffffffffffffffffffffffffffffffffff1663150b7a02868685856040518563ffffffff1660e01b8152600401611536949392919061325e565b6020604051808303816000875af192505050801561157257506040513d601f19601f8201168201806040525081019061156f91906132bf565b60015b6115f6573d80600081146115a2576040519150601f19603f3d011682016040523d82523d6000602084013e6115a7565b606091505b5060008151036115ee57836040517f64a0ae920000000000000000000000000000000000000000000000000000000081526004016115e59190612728565b60405180910390fd5b805160208201fd5b63150b7a0260e01b7bffffffffffffffffffffffffffffffffffffffffffffffffffffffff1916817bffffffffffffffffffffffffffffffffffffffffffffffffffffffff19161461167f57836040517f64a0ae920000000000000000000000000000000000000000000000000000000081526004016116769190612728565b60405180910390fd5b505b5050505050565b60606000604067ffffffffffffffff8111156116a7576116a66129d9565b5b6040519080825280601f01601f1916602001820160405280156116d95781602001600182028036833780820191505090505b50905060005b60208160ff1610156118475760006008826116fa91906132f9565b60ff1685901b60f81c905060006010826117149190613365565b905060006010836117259190613396565b9050600a8260ff16106117475760578261173f91906133c7565b60f81b611758565b60308261175491906133c7565b60f81b5b8560028661176691906132f9565b60ff168151811061177a57611779612dbe565b5b60200101907effffffffffffffffffffffffffffffffffffffffffffffffffffffffffffff1916908160001a905350600a8160ff16106117c9576057816117c191906133c7565b60f81b6117da565b6030816117d691906133c7565b60f81b5b8560016002876117ea91906132f9565b6117f491906133c7565b60ff168151811061180857611807612dbe565b5b60200101907effffffffffffffffffffffffffffffffffffffffffffffffffffffffffffff1916908160001a90535050505080806001019150506116df565b5080915050919050565b606060008203611898576040518060400160405280600181526020017f300000000000000000000000000000000000000000000000000000000000000081525090506119ab565b600082905060005b600082146118ca5780806118b390612ef4565b915050600a826118c391906133fc565b91506118a0565b60008167ffffffffffffffff8111156118e6576118e56129d9565b5b6040519080825280601f01601f1916602001820160405280156119185781602001600182028036833780820191505090505b5090505b600085146119a457818061192f9061342d565b925050600a8561193f9190613456565b603061194b9190613487565b60f81b81838151811061196157611960612dbe565b5b60200101907effffffffffffffffffffffffffffffffffffffffffffffffffffffffffffff1916908160001a905350600a8561199d91906133fc565b945061191c565b8093505050505b919050565b60606000604051806060016040528060408152602001613561604091399050600083519050600081036119f6576040518060200160405280600081525092505050611b46565b60006003600283611a079190613487565b611a1191906133fc565b6004611a1d91906134bb565b90506000602082611a2e9190613487565b67ffffffffffffffff811115611a4757611a466129d9565b5b6040519080825280601f01601f191660200182016040528015611a795781602001600182028036833780820191505090505b5090506000849050600181016020830160005b86811015611b055762ffffff818b015116603f8160121c168401518060081b905060ff603f83600c1c1686015116810190508060081b905060ff603f8360061c1686015116810190508060081b905060ff603f831686015116810190508060e01b90508084526004840193505050600381019050611a8c565b506003860660018114611b1f5760028114611b2f57611b3a565b613d3d60f01b6002830352611b3a565b603d60f81b60018303525b50505081955050505050505b919050565b60007f01ffc9a7000000000000000000000000000000000000000000000000000000007bffffffffffffffffffffffffffffffffffffffffffffffffffffffff1916827bffffffffffffffffffffffffffffffffffffffffffffffffffffffff1916149050919050565b60006002600083815260200190815260200160002060009054906101000a900473ffffffffffffffffffffffffffffffffffffffff169050919050565b8080611c2b5750600073ffffffffffffffffffffffffffffffffffffffff168273ffffffffffffffffffffffffffffffffffffffff1614155b15611d5f576000611c3b84611001565b9050600073ffffffffffffffffffffffffffffffffffffffff168373ffffffffffffffffffffffffffffffffffffffff1614158015611ca657508273ffffffffffffffffffffffffffffffffffffffff168173ffffffffffffffffffffffffffffffffffffffff1614155b8015611cb95750611cb78184610ddf565b155b15611cfb57826040517fa9fbf51f000000000000000000000000000000000000000000000000000000008152600401611cf29190612728565b60405180910390fd5b8115611d5d57838573ffffffffffffffffffffffffffffffffffffffff168273ffffffffffffffffffffffffffffffffffffffff167f8c5be1e5ebec7d5bd14f71427d1e84f3dd0314c0f7b2291e5b200ac8c7c3b92560405160405180910390a45b505b836004600085815260200190815260200160002060006101000a81548173ffffffffffffffffffffffffffffffffffffffff021916908373ffffffffffffffffffffffffffffffffffffffff16021790555050505050565b600080611dc384611bb5565b9050600073ffffffffffffffffffffffffffffffffffffffff168373ffffffffffffffffffffffffffffffffffffffff1614611e0557611e04818486612285565b5b600073ffffffffffffffffffffffffffffffffffffffff168173ffffffffffffffffffffffffffffffffffffffff1614611e9657611e47600085600080611bf2565b6001600360008373ffffffffffffffffffffffffffffffffffffffff1673ffffffffffffffffffffffffffffffffffffffff168152602001908152602001600020600082825403925050819055505b600073ffffffffffffffffffffffffffffffffffffffff168573ffffffffffffffffffffffffffffffffffffffff1614611f19576001600360008773ffffffffffffffffffffffffffffffffffffffff1673ffffffffffffffffffffffffffffffffffffffff168152602001908152602001600020600082825401925050819055505b846002600086815260200190815260200160002060006101000a81548173ffffffffffffffffffffffffffffffffffffffff021916908373ffffffffffffffffffffffffffffffffffffffff160217905550838573ffffffffffffffffffffffffffffffffffffffff168273ffffffffffffffffffffffffffffffffffffffff167fddf252ad1be2c89b69c2b068fc378daa952ba7f163c4a11628f55a4df523b3ef60405160405180910390a4809150509392505050565b6008805490506009600083815260200190815260200160002081905550600881908060018154018082558091505060019003906000526020600020016000909190919091505550565b600061202583610906565b90506000600760008481526020019081526020016000205490506000600660008673ffffffffffffffffffffffffffffffffffffffff1673ffffffffffffffffffffffffffffffffffffffff16815260200190815260200160002090508282146120d15760008160008581526020019081526020016000205490508082600085815260200190815260200160002081905550826007600083815260200190815260200160002081905550505b6007600085815260200190815260200160002060009055806000848152602001908152602001600020600090555050505050565b6000600160088054905061211991906134fd565b905060006009600084815260200190815260200160002054905060006008838154811061214957612148612dbe565b5b90600052602060002001549050806008838154811061216b5761216a612dbe565b5b9060005260206000200181905550816009600083815260200190815260200160002081905550600960008581526020019081526020016000206000905560088054806121ba576121b9613531565b5b6001900381819060005260206000200160009055905550505050565b600060016121e384610906565b6121ed91906134fd565b905081600660008573ffffffffffffffffffffffffffffffffffffffff1673ffffffffffffffffffffffffffffffffffffffff168152602001908152602001600020600083815260200190815260200160002081905550806007600084815260200190815260200160002081905550505050565b61226b8383612349565b6122806122766110c6565b60008585856114d7565b505050565b612290838383612442565b61234457600073ffffffffffffffffffffffffffffffffffffffff168373ffffffffffffffffffffffffffffffffffffffff160361230557806040517f7e2732890000000000000000000000000000000000000000000000000000000081526004016122fc91906127be565b60405180910390fd5b81816040517f177e802f00000000000000000000000000000000000000000000000000000000815260040161233b929190612d95565b60405180910390fd5b505050565b600073ffffffffffffffffffffffffffffffffffffffff168273ffffffffffffffffffffffffffffffffffffffff16036123bb5760006040517f64a0ae920000000000000000000000000000000000000000000000000000000081526004016123b29190612728565b60405180910390fd5b60006123c983836000611167565b9050600073ffffffffffffffffffffffffffffffffffffffff168173ffffffffffffffffffffffffffffffffffffffff161461243d5760006040517f73c6ac6e0000000000000000000000000000000000000000000000000000000081526004016124349190612728565b60405180910390fd5b505050565b60008073ffffffffffffffffffffffffffffffffffffffff168373ffffffffffffffffffffffffffffffffffffffff16141580156124fa57508273ffffffffffffffffffffffffffffffffffffffff168473ffffffffffffffffffffffffffffffffffffffff1614806124bb57506124ba8484610ddf565b5b806124f957508273ffffffffffffffffffffffffffffffffffffffff166124e183611089565b73ffffffffffffffffffffffffffffffffffffffff16145b5b90509392505050565b6000604051905090565b600080fd5b600080fd5b60007fffffffff0000000000000000000000000000000000000000000000000000000082169050919050565b61254c81612517565b811461255757600080fd5b50565b60008135905061256981612543565b92915050565b6000602082840312156125855761258461250d565b5b60006125938482850161255a565b91505092915050565b60008115159050919050565b6125b18161259c565b82525050565b60006020820190506125cc60008301846125a8565b92915050565b600081519050919050565b600082825260208201905092915050565b60005b8381101561260c5780820151818401526020810190506125f1565b60008484015250505050565b6000601f19601f8301169050919050565b6000612634826125d2565b61263e81856125dd565b935061264e8185602086016125ee565b61265781612618565b840191505092915050565b6000602082019050818103600083015261267c8184612629565b905092915050565b6000819050919050565b61269781612684565b81146126a257600080fd5b50565b6000813590506126b48161268e565b92915050565b6000602082840312156126d0576126cf61250d565b5b60006126de848285016126a5565b91505092915050565b600073ffffffffffffffffffffffffffffffffffffffff82169050919050565b6000612712826126e7565b9050919050565b61272281612707565b82525050565b600060208201905061273d6000830184612719565b92915050565b61274c81612707565b811461275757600080fd5b50565b60008135905061276981612743565b92915050565b600080604083850312156127865761278561250d565b5b60006127948582860161275a565b92505060206127a5858286016126a5565b9150509250929050565b6127b881612684565b82525050565b60006020820190506127d360008301846127af565b92915050565b6000602082840312156127ef576127ee61250d565b5b60006127fd8482850161275a565b91505092915050565b60008060006060848603121561281f5761281e61250d565b5b600061282d8682870161275a565b935050602061283e8682870161275a565b925050604061284f868287016126a5565b9150509250925092565b6000819050919050565b61286c81612859565b811461287757600080fd5b50565b60008135905061288981612863565b92915050565b600080fd5b600080fd5b600080fd5b60008083601f8401126128b4576128b361288f565b5b8235905067ffffffffffffffff8111156128d1576128d0612894565b5b6020830191508360018202830111156128ed576128ec612899565b5b9250929050565b6000806000806060858703121561290e5761290d61250d565b5b600061291c8782880161275a565b945050602061292d8782880161287a565b935050604085013567ffffffffffffffff81111561294e5761294d612512565b5b61295a8782880161289e565b925092505092959194509250565b6129718161259c565b811461297c57600080fd5b50565b60008135905061298e81612968565b92915050565b600080604083850312156129ab576129aa61250d565b5b60006129b98582860161275a565b92505060206129ca8582860161297f565b9150509250929050565b600080fd5b7f4e487b7100000000000000000000000000000000000000000000000000000000600052604160045260246000fd5b612a1182612618565b810181811067ffffffffffffffff82111715612a3057612a2f6129d9565b5b80604052505050565b6000612a43612503565b9050612a4f8282612a08565b919050565b600067ffffffffffffffff821115612a6f57612a6e6129d9565b5b612a7882612618565b9050602081019050919050565b82818337600083830152505050565b6000612aa7612aa284612a54565b612a39565b905082815260208101848484011115612ac357612ac26129d4565b5b612ace848285612a85565b509392505050565b600082601f830112612aeb57612aea61288f565b5b8135612afb848260208601612a94565b91505092915050565b60008060008060808587031215612b1e57612b1d61250d565b5b6000612b2c8782880161275a565b9450506020612b3d8782880161275a565b9350506040612b4e878288016126a5565b925050606085013567ffffffffffffffff811115612b6f57612b6e612512565b5b612b7b87828801612ad6565b91505092959194509250565b600081519050919050565b600082825260208201905092915050565b6000819050602082019050919050565b612bbc81612859565b82525050565b6000612bce8383612bb3565b60208301905092915050565b6000602082019050919050565b6000612bf282612b87565b612bfc8185612b92565b9350612c0783612ba3565b8060005b83811015612c38578151612c1f8882612bc2565b9750612c2a83612bda565b925050600181019050612c0b565b5085935050505092915050565b60006020820190508181036000830152612c5f8184612be7565b905092915050565b600060208284031215612c7d57612c7c61250d565b5b6000612c8b8482850161287a565b91505092915050565b612c9d81612859565b82525050565b6000602082019050612cb86000830184612c94565b92915050565b60008060408385031215612cd557612cd461250d565b5b6000612ce38582860161275a565b9250506020612cf48582860161275a565b9150509250929050565b7f4e487b7100000000000000000000000000000000000000000000000000000000600052602260045260246000fd5b60006002820490506001821680612d4557607f821691505b602082108103612d5857612d57612cfe565b5b50919050565b6000606082019050612d736000830186612719565b612d8060208301856127af565b612d8d6040830184612719565b949350505050565b6000604082019050612daa6000830185612719565b612db760208301846127af565b9392505050565b7f4e487b7100000000000000000000000000000000000000000000000000000000600052603260045260246000fd5b7f4f6e6c7920426f74526567697374727900000000000000000000000000000000600082015250565b6000612e236010836125dd565b9150612e2e82612ded565b602082019050919050565b60006020820190508181036000830152612e5281612e16565b9050919050565b7f426f7420616c726561647920686173204e465400000000000000000000000000600082015250565b6000612e8f6013836125dd565b9150612e9a82612e59565b602082019050919050565b60006020820190508181036000830152612ebe81612e82565b9050919050565b7f4e487b7100000000000000000000000000000000000000000000000000000000600052601160045260246000fd5b6000612eff82612684565b91507fffffffffffffffffffffffffffffffffffffffffffffffffffffffffffffffff8203612f3157612f30612ec5565b5b600182019050919050565b600081905092915050565b7f7b226e616d65223a22536e616b65426f74202300000000000000000000000000600082015250565b6000612f7d601383612f3c565b9150612f8882612f47565b601382019050919050565b6000612f9e826125d2565b612fa88185612f3c565b9350612fb88185602086016125ee565b80840191505092915050565b7f222c000000000000000000000000000000000000000000000000000000000000600082015250565b6000612ffa600283612f3c565b915061300582612fc4565b600282019050919050565b7f226465736372697074696f6e223a224120626174746c652d726561647920736e60008201527f616b6520626f74206f6e20536e616b65204172656e61222c0000000000000000602082015250565b600061306c603883612f3c565b915061307782613010565b603882019050919050565b7f2261747472696275746573223a5b7b2274726169745f74797065223a22426f7460008201527f204944222c2276616c7565223a22000000000000000000000000000000000000602082015250565b60006130de602e83612f3c565b91506130e982613082565b602e82019050919050565b7f227d5d7d00000000000000000000000000000000000000000000000000000000600082015250565b600061312a600483612f3c565b9150613135826130f4565b600482019050919050565b600061314b82612f70565b91506131578285612f93565b915061316282612fed565b915061316d8261305f565b9150613178826130d1565b91506131848284612f93565b915061318f8261311d565b91508190509392505050565b7f646174613a6170706c69636174696f6e2f6a736f6e3b6261736536342c000000600082015250565b60006131d1601d83612f3c565b91506131dc8261319b565b601d82019050919050565b60006131f2826131c4565b91506131fe8284612f93565b915081905092915050565b600081519050919050565b600082825260208201905092915050565b600061323082613209565b61323a8185613214565b935061324a8185602086016125ee565b61325381612618565b840191505092915050565b60006080820190506132736000830187612719565b6132806020830186612719565b61328d60408301856127af565b818103606083015261329f8184613225565b905095945050505050565b6000815190506132b981612543565b92915050565b6000602082840312156132d5576132d461250d565b5b60006132e3848285016132aa565b91505092915050565b600060ff82169050919050565b6000613304826132ec565b915061330f836132ec565b925082820261331d816132ec565b915080821461332f5761332e612ec5565b5b5092915050565b7f4e487b7100000000000000000000000000000000000000000000000000000000600052601260045260246000fd5b6000613370826132ec565b915061337b836132ec565b92508261338b5761338a613336565b5b828204905092915050565b60006133a1826132ec565b91506133ac836132ec565b9250826133bc576133bb613336565b5b828206905092915050565b60006133d2826132ec565b91506133dd836132ec565b9250828201905060ff8111156133f6576133f5612ec5565b5b92915050565b600061340782612684565b915061341283612684565b92508261342257613421613336565b5b828204905092915050565b600061343882612684565b91506000820361344b5761344a612ec5565b5b600182039050919050565b600061346182612684565b915061346c83612684565b92508261347c5761347b613336565b5b828206905092915050565b600061349282612684565b915061349d83612684565b92508282019050808211156134b5576134b4612ec5565b5b92915050565b60006134c682612684565b91506134d183612684565b92508282026134df81612684565b915082820484148315176134f6576134f5612ec5565b5b5092915050565b600061350882612684565b915061351383612684565b925082820390508181111561352b5761352a612ec5565b5b92915050565b7f4e487b7100000000000000000000000000000000000000000000000000000000600052603160045260246000fdfe4142434445464748494a4b4c4d4e4f505152535455565758595a6162636465666768696a6b6c6d6e6f707172737475767778797a303132333435363738392b2fa2646970667358221220d7ff78bab8bcc681ffdeb7ccc36b18bfbc6b9a0a44d487de88df16fb70d7f92164736f6c63430008180033",
  "linkReferences": {},
  "deployedLinkReferences": {}
}