{
  "_format": "hh-sol-artifact-1",
  "contractName": "SnakeBotNFT",
  "sourceName": "contracts/SnakeBotNFT.sol",
  "abi": [
    {
      "inputs": [],
      "stateMutability": "nonpayable",
      "type": "constructor"
    },
    {
      "inputs": [],
      "name": "ERC721EnumerableForbiddenBatchMint",
      "type": "error"
    },
    {
      "inputs": [
        {
          "internalType": "address",
          "name": "sender",
          "type": "address"
        },
        {
          "internalType": "uint256",
          "name": "tokenId",
          "type": "uint256"
        },
        {
          "internalType": "address",
          "name": "owner",
          "type": "address"
        }
      ],
      "name": "ERC721IncorrectOwner",
      "type": "error"
    },
    {
      "inputs": [
        {
          "internalType": "address",
          "name": "operator",
          "type": "address"
        },
        {
          "internalType": "uint256",
          "name": "tokenId",
          "type": "uint256"
        }
      ],
      "name": "ERC721InsufficientApproval",
      "type": "error"
    },
    {
      "inputs": [
        {
          "internalType": "address",
          "name": "approver",
          "type": "address"
        }
      ],
      "name": "ERC721InvalidApprover",
      "type": "error"
    },
    {
      "inputs": [
        {
          "internalType": "address",
          "name": "operator",
          "type": "address"
        }
      ],
      "name": "ERC721InvalidOperator",
      "type": "error"
    },
    {
      "inputs": [
        {
          "internalType": "address",
          "name": "owner",
          "type": "address"
        }
      ],
      "name": "ERC721InvalidOwner",
      "type": "error"
    },
    {
      "inputs": [
        {
          "internalType": "address",
          "name": "receiver",
          "type": "address"
        }
      ],
      "name": "ERC721InvalidReceiver",
      "type": "error"
    },
    {
      "inputs": [
        {
          "internalType": "address",
          "name": "sender",
          "type": "address"
        }
      ],
      "name": "ERC721InvalidSender",
      "type": "error"
    },
    {
      "inputs": [
        {
          "internalType": "uint256",
          "name": "tokenId",
          "type": "uint256"
        }
      ],
      "name": "ERC721NonexistentToken",
      "type": "error"
    },
    {
      "inputs": [
        {
          "internalType": "address",
          "name": "owner",
          "type": "address"
        },
        {
          "internalType": "uint256",
          "name": "index",
          "type": "uint256"
        }
      ],
      "name": "ERC721OutOfBoundsIndex",
      "type": "error"
    },
    {
      "inputs": [
        {
          "internalType": "address",
          "name": "owner",
          "type": "address"
        }
      ],
      "name": "OwnableInvalidOwner",
      "type": "error"
    },
    {
      "inputs": [
        {
          "internalType": "address",
          "name": "account",
          "type": "address"
        }
      ],
      "name": "OwnableUnauthorizedAccount",
      "type": "error"
    },
    {
      "anonymous": false,
      "inputs": [
        {
          "indexed": true,
          "internalType": "address",
          "name": "owner",
          "type": "address"
        },
        {
          "indexed": true,
          "internalType": "address",
          "name": "approved",
          "type": "address"
        },
        {
          "indexed": true,
          "internalType": "uint256",
          "name": "tokenId",
          "type": "uint256"
        }
      ],
      "name": "Approval",
      "type": "event"
    },
    {
      "anonymous": false,
      "inputs": [
        {
          "indexed": true,
          "internalType": "address",
          "name": "owner",
          "type": "address"
        },
        {
          "indexed": true,
          "internalType": "address",
          "name": "operator",
          "type": "address"
        },
        {
          "indexed": false,
          "internalType": "bool",
          "name": "approved",
          "type": "bool"
        }
      ],
      "name": "ApprovalForAll",
      "type": "event"
    },
    {
      "anonymous": false,
      "inputs": [
        {
          "indexed": true,
          "internalType": "uint256",
          "name": "tokenId",
          "type": "uint256"
        },
        {
          "indexed": true,
          "internalType": "bytes32",
          "name": "botId",
          "type": "bytes32"
        },
        {
          "indexed": true,
          "internalType": "address",
          "name": "owner",
          "type": "address"
        }
      ],
      "name": "BotNFTMinted",
      "type": "event"
    },
    {
      "anonymous": false,
      "inputs": [
        {
          "indexed": true,
          "internalType": "address",
          "name": "previousOwner",
          "type": "address"
        },
        {
          "indexed": true,
          "internalType": "address",
          "name": "newOwner",
          "type": "address"
        }
      ],
      "name": "OwnershipTransferred",
      "type": "event"
    },
    {
      "anonymous": false,
      "inputs": [
        {
          "indexed": true,
          "internalType": "address",
          "name": "from",
          "type": "address"
        },
        {
          "indexed": true,
          "internalType": "address",
          "name": "to",
          "type": "address"
        },
        {
          "indexed": true,
          "internalType": "uint256",
          "name": "tokenId",
          "type": "uint256"
        }
      ],
      "name": "Transfer",
      "type": "event"
    },
    {
      "inputs": [
        {
          "internalType": "address",
          "name": "to",
          "type": "address"
        },
        {
          "internalType": "uint256",
          "name": "tokenId",
          "type": "uint256"
        }
      ],
      "name": "approve",
      "outputs": [],
      "stateMutability": "nonpayable",
      "type": "function"
    },
    {
      "inputs": [
        {
          "internalType": "address",
          "name": "owner",
          "type": "address"
        }
      ],
      "name": "balanceOf",
      "outputs": [
        {
          "internalType": "uint256",
          "name": "",
          "type": "uint256"
        }
      ],
      "stateMutability": "view",
      "type": "function"
    },
    {
      "inputs": [],
      "name": "botRegistry",
      "outputs": [
        {
          "internalType": "address",
          "name": "",
          "type": "address"
        }
      ],
      "stateMutability": "view",
      "type": "function"
    },
    {
      "inputs": [
        {
          "internalType": "bytes32",
          "name": "",
          "type": "bytes32"
        }
      ],
      "name": "botToTokenId",
      "outputs": [
        {
          "internalType": "uint256",
          "name": "",
          "type": "uint256"
        }
      ],
      "stateMutability": "view",
      "type": "function"
    },
    {
      "inputs": [
        {
          "internalType": "uint256",
          "name": "tokenId",
          "type": "uint256"
        }
      ],
      "name": "getApproved",
      "outputs": [
        {
          "internalType": "address",
          "name": "",
          "type": "address"
        }
      ],
      "stateMutability": "view",
      "type": "function"
    },
    {
      "inputs": [
        {
          "internalType": "address",
          "name": "_owner",
          "type": "address"
        }
      ],
      "name": "getBotsByOwner",
      "outputs": [
        {
          "internalType": "bytes32[]",
          "name": "",
          "type": "bytes32[]"
        }
      ],
      "stateMutability": "view",
      "type": "function"
    },
    {
      "inputs": [
        {
          "internalType": "address",
          "name": "owner",
          "type": "address"
        },
        {
          "internalType": "address",
          "name": "operator",
          "type": "address"
        }
      ],
      "name": "isApprovedForAll",
      "outputs": [
        {
          "internalType": "bool",
          "name": "",
          "type": "bool"
        }
      ],
      "stateMutability": "view",
      "type": "function"
    },
    {
      "inputs": [
        {
          "internalType": "address",
          "name": "_to",
          "type": "address"
        },
        {
          "internalType": "bytes32",
          "name": "_botId",
          "type": "bytes32"
        },
        {
          "internalType": "string",
          "name": "_botName",
          "type": "string"
        }
      ],
      "name": "mintBotNFT",
      "outputs": [
        {
          "internalType": "uint256",
          "name": "",
          "type": "uint256"
        }
      ],
      "stateMutability": "nonpayable",
      "type": "function"
    },
    {
      "inputs": [],
      "name": "name",
      "outputs": [
        {
          "internalType": "string",
          "name": "",
          "type": "string"
        }
      ],
      "stateMutability": "view",
      "type": "function"
    },
    {
      "inputs": [],
      "name": "owner",
      "outputs": [
        {
          "internalType": "address",
          "name": "",
          "type": "address"
        }
      ],
      "stateMutability": "view",
      "type": "function"
    },
    {
      "inputs": [
        {
          "internalType": "uint256",
          "name": "tokenId",
          "type": "uint256"
        }
      ],
      "name": "ownerOf",
      "outputs": [
        {
          "internalType": "address",
          "name": "",
          "type": "address"
        }
      ],
      "stateMutability": "view",
      "type": "function"
    },
    {
      "inputs": [],
      "name": "renounceOwnership",
      "outputs": [],
      "stateMutability": "nonpayable",
      "type": "function"
    },
    {
      "inputs": [
        {
          "internalType": "address",
          "name": "from",
          "type": "address"
        },
        {
          "internalType": "address",
          "name": "to",
          "type": "address"
        },
        {
          "internalType": "uint256",
          "name": "tokenId",
          "type": "uint256"
        }
      ],
      "name": "safeTransferFrom",
      "outputs": [],
      "stateMutability": "nonpayable",
      "type": "function"
    },
    {
      "inputs": [
        {
          "internalType": "address",
          "name": "from",
          "type": "address"
        },
        {
          "internalType": "address",
          "name": "to",
          "type": "address"
        },
        {
          "internalType": "uint256",
          "name": "tokenId",
          "type": "uint256"
        },
        {
          "internalType": "bytes",
          "name": "data",
          "type": "bytes"
        }
      ],
      "name": "safeTransferFrom",
      "outputs": [],
      "stateMutability": "nonpayable",
      "type": "function"
    },
    {
      "inputs": [
        {
          "internalType": "address",
          "name": "operator",
          "type": "address"
        },
        {
          "internalType": "bool",
          "name": "approved",
          "type": "bool"
        }
      ],
      "name": "setApprovalForAll",
      "outputs": [],
      "stateMutability": "nonpayable",
      "type": "function"
    },
    {
      "inputs": [
        {
          "internalType": "address",
          "name": "_registry",
          "type": "address"
        }
      ],
      "name": "setBotRegistry",
      "outputs": [],
      "stateMutability": "nonpayable",
      "type": "function"
    },
    {
      "inputs": [
        {
          "internalType": "bytes4",
          "name": "interfaceId",
          "type": "bytes4"
        }
      ],
      "name": "supportsInterface",
      "outputs": [
        {
          "internalType": "bool",
          "name": "",
          "type": "bool"
        }
      ],
      "stateMutability": "view",
      "type": "function"
    },
    {
      "inputs": [],
      "name": "symbol",
      "outputs": [
        {
          "internalType": "string",
          "name": "",
          "type": "string"
        }
      ],
      "stateMutability": "view",
      "type": "function"
    },
    {
      "inputs": [
        {
          "internalType": "uint256",
          "name": "index",
          "type": "uint256"
        }
      ],
      "name": "tokenByIndex",
      "outputs": [
        {
          "internalType": "uint256",
          "name": "",
          "type": "uint256"
        }
      ],
      "stateMutability": "view",
      "type": "function"
    },
    {
      "inputs": [
        {
          "internalType": "uint256",
          "name": "",
          "type": "uint256"
        }
      ],
      "name": "tokenIdToBot",
      "outputs": [
        {
          "internalType": "bytes32",
          "name": "",
          "type": "bytes32"
        }
      ],
      "stateMutability": "view",
      "type": "function"
    },
    {
      "inputs": [
        {
          "internalType": "address",
          "name": "owner",
          "type": "address"
        },
        {
          "internalType": "uint256",
          "name": "index",
          "type": "uint256"
        }
      ],
      "name": "tokenOfOwnerByIndex",
      "outputs": [
        {
          "internalType": "uint256",
          "name": "",
          "type": "uint256"
        }
      ],
      "stateMutability": "view",
      "type": "function"
    },
    {
      "inputs": [
        {
          "internalType": "uint256",
          "name": "tokenId",
          "type": "uint256"
        }
      ],
      "name": "tokenURI",
      "outputs": [
        {
          "internalType": "string",
          "name": "",
          "type": "string"
        }
      ],
      "stateMutability": "view",
      "type": "function"
    },
    {
      "inputs": [],
      "name": "totalSupply",
      "outputs": [
        {
          "internalType": "uint256",
          "name": "",
          "type": "uint256"
        }
      ],
      "stateMutability": "view",
      "type": "function"
    },
    {
      "inputs": [
        {
          "internalType": "address",
          "name": "from",
          "type": "address"
        },
        {
          "internalType": "address",
          "name": "to",
          "type": "address"
        },
        {
          "internalType": "uint256",
          "name": "tokenId",
          "type": "uint256"
        }
      ],
      "name": "transferFrom",
      "outputs": [],
      "stateMutability": "nonpayable",
      "type": "function"
    },
    {
      "inputs": [
        {
          "internalType": "address",
          "name": "newOwner",
          "type": "address"
        }
      ],
      "name": "transferOwnership",
      "outputs": [],
      "stateMutability": "nonpayable",
      "type": "function"
    }
  ],
  "bytecode": "0x60806040523480156200001157600080fd5b50336040518060400160405280600881526020017f536e616b65426f740000000000000000000000000000000000000000000000008152506040518060400160405280600581526020017f534e414b45000000000000000000000000000000000000000000000000000000815250816000908162000090919062000472565b508060019081620000a2919062000472565b505050600073ffffffffffffffffffffffffffffffffffffffff168173ffffffffffffffffffffffffffffffffffffffff16036200011a5760006040517f1e4fbdf70000000000000000000000000000000000000000000000000000000081526004016200011191906200059e565b60405180910390fd5b6200012b816200013260201b60201c565b50620005bb565b6000600a60009054906101000a900473ffffffffffffffffffffffffffffffffffffffff16905081600a60006101000a81548173ffffffffffffffffffffffffffffffffffffffff021916908373ffffffffffffffffffffffffffffffffffffffff1602179055508173ffffffffffffffffffffffffffffffffffffffff168173ffffffffffffffffffffffffffffffffffffffff167f8be0079c531659141344cd1fd0a4f28419497f9722a3daafe3b4186f6b6457e060405160405180910390a35050565b600081519050919050565b7f4e487b7100000000000000000000000000000000000000000000000000000000600052604160045260246000fd5b7f4e487b7100000000000000000000000000000000000000000000000000000000600052602260045260246000fd5b600060028204905060018216806200027a57607f821691505b60208210810362000290576200028f62000232565b5b50919050565b60008190508160005260206000209050919050565b60006020601f8301049050919050565b600082821b905092915050565b600060088302620002fa7fffffffffffffffffffffffffffffffffffffffffffffffffffffffffffffffff82620002bb565b620003068683620002bb565b95508019841693508086168417925050509392505050565b6000819050919050565b6000819050919050565b6000620003536200034d62000347846200031e565b62000328565b6200031e565b9050919050565b6000819050919050565b6200036f8362000332565b620003876200037e826200035a565b848454620002c8565b825550505050565b600090565b6200039e6200038f565b620003ab81848462000364565b505050565b5b81811015620003d357620003c760008262000394565b600181019050620003b1565b5050565b601f8211156200042257620003ec8162000296565b620003f784620002ab565b8101602085101562000407578190505b6200041f6200041685620002ab565b830182620003b0565b50505b505050565b600082821c905092915050565b6000620004476000198460080262000427565b1980831691505092915050565b600062000462838362000434565b9150826002028217905092915050565b6200047d82620001f8565b67ffffffffffffffff81111562000499576200049862000203565b5b620004a5825462000261565b620004b2828285620003d7565b600060209050601f831160018114620004ea5760008415620004d5578287015190505b620004e1858262000454565b86555062000551565b601f198416620004fa8662000296565b60005b828110156200052457848901518255600182019150602085019450602081019050620004fd565b8683101562000544578489015162000540601f89168262000434565b8355505b6001600288020188555050505b505050505050565b600073ffffffffffffffffffffffffffffffffffffffff82169050919050565b6000620005868262000559565b9050919050565b620005988162000579565b82525050565b6000602082019050620005b560008301846200058d565b92915050565b61360b80620005cb6000396000f3fe608060405234801561001057600080fd5b50600436106101735760003560e01c8063715018a6116100de578063c73449e711610097578063e504448f11610071578063e504448f14610482578063e985e9c5146104b2578063f2fde38b146104e2578063ffb91e0a146104fe57610173565b8063c73449e7146103f2578063c87b56dd14610422578063d420ad261461045257610173565b8063715018a6146103445780638d9845da1461034e5780638da5cb5b1461037e57806395d89b411461039c578063a22cb465146103ba578063b88d4fde146103d657610173565b806323b872dd1161013057806323b872dd1461024c5780632f745c591461026857806342842e0e146102985780634f6ccce7146102b45780636352211e146102e457806370a082311461031457610173565b806301ffc9a71461017857806306fdde03146101a8578063081812fc146101c6578063095ea7b3146101f657806318160ddd1461021257806319039bc514610230575b600080fd5b610192600480360381019061018d919061257b565b61051c565b60405161019f91906125c3565b60405180910390f35b6101b0610596565b6040516101bd919061266e565b60405180910390f35b6101e060048036038101906101db91906126c6565b610628565b6040516101ed9190612734565b60405180910390f35b610210600480360381019061020b919061277b565b610644565b005b61021a61065a565b60405161022791906127ca565b60405180910390f35b61024a600480360381019061024591906127e5565b610667565b005b61026660048036038101906102619190612812565b6106b3565b005b610282600480360381019061027d919061277b565b6107b5565b60405161028f91906127ca565b60405180910390f35b6102b260048036038101906102ad9190612812565b61085e565b005b6102ce60048036038101906102c991906126c6565b61087e565b6040516102db91906127ca565b60405180910390f35b6102fe60048036038101906102f991906126c6565b6108f4565b60405161030b9190612734565b60405180910390f35b61032e600480360381019061032991906127e5565b610906565b60405161033b91906127ca565b60405180910390f35b61034c6109c0565b005b61036860048036038101906103639190612900565b6109d4565b60405161037591906127ca565b60405180910390f35b610386610b66565b6040516103939190612734565b60405180910390f35b6103a4610b90565b6040516103b1919061266e565b60405180910390f35b6103d460048036038101906103cf91906129a0565b610c22565b005b6103f060048036038101906103eb9190612b10565b610c38565b005b61040c600480360381019061040791906127e5565b610c5d565b6040516104199190612c51565b60405180910390f35b61043c600480360381019061043791906126c6565b610d24565b604051610449919061266e565b60405180910390f35b61046c60048036038101906104679190612c73565b610db5565b60405161047991906127ca565b60405180910390f35b61049c600480360381019061049791906126c6565b610dcd565b6040516104a99190612caf565b60405180910390f35b6104cc60048036038101906104c79190612cca565b610de5565b6040516104d991906125c3565b60405180910390f35b6104fc60048036038101906104f791906127e5565b610e79565b005b610506610eff565b6040516105139190612734565b60405180910390f35b60007f780e9d63000000000000000000000000000000000000000000000000000000007bffffffffffffffffffffffffffffffffffffffffffffffffffffffff1916827bffffffffffffffffffffffffffffffffffffffffffffffffffffffff1916148061058f575061058e82610f25565b5b9050919050565b6060600080546105a590612d39565b80601f01602080910402602001604051908101604052809291908181526020018280546105d190612d39565b801561061e5780601f106105f35761010080835404028352916020019161061e565b820191906000526020600020905b81548152906001019060200180831161060157829003601f168201915b5050505050905090565b600061063382611007565b5061063d8261108f565b9050919050565b61065682826106516110cc565b6110d4565b5050565b6000600880549050905090565b61066f6110e6565b80600c60006101000a81548173ffffffffffffffffffffffffffffffffffffffff021916908373ffffffffffffffffffffffffffffffffffffffff16021790555050565b600073ffffffffffffffffffffffffffffffffffffffff168273ffffffffffffffffffffffffffffffffffffffff16036107255760006040517f64a0ae9200000000000000000000000000000000000000000000000000000000815260040161071c9190612734565b60405180910390fd5b600061073983836107346110cc565b61116d565b90508373ffffffffffffffffffffffffffffffffffffffff168173ffffffffffffffffffffffffffffffffffffffff16146107af578382826040517f64283d7b0000000000000000000000000000000000000000000000000000000081526004016107a693929190612d6a565b60405180910390fd5b50505050565b60006107c083610906565b82106108055782826040517fa57d13dc0000000000000000000000000000000000000000000000000000000081526004016107fc929190612da1565b60405180910390fd5b600660008473ffffffffffffffffffffffffffffffffffffffff1673ffffffffffffffffffffffffffffffffffffffff168152602001908152602001600020600083815260200190815260200160002054905092915050565b61087983838360405180602001604052806000815250610c38565b505050565b600061088861065a565b82106108ce576000826040517fa57d13dc0000000000000000000000000000000000000000000000000000000081526004016108c5929190612da1565b60405180910390fd5b600882815481106108e2576108e1612dca565b5b90600052602060002001549050919050565b60006108ff82611007565b9050919050565b60008073ffffffffffffffffffffffffffffffffffffffff168273ffffffffffffffffffffffffffffffffffffffff16036109795760006040517f89c62b640000000000000000000000000000000000000000000000000000000081526004016109709190612734565b60405180910390fd5b600360008373ffffffffffffffffffffffffffffffffffffffff1673ffffffffffffffffffffffffffffffffffffffff168152602001908152602001600020549050919050565b6109c86110e6565b6109d2600061128a565b565b6000600c60009054906101000a900473ffffffffffffffffffffffffffffffffffffffff1673ffffffffffffffffffffffffffffffffffffffff163373ffffffffffffffffffffffffffffffffffffffff1614610a66576040517f08c379a0000000000000000000000000000000000000000000000000000000008152600401610a5d90612e45565b60405180910390fd5b6000600d60008681526020019081526020016000205414610abc576040517f08c379a0000000000000000000000000000000000000000000000000000000008152600401610ab390612eb1565b60405180910390fd5b600b6000815480929190610acf90612f00565b91905055506000600b549050610ae58682611350565b80600d60008781526020019081526020016000208190555084600e6000838152602001908152602001600020819055508573ffffffffffffffffffffffffffffffffffffffff1685827f1df34dc02702df778bf3dfb7df37d86b845160220cb0ecd088c523c887f1161460405160405180910390a480915050949350505050565b6000600a60009054906101000a900473ffffffffffffffffffffffffffffffffffffffff16905090565b606060018054610b9f90612d39565b80601f0160208091040260200160405190810160405280929190818152602001828054610bcb90612d39565b8015610c185780601f10610bed57610100808354040283529160200191610c18565b820191906000526020600020905b815481529060010190602001808311610bfb57829003601f168201915b5050505050905090565b610c34610c2d6110cc565b838361136e565b5050565b610c438484846106b3565b610c57610c4e6110cc565b858585856114dd565b50505050565b60606000610c6a83610906565b905060008167ffffffffffffffff811115610c8857610c876129e5565b5b604051908082528060200260200182016040528015610cb65781602001602082028036833780820191505090505b50905060005b82811015610d19576000610cd086836107b5565b9050600e600082815260200190815260200160002054838381518110610cf957610cf8612dca565b5b602002602001018181525050508080610d1190612f00565b915050610cbc565b508092505050919050565b6060610d2f82611007565b506000600e60008481526020019081526020016000205490506000610d538261168e565b90506000610d608561185d565b82604051602001610d7292919061314c565b6040516020818303038152906040529050610d8c816119bc565b604051602001610d9c91906131f3565b6040516020818303038152906040529350505050919050565b600d6020528060005260406000206000915090505481565b600e6020528060005260406000206000915090505481565b6000600560008473ffffffffffffffffffffffffffffffffffffffff1673ffffffffffffffffffffffffffffffffffffffff16815260200190815260200160002060008373ffffffffffffffffffffffffffffffffffffffff1673ffffffffffffffffffffffffffffffffffffffff16815260200190815260200160002060009054906101000a900460ff16905092915050565b610e816110e6565b600073ffffffffffffffffffffffffffffffffffffffff168173ffffffffffffffffffffffffffffffffffffffff1603610ef35760006040517f1e4fbdf7000000000000000000000000000000000000000000000000000000008152600401610eea9190612734565b60405180910390fd5b610efc8161128a565b50565b600c60009054906101000a900473ffffffffffffffffffffffffffffffffffffffff1681565b60007f80ac58cd000000000000000000000000000000000000000000000000000000007bffffffffffffffffffffffffffffffffffffffffffffffffffffffff1916827bffffffffffffffffffffffffffffffffffffffffffffffffffffffff19161480610ff057507f5b5e139f000000000000000000000000000000000000000000000000000000007bffffffffffffffffffffffffffffffffffffffffffffffffffffffff1916827bffffffffffffffffffffffffffffffffffffffffffffffffffffffff1916145b806110005750610fff82611b57565b5b9050919050565b60008061101383611bc1565b9050600073ffffffffffffffffffffffffffffffffffffffff168173ffffffffffffffffffffffffffffffffffffffff160361108657826040517f7e27328900000000000000000000000000000000000000000000000000000000815260040161107d91906127ca565b60405180910390fd5b80915050919050565b60006004600083815260200190815260200160002060009054906101000a900473ffffffffffffffffffffffffffffffffffffffff169050919050565b600033905090565b6110e18383836001611bfe565b505050565b6110ee6110cc565b73ffffffffffffffffffffffffffffffffffffffff1661110c610b66565b73ffffffffffffffffffffffffffffffffffffffff161461116b5761112f6110cc565b6040517f118cdaa70000000000000000000000000000000000000000000000000000000081526004016111629190612734565b60405180910390fd5b565b60008061117b858585611dc3565b9050600073ffffffffffffffffffffffffffffffffffffffff168173ffffffffffffffffffffffffffffffffffffffff16036111bf576111ba84611fdd565b6111fe565b8473ffffffffffffffffffffffffffffffffffffffff168173ffffffffffffffffffffffffffffffffffffffff16146111fd576111fc8185612026565b5b5b600073ffffffffffffffffffffffffffffffffffffffff168573ffffffffffffffffffffffffffffffffffffffff16036112405761123b84612111565b61127f565b8473ffffffffffffffffffffffffffffffffffffffff168173ffffffffffffffffffffffffffffffffffffffff161461127e5761127d85856121e2565b5b5b809150509392505050565b6000600a60009054906101000a900473ffffffffffffffffffffffffffffffffffffffff16905081600a60006101000a81548173ffffffffffffffffffffffffffffffffffffffff021916908373ffffffffffffffffffffffffffffffffffffffff1602179055508173ffffffffffffffffffffffffffffffffffffffff168173ffffffffffffffffffffffffffffffffffffffff167f8be0079c531659141344cd1fd0a4f28419497f9722a3daafe3b4186f6b6457e060405160405180910390a35050565b61136a82826040518060200160405280600081525061226d565b5050565b600073ffffffffffffffffffffffffffffffffffffffff168273ffffffffffffffffffffffffffffffffffffffff16036113df57816040517f5b08ba180000000000000000000000000000000000000000000000000000000081526004016113d69190612734565b60405180910390fd5b80600560008573ffffffffffffffffffffffffffffffffffffffff1673ffffffffffffffffffffffffffffffffffffffff16815260200190815260200160002060008473ffffffffffffffffffffffffffffffffffffffff1673ffffffffffffffffffffffffffffffffffffffff16815260200190815260200160002060006101000a81548160ff0219169083151502179055508173ffffffffffffffffffffffffffffffffffffffff168373ffffffffffffffffffffffffffffffffffffffff167f17307eab39ab6107e8899845ad3d59bd9653f200f220920489ca2b5937696c31836040516114d091906125c3565b60405180910390a3505050565b60008373ffffffffffffffffffffffffffffffffffffffff163b1115611687578273ffffffffffffffffffffffffffffffffffffffff1663150b7a02868685856040518563ffffffff1660e01b815260040161153c949392919061326a565b6020604051808303816000875af192505050801561157857506040513d601f19601f8201168201806040525081019061157591906132cb565b60015b6115fc573d80600081146115a8576040519150601f19603f3d011682016040523d82523d6000602084013e6115ad565b606091505b5060008151036115f457836040517f64a0ae920000000000000000000000000000000000000000000000000000000081526004016115eb9190612734565b60405180910390fd5b805160208201fd5b63150b7a0260e01b7bffffffffffffffffffffffffffffffffffffffffffffffffffffffff1916817bffffffffffffffffffffffffffffffffffffffffffffffffffffffff19161461168557836040517f64a0ae9200000000000000000000000000000000000000000000000000000000815260040161167c9190612734565b60405180910390fd5b505b5050505050565b60606000604067ffffffffffffffff8111156116ad576116ac6129e5565b5b6040519080825280601f01601f1916602001820160405280156116df5781602001600182028036833780820191505090505b50905060005b60208160ff1610156118535760006008826117009190613305565b60ff1685901b60f81c9050600060108261171a9190613371565b9050600060108361172b91906133a2565b9050600a8260ff161061174d5760578261174591906133d3565b60f81b61175e565b60308261175a91906133d3565b60f81b5b8560028661176c9190613305565b60ff16815181106117805761177f612dca565b5b60200101907effffffffffffffffffffffffffffffffffffffffffffffffffffffffffffff1916908160001a905350600a8160ff16106117cf576057816117c791906133d3565b60f81b6117e0565b6030816117dc91906133d3565b60f81b5b8560016002876117f09190613305565b6117fa91906133d3565b60ff168151811061180e5761180d612dca565b5b60200101907effffffffffffffffffffffffffffffffffffffffffffffffffffffffffffff1916908160001a905350505050808061184b90613408565b9150506116e5565b5080915050919050565b6060600082036118a4576040518060400160405280600181526020017f300000000000000000000000000000000000000000000000000000000000000081525090506119b7565b600082905060005b600082146118d65780806118bf90612f00565b915050600a826118cf9190613431565b91506118ac565b60008167ffffffffffffffff8111156118f2576118f16129e5565b5b6040519080825280601f01601f1916602001820160405280156119245781602001600182028036833780820191505090505b5090505b600085146119b057818061193b90613462565b925050600a8561194b919061348b565b603061195791906134bc565b60f81b81838151811061196d5761196c612dca565b5b60200101907effffffffffffffffffffffffffffffffffffffffffffffffffffffffffffff1916908160001a905350600a856119a99190613431565b9450611928565b8093505050505b919050565b6060600060405180606001604052806040815260200161359660409139905060008351905060008103611a02576040518060200160405280600081525092505050611b52565b60006003600283611a1391906134bc565b611a1d9190613431565b6004611a2991906134f0565b90506000602082611a3a91906134bc565b67ffffffffffffffff811115611a5357611a526129e5565b5b6040519080825280601f01601f191660200182016040528015611a855781602001600182028036833780820191505090505b5090506000849050600181016020830160005b86811015611b115762ffffff818b015116603f8160121c168401518060081b905060ff603f83600c1c1686015116810190508060081b905060ff603f8360061c1686015116810190508060081b905060ff603f831686015116810190508060e01b90508084526004840193505050600381019050611a98565b506003860660018114611b2b5760028114611b3b57611b46565b613d3d60f01b6002830352611b46565b603d60f81b60018303525b50505081955050505050505b919050565b60007f01ffc9a7000000000000000000000000000000000000000000000000000000007bffffffffffffffffffffffffffffffffffffffffffffffffffffffff1916827bffffffffffffffffffffffffffffffffffffffffffffffffffffffff1916149050919050565b60006002600083815260200190815260200160002060009054906101000a900473ffffffffffffffffffffffffffffffffffffffff169050919050565b8080611c375750600073ffffffffffffffffffffffffffffffffffffffff168273ffffffffffffffffffffffffffffffffffffffff1614155b15611d6b576000611c4784611007565b9050600073ffffffffffffffffffffffffffffffffffffffff168373ffffffffffffffffffffffffffffffffffffffff1614158015611cb257508273ffffffffffffffffffffffffffffffffffffffff168173ffffffffffffffffffffffffffffffffffffffff1614155b8015611cc55750611cc38184610de5565b155b15611d0757826040517fa9fbf51f000000000000000000000000000000000000000000000000000000008152600401611cfe9190612734565b60405180910390fd5b8115611d6957838573ffffffffffffffffffffffffffffffffffffffff168273ffffffffffffffffffffffffffffffffffffffff167f8c5be1e5ebec7d5bd14f71427d1e84f3dd0314c0f7b2291e5b200ac8c7c3b92560405160405180910390a45b505b836004600085815260200190815260200160002060006101000a81548173ffffffffffffffffffffffffffffffffffffffff021916908373ffffffffffffffffffffffffffffffffffffffff16021790555050505050565b600080611dcf84611bc1565b9050600073ffffffffffffffffffffffffffffffffffffffff168373ffffffffffffffffffffffffffffffffffffffff1614611e1157611e10818486612291565b5b600073ffffffffffffffffffffffffffffffffffffffff168173ffffffffffffffffffffffffffffffffffffffff1614611ea257611e53600085600080611bfe565b6001600360008373ffffffffffffffffffffffffffffffffffffffff1673ffffffffffffffffffffffffffffffffffffffff168152602001908152602001600020600082825403925050819055505b600073ffffffffffffffffffffffffffffffffffffffff168573ffffffffffffffffffffffffffffffffffffffff1614611f25576001600360008773ffffffffffffffffffffffffffffffffffffffff1673ffffffffffffffffffffffffffffffffffffffff168152602001908152602001600020600082825401925050819055505b846002600086815260200190815260200160002060006101000a81548173ffffffffffffffffffffffffffffffffffffffff021916908373ffffffffffffffffffffffffffffffffffffffff160217905550838573ffffffffffffffffffffffffffffffffffffffff168273ffffffffffffffffffffffffffffffffffffffff167fddf252ad1be2c89b69c2b068fc378daa952ba7f163c4a11628f55a4df523b3ef60405160405180910390a4809150509392505050565b6008805490506009600083815260200190815260200160002081905550600881908060018154018082558091505060019003906000526020600020016000909190919091505550565b600061203183610906565b90506000600760008481526020019081526020016000205490506000600660008673ffffffffffffffffffffffffffffffffffffffff1673ffffffffffffffffffffffffffffffffffffffff16815260200190815260200160002090508282146120dd5760008160008581526020019081526020016000205490508082600085815260200190815260200160002081905550826007600083815260200190815260200160002081905550505b6007600085815260200190815260200160002060009055806000848152602001908152602001600020600090555050505050565b600060016008805490506121259190613532565b905060006009600084815260200190815260200160002054905060006008838154811061215557612154612dca565b5b90600052602060002001549050806008838154811061217757612176612dca565b5b9060005260206000200181905550816009600083815260200190815260200160002081905550600960008581526020019081526020016000206000905560088054806121c6576121c5613566565b5b6001900381819060005260206000200160009055905550505050565b600060016121ef84610906565b6121f99190613532565b905081600660008573ffffffffffffffffffffffffffffffffffffffff1673ffffffffffffffffffffffffffffffffffffffff168152602001908152602001600020600083815260200190815260200160002081905550806007600084815260200190815260200160002081905550505050565b6122778383612355565b61228c6122826110cc565b60008585856114dd565b505050565b61229c83838361244e565b61235057600073ffffffffffffffffffffffffffffffffffffffff168373ffffffffffffffffffffffffffffffffffffffff160361231157806040517f7e27328900000000000000000000000000000000000000000000000000000000815260040161230891906127ca565b60405180910390fd5b81816040517f177e802f000000000000000000000000000000000000000000000000000000008152600401612347929190612da1565b60405180910390fd5b505050565b600073ffffffffffffffffffffffffffffffffffffffff168273ffffffffffffffffffffffffffffffffffffffff16036123c75760006040517f64a0ae920000000000000000000000000000000000000000000000000000000081526004016123be9190612734565b60405180910390fd5b60006123d58383600061116d565b9050600073ffffffffffffffffffffffffffffffffffffffff168173ffffffffffffffffffffffffffffffffffffffff16146124495760006040517f73c6ac6e0000000000000000000000000000000000000000000000000000000081526004016124409190612734565b60405180910390fd5b505050565b60008073ffffffffffffffffffffffffffffffffffffffff168373ffffffffffffffffffffffffffffffffffffffff161415801561250657508273ffffffffffffffffffffffffffffffffffffffff168473ffffffffffffffffffffffffffffffffffffffff1614806124c757506124c68484610de5565b5b8061250557508273ffffffffffffffffffffffffffffffffffffffff166124ed8361108f565b73ffffffffffffffffffffffffffffffffffffffff16145b5b90509392505050565b6000604051905090565b600080fd5b600080fd5b60007fffffffff0000000000000000000000000000000000000000000000000000000082169050919050565b61255881612523565b811461256357600080fd5b50565b6000813590506125758161254f565b92915050565b60006020828403121561259157612590612519565b5b600061259f84828501612566565b91505092915050565b60008115159050919050565b6125bd816125a8565b82525050565b60006020820190506125d860008301846125b4565b92915050565b600081519050919050565b600082825260208201905092915050565b60005b838110156126185780820151818401526020810190506125fd565b60008484015250505050565b6000601f19601f8301169050919050565b6000612640826125de565b61264a81856125e9565b935061265a8185602086016125fa565b61266381612624565b840191505092915050565b600060208201905081810360008301526126888184612635565b905092915050565b6000819050919050565b6126a381612690565b81146126ae57600080fd5b50565b6000813590506126c08161269a565b92915050565b6000602082840312156126dc576126db612519565b5b60006126ea848285016126b1565b91505092915050565b600073ffffffffffffffffffffffffffffffffffffffff82169050919050565b600061271e826126f3565b9050919050565b61272e81612713565b82525050565b60006020820190506127496000830184612725565b92915050565b61275881612713565b811461276357600080fd5b50565b6000813590506127758161274f565b92915050565b6000806040838503121561279257612791612519565b5b60006127a085828601612766565b92505060206127b1858286016126b1565b9150509250929050565b6127c481612690565b82525050565b60006020820190506127df60008301846127bb565b92915050565b6000602082840312156127fb576127fa612519565b5b600061280984828501612766565b91505092915050565b60008060006060848603121561282b5761282a612519565b5b600061283986828701612766565b935050602061284a86828701612766565b925050604061285b868287016126b1565b9150509250925092565b6000819050919050565b61287881612865565b811461288357600080fd5b50565b6000813590506128958161286f565b92915050565b600080fd5b600080fd5b600080fd5b60008083601f8401126128c0576128bf61289b565b5b8235905067ffffffffffffffff8111156128dd576128dc6128a0565b5b6020830191508360018202830111156128f9576128f86128a5565b5b9250929050565b6000806000806060858703121561291a57612919612519565b5b600061292887828801612766565b945050602061293987828801612886565b935050604085013567ffffffffffffffff81111561295a5761295961251e565b5b612966878288016128aa565b925092505092959194509250565b61297d816125a8565b811461298857600080fd5b50565b60008135905061299a81612974565b92915050565b600080604083850312156129b7576129b6612519565b5b60006129c585828601612766565b92505060206129d68582860161298b565b9150509250929050565b600080fd5b7f4e487b7100000000000000000000000000000000000000000000000000000000600052604160045260246000fd5b612a1d82612624565b810181811067ffffffffffffffff82111715612a3c57612a3b6129e5565b5b80604052505050565b6000612a4f61250f565b9050612a5b8282612a14565b919050565b600067ffffffffffffffff821115612a7b57612a7a6129e5565b5b612a8482612624565b9050602081019050919050565b82818337600083830152505050565b6000612ab3612aae84612a60565b612a45565b905082815260208101848484011115612acf57612ace6129e0565b5b612ada848285612a91565b509392505050565b600082601f830112612af757612af661289b565b5b8135612b07848260208601612aa0565b91505092915050565b60008060008060808587031215612b2a57612b29612519565b5b6000612b3887828801612766565b9450506020612b4987828801612766565b9350506040612b5a878288016126b1565b925050606085013567ffffffffffffffff811115612b7b57612b7a61251e565b5b612b8787828801612ae2565b91505092959194509250565b600081519050919050565b600082825260208201905092915050565b6000819050602082019050919050565b612bc881612865565b82525050565b6000612bda8383612bbf565b60208301905092915050565b6000602082019050919050565b6000612bfe82612b93565b612c088185612b9e565b9350612c1383612baf565b8060005b83811015612c44578151612c2b8882612bce565b9750612c3683612be6565b925050600181019050612c17565b5085935050505092915050565b60006020820190508181036000830152612c6b8184612bf3565b905092915050565b600060208284031215612c8957612c88612519565b5b6000612c9784828501612886565b91505092915050565b612ca981612865565b82525050565b6000602082019050612cc46000830184612ca0565b92915050565b60008060408385031215612ce157612ce0612519565b5b6000612cef85828601612766565b9250506020612d0085828601612766565b9150509250929050565b7f4e487b7100000000000000000000000000000000000000000000000000000000600052602260045260246000fd5b60006002820490506001821680612d5157607f821691505b602082108103612d6457612d63612d0a565b5b50919050565b6000606082019050612d7f6000830186612725565b612d8c60208301856127bb565b612d996040830184612725565b949350505050565b6000604082019050612db66000830185612725565b612dc360208301846127bb565b9392505050565b7f4e487b7100000000000000000000000000000000000000000000000000000000600052603260045260246000fd5b7f4f6e6c7920426f74526567697374727900000000000000000000000000000000600082015250565b6000612e2f6010836125e9565b9150612e3a82612df9565b602082019050919050565b60006020820190508181036000830152612e5e81612e22565b9050919050565b7f426f7420616c726561647920686173204e465400000000000000000000000000600082015250565b6000612e9b6013836125e9565b9150612ea682612e65565b602082019050919050565b60006020820190508181036000830152612eca81612e8e565b9050919050565b7f4e487b7100000000000000000000000000000000000000000000000000000000600052601160045260246000fd5b6000612f0b82612690565b91507fffffffffffffffffffffffffffffffffffffffffffffffffffffffffffffffff8203612f3d57612f3c612ed1565b5b600182019050919050565b600081905092915050565b7f7b226e616d65223a22536e616b65426f74202300000000000000000000000000600082015250565b6000612f89601383612f48565b9150612f9482612f53565b601382019050919050565b6000612faa826125de565b612fb48185612f48565b9350612fc48185602086016125fa565b80840191505092915050565b7f222c000000000000000000000000000000000000000000000000000000000000600082015250565b6000613006600283612f48565b915061301182612fd0565b600282019050919050565b7f226465736372697074696f6e223a224120626174746c652d726561647920736e60008201527f616b6520626f74206f6e20536e616b65204172656e61222c0000000000000000602082015250565b6000613078603883612f48565b91506130838261301c565b603882019050919050565b7f2261747472696275746573223a5b7b2274726169745f74797065223a22426f7460008201527f204944222c2276616c7565223a22000000000000000000000000000000000000602082015250565b60006130ea602e83612f48565b91506130f58261308e565b602e82019050919050565b7f227d5d7d00000000000000000000000000000000000000000000000000000000600082015250565b6000613136600483612f48565b915061314182613100565b600482019050919050565b600061315782612f7c565b91506131638285612f9f565b915061316e82612ff9565b91506131798261306b565b9150613184826130dd565b91506131908284612f9f565b915061319b82613129565b91508190509392505050565b7f646174613a6170706c69636174696f6e2f6a736f6e3b6261736536342c000000600082015250565b60006131dd601d83612f48565b91506131e8826131a7565b601d82019050919050565b60006131fe826131d0565b915061320a8284612f9f565b915081905092915050565b600081519050919050565b600082825260208201905092915050565b600061323c82613215565b6132468185613220565b93506132568185602086016125fa565b61325f81612624565b840191505092915050565b600060808201905061327f6000830187612725565b61328c6020830186612725565b61329960408301856127bb565b81810360608301526132ab8184613231565b905095945050505050565b6000815190506132c58161254f565b92915050565b6000602082840312156132e1576132e0612519565b5b60006132ef848285016132b6565b91505092915050565b600060ff82169050919050565b6000613310826132f8565b915061331b836132f8565b9250828202613329816132f8565b915080821461333b5761333a612ed1565b5b5092915050565b7f4e487b7100000000000000000000000000000000000000000000000000000000600052601260045260246000fd5b600061337c826132f8565b9150613387836132f8565b92508261339757613396613342565b5b828204905092915050565b60006133ad826132f8565b91506133b8836132f8565b9250826133c8576133c7613342565b5b828206905092915050565b60006133de826132f8565b91506133e9836132f8565b9250828201905060ff81111561340257613401612ed1565b5b92915050565b6000613413826132f8565b915060ff820361342657613425612ed1565b5b600182019050919050565b600061343c82612690565b915061344783612690565b92508261345757613456613342565b5b828204905092915050565b600061346d82612690565b9150600082036134805761347f612ed1565b5b600182039050919050565b600061349682612690565b91506134a183612690565b9250826134b1576134b0613342565b5b828206905092915050565b60006134c782612690565b91506134d283612690565b92508282019050808211156134ea576134e9612ed1565b5b92915050565b60006134fb82612690565b915061350683612690565b925082820261351481612690565b9150828204841483151761352b5761352a612ed1565b5b5092915050565b600061353d82612690565b915061354883612690565b92508282039050818111156135605761355f612ed1565b5b92915050565b7f4e487b7100000000000000000000000000000000000000000000000000000000600052603160045260246000fdfe4142434445464748494a4b4c4d4e4f505152535455565758595a6162636465666768696a6b6c6d6e6f707172737475767778797a303132333435363738392b2fa2646970667358221220e7e503f1fc83f632c015e5cd8833ff8c965d9b48ff3448ba3491b8f86607dbef64736f6c63430008140033",
  "linkReferences": {},
  "deployedLinkReferences": {}
}