{
  "_format": "hh3-artifact-1",
  "contractName": "SnakeBotNFT",
  "sourceName": "contracts/SnakeBotNFT.sol",
  "abi": [
    {
      "inputs": [],
      "stateMutability": "nonpayable",
      "type": "constructor"
    },
    {
      "anonymous": false,
      "inputs": [
        {
          "indexed": true,
          "internalType": "address",
          "name": "owner",
          "type": "address"
        },
        {
          "indexed": true,
          "internalType": "address",
          "name": "approved",
          "type": "address"
        },
        {
          "indexed": true,
          "internalType": "uint256",
          "name": "tokenId",
          "type": "uint256"
        }
      ],
      "name": "Approval",
      "type": "event"
    },
    {
      "anonymous": false,
      "inputs": [
        {
          "indexed": true,
          "internalType": "address",
          "name": "owner",
          "type": "address"
        },
        {
          "indexed": true,
          "internalType": "address",
          "name": "operator",
          "type": "address"
        },
        {
          "indexed": false,
          "internalType": "bool",
          "name": "approved",
          "type": "bool"
        }
      ],
      "name": "ApprovalForAll",
      "type": "event"
    },
    {
      "anonymous": false,
      "inputs": [
        {
          "indexed": true,
          "internalType": "uint256",
          "name": "tokenId",
          "type": "uint256"
        },
        {
          "indexed": true,
          "internalType": "bytes32",
          "name": "botId",
          "type": "bytes32"
        },
        {
          "indexed": true,
          "internalType": "address",
          "name": "owner",
          "type": "address"
        }
      ],
      "name": "BotNFTMinted",
      "type": "event"
    },
    {
      "anonymous": false,
      "inputs": [
        {
          "indexed": true,
          "internalType": "address",
          "name": "previousOwner",
          "type": "address"
        },
        {
          "indexed": true,
          "internalType": "address",
          "name": "newOwner",
          "type": "address"
        }
      ],
      "name": "OwnershipTransferred",
      "type": "event"
    },
    {
      "anonymous": false,
      "inputs": [
        {
          "indexed": true,
          "internalType": "address",
          "name": "from",
          "type": "address"
        },
        {
          "indexed": true,
          "internalType": "address",
          "name": "to",
          "type": "address"
        },
        {
          "indexed": true,
          "internalType": "uint256",
          "name": "tokenId",
          "type": "uint256"
        }
      ],
      "name": "Transfer",
      "type": "event"
    },
    {
      "inputs": [
        {
          "internalType": "address",
          "name": "to",
          "type": "address"
        },
        {
          "internalType": "uint256",
          "name": "tokenId",
          "type": "uint256"
        }
      ],
      "name": "approve",
      "outputs": [],
      "stateMutability": "nonpayable",
      "type": "function"
    },
    {
      "inputs": [
        {
          "internalType": "address",
          "name": "owner",
          "type": "address"
        }
      ],
      "name": "balanceOf",
      "outputs": [
        {
          "internalType": "uint256",
          "name": "",
          "type": "uint256"
        }
      ],
      "stateMutability": "view",
      "type": "function"
    },
    {
      "inputs": [],
      "name": "botRegistry",
      "outputs": [
        {
          "internalType": "address",
          "name": "",
          "type": "address"
        }
      ],
      "stateMutability": "view",
      "type": "function"
    },
    {
      "inputs": [
        {
          "internalType": "bytes32",
          "name": "",
          "type": "bytes32"
        }
      ],
      "name": "botToTokenId",
      "outputs": [
        {
          "internalType": "uint256",
          "name": "",
          "type": "uint256"
        }
      ],
      "stateMutability": "view",
      "type": "function"
    },
    {
      "inputs": [
        {
          "internalType": "uint256",
          "name": "tokenId",
          "type": "uint256"
        }
      ],
      "name": "getApproved",
      "outputs": [
        {
          "internalType": "address",
          "name": "",
          "type": "address"
        }
      ],
      "stateMutability": "view",
      "type": "function"
    },
    {
      "inputs": [
        {
          "internalType": "address",
          "name": "owner",
          "type": "address"
        },
        {
          "internalType": "address",
          "name": "operator",
          "type": "address"
        }
      ],
      "name": "isApprovedForAll",
      "outputs": [
        {
          "internalType": "bool",
          "name": "",
          "type": "bool"
        }
      ],
      "stateMutability": "view",
      "type": "function"
    },
    {
      "inputs": [
        {
          "internalType": "address",
          "name": "_to",
          "type": "address"
        },
        {
          "internalType": "bytes32",
          "name": "_botId",
          "type": "bytes32"
        }
      ],
      "name": "mintBotNFT",
      "outputs": [
        {
          "internalType": "uint256",
          "name": "",
          "type": "uint256"
        }
      ],
      "stateMutability": "nonpayable",
      "type": "function"
    },
    {
      "inputs": [],
      "name": "name",
      "outputs": [
        {
          "internalType": "string",
          "name": "",
          "type": "string"
        }
      ],
      "stateMutability": "view",
      "type": "function"
    },
    {
      "inputs": [],
      "name": "owner",
      "outputs": [
        {
          "internalType": "address",
          "name": "",
          "type": "address"
        }
      ],
      "stateMutability": "view",
      "type": "function"
    },
    {
      "inputs": [
        {
          "internalType": "uint256",
          "name": "tokenId",
          "type": "uint256"
        }
      ],
      "name": "ownerOf",
      "outputs": [
        {
          "internalType": "address",
          "name": "",
          "type": "address"
        }
      ],
      "stateMutability": "view",
      "type": "function"
    },
    {
      "inputs": [],
      "name": "renounceOwnership",
      "outputs": [],
      "stateMutability": "nonpayable",
      "type": "function"
    },
    {
      "inputs": [
        {
          "internalType": "address",
          "name": "from",
          "type": "address"
        },
        {
          "internalType": "address",
          "name": "to",
          "type": "address"
        },
        {
          "internalType": "uint256",
          "name": "tokenId",
          "type": "uint256"
        }
      ],
      "name": "safeTransferFrom",
      "outputs": [],
      "stateMutability": "nonpayable",
      "type": "function"
    },
    {
      "inputs": [
        {
          "internalType": "address",
          "name": "from",
          "type": "address"
        },
        {
          "internalType": "address",
          "name": "to",
          "type": "address"
        },
        {
          "internalType": "uint256",
          "name": "tokenId",
          "type": "uint256"
        },
        {
          "internalType": "bytes",
          "name": "data",
          "type": "bytes"
        }
      ],
      "name": "safeTransferFrom",
      "outputs": [],
      "stateMutability": "nonpayable",
      "type": "function"
    },
    {
      "inputs": [
        {
          "internalType": "address",
          "name": "operator",
          "type": "address"
        },
        {
          "internalType": "bool",
          "name": "approved",
          "type": "bool"
        }
      ],
      "name": "setApprovalForAll",
      "outputs": [],
      "stateMutability": "nonpayable",
      "type": "function"
    },
    {
      "inputs": [
        {
          "internalType": "address",
          "name": "_registry",
          "type": "address"
        }
      ],
      "name": "setBotRegistry",
      "outputs": [],
      "stateMutability": "nonpayable",
      "type": "function"
    },
    {
      "inputs": [
        {
          "internalType": "bytes4",
          "name": "interfaceId",
          "type": "bytes4"
        }
      ],
      "name": "supportsInterface",
      "outputs": [
        {
          "internalType": "bool",
          "name": "",
          "type": "bool"
        }
      ],
      "stateMutability": "view",
      "type": "function"
    },
    {
      "inputs": [],
      "name": "symbol",
      "outputs": [
        {
          "internalType": "string",
          "name": "",
          "type": "string"
        }
      ],
      "stateMutability": "view",
      "type": "function"
    },
    {
      "inputs": [
        {
          "internalType": "uint256",
          "name": "",
          "type": "uint256"
        }
      ],
      "name": "tokenIdToBot",
      "outputs": [
        {
          "internalType": "bytes32",
          "name": "",
          "type": "bytes32"
        }
      ],
      "stateMutability": "view",
      "type": "function"
    },
    {
      "inputs": [
        {
          "internalType": "uint256",
          "name": "tokenId",
          "type": "uint256"
        }
      ],
      "name": "tokenURI",
      "outputs": [
        {
          "internalType": "string",
          "name": "",
          "type": "string"
        }
      ],
      "stateMutability": "view",
      "type": "function"
    },
    {
      "inputs": [
        {
          "internalType": "address",
          "name": "from",
          "type": "address"
        },
        {
          "internalType": "address",
          "name": "to",
          "type": "address"
        },
        {
          "internalType": "uint256",
          "name": "tokenId",
          "type": "uint256"
        }
      ],
      "name": "transferFrom",
      "outputs": [],
      "stateMutability": "nonpayable",
      "type": "function"
    },
    {
      "inputs": [
        {
          "internalType": "address",
          "name": "newOwner",
          "type": "address"
        }
      ],
      "name": "transferOwnership",
      "outputs": [],
      "stateMutability": "nonpayable",
      "type": "function"
    }
  ],
  "bytecode": "0x60806040523480156200001157600080fd5b506040518060400160405280600881526020017f536e616b65426f740000000000000000000000000000000000000000000000008152506040518060400160405280600581526020017f534e414b4500000000000000000000000000000000000000000000000000000081525081600090816200008f919062000412565b508060019081620000a1919062000412565b505050620000c4620000b8620000ca60201b60201c565b620000d260201b60201c565b620004f9565b600033905090565b6000600660009054906101000a900473ffffffffffffffffffffffffffffffffffffffff16905081600660006101000a81548173ffffffffffffffffffffffffffffffffffffffff021916908373ffffffffffffffffffffffffffffffffffffffff1602179055508173ffffffffffffffffffffffffffffffffffffffff168173ffffffffffffffffffffffffffffffffffffffff167f8be0079c531659141344cd1fd0a4f28419497f9722a3daafe3b4186f6b6457e060405160405180910390a35050565b600081519050919050565b7f4e487b7100000000000000000000000000000000000000000000000000000000600052604160045260246000fd5b7f4e487b7100000000000000000000000000000000000000000000000000000000600052602260045260246000fd5b600060028204905060018216806200021a57607f821691505b60208210810362000230576200022f620001d2565b5b50919050565b60008190508160005260206000209050919050565b60006020601f8301049050919050565b600082821b905092915050565b6000600883026200029a7fffffffffffffffffffffffffffffffffffffffffffffffffffffffffffffffff826200025b565b620002a686836200025b565b95508019841693508086168417925050509392505050565b6000819050919050565b6000819050919050565b6000620002f3620002ed620002e784620002be565b620002c8565b620002be565b9050919050565b6000819050919050565b6200030f83620002d2565b620003276200031e82620002fa565b84845462000268565b825550505050565b600090565b6200033e6200032f565b6200034b81848462000304565b505050565b5b8181101562000373576200036760008262000334565b60018101905062000351565b5050565b601f821115620003c2576200038c8162000236565b62000397846200024b565b81016020851015620003a7578190505b620003bf620003b6856200024b565b83018262000350565b50505b505050565b600082821c905092915050565b6000620003e760001984600802620003c7565b1980831691505092915050565b6000620004028383620003d4565b9150826002028217905092915050565b6200041d8262000198565b67ffffffffffffffff811115620004395762000438620001a3565b5b62000445825462000201565b6200045282828562000377565b600060209050601f8311600181146200048a576000841562000475578287015190505b620004818582620003f4565b865550620004f1565b601f1984166200049a8662000236565b60005b82811015620004c4578489015182556001820191506020850194506020810190506200049d565b86831015620004e45784890151620004e0601f891682620003d4565b8355505b6001600288020188555050505b505050505050565b61368e80620005096000396000f3fe608060405234801561001057600080fd5b50600436106101375760003560e01c80638da5cb5b116100b8578063d420ad261161007c578063d420ad2614610338578063e504448f14610368578063e985e9c514610398578063f2fde38b146103c8578063f7ea6763146103e4578063ffb91e0a1461041457610137565b80638da5cb5b1461029457806395d89b41146102b2578063a22cb465146102d0578063b88d4fde146102ec578063c87b56dd1461030857610137565b806323b872dd116100ff57806323b872dd146101f257806342842e0e1461020e5780636352211e1461022a57806370a082311461025a578063715018a61461028a57610137565b806301ffc9a71461013c57806306fdde031461016c578063081812fc1461018a578063095ea7b3146101ba57806319039bc5146101d6575b600080fd5b6101566004803603810190610151919061203c565b610432565b6040516101639190612084565b60405180910390f35b610174610514565b604051610181919061212f565b60405180910390f35b6101a4600480360381019061019f9190612187565b6105a6565b6040516101b191906121f5565b60405180910390f35b6101d460048036038101906101cf919061223c565b6105ec565b005b6101f060048036038101906101eb919061227c565b610703565b005b61020c600480360381019061020791906122a9565b61074f565b005b610228600480360381019061022391906122a9565b6107af565b005b610244600480360381019061023f9190612187565b6107cf565b60405161025191906121f5565b60405180910390f35b610274600480360381019061026f919061227c565b610855565b604051610281919061230b565b60405180910390f35b61029261090c565b005b61029c610920565b6040516102a991906121f5565b60405180910390f35b6102ba61094a565b6040516102c7919061212f565b60405180910390f35b6102ea60048036038101906102e59190612352565b6109dc565b005b610306600480360381019061030191906124c7565b6109f2565b005b610322600480360381019061031d9190612187565b610a54565b60405161032f919061212f565b60405180910390f35b610352600480360381019061034d9190612580565b610b2d565b60405161035f919061230b565b60405180910390f35b610382600480360381019061037d9190612187565b610b45565b60405161038f91906125bc565b60405180910390f35b6103b260048036038101906103ad91906125d7565b610b5d565b6040516103bf9190612084565b60405180910390f35b6103e260048036038101906103dd919061227c565b610bf1565b005b6103fe60048036038101906103f99190612617565b610c74565b60405161040b919061230b565b60405180910390f35b61041c610e04565b60405161042991906121f5565b60405180910390f35b60007f80ac58cd000000000000000000000000000000000000000000000000000000007bffffffffffffffffffffffffffffffffffffffffffffffffffffffff1916827bffffffffffffffffffffffffffffffffffffffffffffffffffffffff191614806104fd57507f5b5e139f000000000000000000000000000000000000000000000000000000007bffffffffffffffffffffffffffffffffffffffffffffffffffffffff1916827bffffffffffffffffffffffffffffffffffffffffffffffffffffffff1916145b8061050d575061050c82610e2a565b5b9050919050565b60606000805461052390612686565b80601f016020809104026020016040519081016040528092919081815260200182805461054f90612686565b801561059c5780601f106105715761010080835404028352916020019161059c565b820191906000526020600020905b81548152906001019060200180831161057f57829003601f168201915b5050505050905090565b60006105b182610e94565b6004600083815260200190815260200160002060009054906101000a900473ffffffffffffffffffffffffffffffffffffffff169050919050565b60006105f7826107cf565b90508073ffffffffffffffffffffffffffffffffffffffff168373ffffffffffffffffffffffffffffffffffffffff1603610667576040517f08c379a000000000000000000000000000000000000000000000000000000000815260040161065e90612729565b60405180910390fd5b8073ffffffffffffffffffffffffffffffffffffffff16610686610edf565b73ffffffffffffffffffffffffffffffffffffffff1614806106b557506106b4816106af610edf565b610b5d565b5b6106f4576040517f08c379a00000000000000000000000000000000000000000000000000000000081526004016106eb906127bb565b60405180910390fd5b6106fe8383610ee7565b505050565b61070b610fa0565b80600860006101000a81548173ffffffffffffffffffffffffffffffffffffffff021916908373ffffffffffffffffffffffffffffffffffffffff16021790555050565b61076061075a610edf565b8261101e565b61079f576040517f08c379a00000000000000000000000000000000000000000000000000000000081526004016107969061284d565b60405180910390fd5b6107aa8383836110b3565b505050565b6107ca838383604051806020016040528060008152506109f2565b505050565b6000806107db836113ac565b9050600073ffffffffffffffffffffffffffffffffffffffff168173ffffffffffffffffffffffffffffffffffffffff160361084c576040517f08c379a0000000000000000000000000000000000000000000000000000000008152600401610843906128b9565b60405180910390fd5b80915050919050565b60008073ffffffffffffffffffffffffffffffffffffffff168273ffffffffffffffffffffffffffffffffffffffff16036108c5576040517f08c379a00000000000000000000000000000000000000000000000000000000081526004016108bc9061294b565b60405180910390fd5b600360008373ffffffffffffffffffffffffffffffffffffffff1673ffffffffffffffffffffffffffffffffffffffff168152602001908152602001600020549050919050565b610914610fa0565b61091e60006113e9565b565b6000600660009054906101000a900473ffffffffffffffffffffffffffffffffffffffff16905090565b60606001805461095990612686565b80601f016020809104026020016040519081016040528092919081815260200182805461098590612686565b80156109d25780601f106109a7576101008083540402835291602001916109d2565b820191906000526020600020905b8154815290600101906020018083116109b557829003601f168201915b5050505050905090565b6109ee6109e7610edf565b83836114af565b5050565b610a036109fd610edf565b8361101e565b610a42576040517f08c379a0000000000000000000000000000000000000000000000000000000008152600401610a399061284d565b60405180910390fd5b610a4e8484848461161b565b50505050565b6060610a5f82611677565b610a9e576040517f08c379a0000000000000000000000000000000000000000000000000000000008152600401610a95906129b7565b60405180910390fd5b6000600a60008481526020019081526020016000205490506000610ac1826116b8565b90506000610ace8561188a565b610ad78661188a565b83604051602001610aea93929190612c99565b6040516020818303038152906040529050610b04816119e9565b604051602001610b149190612d63565b6040516020818303038152906040529350505050919050565b60096020528060005260406000206000915090505481565b600a6020528060005260406000206000915090505481565b6000600560008473ffffffffffffffffffffffffffffffffffffffff1673ffffffffffffffffffffffffffffffffffffffff16815260200190815260200160002060008373ffffffffffffffffffffffffffffffffffffffff1673ffffffffffffffffffffffffffffffffffffffff16815260200190815260200160002060009054906101000a900460ff16905092915050565b610bf9610fa0565b600073ffffffffffffffffffffffffffffffffffffffff168173ffffffffffffffffffffffffffffffffffffffff1603610c68576040517f08c379a0000000000000000000000000000000000000000000000000000000008152600401610c5f90612df7565b60405180910390fd5b610c71816113e9565b50565b6000600860009054906101000a900473ffffffffffffffffffffffffffffffffffffffff1673ffffffffffffffffffffffffffffffffffffffff163373ffffffffffffffffffffffffffffffffffffffff1614610d06576040517f08c379a0000000000000000000000000000000000000000000000000000000008152600401610cfd90612e63565b60405180910390fd5b6000600960008481526020019081526020016000205414610d5c576040517f08c379a0000000000000000000000000000000000000000000000000000000008152600401610d5390612ecf565b60405180910390fd5b60076000815480929190610d6f90612f1e565b919050555060006007549050610d858482611b84565b80600960008581526020019081526020016000208190555082600a6000838152602001908152602001600020819055508373ffffffffffffffffffffffffffffffffffffffff1683827f1df34dc02702df778bf3dfb7df37d86b845160220cb0ecd088c523c887f1161460405160405180910390a48091505092915050565b600860009054906101000a900473ffffffffffffffffffffffffffffffffffffffff1681565b60007f01ffc9a7000000000000000000000000000000000000000000000000000000007bffffffffffffffffffffffffffffffffffffffffffffffffffffffff1916827bffffffffffffffffffffffffffffffffffffffffffffffffffffffff1916149050919050565b610e9d81611677565b610edc576040517f08c379a0000000000000000000000000000000000000000000000000000000008152600401610ed3906128b9565b60405180910390fd5b50565b600033905090565b816004600083815260200190815260200160002060006101000a81548173ffffffffffffffffffffffffffffffffffffffff021916908373ffffffffffffffffffffffffffffffffffffffff160217905550808273ffffffffffffffffffffffffffffffffffffffff16610f5a836107cf565b73ffffffffffffffffffffffffffffffffffffffff167f8c5be1e5ebec7d5bd14f71427d1e84f3dd0314c0f7b2291e5b200ac8c7c3b92560405160405180910390a45050565b610fa8610edf565b73ffffffffffffffffffffffffffffffffffffffff16610fc6610920565b73ffffffffffffffffffffffffffffffffffffffff161461101c576040517f08c379a000000000000000000000000000000000000000000000000000000000815260040161101390612fb2565b60405180910390fd5b565b60008061102a836107cf565b90508073ffffffffffffffffffffffffffffffffffffffff168473ffffffffffffffffffffffffffffffffffffffff16148061106c575061106b8185610b5d565b5b806110aa57508373ffffffffffffffffffffffffffffffffffffffff16611092846105a6565b73ffffffffffffffffffffffffffffffffffffffff16145b91505092915050565b8273ffffffffffffffffffffffffffffffffffffffff166110d3826107cf565b73ffffffffffffffffffffffffffffffffffffffff1614611129576040517f08c379a000000000000000000000000000000000000000000000000000000000815260040161112090613044565b60405180910390fd5b600073ffffffffffffffffffffffffffffffffffffffff168273ffffffffffffffffffffffffffffffffffffffff1603611198576040517f08c379a000000000000000000000000000000000000000000000000000000000815260040161118f906130d6565b60405180910390fd5b6111a58383836001611ba2565b8273ffffffffffffffffffffffffffffffffffffffff166111c5826107cf565b73ffffffffffffffffffffffffffffffffffffffff161461121b576040517f08c379a000000000000000000000000000000000000000000000000000000000815260040161121290613044565b60405180910390fd5b6004600082815260200190815260200160002060006101000a81549073ffffffffffffffffffffffffffffffffffffffff02191690556001600360008573ffffffffffffffffffffffffffffffffffffffff1673ffffffffffffffffffffffffffffffffffffffff168152602001908152602001600020600082825403925050819055506001600360008473ffffffffffffffffffffffffffffffffffffffff1673ffffffffffffffffffffffffffffffffffffffff16815260200190815260200160002060008282540192505081905550816002600083815260200190815260200160002060006101000a81548173ffffffffffffffffffffffffffffffffffffffff021916908373ffffffffffffffffffffffffffffffffffffffff160217905550808273ffffffffffffffffffffffffffffffffffffffff168473ffffffffffffffffffffffffffffffffffffffff167fddf252ad1be2c89b69c2b068fc378daa952ba7f163c4a11628f55a4df523b3ef60405160405180910390a46113a78383836001611ba8565b505050565b60006002600083815260200190815260200160002060009054906101000a900473ffffffffffffffffffffffffffffffffffffffff169050919050565b6000600660009054906101000a900473ffffffffffffffffffffffffffffffffffffffff16905081600660006101000a81548173ffffffffffffffffffffffffffffffffffffffff021916908373ffffffffffffffffffffffffffffffffffffffff1602179055508173ffffffffffffffffffffffffffffffffffffffff168173ffffffffffffffffffffffffffffffffffffffff167f8be0079c531659141344cd1fd0a4f28419497f9722a3daafe3b4186f6b6457e060405160405180910390a35050565b8173ffffffffffffffffffffffffffffffffffffffff168373ffffffffffffffffffffffffffffffffffffffff160361151d576040517f08c379a000000000000000000000000000000000000000000000000000000000815260040161151490613142565b60405180910390fd5b80600560008573ffffffffffffffffffffffffffffffffffffffff1673ffffffffffffffffffffffffffffffffffffffff16815260200190815260200160002060008473ffffffffffffffffffffffffffffffffffffffff1673ffffffffffffffffffffffffffffffffffffffff16815260200190815260200160002060006101000a81548160ff0219169083151502179055508173ffffffffffffffffffffffffffffffffffffffff168373ffffffffffffffffffffffffffffffffffffffff167f17307eab39ab6107e8899845ad3d59bd9653f200f220920489ca2b5937696c318360405161160e9190612084565b60405180910390a3505050565b6116268484846110b3565b61163284848484611bae565b611671576040517f08c379a0000000000000000000000000000000000000000000000000000000008152600401611668906131d4565b60405180910390fd5b50505050565b60008073ffffffffffffffffffffffffffffffffffffffff16611699836113ac565b73ffffffffffffffffffffffffffffffffffffffff1614159050919050565b6060600080604067ffffffffffffffff8111156116d8576116d761239c565b5b6040519080825280601f01601f19166020018201604052801561170a5781602001600182028036833780820191505090505b509050600091505b60208260ff16101561188057600060088361172d9190613201565b60ff1685901b60f81c90506000601082611747919061326d565b90506000601083611758919061329e565b9050600a8260ff161061177a5760578261177291906132cf565b60f81b61178b565b60308261178791906132cf565b60f81b5b846002876117999190613201565b60ff16815181106117ad576117ac613304565b5b60200101907effffffffffffffffffffffffffffffffffffffffffffffffffffffffffffff1916908160001a905350600a8160ff16106117fc576057816117f491906132cf565b60f81b61180d565b60308161180991906132cf565b60f81b5b84600160028861181d9190613201565b61182791906132cf565b60ff168151811061183b5761183a613304565b5b60200101907effffffffffffffffffffffffffffffffffffffffffffffffffffffffffffff1916908160001a905350505050818061187890613333565b925050611712565b8092505050919050565b6060600082036118d1576040518060400160405280600181526020017f300000000000000000000000000000000000000000000000000000000000000081525090506119e4565b600082905060005b600082146119035780806118ec90612f1e565b915050600a826118fc919061335c565b91506118d9565b60008167ffffffffffffffff81111561191f5761191e61239c565b5b6040519080825280601f01601f1916602001820160405280156119515781602001600182028036833780820191505090505b5090505b600085146119dd5781806119689061338d565b925050600a8561197891906133b6565b603061198491906133e7565b60f81b81838151811061199a57611999613304565b5b60200101907effffffffffffffffffffffffffffffffffffffffffffffffffffffffffffff1916908160001a905350600a856119d6919061335c565b9450611955565b8093505050505b919050565b6060600060405180606001604052806040815260200161361960409139905060008351905060008103611a2f576040518060200160405280600081525092505050611b7f565b60006003600283611a4091906133e7565b611a4a919061335c565b6004611a56919061341b565b90506000602082611a6791906133e7565b67ffffffffffffffff811115611a8057611a7f61239c565b5b6040519080825280601f01601f191660200182016040528015611ab25781602001600182028036833780820191505090505b5090506000849050600181016020830160005b86811015611b3e5762ffffff818b015116603f8160121c168401518060081b905060ff603f83600c1c1686015116810190508060081b905060ff603f8360061c1686015116810190508060081b905060ff603f831686015116810190508060e01b90508084526004840193505050600381019050611ac5565b506003860660018114611b585760028114611b6857611b73565b613d3d60f01b6002830352611b73565b603d60f81b60018303525b50505081955050505050505b919050565b611b9e828260405180602001604052806000815250611d35565b5050565b50505050565b50505050565b6000611bcf8473ffffffffffffffffffffffffffffffffffffffff16611d90565b15611d28578373ffffffffffffffffffffffffffffffffffffffff1663150b7a02611bf8610edf565b8786866040518563ffffffff1660e01b8152600401611c1a94939291906134b2565b6020604051808303816000875af1925050508015611c5657506040513d601f19601f82011682018060405250810190611c539190613513565b60015b611cd8573d8060008114611c86576040519150601f19603f3d011682016040523d82523d6000602084013e611c8b565b606091505b506000815103611cd0576040517f08c379a0000000000000000000000000000000000000000000000000000000008152600401611cc7906131d4565b60405180910390fd5b805181602001fd5b63150b7a0260e01b7bffffffffffffffffffffffffffffffffffffffffffffffffffffffff1916817bffffffffffffffffffffffffffffffffffffffffffffffffffffffff191614915050611d2d565b600190505b949350505050565b611d3f8383611db3565b611d4c6000848484611bae565b611d8b576040517f08c379a0000000000000000000000000000000000000000000000000000000008152600401611d82906131d4565b60405180910390fd5b505050565b6000808273ffffffffffffffffffffffffffffffffffffffff163b119050919050565b600073ffffffffffffffffffffffffffffffffffffffff168273ffffffffffffffffffffffffffffffffffffffff1603611e22576040517f08c379a0000000000000000000000000000000000000000000000000000000008152600401611e199061358c565b60405180910390fd5b611e2b81611677565b15611e6b576040517f08c379a0000000000000000000000000000000000000000000000000000000008152600401611e62906135f8565b60405180910390fd5b611e79600083836001611ba2565b611e8281611677565b15611ec2576040517f08c379a0000000000000000000000000000000000000000000000000000000008152600401611eb9906135f8565b60405180910390fd5b6001600360008473ffffffffffffffffffffffffffffffffffffffff1673ffffffffffffffffffffffffffffffffffffffff16815260200190815260200160002060008282540192505081905550816002600083815260200190815260200160002060006101000a81548173ffffffffffffffffffffffffffffffffffffffff021916908373ffffffffffffffffffffffffffffffffffffffff160217905550808273ffffffffffffffffffffffffffffffffffffffff16600073ffffffffffffffffffffffffffffffffffffffff167fddf252ad1be2c89b69c2b068fc378daa952ba7f163c4a11628f55a4df523b3ef60405160405180910390a4611fcc600083836001611ba8565b5050565b6000604051905090565b600080fd5b600080fd5b60007fffffffff0000000000000000000000000000000000000000000000000000000082169050919050565b61201981611fe4565b811461202457600080fd5b50565b60008135905061203681612010565b92915050565b60006020828403121561205257612051611fda565b5b600061206084828501612027565b91505092915050565b60008115159050919050565b61207e81612069565b82525050565b60006020820190506120996000830184612075565b92915050565b600081519050919050565b600082825260208201905092915050565b60005b838110156120d95780820151818401526020810190506120be565b60008484015250505050565b6000601f19601f8301169050919050565b60006121018261209f565b61210b81856120aa565b935061211b8185602086016120bb565b612124816120e5565b840191505092915050565b6000602082019050818103600083015261214981846120f6565b905092915050565b6000819050919050565b61216481612151565b811461216f57600080fd5b50565b6000813590506121818161215b565b92915050565b60006020828403121561219d5761219c611fda565b5b60006121ab84828501612172565b91505092915050565b600073ffffffffffffffffffffffffffffffffffffffff82169050919050565b60006121df826121b4565b9050919050565b6121ef816121d4565b82525050565b600060208201905061220a60008301846121e6565b92915050565b612219816121d4565b811461222457600080fd5b50565b60008135905061223681612210565b92915050565b6000806040838503121561225357612252611fda565b5b600061226185828601612227565b925050602061227285828601612172565b9150509250929050565b60006020828403121561229257612291611fda565b5b60006122a084828501612227565b91505092915050565b6000806000606084860312156122c2576122c1611fda565b5b60006122d086828701612227565b93505060206122e186828701612227565b92505060406122f286828701612172565b9150509250925092565b61230581612151565b82525050565b600060208201905061232060008301846122fc565b92915050565b61232f81612069565b811461233a57600080fd5b50565b60008135905061234c81612326565b92915050565b6000806040838503121561236957612368611fda565b5b600061237785828601612227565b92505060206123888582860161233d565b9150509250929050565b600080fd5b600080fd5b7f4e487b7100000000000000000000000000000000000000000000000000000000600052604160045260246000fd5b6123d4826120e5565b810181811067ffffffffffffffff821117156123f3576123f261239c565b5b80604052505050565b6000612406611fd0565b905061241282826123cb565b919050565b600067ffffffffffffffff8211156124325761243161239c565b5b61243b826120e5565b9050602081019050919050565b82818337600083830152505050565b600061246a61246584612417565b6123fc565b90508281526020810184848401111561248657612485612397565b5b612491848285612448565b509392505050565b600082601f8301126124ae576124ad612392565b5b81356124be848260208601612457565b91505092915050565b600080600080608085870312156124e1576124e0611fda565b5b60006124ef87828801612227565b945050602061250087828801612227565b935050604061251187828801612172565b925050606085013567ffffffffffffffff81111561253257612531611fdf565b5b61253e87828801612499565b91505092959194509250565b6000819050919050565b61255d8161254a565b811461256857600080fd5b50565b60008135905061257a81612554565b92915050565b60006020828403121561259657612595611fda565b5b60006125a48482850161256b565b91505092915050565b6125b68161254a565b82525050565b60006020820190506125d160008301846125ad565b92915050565b600080604083850312156125ee576125ed611fda565b5b60006125fc85828601612227565b925050602061260d85828601612227565b9150509250929050565b6000806040838503121561262e5761262d611fda565b5b600061263c85828601612227565b925050602061264d8582860161256b565b9150509250929050565b7f4e487b7100000000000000000000000000000000000000000000000000000000600052602260045260246000fd5b6000600282049050600182168061269e57607f821691505b6020821081036126b1576126b0612657565b5b50919050565b7f4552433732313a20617070726f76616c20746f2063757272656e74206f776e6560008201527f7200000000000000000000000000000000000000000000000000000000000000602082015250565b60006127136021836120aa565b915061271e826126b7565b604082019050919050565b6000602082019050818103600083015261274281612706565b9050919050565b7f4552433732313a20617070726f76652063616c6c6572206973206e6f7420746f60008201527f6b656e206f776e6572206f7220617070726f76656420666f7220616c6c000000602082015250565b60006127a5603d836120aa565b91506127b082612749565b604082019050919050565b600060208201905081810360008301526127d481612798565b9050919050565b7f4552433732313a2063616c6c6572206973206e6f7420746f6b656e206f776e6560008201527f72206f7220617070726f76656400000000000000000000000000000000000000602082015250565b6000612837602d836120aa565b9150612842826127db565b604082019050919050565b600060208201905081810360008301526128668161282a565b9050919050565b7f4552433732313a20696e76616c696420746f6b656e2049440000000000000000600082015250565b60006128a36018836120aa565b91506128ae8261286d565b602082019050919050565b600060208201905081810360008301526128d281612896565b9050919050565b7f4552433732313a2061646472657373207a65726f206973206e6f74206120766160008201527f6c6964206f776e65720000000000000000000000000000000000000000000000602082015250565b60006129356029836120aa565b9150612940826128d9565b604082019050919050565b6000602082019050818103600083015261296481612928565b9050919050565b7f546f6b656e20646f6573206e6f74206578697374000000000000000000000000600082015250565b60006129a16014836120aa565b91506129ac8261296b565b602082019050919050565b600060208201905081810360008301526129d081612994565b9050919050565b600081905092915050565b7f7b226e616d65223a22536e616b65426f74202300000000000000000000000000600082015250565b6000612a186013836129d7565b9150612a23826129e2565b601382019050919050565b6000612a398261209f565b612a4381856129d7565b9350612a538185602086016120bb565b80840191505092915050565b7f222c000000000000000000000000000000000000000000000000000000000000600082015250565b6000612a956002836129d7565b9150612aa082612a5f565b600282019050919050565b7f226465736372697074696f6e223a224120626174746c652d726561647920736e60008201527f616b6520626f74222c0000000000000000000000000000000000000000000000602082015250565b6000612b076029836129d7565b9150612b1282612aab565b602982019050919050565b7f22696d616765223a2268747470733a2f2f736e616b652d6172656e612e65786160008201527f6d706c652e636f6d2f6e66742f00000000000000000000000000000000000000602082015250565b6000612b79602d836129d7565b9150612b8482612b1d565b602d82019050919050565b7f2e706e67222c0000000000000000000000000000000000000000000000000000600082015250565b6000612bc56006836129d7565b9150612bd082612b8f565b600682019050919050565b7f2261747472696275746573223a5b7b2274726169745f74797065223a22426f7460008201527f204944222c2276616c7565223a22000000000000000000000000000000000000602082015250565b6000612c37602e836129d7565b9150612c4282612bdb565b602e82019050919050565b7f227d5d7d00000000000000000000000000000000000000000000000000000000600082015250565b6000612c836004836129d7565b9150612c8e82612c4d565b600482019050919050565b6000612ca482612a0b565b9150612cb08286612a2e565b9150612cbb82612a88565b9150612cc682612afa565b9150612cd182612b6c565b9150612cdd8285612a2e565b9150612ce882612bb8565b9150612cf382612c2a565b9150612cff8284612a2e565b9150612d0a82612c76565b9150819050949350505050565b7f646174613a6170706c69636174696f6e2f6a736f6e3b6261736536342c000000600082015250565b6000612d4d601d836129d7565b9150612d5882612d17565b601d82019050919050565b6000612d6e82612d40565b9150612d7a8284612a2e565b915081905092915050565b7f4f776e61626c653a206e6577206f776e657220697320746865207a65726f206160008201527f6464726573730000000000000000000000000000000000000000000000000000602082015250565b6000612de16026836120aa565b9150612dec82612d85565b604082019050919050565b60006020820190508181036000830152612e1081612dd4565b9050919050565b7f4f6e6c7920426f74526567697374727900000000000000000000000000000000600082015250565b6000612e4d6010836120aa565b9150612e5882612e17565b602082019050919050565b60006020820190508181036000830152612e7c81612e40565b9050919050565b7f426f7420616c726561647920686173204e465400000000000000000000000000600082015250565b6000612eb96013836120aa565b9150612ec482612e83565b602082019050919050565b60006020820190508181036000830152612ee881612eac565b9050919050565b7f4e487b7100000000000000000000000000000000000000000000000000000000600052601160045260246000fd5b6000612f2982612151565b91507fffffffffffffffffffffffffffffffffffffffffffffffffffffffffffffffff8203612f5b57612f5a612eef565b5b600182019050919050565b7f4f776e61626c653a2063616c6c6572206973206e6f7420746865206f776e6572600082015250565b6000612f9c6020836120aa565b9150612fa782612f66565b602082019050919050565b60006020820190508181036000830152612fcb81612f8f565b9050919050565b7f4552433732313a207472616e736665722066726f6d20696e636f72726563742060008201527f6f776e6572000000000000000000000000000000000000000000000000000000602082015250565b600061302e6025836120aa565b915061303982612fd2565b604082019050919050565b6000602082019050818103600083015261305d81613021565b9050919050565b7f4552433732313a207472616e7366657220746f20746865207a65726f2061646460008201527f7265737300000000000000000000000000000000000000000000000000000000602082015250565b60006130c06024836120aa565b91506130cb82613064565b604082019050919050565b600060208201905081810360008301526130ef816130b3565b9050919050565b7f4552433732313a20617070726f766520746f2063616c6c657200000000000000600082015250565b600061312c6019836120aa565b9150613137826130f6565b602082019050919050565b6000602082019050818103600083015261315b8161311f565b9050919050565b7f4552433732313a207472616e7366657220746f206e6f6e20455243373231526560008201527f63656976657220696d706c656d656e7465720000000000000000000000000000602082015250565b60006131be6032836120aa565b91506131c982613162565b604082019050919050565b600060208201905081810360008301526131ed816131b1565b9050919050565b600060ff82169050919050565b600061320c826131f4565b9150613217836131f4565b9250828202613225816131f4565b915080821461323757613236612eef565b5b5092915050565b7f4e487b7100000000000000000000000000000000000000000000000000000000600052601260045260246000fd5b6000613278826131f4565b9150613283836131f4565b9250826132935761329261323e565b5b828204905092915050565b60006132a9826131f4565b91506132b4836131f4565b9250826132c4576132c361323e565b5b828206905092915050565b60006132da826131f4565b91506132e5836131f4565b9250828201905060ff8111156132fe576132fd612eef565b5b92915050565b7f4e487b7100000000000000000000000000000000000000000000000000000000600052603260045260246000fd5b600061333e826131f4565b915060ff820361335157613350612eef565b5b600182019050919050565b600061336782612151565b915061337283612151565b9250826133825761338161323e565b5b828204905092915050565b600061339882612151565b9150600082036133ab576133aa612eef565b5b600182039050919050565b60006133c182612151565b91506133cc83612151565b9250826133dc576133db61323e565b5b828206905092915050565b60006133f282612151565b91506133fd83612151565b925082820190508082111561341557613414612eef565b5b92915050565b600061342682612151565b915061343183612151565b925082820261343f81612151565b9150828204841483151761345657613455612eef565b5b5092915050565b600081519050919050565b600082825260208201905092915050565b60006134848261345d565b61348e8185613468565b935061349e8185602086016120bb565b6134a7816120e5565b840191505092915050565b60006080820190506134c760008301876121e6565b6134d460208301866121e6565b6134e160408301856122fc565b81810360608301526134f38184613479565b905095945050505050565b60008151905061350d81612010565b92915050565b60006020828403121561352957613528611fda565b5b6000613537848285016134fe565b91505092915050565b7f4552433732313a206d696e7420746f20746865207a65726f2061646472657373600082015250565b60006135766020836120aa565b915061358182613540565b602082019050919050565b600060208201905081810360008301526135a581613569565b9050919050565b7f4552433732313a20746f6b656e20616c7265616479206d696e74656400000000600082015250565b60006135e2601c836120aa565b91506135ed826135ac565b602082019050919050565b60006020820190508181036000830152613611816135d5565b905091905056fe4142434445464748494a4b4c4d4e4f505152535455565758595a6162636465666768696a6b6c6d6e6f707172737475767778797a303132333435363738392b2fa2646970667358221220819a94a911c80afb58b5a4f7b6d8d2bb62322e10dfdc732c0ac69f823ac3d0e364736f6c63430008130033",
  "linkReferences": {},
  "deployedLinkReferences": {},
  "immutableReferences": {},
  "inputSourceName": "project/contracts/SnakeBotNFT.sol",
  "buildInfoId": "solc-0_8_19-592fc55f9a969e1469ddb6c761e5efeefabf7455"
}