{
  "_format": "hh-sol-artifact-1",
  "contractName": "BotRegistry",
  "sourceName": "contracts/BotRegistry.sol",
  "abi": [
    {
      "inputs": [],
      "stateMutability": "nonpayable",
      "type": "constructor"
    },
    {
      "inputs": [
        {
          "internalType": "address",
          "name": "owner",
          "type": "address"
        }
      ],
      "name": "OwnableInvalidOwner",
      "type": "error"
    },
    {
      "inputs": [
        {
          "internalType": "address",
          "name": "account",
          "type": "address"
        }
      ],
      "name": "OwnableUnauthorizedAccount",
      "type": "error"
    },
    {
      "inputs": [],
      "name": "ReentrancyGuardReentrantCall",
      "type": "error"
    },
    {
      "anonymous": false,
      "inputs": [
        {
          "indexed": true,
          "internalType": "bytes32",
          "name": "botId",
          "type": "bytes32"
        },
        {
          "indexed": false,
          "internalType": "bytes32",
          "name": "newCodeHash",
          "type": "bytes32"
        },
        {
          "indexed": false,
          "internalType": "uint256",
          "name": "timestamp",
          "type": "uint256"
        }
      ],
      "name": "BotCodeUpdated",
      "type": "event"
    },
    {
      "anonymous": false,
      "inputs": [
        {
          "indexed": true,
          "internalType": "bytes32",
          "name": "botId",
          "type": "bytes32"
        },
        {
          "indexed": false,
          "internalType": "string",
          "name": "botName",
          "type": "string"
        },
        {
          "indexed": true,
          "internalType": "address",
          "name": "creator",
          "type": "address"
        }
      ],
      "name": "BotCreated",
      "type": "event"
    },
    {
      "anonymous": false,
      "inputs": [
        {
          "indexed": true,
          "internalType": "bytes32",
          "name": "botId",
          "type": "bytes32"
        }
      ],
      "name": "BotDelisted",
      "type": "event"
    },
    {
      "anonymous": false,
      "inputs": [
        {
          "indexed": true,
          "internalType": "bytes32",
          "name": "botId",
          "type": "bytes32"
        },
        {
          "indexed": false,
          "internalType": "uint256",
          "name": "price",
          "type": "uint256"
        }
      ],
      "name": "BotListedForSale",
      "type": "event"
    },
    {
      "anonymous": false,
      "inputs": [
        {
          "indexed": true,
          "internalType": "bytes32",
          "name": "botId",
          "type": "bytes32"
        },
        {
          "indexed": true,
          "internalType": "address",
          "name": "owner",
          "type": "address"
        },
        {
          "indexed": false,
          "internalType": "uint256",
          "name": "fee",
          "type": "uint256"
        }
      ],
      "name": "BotRegistered",
      "type": "event"
    },
    {
      "anonymous": false,
      "inputs": [
        {
          "indexed": true,
          "internalType": "bytes32",
          "name": "botId",
          "type": "bytes32"
        },
        {
          "indexed": true,
          "internalType": "address",
          "name": "seller",
          "type": "address"
        },
        {
          "indexed": true,
          "internalType": "address",
          "name": "buyer",
          "type": "address"
        },
        {
          "indexed": false,
          "internalType": "uint256",
          "name": "price",
          "type": "uint256"
        }
      ],
      "name": "BotSold",
      "type": "event"
    },
    {
      "anonymous": false,
      "inputs": [
        {
          "indexed": false,
          "internalType": "uint256",
          "name": "amount",
          "type": "uint256"
        }
      ],
      "name": "FeesWithdrawn",
      "type": "event"
    },
    {
      "anonymous": false,
      "inputs": [
        {
          "indexed": false,
          "internalType": "uint256",
          "name": "newFee",
          "type": "uint256"
        }
      ],
      "name": "MarketplaceFeeUpdated",
      "type": "event"
    },
    {
      "anonymous": false,
      "inputs": [
        {
          "indexed": true,
          "internalType": "address",
          "name": "previousOwner",
          "type": "address"
        },
        {
          "indexed": true,
          "internalType": "address",
          "name": "newOwner",
          "type": "address"
        }
      ],
      "name": "OwnershipTransferred",
      "type": "event"
    },
    {
      "anonymous": false,
      "inputs": [
        {
          "indexed": true,
          "internalType": "address",
          "name": "user",
          "type": "address"
        },
        {
          "indexed": true,
          "internalType": "address",
          "name": "inviter",
          "type": "address"
        },
        {
          "indexed": false,
          "internalType": "uint256",
          "name": "timestamp",
          "type": "uint256"
        }
      ],
      "name": "ReferralBound",
      "type": "event"
    },
    {
      "anonymous": false,
      "inputs": [
        {
          "indexed": false,
          "internalType": "uint256",
          "name": "newFee",
          "type": "uint256"
        }
      ],
      "name": "RegistrationFeeUpdated",
      "type": "event"
    },
    {
      "inputs": [],
      "name": "MAX_BOTS_PER_USER",
      "outputs": [
        {
          "internalType": "uint256",
          "name": "",
          "type": "uint256"
        }
      ],
      "stateMutability": "view",
      "type": "function"
    },
    {
      "inputs": [
        {
          "internalType": "uint256",
          "name": "",
          "type": "uint256"
        }
      ],
      "name": "allBots",
      "outputs": [
        {
          "internalType": "bytes32",
          "name": "",
          "type": "bytes32"
        }
      ],
      "stateMutability": "view",
      "type": "function"
    },
    {
      "inputs": [],
      "name": "backendWallet",
      "outputs": [
        {
          "internalType": "address",
          "name": "",
          "type": "address"
        }
      ],
      "stateMutability": "view",
      "type": "function"
    },
    {
      "inputs": [
        {
          "internalType": "bytes32",
          "name": "",
          "type": "bytes32"
        }
      ],
      "name": "bots",
      "outputs": [
        {
          "internalType": "bytes32",
          "name": "botId",
          "type": "bytes32"
        },
        {
          "internalType": "string",
          "name": "botName",
          "type": "string"
        },
        {
          "internalType": "address",
          "name": "owner",
          "type": "address"
        },
        {
          "internalType": "bool",
          "name": "registered",
          "type": "bool"
        },
        {
          "internalType": "uint256",
          "name": "registeredAt",
          "type": "uint256"
        },
        {
          "internalType": "uint256",
          "name": "matchesPlayed",
          "type": "uint256"
        },
        {
          "internalType": "uint256",
          "name": "totalEarnings",
          "type": "uint256"
        },
        {
          "internalType": "uint256",
          "name": "salePrice",
          "type": "uint256"
        }
      ],
      "stateMutability": "view",
      "type": "function"
    },
    {
      "inputs": [
        {
          "internalType": "bytes32",
          "name": "_botId",
          "type": "bytes32"
        }
      ],
      "name": "buyBot",
      "outputs": [],
      "stateMutability": "payable",
      "type": "function"
    },
    {
      "inputs": [
        {
          "internalType": "bytes32",
          "name": "_botId",
          "type": "bytes32"
        }
      ],
      "name": "cancelSale",
      "outputs": [],
      "stateMutability": "nonpayable",
      "type": "function"
    },
    {
      "inputs": [
        {
          "internalType": "bytes32",
          "name": "_botId",
          "type": "bytes32"
        },
        {
          "internalType": "string",
          "name": "_botName",
          "type": "string"
        },
        {
          "internalType": "address",
          "name": "_creator",
          "type": "address"
        }
      ],
      "name": "createBot",
      "outputs": [],
      "stateMutability": "nonpayable",
      "type": "function"
    },
    {
      "inputs": [
        {
          "internalType": "bytes32",
          "name": "_botId",
          "type": "bytes32"
        }
      ],
      "name": "getBotById",
      "outputs": [
        {
          "components": [
            {
              "internalType": "bytes32",
              "name": "botId",
              "type": "bytes32"
            },
            {
              "internalType": "string",
              "name": "botName",
              "type": "string"
            },
            {
              "internalType": "address",
              "name": "owner",
              "type": "address"
            },
            {
              "internalType": "bool",
              "name": "registered",
              "type": "bool"
            },
            {
              "internalType": "uint256",
              "name": "registeredAt",
              "type": "uint256"
            },
            {
              "internalType": "uint256",
              "name": "matchesPlayed",
              "type": "uint256"
            },
            {
              "internalType": "uint256",
              "name": "totalEarnings",
              "type": "uint256"
            },
            {
              "internalType": "uint256",
              "name": "salePrice",
              "type": "uint256"
            }
          ],
          "internalType": "struct BotRegistry.Bot",
          "name": "",
          "type": "tuple"
        }
      ],
      "stateMutability": "view",
      "type": "function"
    },
    {
      "inputs": [
        {
          "internalType": "string",
          "name": "_name",
          "type": "string"
        }
      ],
      "name": "getBotByName",
      "outputs": [
        {
          "components": [
            {
              "internalType": "bytes32",
              "name": "botId",
              "type": "bytes32"
            },
            {
              "internalType": "string",
              "name": "botName",
              "type": "string"
            },
            {
              "internalType": "address",
              "name": "owner",
              "type": "address"
            },
            {
              "internalType": "bool",
              "name": "registered",
              "type": "bool"
            },
            {
              "internalType": "uint256",
              "name": "registeredAt",
              "type": "uint256"
            },
            {
              "internalType": "uint256",
              "name": "matchesPlayed",
              "type": "uint256"
            },
            {
              "internalType": "uint256",
              "name": "totalEarnings",
              "type": "uint256"
            },
            {
              "internalType": "uint256",
              "name": "salePrice",
              "type": "uint256"
            }
          ],
          "internalType": "struct BotRegistry.Bot",
          "name": "",
          "type": "tuple"
        }
      ],
      "stateMutability": "view",
      "type": "function"
    },
    {
      "inputs": [
        {
          "internalType": "uint256",
          "name": "_offset",
          "type": "uint256"
        },
        {
          "internalType": "uint256",
          "name": "_limit",
          "type": "uint256"
        }
      ],
      "name": "getBotsForSale",
      "outputs": [
        {
          "components": [
            {
              "internalType": "bytes32",
              "name": "botId",
              "type": "bytes32"
            },
            {
              "internalType": "string",
              "name": "botName",
              "type": "string"
            },
            {
              "internalType": "address",
              "name": "owner",
              "type": "address"
            },
            {
              "internalType": "bool",
              "name": "registered",
              "type": "bool"
            },
            {
              "internalType": "uint256",
              "name": "registeredAt",
              "type": "uint256"
            },
            {
              "internalType": "uint256",
              "name": "matchesPlayed",
              "type": "uint256"
            },
            {
              "internalType": "uint256",
              "name": "totalEarnings",
              "type": "uint256"
            },
            {
              "internalType": "uint256",
              "name": "salePrice",
              "type": "uint256"
            }
          ],
          "internalType": "struct BotRegistry.Bot[]",
          "name": "",
          "type": "tuple[]"
        }
      ],
      "stateMutability": "view",
      "type": "function"
    },
    {
      "inputs": [
        {
          "internalType": "address",
          "name": "_owner",
          "type": "address"
        }
      ],
      "name": "getOwnerBots",
      "outputs": [
        {
          "internalType": "bytes32[]",
          "name": "",
          "type": "bytes32[]"
        }
      ],
      "stateMutability": "view",
      "type": "function"
    },
    {
      "inputs": [],
      "name": "getRegistrationFee",
      "outputs": [
        {
          "internalType": "uint256",
          "name": "",
          "type": "uint256"
        }
      ],
      "stateMutability": "view",
      "type": "function"
    },
    {
      "inputs": [
        {
          "internalType": "address",
          "name": "",
          "type": "address"
        }
      ],
      "name": "hasRegistered",
      "outputs": [
        {
          "internalType": "bool",
          "name": "",
          "type": "bool"
        }
      ],
      "stateMutability": "view",
      "type": "function"
    },
    {
      "inputs": [
        {
          "internalType": "string",
          "name": "_name",
          "type": "string"
        }
      ],
      "name": "isNameAvailable",
      "outputs": [
        {
          "internalType": "bool",
          "name": "",
          "type": "bool"
        }
      ],
      "stateMutability": "view",
      "type": "function"
    },
    {
      "inputs": [
        {
          "internalType": "bytes32",
          "name": "_botId",
          "type": "bytes32"
        },
        {
          "internalType": "uint256",
          "name": "_price",
          "type": "uint256"
        }
      ],
      "name": "listForSale",
      "outputs": [],
      "stateMutability": "nonpayable",
      "type": "function"
    },
    {
      "inputs": [],
      "name": "marketplaceFeePercent",
      "outputs": [
        {
          "internalType": "uint256",
          "name": "",
          "type": "uint256"
        }
      ],
      "stateMutability": "view",
      "type": "function"
    },
    {
      "inputs": [
        {
          "internalType": "string",
          "name": "",
          "type": "string"
        }
      ],
      "name": "nameToBot",
      "outputs": [
        {
          "internalType": "bytes32",
          "name": "",
          "type": "bytes32"
        }
      ],
      "stateMutability": "view",
      "type": "function"
    },
    {
      "inputs": [],
      "name": "nftContract",
      "outputs": [
        {
          "internalType": "contract ISnakeBotNFT",
          "name": "",
          "type": "address"
        }
      ],
      "stateMutability": "view",
      "type": "function"
    },
    {
      "inputs": [],
      "name": "owner",
      "outputs": [
        {
          "internalType": "address",
          "name": "",
          "type": "address"
        }
      ],
      "stateMutability": "view",
      "type": "function"
    },
    {
      "inputs": [
        {
          "internalType": "address",
          "name": "",
          "type": "address"
        },
        {
          "internalType": "uint256",
          "name": "",
          "type": "uint256"
        }
      ],
      "name": "ownerBots",
      "outputs": [
        {
          "internalType": "bytes32",
          "name": "",
          "type": "bytes32"
        }
      ],
      "stateMutability": "view",
      "type": "function"
    },
    {
      "inputs": [],
      "name": "referralContract",
      "outputs": [
        {
          "internalType": "address",
          "name": "",
          "type": "address"
        }
      ],
      "stateMutability": "view",
      "type": "function"
    },
    {
      "inputs": [
        {
          "internalType": "bytes32",
          "name": "_botId",
          "type": "bytes32"
        },
        {
          "internalType": "address",
          "name": "_inviter",
          "type": "address"
        }
      ],
      "name": "registerBot",
      "outputs": [],
      "stateMutability": "payable",
      "type": "function"
    },
    {
      "inputs": [],
      "name": "registrationFee",
      "outputs": [
        {
          "internalType": "uint256",
          "name": "",
          "type": "uint256"
        }
      ],
      "stateMutability": "view",
      "type": "function"
    },
    {
      "inputs": [],
      "name": "renounceOwnership",
      "outputs": [],
      "stateMutability": "nonpayable",
      "type": "function"
    },
    {
      "inputs": [
        {
          "internalType": "address",
          "name": "_backendWallet",
          "type": "address"
        }
      ],
      "name": "setBackendWallet",
      "outputs": [],
      "stateMutability": "nonpayable",
      "type": "function"
    },
    {
      "inputs": [
        {
          "internalType": "uint256",
          "name": "_fee",
          "type": "uint256"
        }
      ],
      "name": "setMarketplaceFee",
      "outputs": [],
      "stateMutability": "nonpayable",
      "type": "function"
    },
    {
      "inputs": [
        {
          "internalType": "address",
          "name": "_nftContract",
          "type": "address"
        }
      ],
      "name": "setNFTContract",
      "outputs": [],
      "stateMutability": "nonpayable",
      "type": "function"
    },
    {
      "inputs": [
        {
          "internalType": "address",
          "name": "_referralContract",
          "type": "address"
        }
      ],
      "name": "setReferralContract",
      "outputs": [],
      "stateMutability": "nonpayable",
      "type": "function"
    },
    {
      "inputs": [
        {
          "internalType": "uint256",
          "name": "_fee",
          "type": "uint256"
        }
      ],
      "name": "setRegistrationFee",
      "outputs": [],
      "stateMutability": "nonpayable",
      "type": "function"
    },
    {
      "inputs": [
        {
          "internalType": "address",
          "name": "newOwner",
          "type": "address"
        }
      ],
      "name": "transferOwnership",
      "outputs": [],
      "stateMutability": "nonpayable",
      "type": "function"
    },
    {
      "inputs": [
        {
          "internalType": "bytes32",
          "name": "_botId",
          "type": "bytes32"
        },
        {
          "internalType": "bytes32",
          "name": "_newCodeHash",
          "type": "bytes32"
        }
      ],
      "name": "updateBotCode",
      "outputs": [],
      "stateMutability": "nonpayable",
      "type": "function"
    },
    {
      "inputs": [
        {
          "internalType": "bytes32",
          "name": "_botId",
          "type": "bytes32"
        },
        {
          "internalType": "uint256",
          "name": "_matchesPlayed",
          "type": "uint256"
        },
        {
          "internalType": "uint256",
          "name": "_totalEarnings",
          "type": "uint256"
        }
      ],
      "name": "updateBotStats",
      "outputs": [],
      "stateMutability": "nonpayable",
      "type": "function"
    },
    {
      "inputs": [],
      "name": "withdrawFees",
      "outputs": [],
      "stateMutability": "nonpayable",
      "type": "function"
    }
  ],
  "bytecode": "0x6080604052662386f26fc1000060035560fa6004553480156200002157600080fd5b5033600073ffffffffffffffffffffffffffffffffffffffff168173ffffffffffffffffffffffffffffffffffffffff1603620000985760006040517f1e4fbdf70000000000000000000000000000000000000000000000000000000081526004016200008f9190620001c0565b60405180910390fd5b620000a981620000b760201b60201c565b5060018081905550620001dd565b60008060009054906101000a900473ffffffffffffffffffffffffffffffffffffffff169050816000806101000a81548173ffffffffffffffffffffffffffffffffffffffff021916908373ffffffffffffffffffffffffffffffffffffffff1602179055508173ffffffffffffffffffffffffffffffffffffffff168173ffffffffffffffffffffffffffffffffffffffff167f8be0079c531659141344cd1fd0a4f28419497f9722a3daafe3b4186f6b6457e060405160405180910390a35050565b600073ffffffffffffffffffffffffffffffffffffffff82169050919050565b6000620001a8826200017b565b9050919050565b620001ba816200019b565b82525050565b6000602082019050620001d76000830184620001af565b92915050565b6146ce80620001ed6000396000f3fe6080604052600436106101ee5760003560e01c80637dad19db1161010d578063a7ccabdf116100a0578063e378bba11161006f578063e378bba1146106f5578063e764fec91461071e578063e7b65e561461075b578063f2fde38b14610798578063f4655378146107c1576101ee565b8063a7ccabdf1461064d578063c320c72714610676578063d50973081461069f578063d56d229d146106ca576101ee565b80639407ea98116100dc5780639407ea981461059357806395cc3739146105bc578063a0d03526146105e5578063a680baaf14610622576101ee565b80637dad19db146104bc5780638cf44d21146104e75780638d77b866146105245780638da5cb5b14610568576101ee565b80632c4ee1ee11610185578063476343ee11610154578063476343ee146104355780636023b8b81461044c57806368e5722a14610489578063715018a6146104a5576101ee565b80632c4ee1ee146103675780632cb52a9e146103a457806338d73b0d146103e157806346c376331461040c576101ee565b80630edfe7ec116101c15780630edfe7ec146102ad57806313fa727a146102d657806314c44e09146102ff57806322428b671461032a576101ee565b806306ad5a47146101f3578063092fe5b11461021c5780630946e807146102595780630bea898514610284575b600080fd5b3480156101ff57600080fd5b5061021a60048036038101906102159190612c0b565b6107dd565b005b34801561022857600080fd5b50610243600480360381019061023e9190612d7e565b610829565b6040516102509190612de0565b60405180910390f35b34801561026557600080fd5b5061026e610857565b60405161027b9190612e14565b60405180910390f35b34801561029057600080fd5b506102ab60048036038101906102a69190612e5b565b610861565b005b3480156102b957600080fd5b506102d460048036038101906102cf9190612c0b565b6109b0565b005b3480156102e257600080fd5b506102fd60048036038101906102f89190612e88565b6109fc565b005b34801561030b57600080fd5b50610314610ba0565b6040516103219190612e14565b60405180910390f35b34801561033657600080fd5b50610351600480360381019061034c9190612ef4565b610ba6565b60405161035e9190612de0565b60405180910390f35b34801561037357600080fd5b5061038e60048036038101906103899190612c0b565b610bca565b60405161039b9190612fdf565b60405180910390f35b3480156103b057600080fd5b506103cb60048036038101906103c69190613061565b610c61565b6040516103d89190613216565b60405180910390f35b3480156103ed57600080fd5b506103f6610e30565b6040516104039190612e14565b60405180910390f35b34801561041857600080fd5b50610433600480360381019061042e9190613238565b610e36565b005b34801561044157600080fd5b5061044a6112da565b005b34801561045857600080fd5b50610473600480360381019061046e91906132ac565b611418565b6040516104809190612de0565b60405180910390f35b6104a3600480360381019061049e9190612e5b565b611449565b005b3480156104b157600080fd5b506104ba61177e565b005b3480156104c857600080fd5b506104d1611792565b6040516104de91906132fb565b60405180910390f35b3480156104f357600080fd5b5061050e60048036038101906105099190613061565b6117b8565b60405161051b9190613325565b60405180910390f35b34801561053057600080fd5b5061054b60048036038101906105469190612e5b565b6117e8565b60405161055f98979695949392919061338a565b60405180910390f35b34801561057457600080fd5b5061057d6118e5565b60405161058a91906132fb565b60405180910390f35b34801561059f57600080fd5b506105ba60048036038101906105b59190612ef4565b61190e565b005b3480156105c857600080fd5b506105e360048036038101906105de919061340f565b61199c565b005b3480156105f157600080fd5b5061060c60048036038101906106079190612c0b565b6119d3565b6040516106199190613325565b60405180910390f35b34801561062e57600080fd5b506106376119f3565b60405161064491906132fb565b60405180910390f35b34801561065957600080fd5b50610674600480360381019061066f9190612c0b565b611a19565b005b34801561068257600080fd5b5061069d60048036038101906106989190612ef4565b611a65565b005b3480156106ab57600080fd5b506106b4611aae565b6040516106c19190612e14565b60405180910390f35b3480156106d657600080fd5b506106df611ab3565b6040516106ec91906134c1565b60405180910390f35b34801561070157600080fd5b5061071c600480360381019061071791906134dc565b611ad9565b005b34801561072a57600080fd5b5061074560048036038101906107409190612e5b565b611c76565b6040516107529190613216565b60405180910390f35b34801561076757600080fd5b50610782600480360381019061077d919061351c565b611dd9565b60405161078f91906136ce565b60405180910390f35b3480156107a457600080fd5b506107bf60048036038101906107ba9190612c0b565b6120e3565b005b6107db60048036038101906107d691906136f0565b612169565b005b6107e56127d1565b80600a60006101000a81548173ffffffffffffffffffffffffffffffffffffffff021916908373ffffffffffffffffffffffffffffffffffffffff16021790555050565b6007818051602081018201805184825260208301602085012081835280955050505050506000915090505481565b6000600354905090565b803373ffffffffffffffffffffffffffffffffffffffff166006600083815260200190815260200160002060020160009054906101000a900473ffffffffffffffffffffffffffffffffffffffff1673ffffffffffffffffffffffffffffffffffffffff1614610906576040517f08c379a00000000000000000000000000000000000000000000000000000000081526004016108fd9061377c565b60405180910390fd5b816000801b600660008381526020019081526020016000206000015403610962576040517f08c379a0000000000000000000000000000000000000000000000000000000008152600401610959906137e8565b60405180910390fd5b60006006600085815260200190815260200160002060060181905550827fa4ad22ac8c5bd7fbafb9b227157f8703502de98e563b9bbca8b455b87fca20b460405160405180910390a2505050565b6109b86127d1565b80600560006101000a81548173ffffffffffffffffffffffffffffffffffffffff021916908373ffffffffffffffffffffffffffffffffffffffff16021790555050565b813373ffffffffffffffffffffffffffffffffffffffff166006600083815260200190815260200160002060020160009054906101000a900473ffffffffffffffffffffffffffffffffffffffff1673ffffffffffffffffffffffffffffffffffffffff1614610aa1576040517f08c379a0000000000000000000000000000000000000000000000000000000008152600401610a989061377c565b60405180910390fd5b826000801b600660008381526020019081526020016000206000015403610afd576040517f08c379a0000000000000000000000000000000000000000000000000000000008152600401610af4906137e8565b60405180910390fd5b6006600085815260200190815260200160002060020160149054906101000a900460ff16610b60576040517f08c379a0000000000000000000000000000000000000000000000000000000008152600401610b5790613854565b60405180910390fd5b837fef24560bfd7d6cf87b2ac3904be3fd40cc254ec3b292a14551f40f8aa5dd3a058442604051610b92929190613874565b60405180910390a250505050565b60035481565b60098181548110610bb657600080fd5b906000526020600020016000915090505481565b6060600860008373ffffffffffffffffffffffffffffffffffffffff1673ffffffffffffffffffffffffffffffffffffffff168152602001908152602001600020805480602002602001604051908101604052809291908181526020018280548015610c5557602002820191906000526020600020905b815481526020019060010190808311610c41575b50505050509050919050565b610c69612b39565b600060078484604051610c7d9291906138cd565b90815260200160405180910390205490506000801b8103610cd3576040517f08c379a0000000000000000000000000000000000000000000000000000000008152600401610cca90613932565b60405180910390fd5b600660008281526020019081526020016000206040518061010001604052908160008201548152602001600182018054610d0c90613981565b80601f0160208091040260200160405190810160405280929190818152602001828054610d3890613981565b8015610d855780601f10610d5a57610100808354040283529160200191610d85565b820191906000526020600020905b815481529060010190602001808311610d6857829003601f168201915b505050505081526020016002820160009054906101000a900473ffffffffffffffffffffffffffffffffffffffff1673ffffffffffffffffffffffffffffffffffffffff1673ffffffffffffffffffffffffffffffffffffffff1681526020016002820160149054906101000a900460ff1615151515815260200160038201548152602001600482015481526020016005820154815260200160068201548152505091505092915050565b60045481565b600560009054906101000a900473ffffffffffffffffffffffffffffffffffffffff1673ffffffffffffffffffffffffffffffffffffffff163373ffffffffffffffffffffffffffffffffffffffff161480610ec45750610e956118e5565b73ffffffffffffffffffffffffffffffffffffffff163373ffffffffffffffffffffffffffffffffffffffff16145b610f03576040517f08c379a0000000000000000000000000000000000000000000000000000000008152600401610efa906139fe565b60405180910390fd5b600073ffffffffffffffffffffffffffffffffffffffff166006600086815260200190815260200160002060020160009054906101000a900473ffffffffffffffffffffffffffffffffffffffff1673ffffffffffffffffffffffffffffffffffffffff1614610fa8576040517f08c379a0000000000000000000000000000000000000000000000000000000008152600401610f9f90613a6a565b60405180910390fd5b600083839050118015610fbf575060208383905011155b610ffe576040517f08c379a0000000000000000000000000000000000000000000000000000000008152600401610ff590613ad6565b60405180910390fd5b6000801b600784846040516110149291906138cd565b90815260200160405180910390205414611063576040517f08c379a000000000000000000000000000000000000000000000000000000000815260040161105a90613b42565b60405180910390fd5b60405180610100016040528085815260200184848080601f016020809104026020016040519081016040528093929190818152602001838380828437600081840152601f19601f8201169050808301925050505050505081526020018273ffffffffffffffffffffffffffffffffffffffff1681526020016000151581526020016000815260200160008152602001600081526020016000815250600660008681526020019081526020016000206000820151816000015560208201518160010190816111309190613d04565b5060408201518160020160006101000a81548173ffffffffffffffffffffffffffffffffffffffff021916908373ffffffffffffffffffffffffffffffffffffffff16021790555060608201518160020160146101000a81548160ff0219169083151502179055506080820151816003015560a0820151816004015560c0820151816005015560e0820151816006015590505083600784846040516111d69291906138cd565b908152602001604051809103902081905550600073ffffffffffffffffffffffffffffffffffffffff168173ffffffffffffffffffffffffffffffffffffffff161461128357600860008273ffffffffffffffffffffffffffffffffffffffff1673ffffffffffffffffffffffffffffffffffffffff1681526020019081526020016000208490806001815401808255809150506001900390600052602060002001600090919091909150555b8073ffffffffffffffffffffffffffffffffffffffff16847f64ae3a504b2ef7a8722f64613b6d7d80e015a433c31e6fec80e01fc50f46311385856040516112cc929190613e03565b60405180910390a350505050565b6112e26127d1565b60004790506000811161132a576040517f08c379a000000000000000000000000000000000000000000000000000000000815260040161132190613e73565b60405180910390fd5b60006113346118e5565b73ffffffffffffffffffffffffffffffffffffffff168260405161135790613ec4565b60006040518083038185875af1925050503d8060008114611394576040519150601f19603f3d011682016040523d82523d6000602084013e611399565b606091505b50509050806113dd576040517f08c379a00000000000000000000000000000000000000000000000000000000081526004016113d490613f25565b60405180910390fd5b7f9800e6f57aeb4360eaa72295a820a4293e1e66fbfcabcd8874ae141304a76deb8260405161140c9190612e14565b60405180910390a15050565b6008602052816000526040600020818154811061143457600080fd5b90600052602060002001600091509150505481565b611451612858565b806000801b6006600083815260200190815260200160002060000154036114ad576040517f08c379a00000000000000000000000000000000000000000000000000000000081526004016114a4906137e8565b60405180910390fd5b6000600660008481526020019081526020016000209050600081600601541161150b576040517f08c379a000000000000000000000000000000000000000000000000000000000815260040161150290613f91565b60405180910390fd5b8060060154341015611552576040517f08c379a000000000000000000000000000000000000000000000000000000000815260040161154990613ffd565b60405180910390fd5b3373ffffffffffffffffffffffffffffffffffffffff168160020160009054906101000a900473ffffffffffffffffffffffffffffffffffffffff1673ffffffffffffffffffffffffffffffffffffffff16036115e4576040517f08c379a00000000000000000000000000000000000000000000000000000000081526004016115db90614069565b60405180910390fd5b60008160020160009054906101000a900473ffffffffffffffffffffffffffffffffffffffff16905060008260060154905060006127106004548361162991906140b8565b6116339190614129565b905060008183611643919061415a565b905061165087853361289e565b6000856006018190555060008473ffffffffffffffffffffffffffffffffffffffff168260405161168090613ec4565b60006040518083038185875af1925050503d80600081146116bd576040519150601f19603f3d011682016040523d82523d6000602084013e6116c2565b606091505b5050905080611706576040517f08c379a00000000000000000000000000000000000000000000000000000000081526004016116fd906141da565b60405180910390fd5b3373ffffffffffffffffffffffffffffffffffffffff168573ffffffffffffffffffffffffffffffffffffffff16897f14c0cd320a419293f1aac5b7d165a3c54958ad2e72b47f9280ddcab160a6fc8a876040516117649190612e14565b60405180910390a45050505050505061177b612a64565b50565b6117866127d1565b6117906000612a6d565b565b600a60009054906101000a900473ffffffffffffffffffffffffffffffffffffffff1681565b60008060001b600784846040516117d09291906138cd565b90815260200160405180910390205414905092915050565b600660205280600052604060002060009150905080600001549080600101805461181190613981565b80601f016020809104026020016040519081016040528092919081815260200182805461183d90613981565b801561188a5780601f1061185f5761010080835404028352916020019161188a565b820191906000526020600020905b81548152906001019060200180831161186d57829003601f168201915b5050505050908060020160009054906101000a900473ffffffffffffffffffffffffffffffffffffffff16908060020160149054906101000a900460ff16908060030154908060040154908060050154908060060154905088565b60008060009054906101000a900473ffffffffffffffffffffffffffffffffffffffff16905090565b6119166127d1565b6103e881111561195b576040517f08c379a000000000000000000000000000000000000000000000000000000000815260040161195290614246565b60405180910390fd5b806004819055507fe18aa129833f655a8166b6185277fee7a53f67e46fd32329bc2fc2ac21274d55816040516119919190612e14565b60405180910390a150565b6119a46127d1565b600060066000858152602001908152602001600020905082816004018190555081816005018190555050505050565b600b6020528060005260406000206000915054906101000a900460ff1681565b600560009054906101000a900473ffffffffffffffffffffffffffffffffffffffff1681565b611a216127d1565b80600260006101000a81548173ffffffffffffffffffffffffffffffffffffffff021916908373ffffffffffffffffffffffffffffffffffffffff16021790555050565b611a6d6127d1565b806003819055507fb120d26fad0e7bd128060711a484693f1283b8143bf94bde9df9b13217aa483681604051611aa39190612e14565b60405180910390a150565b600581565b600260009054906101000a900473ffffffffffffffffffffffffffffffffffffffff1681565b813373ffffffffffffffffffffffffffffffffffffffff166006600083815260200190815260200160002060020160009054906101000a900473ffffffffffffffffffffffffffffffffffffffff1673ffffffffffffffffffffffffffffffffffffffff1614611b7e576040517f08c379a0000000000000000000000000000000000000000000000000000000008152600401611b759061377c565b60405180910390fd5b826000801b600660008381526020019081526020016000206000015403611bda576040517f08c379a0000000000000000000000000000000000000000000000000000000008152600401611bd1906137e8565b60405180910390fd5b60008311611c1d576040517f08c379a0000000000000000000000000000000000000000000000000000000008152600401611c14906142b2565b60405180910390fd5b826006600086815260200190815260200160002060060181905550837fbf2760ddc6ce9cc72f27a80af87278eff2ff95061e576f76b14000990f0cec3e84604051611c689190612e14565b60405180910390a250505050565b611c7e612b39565b600660008381526020019081526020016000206040518061010001604052908160008201548152602001600182018054611cb790613981565b80601f0160208091040260200160405190810160405280929190818152602001828054611ce390613981565b8015611d305780601f10611d0557610100808354040283529160200191611d30565b820191906000526020600020905b815481529060010190602001808311611d1357829003601f168201915b505050505081526020016002820160009054906101000a900473ffffffffffffffffffffffffffffffffffffffff1673ffffffffffffffffffffffffffffffffffffffff1673ffffffffffffffffffffffffffffffffffffffff1681526020016002820160149054906101000a900460ff161515151581526020016003820154815260200160048201548152602001600582015481526020016006820154815250509050919050565b60606000805b600980549050811015611e455760006006600060098481548110611e0657611e056142d2565b5b90600052602060002001548152602001908152602001600020600601541115611e38578180611e3490614301565b9250505b8080600101915050611ddf565b506000818411611e555783611e57565b815b905060008167ffffffffffffffff811115611e7557611e74612c53565b5b604051908082528060200260200182016040528015611eae57816020015b611e9b612b39565b815260200190600190039081611e935790505b50905060008060005b60098054905081108015611eca57508482105b156120d45760006006600060098481548110611ee957611ee86142d2565b5b906000526020600020015481526020019081526020016000206006015411156120c1578883106120b2576006600060098381548110611f2b57611f2a6142d2565b5b906000526020600020015481526020019081526020016000206040518061010001604052908160008201548152602001600182018054611f6a90613981565b80601f0160208091040260200160405190810160405280929190818152602001828054611f9690613981565b8015611fe35780601f10611fb857610100808354040283529160200191611fe3565b820191906000526020600020905b815481529060010190602001808311611fc657829003601f168201915b505050505081526020016002820160009054906101000a900473ffffffffffffffffffffffffffffffffffffffff1673ffffffffffffffffffffffffffffffffffffffff1673ffffffffffffffffffffffffffffffffffffffff1681526020016002820160149054906101000a900460ff16151515158152602001600382015481526020016004820154815260200160058201548152602001600682015481525050848381518110612098576120976142d2565b5b602002602001018190525081806120ae90614301565b9250505b82806120bd90614301565b9350505b80806120cc90614301565b915050611eb7565b50829550505050505092915050565b6120eb6127d1565b600073ffffffffffffffffffffffffffffffffffffffff168173ffffffffffffffffffffffffffffffffffffffff160361215d5760006040517f1e4fbdf700000000000000000000000000000000000000000000000000000000815260040161215491906132fb565b60405180910390fd5b61216681612a6d565b50565b612171612858565b816000801b6006600083815260200190815260200160002060000154036121cd576040517f08c379a00000000000000000000000000000000000000000000000000000000081526004016121c4906137e8565b60405180910390fd5b6006600084815260200190815260200160002060020160149054906101000a900460ff1615612231576040517f08c379a000000000000000000000000000000000000000000000000000000000815260040161222890614395565b60405180910390fd5b600354341015612276576040517f08c379a000000000000000000000000000000000000000000000000000000000815260040161226d90614401565b60405180910390fd5b3373ffffffffffffffffffffffffffffffffffffffff168273ffffffffffffffffffffffffffffffffffffffff16036122e4576040517f08c379a00000000000000000000000000000000000000000000000000000000081526004016122db9061446d565b60405180910390fd5b6000600660008581526020019081526020016000209050600073ffffffffffffffffffffffffffffffffffffffff168160020160009054906101000a900473ffffffffffffffffffffffffffffffffffffffff1673ffffffffffffffffffffffffffffffffffffffff1603612486576005600860003373ffffffffffffffffffffffffffffffffffffffff1673ffffffffffffffffffffffffffffffffffffffff16815260200190815260200160002080549050106123d8576040517f08c379a00000000000000000000000000000000000000000000000000000000081526004016123cf906144d9565b60405180910390fd5b338160020160006101000a81548173ffffffffffffffffffffffffffffffffffffffff021916908373ffffffffffffffffffffffffffffffffffffffff160217905550600860003373ffffffffffffffffffffffffffffffffffffffff1673ffffffffffffffffffffffffffffffffffffffff168152602001908152602001600020849080600181540180825580915050600190039060005260206000200160009091909190915055612519565b3373ffffffffffffffffffffffffffffffffffffffff168160020160009054906101000a900473ffffffffffffffffffffffffffffffffffffffff1673ffffffffffffffffffffffffffffffffffffffff1614612518576040517f08c379a000000000000000000000000000000000000000000000000000000000815260040161250f90614545565b60405180910390fd5b5b60018160020160146101000a81548160ff0219169083151502179055504281600301819055506009849080600181540180825580915050600190039060005260206000200160009091909190915055600073ffffffffffffffffffffffffffffffffffffffff16600260009054906101000a900473ffffffffffffffffffffffffffffffffffffffff1673ffffffffffffffffffffffffffffffffffffffff161461266557600260009054906101000a900473ffffffffffffffffffffffffffffffffffffffff1673ffffffffffffffffffffffffffffffffffffffff16638d9845da3386846001016040518463ffffffff1660e01b8152600401612620939291906145e9565b6020604051808303816000875af115801561263f573d6000803e3d6000fd5b505050506040513d601f19601f82011682018060405250810190612663919061463c565b505b600b60003373ffffffffffffffffffffffffffffffffffffffff1673ffffffffffffffffffffffffffffffffffffffff16815260200190815260200160002060009054906101000a900460ff16612774576001600b60003373ffffffffffffffffffffffffffffffffffffffff1673ffffffffffffffffffffffffffffffffffffffff16815260200190815260200160002060006101000a81548160ff0219169083151502179055508273ffffffffffffffffffffffffffffffffffffffff163373ffffffffffffffffffffffffffffffffffffffff167ff8656c9527edebaca04b8fa3d13ccf899f67118871c85c9b8ed2c63b8ac7a5684260405161276b9190612e14565b60405180910390a35b3373ffffffffffffffffffffffffffffffffffffffff16847f37c96697e37d51b5ebc91e3fa58490f07c7dabfcf475cf32787a3c2ebd7ab8ee346040516127bb9190612e14565b60405180910390a350506127cd612a64565b5050565b6127d9612b31565b73ffffffffffffffffffffffffffffffffffffffff166127f76118e5565b73ffffffffffffffffffffffffffffffffffffffff16146128565761281a612b31565b6040517f118cdaa700000000000000000000000000000000000000000000000000000000815260040161284d91906132fb565b60405180910390fd5b565b600260015403612894576040517f3ee5aeb500000000000000000000000000000000000000000000000000000000815260040160405180910390fd5b6002600181905550565b6000600660008581526020019081526020016000209050818160020160006101000a81548173ffffffffffffffffffffffffffffffffffffffff021916908373ffffffffffffffffffffffffffffffffffffffff1602179055506000600860008573ffffffffffffffffffffffffffffffffffffffff1673ffffffffffffffffffffffffffffffffffffffff168152602001908152602001600020905060005b81805490508110156129f6578582828154811061295e5761295d6142d2565b5b9060005260206000200154036129e9578160018380549050612980919061415a565b81548110612991576129906142d2565b5b90600052602060002001548282815481106129af576129ae6142d2565b5b9060005260206000200181905550818054806129ce576129cd614669565b5b600190038181906000526020600020016000905590556129f6565b808060010191505061293e565b50600860008473ffffffffffffffffffffffffffffffffffffffff1673ffffffffffffffffffffffffffffffffffffffff1681526020019081526020016000208590806001815401808255809150506001900390600052602060002001600090919091909150555050505050565b60018081905550565b60008060009054906101000a900473ffffffffffffffffffffffffffffffffffffffff169050816000806101000a81548173ffffffffffffffffffffffffffffffffffffffff021916908373ffffffffffffffffffffffffffffffffffffffff1602179055508173ffffffffffffffffffffffffffffffffffffffff168173ffffffffffffffffffffffffffffffffffffffff167f8be0079c531659141344cd1fd0a4f28419497f9722a3daafe3b4186f6b6457e060405160405180910390a35050565b600033905090565b6040518061010001604052806000801916815260200160608152602001600073ffffffffffffffffffffffffffffffffffffffff168152602001600015158152602001600081526020016000815260200160008152602001600081525090565b6000604051905090565b600080fd5b600080fd5b600073ffffffffffffffffffffffffffffffffffffffff82169050919050565b6000612bd882612bad565b9050919050565b612be881612bcd565b8114612bf357600080fd5b50565b600081359050612c0581612bdf565b92915050565b600060208284031215612c2157612c20612ba3565b5b6000612c2f84828501612bf6565b91505092915050565b600080fd5b600080fd5b6000601f19601f8301169050919050565b7f4e487b7100000000000000000000000000000000000000000000000000000000600052604160045260246000fd5b612c8b82612c42565b810181811067ffffffffffffffff82111715612caa57612ca9612c53565b5b80604052505050565b6000612cbd612b99565b9050612cc98282612c82565b919050565b600067ffffffffffffffff821115612ce957612ce8612c53565b5b612cf282612c42565b9050602081019050919050565b82818337600083830152505050565b6000612d21612d1c84612cce565b612cb3565b905082815260208101848484011115612d3d57612d3c612c3d565b5b612d48848285612cff565b509392505050565b600082601f830112612d6557612d64612c38565b5b8135612d75848260208601612d0e565b91505092915050565b600060208284031215612d9457612d93612ba3565b5b600082013567ffffffffffffffff811115612db257612db1612ba8565b5b612dbe84828501612d50565b91505092915050565b6000819050919050565b612dda81612dc7565b82525050565b6000602082019050612df56000830184612dd1565b92915050565b6000819050919050565b612e0e81612dfb565b82525050565b6000602082019050612e296000830184612e05565b92915050565b612e3881612dc7565b8114612e4357600080fd5b50565b600081359050612e5581612e2f565b92915050565b600060208284031215612e7157612e70612ba3565b5b6000612e7f84828501612e46565b91505092915050565b60008060408385031215612e9f57612e9e612ba3565b5b6000612ead85828601612e46565b9250506020612ebe85828601612e46565b9150509250929050565b612ed181612dfb565b8114612edc57600080fd5b50565b600081359050612eee81612ec8565b92915050565b600060208284031215612f0a57612f09612ba3565b5b6000612f1884828501612edf565b91505092915050565b600081519050919050565b600082825260208201905092915050565b6000819050602082019050919050565b612f5681612dc7565b82525050565b6000612f688383612f4d565b60208301905092915050565b6000602082019050919050565b6000612f8c82612f21565b612f968185612f2c565b9350612fa183612f3d565b8060005b83811015612fd2578151612fb98882612f5c565b9750612fc483612f74565b925050600181019050612fa5565b5085935050505092915050565b60006020820190508181036000830152612ff98184612f81565b905092915050565b600080fd5b600080fd5b60008083601f84011261302157613020612c38565b5b8235905067ffffffffffffffff81111561303e5761303d613001565b5b60208301915083600182028301111561305a57613059613006565b5b9250929050565b6000806020838503121561307857613077612ba3565b5b600083013567ffffffffffffffff81111561309657613095612ba8565b5b6130a28582860161300b565b92509250509250929050565b600081519050919050565b600082825260208201905092915050565b60005b838110156130e85780820151818401526020810190506130cd565b60008484015250505050565b60006130ff826130ae565b61310981856130b9565b93506131198185602086016130ca565b61312281612c42565b840191505092915050565b61313681612bcd565b82525050565b60008115159050919050565b6131518161313c565b82525050565b61316081612dfb565b82525050565b60006101008301600083015161317f6000860182612f4d565b506020830151848203602086015261319782826130f4565b91505060408301516131ac604086018261312d565b5060608301516131bf6060860182613148565b5060808301516131d26080860182613157565b5060a08301516131e560a0860182613157565b5060c08301516131f860c0860182613157565b5060e083015161320b60e0860182613157565b508091505092915050565b600060208201905081810360008301526132308184613166565b905092915050565b6000806000806060858703121561325257613251612ba3565b5b600061326087828801612e46565b945050602085013567ffffffffffffffff81111561328157613280612ba8565b5b61328d8782880161300b565b935093505060406132a087828801612bf6565b91505092959194509250565b600080604083850312156132c3576132c2612ba3565b5b60006132d185828601612bf6565b92505060206132e285828601612edf565b9150509250929050565b6132f581612bcd565b82525050565b600060208201905061331060008301846132ec565b92915050565b61331f8161313c565b82525050565b600060208201905061333a6000830184613316565b92915050565b600082825260208201905092915050565b600061335c826130ae565b6133668185613340565b93506133768185602086016130ca565b61337f81612c42565b840191505092915050565b6000610100820190506133a0600083018b612dd1565b81810360208301526133b2818a613351565b90506133c160408301896132ec565b6133ce6060830188613316565b6133db6080830187612e05565b6133e860a0830186612e05565b6133f560c0830185612e05565b61340260e0830184612e05565b9998505050505050505050565b60008060006060848603121561342857613427612ba3565b5b600061343686828701612e46565b935050602061344786828701612edf565b925050604061345886828701612edf565b9150509250925092565b6000819050919050565b600061348761348261347d84612bad565b613462565b612bad565b9050919050565b60006134998261346c565b9050919050565b60006134ab8261348e565b9050919050565b6134bb816134a0565b82525050565b60006020820190506134d660008301846134b2565b92915050565b600080604083850312156134f3576134f2612ba3565b5b600061350185828601612e46565b925050602061351285828601612edf565b9150509250929050565b6000806040838503121561353357613532612ba3565b5b600061354185828601612edf565b925050602061355285828601612edf565b9150509250929050565b600081519050919050565b600082825260208201905092915050565b6000819050602082019050919050565b6000610100830160008301516135a16000860182612f4d565b50602083015184820360208601526135b982826130f4565b91505060408301516135ce604086018261312d565b5060608301516135e16060860182613148565b5060808301516135f46080860182613157565b5060a083015161360760a0860182613157565b5060c083015161361a60c0860182613157565b5060e083015161362d60e0860182613157565b508091505092915050565b60006136448383613588565b905092915050565b6000602082019050919050565b60006136648261355c565b61366e8185613567565b93508360208202850161368085613578565b8060005b858110156136bc578484038952815161369d8582613638565b94506136a88361364c565b925060208a01995050600181019050613684565b50829750879550505050505092915050565b600060208201905081810360008301526136e88184613659565b905092915050565b6000806040838503121561370757613706612ba3565b5b600061371585828601612e46565b925050602061372685828601612bf6565b9150509250929050565b7f4e6f7420626f74206f776e657200000000000000000000000000000000000000600082015250565b6000613766600d83613340565b915061377182613730565b602082019050919050565b6000602082019050818103600083015261379581613759565b9050919050565b7f426f7420646f6573206e6f742065786973740000000000000000000000000000600082015250565b60006137d2601283613340565b91506137dd8261379c565b602082019050919050565b60006020820190508181036000830152613801816137c5565b9050919050565b7f426f74206e6f7420726567697374657265640000000000000000000000000000600082015250565b600061383e601283613340565b915061384982613808565b602082019050919050565b6000602082019050818103600083015261386d81613831565b9050919050565b60006040820190506138896000830185612dd1565b6138966020830184612e05565b9392505050565b600081905092915050565b60006138b4838561389d565b93506138c1838584612cff565b82840190509392505050565b60006138da8284866138a8565b91508190509392505050565b7f426f74206e6f7420666f756e6400000000000000000000000000000000000000600082015250565b600061391c600d83613340565b9150613927826138e6565b602082019050919050565b6000602082019050818103600083015261394b8161390f565b9050919050565b7f4e487b7100000000000000000000000000000000000000000000000000000000600052602260045260246000fd5b6000600282049050600182168061399957607f821691505b6020821081036139ac576139ab613952565b5b50919050565b7f4e6f74206261636b656e64206f72206f776e6572000000000000000000000000600082015250565b60006139e8601483613340565b91506139f3826139b2565b602082019050919050565b60006020820190508181036000830152613a17816139db565b9050919050565b7f426f742065786973747300000000000000000000000000000000000000000000600082015250565b6000613a54600a83613340565b9150613a5f82613a1e565b602082019050919050565b60006020820190508181036000830152613a8381613a47565b9050919050565b7f496e76616c6964206e616d650000000000000000000000000000000000000000600082015250565b6000613ac0600c83613340565b9150613acb82613a8a565b602082019050919050565b60006020820190508181036000830152613aef81613ab3565b9050919050565b7f4e616d652074616b656e00000000000000000000000000000000000000000000600082015250565b6000613b2c600a83613340565b9150613b3782613af6565b602082019050919050565b60006020820190508181036000830152613b5b81613b1f565b9050919050565b60008190508160005260206000209050919050565b60006020601f8301049050919050565b600082821b905092915050565b600060088302613bc47fffffffffffffffffffffffffffffffffffffffffffffffffffffffffffffffff82613b87565b613bce8683613b87565b95508019841693508086168417925050509392505050565b6000613c01613bfc613bf784612dfb565b613462565b612dfb565b9050919050565b6000819050919050565b613c1b83613be6565b613c2f613c2782613c08565b848454613b94565b825550505050565b600090565b613c44613c37565b613c4f818484613c12565b505050565b5b81811015613c7357613c68600082613c3c565b600181019050613c55565b5050565b601f821115613cb857613c8981613b62565b613c9284613b77565b81016020851015613ca1578190505b613cb5613cad85613b77565b830182613c54565b50505b505050565b600082821c905092915050565b6000613cdb60001984600802613cbd565b1980831691505092915050565b6000613cf48383613cca565b9150826002028217905092915050565b613d0d826130ae565b67ffffffffffffffff811115613d2657613d25612c53565b5b613d308254613981565b613d3b828285613c77565b600060209050601f831160018114613d6e5760008415613d5c578287015190505b613d668582613ce8565b865550613dce565b601f198416613d7c86613b62565b60005b82811015613da457848901518255600182019150602085019450602081019050613d7f565b86831015613dc15784890151613dbd601f891682613cca565b8355505b6001600288020188555050505b505050505050565b6000613de28385613340565b9350613def838584612cff565b613df883612c42565b840190509392505050565b60006020820190508181036000830152613e1e818486613dd6565b90509392505050565b7f4e6f2062616c616e636500000000000000000000000000000000000000000000600082015250565b6000613e5d600a83613340565b9150613e6882613e27565b602082019050919050565b60006020820190508181036000830152613e8c81613e50565b9050919050565b600081905092915050565b50565b6000613eae600083613e93565b9150613eb982613e9e565b600082019050919050565b6000613ecf82613ea1565b9150819050919050565b7f5769746864726177206661696c65640000000000000000000000000000000000600082015250565b6000613f0f600f83613340565b9150613f1a82613ed9565b602082019050919050565b60006020820190508181036000830152613f3e81613f02565b9050919050565b7f4e6f7420666f722073616c650000000000000000000000000000000000000000600082015250565b6000613f7b600c83613340565b9150613f8682613f45565b602082019050919050565b60006020820190508181036000830152613faa81613f6e565b9050919050565b7f496e73756666696369656e74207061796d656e74000000000000000000000000600082015250565b6000613fe7601483613340565b9150613ff282613fb1565b602082019050919050565b6000602082019050818103600083015261401681613fda565b9050919050565b7f43616e6e6f7420627579206f776e20626f740000000000000000000000000000600082015250565b6000614053601283613340565b915061405e8261401d565b602082019050919050565b6000602082019050818103600083015261408281614046565b9050919050565b7f4e487b7100000000000000000000000000000000000000000000000000000000600052601160045260246000fd5b60006140c382612dfb565b91506140ce83612dfb565b92508282026140dc81612dfb565b915082820484148315176140f3576140f2614089565b5b5092915050565b7f4e487b7100000000000000000000000000000000000000000000000000000000600052601260045260246000fd5b600061413482612dfb565b915061413f83612dfb565b92508261414f5761414e6140fa565b5b828204905092915050565b600061416582612dfb565b915061417083612dfb565b925082820390508181111561418857614187614089565b5b92915050565b7f5061796d656e7420746f2073656c6c6572206661696c65640000000000000000600082015250565b60006141c4601883613340565b91506141cf8261418e565b602082019050919050565b600060208201905081810360008301526141f3816141b7565b9050919050565b7f4d61782031302500000000000000000000000000000000000000000000000000600082015250565b6000614230600783613340565b915061423b826141fa565b602082019050919050565b6000602082019050818103600083015261425f81614223565b9050919050565b7f5072696365206d757374206265203e2030000000000000000000000000000000600082015250565b600061429c601183613340565b91506142a782614266565b602082019050919050565b600060208201905081810360008301526142cb8161428f565b9050919050565b7f4e487b7100000000000000000000000000000000000000000000000000000000600052603260045260246000fd5b600061430c82612dfb565b91507fffffffffffffffffffffffffffffffffffffffffffffffffffffffffffffffff820361433e5761433d614089565b5b600182019050919050565b7f416c726561647920726567697374657265640000000000000000000000000000600082015250565b600061437f601283613340565b915061438a82614349565b602082019050919050565b600060208201905081810360008301526143ae81614372565b9050919050565b7f496e73756666696369656e742066656500000000000000000000000000000000600082015250565b60006143eb601083613340565b91506143f6826143b5565b602082019050919050565b6000602082019050818103600083015261441a816143de565b9050919050565b7f43616e6e6f7420696e766974652073656c660000000000000000000000000000600082015250565b6000614457601283613340565b915061446282614421565b602082019050919050565b600060208201905081810360008301526144868161444a565b9050919050565b7f4d6178203520626f747320706572207573657200000000000000000000000000600082015250565b60006144c3601383613340565b91506144ce8261448d565b602082019050919050565b600060208201905081810360008301526144f2816144b6565b9050919050565b7f426f74206f776e656420627920616e6f74686572000000000000000000000000600082015250565b600061452f601483613340565b915061453a826144f9565b602082019050919050565b6000602082019050818103600083015261455e81614522565b9050919050565b6000815461457281613981565b61457c8186613340565b9450600182166000811461459757600181146145ad576145e0565b60ff1983168652811515602002860193506145e0565b6145b685613b62565b60005b838110156145d8578154818901526001820191506020810190506145b9565b808801955050505b50505092915050565b60006060820190506145fe60008301866132ec565b61460b6020830185612dd1565b818103604083015261461d8184614565565b9050949350505050565b60008151905061463681612ec8565b92915050565b60006020828403121561465257614651612ba3565b5b600061466084828501614627565b91505092915050565b7f4e487b7100000000000000000000000000000000000000000000000000000000600052603160045260246000fdfea2646970667358221220b1ad31938666968d075540003e84cbfe88dc79b7e0797562e01f995fe4ffd0bb64736f6c63430008180033",
  "linkReferences": {},
  "deployedLinkReferences": {}
}