{
  "_format": "hh3-artifact-1",
  "contractName": "BotRegistry",
  "sourceName": "contracts/BotRegistry.sol",
  "abi": [
    {
      "anonymous": false,
      "inputs": [
        {
          "indexed": true,
          "internalType": "bytes32",
          "name": "botId",
          "type": "bytes32"
        },
        {
          "indexed": false,
          "internalType": "bytes32",
          "name": "newCodeHash",
          "type": "bytes32"
        },
        {
          "indexed": false,
          "internalType": "uint256",
          "name": "timestamp",
          "type": "uint256"
        }
      ],
      "name": "BotCodeUpdated",
      "type": "event"
    },
    {
      "anonymous": false,
      "inputs": [
        {
          "indexed": true,
          "internalType": "bytes32",
          "name": "botId",
          "type": "bytes32"
        },
        {
          "indexed": false,
          "internalType": "string",
          "name": "botName",
          "type": "string"
        },
        {
          "indexed": true,
          "internalType": "address",
          "name": "creator",
          "type": "address"
        }
      ],
      "name": "BotCreated",
      "type": "event"
    },
    {
      "anonymous": false,
      "inputs": [
        {
          "indexed": true,
          "internalType": "bytes32",
          "name": "botId",
          "type": "bytes32"
        }
      ],
      "name": "BotDelisted",
      "type": "event"
    },
    {
      "anonymous": false,
      "inputs": [
        {
          "indexed": true,
          "internalType": "bytes32",
          "name": "botId",
          "type": "bytes32"
        },
        {
          "indexed": false,
          "internalType": "uint256",
          "name": "price",
          "type": "uint256"
        }
      ],
      "name": "BotListedForSale",
      "type": "event"
    },
    {
      "anonymous": false,
      "inputs": [
        {
          "indexed": true,
          "internalType": "bytes32",
          "name": "botId",
          "type": "bytes32"
        },
        {
          "indexed": true,
          "internalType": "address",
          "name": "owner",
          "type": "address"
        },
        {
          "indexed": false,
          "internalType": "uint256",
          "name": "fee",
          "type": "uint256"
        }
      ],
      "name": "BotRegistered",
      "type": "event"
    },
    {
      "anonymous": false,
      "inputs": [
        {
          "indexed": true,
          "internalType": "bytes32",
          "name": "botId",
          "type": "bytes32"
        },
        {
          "indexed": true,
          "internalType": "address",
          "name": "seller",
          "type": "address"
        },
        {
          "indexed": true,
          "internalType": "address",
          "name": "buyer",
          "type": "address"
        },
        {
          "indexed": false,
          "internalType": "uint256",
          "name": "price",
          "type": "uint256"
        }
      ],
      "name": "BotSold",
      "type": "event"
    },
    {
      "anonymous": false,
      "inputs": [
        {
          "indexed": false,
          "internalType": "uint256",
          "name": "amount",
          "type": "uint256"
        }
      ],
      "name": "FeesWithdrawn",
      "type": "event"
    },
    {
      "anonymous": false,
      "inputs": [
        {
          "indexed": false,
          "internalType": "uint256",
          "name": "newFee",
          "type": "uint256"
        }
      ],
      "name": "MarketplaceFeeUpdated",
      "type": "event"
    },
    {
      "anonymous": false,
      "inputs": [
        {
          "indexed": true,
          "internalType": "address",
          "name": "previousOwner",
          "type": "address"
        },
        {
          "indexed": true,
          "internalType": "address",
          "name": "newOwner",
          "type": "address"
        }
      ],
      "name": "OwnershipTransferred",
      "type": "event"
    },
    {
      "anonymous": false,
      "inputs": [
        {
          "indexed": true,
          "internalType": "address",
          "name": "user",
          "type": "address"
        },
        {
          "indexed": true,
          "internalType": "address",
          "name": "inviter",
          "type": "address"
        },
        {
          "indexed": false,
          "internalType": "uint256",
          "name": "timestamp",
          "type": "uint256"
        }
      ],
      "name": "ReferralBound",
      "type": "event"
    },
    {
      "anonymous": false,
      "inputs": [
        {
          "indexed": false,
          "internalType": "uint256",
          "name": "newFee",
          "type": "uint256"
        }
      ],
      "name": "RegistrationFeeUpdated",
      "type": "event"
    },
    {
      "inputs": [],
      "name": "MAX_BOTS_PER_USER",
      "outputs": [
        {
          "internalType": "uint256",
          "name": "",
          "type": "uint256"
        }
      ],
      "stateMutability": "view",
      "type": "function"
    },
    {
      "inputs": [
        {
          "internalType": "uint256",
          "name": "",
          "type": "uint256"
        }
      ],
      "name": "allBots",
      "outputs": [
        {
          "internalType": "bytes32",
          "name": "",
          "type": "bytes32"
        }
      ],
      "stateMutability": "view",
      "type": "function"
    },
    {
      "inputs": [
        {
          "internalType": "bytes32",
          "name": "",
          "type": "bytes32"
        }
      ],
      "name": "bots",
      "outputs": [
        {
          "internalType": "bytes32",
          "name": "botId",
          "type": "bytes32"
        },
        {
          "internalType": "string",
          "name": "botName",
          "type": "string"
        },
        {
          "internalType": "address",
          "name": "owner",
          "type": "address"
        },
        {
          "internalType": "bool",
          "name": "registered",
          "type": "bool"
        },
        {
          "internalType": "uint256",
          "name": "registeredAt",
          "type": "uint256"
        },
        {
          "internalType": "uint256",
          "name": "matchesPlayed",
          "type": "uint256"
        },
        {
          "internalType": "uint256",
          "name": "totalEarnings",
          "type": "uint256"
        },
        {
          "internalType": "uint256",
          "name": "salePrice",
          "type": "uint256"
        }
      ],
      "stateMutability": "view",
      "type": "function"
    },
    {
      "inputs": [
        {
          "internalType": "bytes32",
          "name": "_botId",
          "type": "bytes32"
        }
      ],
      "name": "buyBot",
      "outputs": [],
      "stateMutability": "payable",
      "type": "function"
    },
    {
      "inputs": [
        {
          "internalType": "bytes32",
          "name": "_botId",
          "type": "bytes32"
        }
      ],
      "name": "cancelSale",
      "outputs": [],
      "stateMutability": "nonpayable",
      "type": "function"
    },
    {
      "inputs": [
        {
          "internalType": "bytes32",
          "name": "_botId",
          "type": "bytes32"
        },
        {
          "internalType": "string",
          "name": "_botName",
          "type": "string"
        },
        {
          "internalType": "address",
          "name": "_creator",
          "type": "address"
        }
      ],
      "name": "createBot",
      "outputs": [],
      "stateMutability": "nonpayable",
      "type": "function"
    },
    {
      "inputs": [
        {
          "internalType": "bytes32",
          "name": "_botId",
          "type": "bytes32"
        }
      ],
      "name": "getBotById",
      "outputs": [
        {
          "components": [
            {
              "internalType": "bytes32",
              "name": "botId",
              "type": "bytes32"
            },
            {
              "internalType": "string",
              "name": "botName",
              "type": "string"
            },
            {
              "internalType": "address",
              "name": "owner",
              "type": "address"
            },
            {
              "internalType": "bool",
              "name": "registered",
              "type": "bool"
            },
            {
              "internalType": "uint256",
              "name": "registeredAt",
              "type": "uint256"
            },
            {
              "internalType": "uint256",
              "name": "matchesPlayed",
              "type": "uint256"
            },
            {
              "internalType": "uint256",
              "name": "totalEarnings",
              "type": "uint256"
            },
            {
              "internalType": "uint256",
              "name": "salePrice",
              "type": "uint256"
            }
          ],
          "internalType": "struct BotRegistry.Bot",
          "name": "",
          "type": "tuple"
        }
      ],
      "stateMutability": "view",
      "type": "function"
    },
    {
      "inputs": [
        {
          "internalType": "string",
          "name": "_name",
          "type": "string"
        }
      ],
      "name": "getBotByName",
      "outputs": [
        {
          "components": [
            {
              "internalType": "bytes32",
              "name": "botId",
              "type": "bytes32"
            },
            {
              "internalType": "string",
              "name": "botName",
              "type": "string"
            },
            {
              "internalType": "address",
              "name": "owner",
              "type": "address"
            },
            {
              "internalType": "bool",
              "name": "registered",
              "type": "bool"
            },
            {
              "internalType": "uint256",
              "name": "registeredAt",
              "type": "uint256"
            },
            {
              "internalType": "uint256",
              "name": "matchesPlayed",
              "type": "uint256"
            },
            {
              "internalType": "uint256",
              "name": "totalEarnings",
              "type": "uint256"
            },
            {
              "internalType": "uint256",
              "name": "salePrice",
              "type": "uint256"
            }
          ],
          "internalType": "struct BotRegistry.Bot",
          "name": "",
          "type": "tuple"
        }
      ],
      "stateMutability": "view",
      "type": "function"
    },
    {
      "inputs": [
        {
          "internalType": "uint256",
          "name": "_offset",
          "type": "uint256"
        },
        {
          "internalType": "uint256",
          "name": "_limit",
          "type": "uint256"
        }
      ],
      "name": "getBotsForSale",
      "outputs": [
        {
          "components": [
            {
              "internalType": "bytes32",
              "name": "botId",
              "type": "bytes32"
            },
            {
              "internalType": "string",
              "name": "botName",
              "type": "string"
            },
            {
              "internalType": "address",
              "name": "owner",
              "type": "address"
            },
            {
              "internalType": "bool",
              "name": "registered",
              "type": "bool"
            },
            {
              "internalType": "uint256",
              "name": "registeredAt",
              "type": "uint256"
            },
            {
              "internalType": "uint256",
              "name": "matchesPlayed",
              "type": "uint256"
            },
            {
              "internalType": "uint256",
              "name": "totalEarnings",
              "type": "uint256"
            },
            {
              "internalType": "uint256",
              "name": "salePrice",
              "type": "uint256"
            }
          ],
          "internalType": "struct BotRegistry.Bot[]",
          "name": "",
          "type": "tuple[]"
        }
      ],
      "stateMutability": "view",
      "type": "function"
    },
    {
      "inputs": [
        {
          "internalType": "address",
          "name": "_owner",
          "type": "address"
        }
      ],
      "name": "getOwnerBots",
      "outputs": [
        {
          "internalType": "bytes32[]",
          "name": "",
          "type": "bytes32[]"
        }
      ],
      "stateMutability": "view",
      "type": "function"
    },
    {
      "inputs": [],
      "name": "getRegistrationFee",
      "outputs": [
        {
          "internalType": "uint256",
          "name": "",
          "type": "uint256"
        }
      ],
      "stateMutability": "view",
      "type": "function"
    },
    {
      "inputs": [
        {
          "internalType": "address",
          "name": "",
          "type": "address"
        }
      ],
      "name": "hasRegistered",
      "outputs": [
        {
          "internalType": "bool",
          "name": "",
          "type": "bool"
        }
      ],
      "stateMutability": "view",
      "type": "function"
    },
    {
      "inputs": [
        {
          "internalType": "string",
          "name": "_name",
          "type": "string"
        }
      ],
      "name": "isNameAvailable",
      "outputs": [
        {
          "internalType": "bool",
          "name": "",
          "type": "bool"
        }
      ],
      "stateMutability": "view",
      "type": "function"
    },
    {
      "inputs": [
        {
          "internalType": "bytes32",
          "name": "_botId",
          "type": "bytes32"
        },
        {
          "internalType": "uint256",
          "name": "_price",
          "type": "uint256"
        }
      ],
      "name": "listForSale",
      "outputs": [],
      "stateMutability": "nonpayable",
      "type": "function"
    },
    {
      "inputs": [],
      "name": "marketplaceFeePercent",
      "outputs": [
        {
          "internalType": "uint256",
          "name": "",
          "type": "uint256"
        }
      ],
      "stateMutability": "view",
      "type": "function"
    },
    {
      "inputs": [
        {
          "internalType": "string",
          "name": "",
          "type": "string"
        }
      ],
      "name": "nameToBot",
      "outputs": [
        {
          "internalType": "bytes32",
          "name": "",
          "type": "bytes32"
        }
      ],
      "stateMutability": "view",
      "type": "function"
    },
    {
      "inputs": [],
      "name": "nftContract",
      "outputs": [
        {
          "internalType": "contract ISnakeBotNFT",
          "name": "",
          "type": "address"
        }
      ],
      "stateMutability": "view",
      "type": "function"
    },
    {
      "inputs": [],
      "name": "owner",
      "outputs": [
        {
          "internalType": "address",
          "name": "",
          "type": "address"
        }
      ],
      "stateMutability": "view",
      "type": "function"
    },
    {
      "inputs": [
        {
          "internalType": "address",
          "name": "",
          "type": "address"
        },
        {
          "internalType": "uint256",
          "name": "",
          "type": "uint256"
        }
      ],
      "name": "ownerBots",
      "outputs": [
        {
          "internalType": "bytes32",
          "name": "",
          "type": "bytes32"
        }
      ],
      "stateMutability": "view",
      "type": "function"
    },
    {
      "inputs": [],
      "name": "referralContract",
      "outputs": [
        {
          "internalType": "address",
          "name": "",
          "type": "address"
        }
      ],
      "stateMutability": "view",
      "type": "function"
    },
    {
      "inputs": [
        {
          "internalType": "bytes32",
          "name": "_botId",
          "type": "bytes32"
        },
        {
          "internalType": "address",
          "name": "_inviter",
          "type": "address"
        }
      ],
      "name": "registerBot",
      "outputs": [],
      "stateMutability": "payable",
      "type": "function"
    },
    {
      "inputs": [],
      "name": "registrationFee",
      "outputs": [
        {
          "internalType": "uint256",
          "name": "",
          "type": "uint256"
        }
      ],
      "stateMutability": "view",
      "type": "function"
    },
    {
      "inputs": [],
      "name": "renounceOwnership",
      "outputs": [],
      "stateMutability": "nonpayable",
      "type": "function"
    },
    {
      "inputs": [
        {
          "internalType": "uint256",
          "name": "_fee",
          "type": "uint256"
        }
      ],
      "name": "setMarketplaceFee",
      "outputs": [],
      "stateMutability": "nonpayable",
      "type": "function"
    },
    {
      "inputs": [
        {
          "internalType": "address",
          "name": "_nftContract",
          "type": "address"
        }
      ],
      "name": "setNFTContract",
      "outputs": [],
      "stateMutability": "nonpayable",
      "type": "function"
    },
    {
      "inputs": [
        {
          "internalType": "address",
          "name": "_referralContract",
          "type": "address"
        }
      ],
      "name": "setReferralContract",
      "outputs": [],
      "stateMutability": "nonpayable",
      "type": "function"
    },
    {
      "inputs": [
        {
          "internalType": "uint256",
          "name": "_fee",
          "type": "uint256"
        }
      ],
      "name": "setRegistrationFee",
      "outputs": [],
      "stateMutability": "nonpayable",
      "type": "function"
    },
    {
      "inputs": [
        {
          "internalType": "address",
          "name": "newOwner",
          "type": "address"
        }
      ],
      "name": "transferOwnership",
      "outputs": [],
      "stateMutability": "nonpayable",
      "type": "function"
    },
    {
      "inputs": [
        {
          "internalType": "bytes32",
          "name": "_botId",
          "type": "bytes32"
        },
        {
          "internalType": "bytes32",
          "name": "_newCodeHash",
          "type": "bytes32"
        }
      ],
      "name": "updateBotCode",
      "outputs": [],
      "stateMutability": "nonpayable",
      "type": "function"
    },
    {
      "inputs": [
        {
          "internalType": "bytes32",
          "name": "_botId",
          "type": "bytes32"
        },
        {
          "internalType": "uint256",
          "name": "_matchesPlayed",
          "type": "uint256"
        },
        {
          "internalType": "uint256",
          "name": "_totalEarnings",
          "type": "uint256"
        }
      ],
      "name": "updateBotStats",
      "outputs": [],
      "stateMutability": "nonpayable",
      "type": "function"
    },
    {
      "inputs": [],
      "name": "withdrawFees",
      "outputs": [],
      "stateMutability": "nonpayable",
      "type": "function"
    }
  ],
  "bytecode": "0x6080604052662386f26fc1000060035560fa6004553480156200002157600080fd5b5062000042620000366200004f60201b60201c565b6200005760201b60201c565b600180819055506200011b565b600033905090565b60008060009054906101000a900473ffffffffffffffffffffffffffffffffffffffff169050816000806101000a81548173ffffffffffffffffffffffffffffffffffffffff021916908373ffffffffffffffffffffffffffffffffffffffff1602179055508173ffffffffffffffffffffffffffffffffffffffff168173ffffffffffffffffffffffffffffffffffffffff167f8be0079c531659141344cd1fd0a4f28419497f9722a3daafe3b4186f6b6457e060405160405180910390a35050565b6147a6806200012b6000396000f3fe6080604052600436106101d85760003560e01c80637dad19db11610102578063c320c72711610095578063e764fec911610064578063e764fec9146106b4578063e7b65e56146106f1578063f2fde38b1461072e578063f465537814610757576101d8565b8063c320c7271461060c578063d509730814610635578063d56d229d14610660578063e378bba11461068b576101d8565b80639407ea98116100d15780639407ea981461055457806395cc37391461057d578063a0d03526146105a6578063a7ccabdf146105e3576101d8565b80637dad19db1461047d5780638cf44d21146104a85780638d77b866146104e55780638da5cb5b14610529576101d8565b80632c4ee1ee1161017a578063476343ee11610149578063476343ee146103f65780636023b8b81461040d57806368e5722a1461044a578063715018a614610466576101d8565b80632c4ee1ee146103285780632cb52a9e1461036557806338d73b0d146103a257806346c37633146103cd576101d8565b80630bea8985116101b65780630bea89851461026e57806313fa727a1461029757806314c44e09146102c057806322428b67146102eb576101d8565b806306ad5a47146101dd578063092fe5b1146102065780630946e80714610243575b600080fd5b3480156101e957600080fd5b5061020460048036038101906101ff9190612be5565b610773565b005b34801561021257600080fd5b5061022d60048036038101906102289190612d58565b6107bf565b60405161023a9190612dba565b60405180910390f35b34801561024f57600080fd5b506102586107ed565b6040516102659190612dee565b60405180910390f35b34801561027a57600080fd5b5061029560048036038101906102909190612e35565b6107f7565b005b3480156102a357600080fd5b506102be60048036038101906102b99190612e62565b610990565b005b3480156102cc57600080fd5b506102d5610b7e565b6040516102e29190612dee565b60405180910390f35b3480156102f757600080fd5b50610312600480360381019061030d9190612ece565b610b84565b60405161031f9190612dba565b60405180910390f35b34801561033457600080fd5b5061034f600480360381019061034a9190612be5565b610ba8565b60405161035c9190612fb9565b60405180910390f35b34801561037157600080fd5b5061038c6004803603810190610387919061303b565b610c3f565b60405161039991906131f0565b60405180910390f35b3480156103ae57600080fd5b506103b7610e0e565b6040516103c49190612dee565b60405180910390f35b3480156103d957600080fd5b506103f460048036038101906103ef9190613212565b610e14565b005b34801561040257600080fd5b5061040b6111f3565b005b34801561041957600080fd5b50610434600480360381019061042f9190613286565b611331565b6040516104419190612dba565b60405180910390f35b610464600480360381019061045f9190612e35565b611362565b005b34801561047257600080fd5b5061047b6116e1565b005b34801561048957600080fd5b506104926116f5565b60405161049f91906132d5565b60405180910390f35b3480156104b457600080fd5b506104cf60048036038101906104ca919061303b565b61171b565b6040516104dc91906132ff565b60405180910390f35b3480156104f157600080fd5b5061050c60048036038101906105079190612e35565b61174b565b604051610520989796959493929190613364565b60405180910390f35b34801561053557600080fd5b5061053e611848565b60405161054b91906132d5565b60405180910390f35b34801561056057600080fd5b5061057b60048036038101906105769190612ece565b611871565b005b34801561058957600080fd5b506105a4600480360381019061059f91906133e9565b6118ff565b005b3480156105b257600080fd5b506105cd60048036038101906105c89190612be5565b611936565b6040516105da91906132ff565b60405180910390f35b3480156105ef57600080fd5b5061060a60048036038101906106059190612be5565b611956565b005b34801561061857600080fd5b50610633600480360381019061062e9190612ece565b6119a2565b005b34801561064157600080fd5b5061064a6119eb565b6040516106579190612dee565b60405180910390f35b34801561066c57600080fd5b506106756119f0565b604051610682919061349b565b60405180910390f35b34801561069757600080fd5b506106b260048036038101906106ad91906134b6565b611a16565b005b3480156106c057600080fd5b506106db60048036038101906106d69190612e35565b611bfd565b6040516106e891906131f0565b60405180910390f35b3480156106fd57600080fd5b50610718600480360381019061071391906134f6565b611d60565b60405161072591906136a8565b60405180910390f35b34801561073a57600080fd5b5061075560048036038101906107509190612be5565b612070565b005b610771600480360381019061076c91906136ca565b6120f3565b005b61077b6127a5565b80600960006101000a81548173ffffffffffffffffffffffffffffffffffffffff021916908373ffffffffffffffffffffffffffffffffffffffff16021790555050565b6006818051602081018201805184825260208301602085012081835280955050505050506000915090505481565b6000600354905090565b803373ffffffffffffffffffffffffffffffffffffffff166005600083815260200190815260200160002060020160009054906101000a900473ffffffffffffffffffffffffffffffffffffffff1673ffffffffffffffffffffffffffffffffffffffff161461089c576040517f08c379a000000000000000000000000000000000000000000000000000000000815260040161089390613756565b60405180910390fd5b81600073ffffffffffffffffffffffffffffffffffffffff166005600083815260200190815260200160002060020160009054906101000a900473ffffffffffffffffffffffffffffffffffffffff1673ffffffffffffffffffffffffffffffffffffffff1603610942576040517f08c379a0000000000000000000000000000000000000000000000000000000008152600401610939906137c2565b60405180910390fd5b60006005600085815260200190815260200160002060060181905550827fa4ad22ac8c5bd7fbafb9b227157f8703502de98e563b9bbca8b455b87fca20b460405160405180910390a2505050565b813373ffffffffffffffffffffffffffffffffffffffff166005600083815260200190815260200160002060020160009054906101000a900473ffffffffffffffffffffffffffffffffffffffff1673ffffffffffffffffffffffffffffffffffffffff1614610a35576040517f08c379a0000000000000000000000000000000000000000000000000000000008152600401610a2c90613756565b60405180910390fd5b82600073ffffffffffffffffffffffffffffffffffffffff166005600083815260200190815260200160002060020160009054906101000a900473ffffffffffffffffffffffffffffffffffffffff1673ffffffffffffffffffffffffffffffffffffffff1603610adb576040517f08c379a0000000000000000000000000000000000000000000000000000000008152600401610ad2906137c2565b60405180910390fd5b6005600085815260200190815260200160002060020160149054906101000a900460ff16610b3e576040517f08c379a0000000000000000000000000000000000000000000000000000000008152600401610b359061382e565b60405180910390fd5b837fef24560bfd7d6cf87b2ac3904be3fd40cc254ec3b292a14551f40f8aa5dd3a058442604051610b7092919061384e565b60405180910390a250505050565b60035481565b60088181548110610b9457600080fd5b906000526020600020016000915090505481565b6060600760008373ffffffffffffffffffffffffffffffffffffffff1673ffffffffffffffffffffffffffffffffffffffff168152602001908152602001600020805480602002602001604051908101604052809291908181526020018280548015610c3357602002820191906000526020600020905b815481526020019060010190808311610c1f575b50505050509050919050565b610c47612b13565b600060068484604051610c5b9291906138a7565b90815260200160405180910390205490506000801b8103610cb1576040517f08c379a0000000000000000000000000000000000000000000000000000000008152600401610ca89061390c565b60405180910390fd5b600560008281526020019081526020016000206040518061010001604052908160008201548152602001600182018054610cea9061395b565b80601f0160208091040260200160405190810160405280929190818152602001828054610d169061395b565b8015610d635780601f10610d3857610100808354040283529160200191610d63565b820191906000526020600020905b815481529060010190602001808311610d4657829003601f168201915b505050505081526020016002820160009054906101000a900473ffffffffffffffffffffffffffffffffffffffff1673ffffffffffffffffffffffffffffffffffffffff1673ffffffffffffffffffffffffffffffffffffffff1681526020016002820160149054906101000a900460ff1615151515815260200160038201548152602001600482015481526020016005820154815260200160068201548152505091505092915050565b60045481565b610e1c6127a5565b600073ffffffffffffffffffffffffffffffffffffffff166005600086815260200190815260200160002060020160009054906101000a900473ffffffffffffffffffffffffffffffffffffffff1673ffffffffffffffffffffffffffffffffffffffff1614610ec1576040517f08c379a0000000000000000000000000000000000000000000000000000000008152600401610eb8906139d8565b60405180910390fd5b600083839050118015610ed8575060208383905011155b610f17576040517f08c379a0000000000000000000000000000000000000000000000000000000008152600401610f0e90613a44565b60405180910390fd5b6000801b60068484604051610f2d9291906138a7565b90815260200160405180910390205414610f7c576040517f08c379a0000000000000000000000000000000000000000000000000000000008152600401610f7390613ab0565b60405180910390fd5b60405180610100016040528085815260200184848080601f016020809104026020016040519081016040528093929190818152602001838380828437600081840152601f19601f8201169050808301925050505050505081526020018273ffffffffffffffffffffffffffffffffffffffff1681526020016000151581526020016000815260200160008152602001600081526020016000815250600560008681526020019081526020016000206000820151816000015560208201518160010190816110499190613c72565b5060408201518160020160006101000a81548173ffffffffffffffffffffffffffffffffffffffff021916908373ffffffffffffffffffffffffffffffffffffffff16021790555060608201518160020160146101000a81548160ff0219169083151502179055506080820151816003015560a0820151816004015560c0820151816005015560e0820151816006015590505083600684846040516110ef9291906138a7565b908152602001604051809103902081905550600073ffffffffffffffffffffffffffffffffffffffff168173ffffffffffffffffffffffffffffffffffffffff161461119c57600760008273ffffffffffffffffffffffffffffffffffffffff1673ffffffffffffffffffffffffffffffffffffffff1681526020019081526020016000208490806001815401808255809150506001900390600052602060002001600090919091909150555b8073ffffffffffffffffffffffffffffffffffffffff16847f64ae3a504b2ef7a8722f64613b6d7d80e015a433c31e6fec80e01fc50f46311385856040516111e5929190613d71565b60405180910390a350505050565b6111fb6127a5565b600047905060008111611243576040517f08c379a000000000000000000000000000000000000000000000000000000000815260040161123a90613de1565b60405180910390fd5b600061124d611848565b73ffffffffffffffffffffffffffffffffffffffff168260405161127090613e32565b60006040518083038185875af1925050503d80600081146112ad576040519150601f19603f3d011682016040523d82523d6000602084013e6112b2565b606091505b50509050806112f6576040517f08c379a00000000000000000000000000000000000000000000000000000000081526004016112ed90613e93565b60405180910390fd5b7f9800e6f57aeb4360eaa72295a820a4293e1e66fbfcabcd8874ae141304a76deb826040516113259190612dee565b60405180910390a15050565b6007602052816000526040600020818154811061134d57600080fd5b90600052602060002001600091509150505481565b61136a612823565b80600073ffffffffffffffffffffffffffffffffffffffff166005600083815260200190815260200160002060020160009054906101000a900473ffffffffffffffffffffffffffffffffffffffff1673ffffffffffffffffffffffffffffffffffffffff1603611410576040517f08c379a0000000000000000000000000000000000000000000000000000000008152600401611407906137c2565b60405180910390fd5b6000600560008481526020019081526020016000209050600081600601541161146e576040517f08c379a000000000000000000000000000000000000000000000000000000000815260040161146590613eff565b60405180910390fd5b80600601543410156114b5576040517f08c379a00000000000000000000000000000000000000000000000000000000081526004016114ac90613f6b565b60405180910390fd5b3373ffffffffffffffffffffffffffffffffffffffff168160020160009054906101000a900473ffffffffffffffffffffffffffffffffffffffff1673ffffffffffffffffffffffffffffffffffffffff1603611547576040517f08c379a000000000000000000000000000000000000000000000000000000000815260040161153e90613fd7565b60405180910390fd5b60008160020160009054906101000a900473ffffffffffffffffffffffffffffffffffffffff16905060008260060154905060006127106004548361158c9190614026565b6115969190614097565b9050600081836115a691906140c8565b90506115b3878533612872565b6000856006018190555060008473ffffffffffffffffffffffffffffffffffffffff16826040516115e390613e32565b60006040518083038185875af1925050503d8060008114611620576040519150601f19603f3d011682016040523d82523d6000602084013e611625565b606091505b5050905080611669576040517f08c379a000000000000000000000000000000000000000000000000000000000815260040161166090614148565b60405180910390fd5b3373ffffffffffffffffffffffffffffffffffffffff168573ffffffffffffffffffffffffffffffffffffffff16897f14c0cd320a419293f1aac5b7d165a3c54958ad2e72b47f9280ddcab160a6fc8a876040516116c79190612dee565b60405180910390a4505050505050506116de612a3e565b50565b6116e96127a5565b6116f36000612a47565b565b600960009054906101000a900473ffffffffffffffffffffffffffffffffffffffff1681565b60008060001b600684846040516117339291906138a7565b90815260200160405180910390205414905092915050565b60056020528060005260406000206000915090508060000154908060010180546117749061395b565b80601f01602080910402602001604051908101604052809291908181526020018280546117a09061395b565b80156117ed5780601f106117c2576101008083540402835291602001916117ed565b820191906000526020600020905b8154815290600101906020018083116117d057829003601f168201915b5050505050908060020160009054906101000a900473ffffffffffffffffffffffffffffffffffffffff16908060020160149054906101000a900460ff16908060030154908060040154908060050154908060060154905088565b60008060009054906101000a900473ffffffffffffffffffffffffffffffffffffffff16905090565b6118796127a5565b6103e88111156118be576040517f08c379a00000000000000000000000000000000000000000000000000000000081526004016118b5906141b4565b60405180910390fd5b806004819055507fe18aa129833f655a8166b6185277fee7a53f67e46fd32329bc2fc2ac21274d55816040516118f49190612dee565b60405180910390a150565b6119076127a5565b600060056000858152602001908152602001600020905082816004018190555081816005018190555050505050565b600a6020528060005260406000206000915054906101000a900460ff1681565b61195e6127a5565b80600260006101000a81548173ffffffffffffffffffffffffffffffffffffffff021916908373ffffffffffffffffffffffffffffffffffffffff16021790555050565b6119aa6127a5565b806003819055507fb120d26fad0e7bd128060711a484693f1283b8143bf94bde9df9b13217aa4836816040516119e09190612dee565b60405180910390a150565b600581565b600260009054906101000a900473ffffffffffffffffffffffffffffffffffffffff1681565b813373ffffffffffffffffffffffffffffffffffffffff166005600083815260200190815260200160002060020160009054906101000a900473ffffffffffffffffffffffffffffffffffffffff1673ffffffffffffffffffffffffffffffffffffffff1614611abb576040517f08c379a0000000000000000000000000000000000000000000000000000000008152600401611ab290613756565b60405180910390fd5b82600073ffffffffffffffffffffffffffffffffffffffff166005600083815260200190815260200160002060020160009054906101000a900473ffffffffffffffffffffffffffffffffffffffff1673ffffffffffffffffffffffffffffffffffffffff1603611b61576040517f08c379a0000000000000000000000000000000000000000000000000000000008152600401611b58906137c2565b60405180910390fd5b60008311611ba4576040517f08c379a0000000000000000000000000000000000000000000000000000000008152600401611b9b90614220565b60405180910390fd5b826005600086815260200190815260200160002060060181905550837fbf2760ddc6ce9cc72f27a80af87278eff2ff95061e576f76b14000990f0cec3e84604051611bef9190612dee565b60405180910390a250505050565b611c05612b13565b600560008381526020019081526020016000206040518061010001604052908160008201548152602001600182018054611c3e9061395b565b80601f0160208091040260200160405190810160405280929190818152602001828054611c6a9061395b565b8015611cb75780601f10611c8c57610100808354040283529160200191611cb7565b820191906000526020600020905b815481529060010190602001808311611c9a57829003601f168201915b505050505081526020016002820160009054906101000a900473ffffffffffffffffffffffffffffffffffffffff1673ffffffffffffffffffffffffffffffffffffffff1673ffffffffffffffffffffffffffffffffffffffff1681526020016002820160149054906101000a900460ff161515151581526020016003820154815260200160048201548152602001600582015481526020016006820154815250509050919050565b60606000805b600880549050811015611dd25760006005600060088481548110611d8d57611d8c614240565b5b90600052602060002001548152602001908152602001600020600601541115611dbf578180611dbb9061426f565b9250505b8080611dca9061426f565b915050611d66565b506000818411611de25783611de4565b815b905060008167ffffffffffffffff811115611e0257611e01612c2d565b5b604051908082528060200260200182016040528015611e3b57816020015b611e28612b13565b815260200190600190039081611e205790505b50905060008060005b60088054905081108015611e5757508482105b156120615760006005600060088481548110611e7657611e75614240565b5b9060005260206000200154815260200190815260200160002060060154111561204e5788831061203f576005600060088381548110611eb857611eb7614240565b5b906000526020600020015481526020019081526020016000206040518061010001604052908160008201548152602001600182018054611ef79061395b565b80601f0160208091040260200160405190810160405280929190818152602001828054611f239061395b565b8015611f705780601f10611f4557610100808354040283529160200191611f70565b820191906000526020600020905b815481529060010190602001808311611f5357829003601f168201915b505050505081526020016002820160009054906101000a900473ffffffffffffffffffffffffffffffffffffffff1673ffffffffffffffffffffffffffffffffffffffff1673ffffffffffffffffffffffffffffffffffffffff1681526020016002820160149054906101000a900460ff1615151515815260200160038201548152602001600482015481526020016005820154815260200160068201548152505084838151811061202557612024614240565b5b6020026020010181905250818061203b9061426f565b9250505b828061204a9061426f565b9350505b80806120599061426f565b915050611e44565b50829550505050505092915050565b6120786127a5565b600073ffffffffffffffffffffffffffffffffffffffff168173ffffffffffffffffffffffffffffffffffffffff16036120e7576040517f08c379a00000000000000000000000000000000000000000000000000000000081526004016120de90614329565b60405180910390fd5b6120f081612a47565b50565b6120fb612823565b81600073ffffffffffffffffffffffffffffffffffffffff166005600083815260200190815260200160002060020160009054906101000a900473ffffffffffffffffffffffffffffffffffffffff1673ffffffffffffffffffffffffffffffffffffffff16036121a1576040517f08c379a0000000000000000000000000000000000000000000000000000000008152600401612198906137c2565b60405180910390fd5b6005600084815260200190815260200160002060020160149054906101000a900460ff1615612205576040517f08c379a00000000000000000000000000000000000000000000000000000000081526004016121fc90614395565b60405180910390fd5b60035434101561224a576040517f08c379a000000000000000000000000000000000000000000000000000000000815260040161224190614401565b60405180910390fd5b3373ffffffffffffffffffffffffffffffffffffffff168273ffffffffffffffffffffffffffffffffffffffff16036122b8576040517f08c379a00000000000000000000000000000000000000000000000000000000081526004016122af9061446d565b60405180910390fd5b6000600560008581526020019081526020016000209050600073ffffffffffffffffffffffffffffffffffffffff168160020160009054906101000a900473ffffffffffffffffffffffffffffffffffffffff1673ffffffffffffffffffffffffffffffffffffffff160361245a576005600760003373ffffffffffffffffffffffffffffffffffffffff1673ffffffffffffffffffffffffffffffffffffffff16815260200190815260200160002080549050106123ac576040517f08c379a00000000000000000000000000000000000000000000000000000000081526004016123a3906144d9565b60405180910390fd5b338160020160006101000a81548173ffffffffffffffffffffffffffffffffffffffff021916908373ffffffffffffffffffffffffffffffffffffffff160217905550600760003373ffffffffffffffffffffffffffffffffffffffff1673ffffffffffffffffffffffffffffffffffffffff1681526020019081526020016000208490806001815401808255809150506001900390600052602060002001600090919091909150556124ed565b3373ffffffffffffffffffffffffffffffffffffffff168160020160009054906101000a900473ffffffffffffffffffffffffffffffffffffffff1673ffffffffffffffffffffffffffffffffffffffff16146124ec576040517f08c379a00000000000000000000000000000000000000000000000000000000081526004016124e390614545565b60405180910390fd5b5b60018160020160146101000a81548160ff0219169083151502179055504281600301819055506008849080600181540180825580915050600190039060005260206000200160009091909190915055600073ffffffffffffffffffffffffffffffffffffffff16600260009054906101000a900473ffffffffffffffffffffffffffffffffffffffff1673ffffffffffffffffffffffffffffffffffffffff161461263957600260009054906101000a900473ffffffffffffffffffffffffffffffffffffffff1673ffffffffffffffffffffffffffffffffffffffff16638d9845da3386846001016040518463ffffffff1660e01b81526004016125f4939291906145e9565b6020604051808303816000875af1158015612613573d6000803e3d6000fd5b505050506040513d601f19601f82011682018060405250810190612637919061463c565b505b600a60003373ffffffffffffffffffffffffffffffffffffffff1673ffffffffffffffffffffffffffffffffffffffff16815260200190815260200160002060009054906101000a900460ff16612748576001600a60003373ffffffffffffffffffffffffffffffffffffffff1673ffffffffffffffffffffffffffffffffffffffff16815260200190815260200160002060006101000a81548160ff0219169083151502179055508273ffffffffffffffffffffffffffffffffffffffff163373ffffffffffffffffffffffffffffffffffffffff167ff8656c9527edebaca04b8fa3d13ccf899f67118871c85c9b8ed2c63b8ac7a5684260405161273f9190612dee565b60405180910390a35b3373ffffffffffffffffffffffffffffffffffffffff16847f37c96697e37d51b5ebc91e3fa58490f07c7dabfcf475cf32787a3c2ebd7ab8ee3460405161278f9190612dee565b60405180910390a350506127a1612a3e565b5050565b6127ad612b0b565b73ffffffffffffffffffffffffffffffffffffffff166127cb611848565b73ffffffffffffffffffffffffffffffffffffffff1614612821576040517f08c379a0000000000000000000000000000000000000000000000000000000008152600401612818906146b5565b60405180910390fd5b565b600260015403612868576040517f08c379a000000000000000000000000000000000000000000000000000000000815260040161285f90614721565b60405180910390fd5b6002600181905550565b6000600560008581526020019081526020016000209050818160020160006101000a81548173ffffffffffffffffffffffffffffffffffffffff021916908373ffffffffffffffffffffffffffffffffffffffff1602179055506000600760008573ffffffffffffffffffffffffffffffffffffffff1673ffffffffffffffffffffffffffffffffffffffff168152602001908152602001600020905060005b81805490508110156129d0578582828154811061293257612931614240565b5b9060005260206000200154036129bd57816001838054905061295491906140c8565b8154811061296557612964614240565b5b906000526020600020015482828154811061298357612982614240565b5b9060005260206000200181905550818054806129a2576129a1614741565b5b600190038181906000526020600020016000905590556129d0565b80806129c89061426f565b915050612912565b50600760008473ffffffffffffffffffffffffffffffffffffffff1673ffffffffffffffffffffffffffffffffffffffff1681526020019081526020016000208590806001815401808255809150506001900390600052602060002001600090919091909150555050505050565b60018081905550565b60008060009054906101000a900473ffffffffffffffffffffffffffffffffffffffff169050816000806101000a81548173ffffffffffffffffffffffffffffffffffffffff021916908373ffffffffffffffffffffffffffffffffffffffff1602179055508173ffffffffffffffffffffffffffffffffffffffff168173ffffffffffffffffffffffffffffffffffffffff167f8be0079c531659141344cd1fd0a4f28419497f9722a3daafe3b4186f6b6457e060405160405180910390a35050565b600033905090565b6040518061010001604052806000801916815260200160608152602001600073ffffffffffffffffffffffffffffffffffffffff168152602001600015158152602001600081526020016000815260200160008152602001600081525090565b6000604051905090565b600080fd5b600080fd5b600073ffffffffffffffffffffffffffffffffffffffff82169050919050565b6000612bb282612b87565b9050919050565b612bc281612ba7565b8114612bcd57600080fd5b50565b600081359050612bdf81612bb9565b92915050565b600060208284031215612bfb57612bfa612b7d565b5b6000612c0984828501612bd0565b91505092915050565b600080fd5b600080fd5b6000601f19601f8301169050919050565b7f4e487b7100000000000000000000000000000000000000000000000000000000600052604160045260246000fd5b612c6582612c1c565b810181811067ffffffffffffffff82111715612c8457612c83612c2d565b5b80604052505050565b6000612c97612b73565b9050612ca38282612c5c565b919050565b600067ffffffffffffffff821115612cc357612cc2612c2d565b5b612ccc82612c1c565b9050602081019050919050565b82818337600083830152505050565b6000612cfb612cf684612ca8565b612c8d565b905082815260208101848484011115612d1757612d16612c17565b5b612d22848285612cd9565b509392505050565b600082601f830112612d3f57612d3e612c12565b5b8135612d4f848260208601612ce8565b91505092915050565b600060208284031215612d6e57612d6d612b7d565b5b600082013567ffffffffffffffff811115612d8c57612d8b612b82565b5b612d9884828501612d2a565b91505092915050565b6000819050919050565b612db481612da1565b82525050565b6000602082019050612dcf6000830184612dab565b92915050565b6000819050919050565b612de881612dd5565b82525050565b6000602082019050612e036000830184612ddf565b92915050565b612e1281612da1565b8114612e1d57600080fd5b50565b600081359050612e2f81612e09565b92915050565b600060208284031215612e4b57612e4a612b7d565b5b6000612e5984828501612e20565b91505092915050565b60008060408385031215612e7957612e78612b7d565b5b6000612e8785828601612e20565b9250506020612e9885828601612e20565b9150509250929050565b612eab81612dd5565b8114612eb657600080fd5b50565b600081359050612ec881612ea2565b92915050565b600060208284031215612ee457612ee3612b7d565b5b6000612ef284828501612eb9565b91505092915050565b600081519050919050565b600082825260208201905092915050565b6000819050602082019050919050565b612f3081612da1565b82525050565b6000612f428383612f27565b60208301905092915050565b6000602082019050919050565b6000612f6682612efb565b612f708185612f06565b9350612f7b83612f17565b8060005b83811015612fac578151612f938882612f36565b9750612f9e83612f4e565b925050600181019050612f7f565b5085935050505092915050565b60006020820190508181036000830152612fd38184612f5b565b905092915050565b600080fd5b600080fd5b60008083601f840112612ffb57612ffa612c12565b5b8235905067ffffffffffffffff81111561301857613017612fdb565b5b60208301915083600182028301111561303457613033612fe0565b5b9250929050565b6000806020838503121561305257613051612b7d565b5b600083013567ffffffffffffffff8111156130705761306f612b82565b5b61307c85828601612fe5565b92509250509250929050565b600081519050919050565b600082825260208201905092915050565b60005b838110156130c25780820151818401526020810190506130a7565b60008484015250505050565b60006130d982613088565b6130e38185613093565b93506130f38185602086016130a4565b6130fc81612c1c565b840191505092915050565b61311081612ba7565b82525050565b60008115159050919050565b61312b81613116565b82525050565b61313a81612dd5565b82525050565b6000610100830160008301516131596000860182612f27565b506020830151848203602086015261317182826130ce565b91505060408301516131866040860182613107565b5060608301516131996060860182613122565b5060808301516131ac6080860182613131565b5060a08301516131bf60a0860182613131565b5060c08301516131d260c0860182613131565b5060e08301516131e560e0860182613131565b508091505092915050565b6000602082019050818103600083015261320a8184613140565b905092915050565b6000806000806060858703121561322c5761322b612b7d565b5b600061323a87828801612e20565b945050602085013567ffffffffffffffff81111561325b5761325a612b82565b5b61326787828801612fe5565b9350935050604061327a87828801612bd0565b91505092959194509250565b6000806040838503121561329d5761329c612b7d565b5b60006132ab85828601612bd0565b92505060206132bc85828601612eb9565b9150509250929050565b6132cf81612ba7565b82525050565b60006020820190506132ea60008301846132c6565b92915050565b6132f981613116565b82525050565b600060208201905061331460008301846132f0565b92915050565b600082825260208201905092915050565b600061333682613088565b613340818561331a565b93506133508185602086016130a4565b61335981612c1c565b840191505092915050565b60006101008201905061337a600083018b612dab565b818103602083015261338c818a61332b565b905061339b60408301896132c6565b6133a860608301886132f0565b6133b56080830187612ddf565b6133c260a0830186612ddf565b6133cf60c0830185612ddf565b6133dc60e0830184612ddf565b9998505050505050505050565b60008060006060848603121561340257613401612b7d565b5b600061341086828701612e20565b935050602061342186828701612eb9565b925050604061343286828701612eb9565b9150509250925092565b6000819050919050565b600061346161345c61345784612b87565b61343c565b612b87565b9050919050565b600061347382613446565b9050919050565b600061348582613468565b9050919050565b6134958161347a565b82525050565b60006020820190506134b0600083018461348c565b92915050565b600080604083850312156134cd576134cc612b7d565b5b60006134db85828601612e20565b92505060206134ec85828601612eb9565b9150509250929050565b6000806040838503121561350d5761350c612b7d565b5b600061351b85828601612eb9565b925050602061352c85828601612eb9565b9150509250929050565b600081519050919050565b600082825260208201905092915050565b6000819050602082019050919050565b60006101008301600083015161357b6000860182612f27565b506020830151848203602086015261359382826130ce565b91505060408301516135a86040860182613107565b5060608301516135bb6060860182613122565b5060808301516135ce6080860182613131565b5060a08301516135e160a0860182613131565b5060c08301516135f460c0860182613131565b5060e083015161360760e0860182613131565b508091505092915050565b600061361e8383613562565b905092915050565b6000602082019050919050565b600061363e82613536565b6136488185613541565b93508360208202850161365a85613552565b8060005b8581101561369657848403895281516136778582613612565b945061368283613626565b925060208a0199505060018101905061365e565b50829750879550505050505092915050565b600060208201905081810360008301526136c28184613633565b905092915050565b600080604083850312156136e1576136e0612b7d565b5b60006136ef85828601612e20565b925050602061370085828601612bd0565b9150509250929050565b7f4e6f7420626f74206f776e657200000000000000000000000000000000000000600082015250565b6000613740600d8361331a565b915061374b8261370a565b602082019050919050565b6000602082019050818103600083015261376f81613733565b9050919050565b7f426f7420646f6573206e6f742065786973740000000000000000000000000000600082015250565b60006137ac60128361331a565b91506137b782613776565b602082019050919050565b600060208201905081810360008301526137db8161379f565b9050919050565b7f426f74206e6f7420726567697374657265640000000000000000000000000000600082015250565b600061381860128361331a565b9150613823826137e2565b602082019050919050565b600060208201905081810360008301526138478161380b565b9050919050565b60006040820190506138636000830185612dab565b6138706020830184612ddf565b9392505050565b600081905092915050565b600061388e8385613877565b935061389b838584612cd9565b82840190509392505050565b60006138b4828486613882565b91508190509392505050565b7f426f74206e6f7420666f756e6400000000000000000000000000000000000000600082015250565b60006138f6600d8361331a565b9150613901826138c0565b602082019050919050565b60006020820190508181036000830152613925816138e9565b9050919050565b7f4e487b7100000000000000000000000000000000000000000000000000000000600052602260045260246000fd5b6000600282049050600182168061397357607f821691505b6020821081036139865761398561392c565b5b50919050565b7f426f742065786973747300000000000000000000000000000000000000000000600082015250565b60006139c2600a8361331a565b91506139cd8261398c565b602082019050919050565b600060208201905081810360008301526139f1816139b5565b9050919050565b7f496e76616c6964206e616d650000000000000000000000000000000000000000600082015250565b6000613a2e600c8361331a565b9150613a39826139f8565b602082019050919050565b60006020820190508181036000830152613a5d81613a21565b9050919050565b7f4e616d652074616b656e00000000000000000000000000000000000000000000600082015250565b6000613a9a600a8361331a565b9150613aa582613a64565b602082019050919050565b60006020820190508181036000830152613ac981613a8d565b9050919050565b60008190508160005260206000209050919050565b60006020601f8301049050919050565b600082821b905092915050565b600060088302613b327fffffffffffffffffffffffffffffffffffffffffffffffffffffffffffffffff82613af5565b613b3c8683613af5565b95508019841693508086168417925050509392505050565b6000613b6f613b6a613b6584612dd5565b61343c565b612dd5565b9050919050565b6000819050919050565b613b8983613b54565b613b9d613b9582613b76565b848454613b02565b825550505050565b600090565b613bb2613ba5565b613bbd818484613b80565b505050565b5b81811015613be157613bd6600082613baa565b600181019050613bc3565b5050565b601f821115613c2657613bf781613ad0565b613c0084613ae5565b81016020851015613c0f578190505b613c23613c1b85613ae5565b830182613bc2565b50505b505050565b600082821c905092915050565b6000613c4960001984600802613c2b565b1980831691505092915050565b6000613c628383613c38565b9150826002028217905092915050565b613c7b82613088565b67ffffffffffffffff811115613c9457613c93612c2d565b5b613c9e825461395b565b613ca9828285613be5565b600060209050601f831160018114613cdc5760008415613cca578287015190505b613cd48582613c56565b865550613d3c565b601f198416613cea86613ad0565b60005b82811015613d1257848901518255600182019150602085019450602081019050613ced565b86831015613d2f5784890151613d2b601f891682613c38565b8355505b6001600288020188555050505b505050505050565b6000613d50838561331a565b9350613d5d838584612cd9565b613d6683612c1c565b840190509392505050565b60006020820190508181036000830152613d8c818486613d44565b90509392505050565b7f4e6f2062616c616e636500000000000000000000000000000000000000000000600082015250565b6000613dcb600a8361331a565b9150613dd682613d95565b602082019050919050565b60006020820190508181036000830152613dfa81613dbe565b9050919050565b600081905092915050565b50565b6000613e1c600083613e01565b9150613e2782613e0c565b600082019050919050565b6000613e3d82613e0f565b9150819050919050565b7f5769746864726177206661696c65640000000000000000000000000000000000600082015250565b6000613e7d600f8361331a565b9150613e8882613e47565b602082019050919050565b60006020820190508181036000830152613eac81613e70565b9050919050565b7f4e6f7420666f722073616c650000000000000000000000000000000000000000600082015250565b6000613ee9600c8361331a565b9150613ef482613eb3565b602082019050919050565b60006020820190508181036000830152613f1881613edc565b9050919050565b7f496e73756666696369656e74207061796d656e74000000000000000000000000600082015250565b6000613f5560148361331a565b9150613f6082613f1f565b602082019050919050565b60006020820190508181036000830152613f8481613f48565b9050919050565b7f43616e6e6f7420627579206f776e20626f740000000000000000000000000000600082015250565b6000613fc160128361331a565b9150613fcc82613f8b565b602082019050919050565b60006020820190508181036000830152613ff081613fb4565b9050919050565b7f4e487b7100000000000000000000000000000000000000000000000000000000600052601160045260246000fd5b600061403182612dd5565b915061403c83612dd5565b925082820261404a81612dd5565b9150828204841483151761406157614060613ff7565b5b5092915050565b7f4e487b7100000000000000000000000000000000000000000000000000000000600052601260045260246000fd5b60006140a282612dd5565b91506140ad83612dd5565b9250826140bd576140bc614068565b5b828204905092915050565b60006140d382612dd5565b91506140de83612dd5565b92508282039050818111156140f6576140f5613ff7565b5b92915050565b7f5061796d656e7420746f2073656c6c6572206661696c65640000000000000000600082015250565b600061413260188361331a565b915061413d826140fc565b602082019050919050565b6000602082019050818103600083015261416181614125565b9050919050565b7f4d61782031302500000000000000000000000000000000000000000000000000600082015250565b600061419e60078361331a565b91506141a982614168565b602082019050919050565b600060208201905081810360008301526141cd81614191565b9050919050565b7f5072696365206d757374206265203e2030000000000000000000000000000000600082015250565b600061420a60118361331a565b9150614215826141d4565b602082019050919050565b60006020820190508181036000830152614239816141fd565b9050919050565b7f4e487b7100000000000000000000000000000000000000000000000000000000600052603260045260246000fd5b600061427a82612dd5565b91507fffffffffffffffffffffffffffffffffffffffffffffffffffffffffffffffff82036142ac576142ab613ff7565b5b600182019050919050565b7f4f776e61626c653a206e6577206f776e657220697320746865207a65726f206160008201527f6464726573730000000000000000000000000000000000000000000000000000602082015250565b600061431360268361331a565b915061431e826142b7565b604082019050919050565b6000602082019050818103600083015261434281614306565b9050919050565b7f416c726561647920726567697374657265640000000000000000000000000000600082015250565b600061437f60128361331a565b915061438a82614349565b602082019050919050565b600060208201905081810360008301526143ae81614372565b9050919050565b7f496e73756666696369656e742066656500000000000000000000000000000000600082015250565b60006143eb60108361331a565b91506143f6826143b5565b602082019050919050565b6000602082019050818103600083015261441a816143de565b9050919050565b7f43616e6e6f7420696e766974652073656c660000000000000000000000000000600082015250565b600061445760128361331a565b915061446282614421565b602082019050919050565b600060208201905081810360008301526144868161444a565b9050919050565b7f4d6178203520626f747320706572207573657200000000000000000000000000600082015250565b60006144c360138361331a565b91506144ce8261448d565b602082019050919050565b600060208201905081810360008301526144f2816144b6565b9050919050565b7f426f74206f776e656420627920616e6f74686572000000000000000000000000600082015250565b600061452f60148361331a565b915061453a826144f9565b602082019050919050565b6000602082019050818103600083015261455e81614522565b9050919050565b600081546145728161395b565b61457c818661331a565b9450600182166000811461459757600181146145ad576145e0565b60ff1983168652811515602002860193506145e0565b6145b685613ad0565b60005b838110156145d8578154818901526001820191506020810190506145b9565b808801955050505b50505092915050565b60006060820190506145fe60008301866132c6565b61460b6020830185612dab565b818103604083015261461d8184614565565b9050949350505050565b60008151905061463681612ea2565b92915050565b60006020828403121561465257614651612b7d565b5b600061466084828501614627565b91505092915050565b7f4f776e61626c653a2063616c6c6572206973206e6f7420746865206f776e6572600082015250565b600061469f60208361331a565b91506146aa82614669565b602082019050919050565b600060208201905081810360008301526146ce81614692565b9050919050565b7f5265656e7472616e637947756172643a207265656e7472616e742063616c6c00600082015250565b600061470b601f8361331a565b9150614716826146d5565b602082019050919050565b6000602082019050818103600083015261473a816146fe565b9050919050565b7f4e487b7100000000000000000000000000000000000000000000000000000000600052603160045260246000fdfea26469706673582212204ef45fa53692e4afe1c863914a20c6380f726730cf6022be200a31e9dbee045e64736f6c63430008130033",
  "linkReferences": {},
  "deployedLinkReferences": {},
  "immutableReferences": {},
  "inputSourceName": "project/contracts/BotRegistry.sol",
  "buildInfoId": "solc-0_8_19-80987926feb82dc42fffd62eefe286d0ae2b467e"
}