{
  "_format": "hh-sol-artifact-1",
  "contractName": "BotRegistry",
  "sourceName": "contracts/BotRegistry.sol",
  "abi": [
    {
      "inputs": [],
      "stateMutability": "nonpayable",
      "type": "constructor"
    },
    {
      "inputs": [
        {
          "internalType": "address",
          "name": "owner",
          "type": "address"
        }
      ],
      "name": "OwnableInvalidOwner",
      "type": "error"
    },
    {
      "inputs": [
        {
          "internalType": "address",
          "name": "account",
          "type": "address"
        }
      ],
      "name": "OwnableUnauthorizedAccount",
      "type": "error"
    },
    {
      "inputs": [],
      "name": "ReentrancyGuardReentrantCall",
      "type": "error"
    },
    {
      "anonymous": false,
      "inputs": [
        {
          "indexed": true,
          "internalType": "bytes32",
          "name": "botId",
          "type": "bytes32"
        },
        {
          "indexed": false,
          "internalType": "bytes32",
          "name": "newCodeHash",
          "type": "bytes32"
        },
        {
          "indexed": false,
          "internalType": "uint256",
          "name": "timestamp",
          "type": "uint256"
        }
      ],
      "name": "BotCodeUpdated",
      "type": "event"
    },
    {
      "anonymous": false,
      "inputs": [
        {
          "indexed": true,
          "internalType": "bytes32",
          "name": "botId",
          "type": "bytes32"
        },
        {
          "indexed": false,
          "internalType": "string",
          "name": "botName",
          "type": "string"
        },
        {
          "indexed": true,
          "internalType": "address",
          "name": "creator",
          "type": "address"
        }
      ],
      "name": "BotCreated",
      "type": "event"
    },
    {
      "anonymous": false,
      "inputs": [
        {
          "indexed": true,
          "internalType": "bytes32",
          "name": "botId",
          "type": "bytes32"
        }
      ],
      "name": "BotDelisted",
      "type": "event"
    },
    {
      "anonymous": false,
      "inputs": [
        {
          "indexed": true,
          "internalType": "bytes32",
          "name": "botId",
          "type": "bytes32"
        },
        {
          "indexed": false,
          "internalType": "uint256",
          "name": "price",
          "type": "uint256"
        }
      ],
      "name": "BotListedForSale",
      "type": "event"
    },
    {
      "anonymous": false,
      "inputs": [
        {
          "indexed": true,
          "internalType": "bytes32",
          "name": "botId",
          "type": "bytes32"
        },
        {
          "indexed": true,
          "internalType": "address",
          "name": "owner",
          "type": "address"
        },
        {
          "indexed": false,
          "internalType": "uint256",
          "name": "fee",
          "type": "uint256"
        }
      ],
      "name": "BotRegistered",
      "type": "event"
    },
    {
      "anonymous": false,
      "inputs": [
        {
          "indexed": true,
          "internalType": "bytes32",
          "name": "botId",
          "type": "bytes32"
        },
        {
          "indexed": true,
          "internalType": "address",
          "name": "seller",
          "type": "address"
        },
        {
          "indexed": true,
          "internalType": "address",
          "name": "buyer",
          "type": "address"
        },
        {
          "indexed": false,
          "internalType": "uint256",
          "name": "price",
          "type": "uint256"
        }
      ],
      "name": "BotSold",
      "type": "event"
    },
    {
      "anonymous": false,
      "inputs": [
        {
          "indexed": false,
          "internalType": "uint256",
          "name": "amount",
          "type": "uint256"
        }
      ],
      "name": "FeesWithdrawn",
      "type": "event"
    },
    {
      "anonymous": false,
      "inputs": [
        {
          "indexed": false,
          "internalType": "uint256",
          "name": "newFee",
          "type": "uint256"
        }
      ],
      "name": "MarketplaceFeeUpdated",
      "type": "event"
    },
    {
      "anonymous": false,
      "inputs": [
        {
          "indexed": true,
          "internalType": "address",
          "name": "previousOwner",
          "type": "address"
        },
        {
          "indexed": true,
          "internalType": "address",
          "name": "newOwner",
          "type": "address"
        }
      ],
      "name": "OwnershipTransferred",
      "type": "event"
    },
    {
      "anonymous": false,
      "inputs": [
        {
          "indexed": true,
          "internalType": "address",
          "name": "user",
          "type": "address"
        },
        {
          "indexed": true,
          "internalType": "address",
          "name": "inviter",
          "type": "address"
        },
        {
          "indexed": false,
          "internalType": "uint256",
          "name": "timestamp",
          "type": "uint256"
        }
      ],
      "name": "ReferralBound",
      "type": "event"
    },
    {
      "anonymous": false,
      "inputs": [
        {
          "indexed": false,
          "internalType": "uint256",
          "name": "newFee",
          "type": "uint256"
        }
      ],
      "name": "RegistrationFeeUpdated",
      "type": "event"
    },
    {
      "inputs": [],
      "name": "MAX_BOTS_PER_USER",
      "outputs": [
        {
          "internalType": "uint256",
          "name": "",
          "type": "uint256"
        }
      ],
      "stateMutability": "view",
      "type": "function"
    },
    {
      "inputs": [
        {
          "internalType": "uint256",
          "name": "",
          "type": "uint256"
        }
      ],
      "name": "allBots",
      "outputs": [
        {
          "internalType": "bytes32",
          "name": "",
          "type": "bytes32"
        }
      ],
      "stateMutability": "view",
      "type": "function"
    },
    {
      "inputs": [],
      "name": "backendWallet",
      "outputs": [
        {
          "internalType": "address",
          "name": "",
          "type": "address"
        }
      ],
      "stateMutability": "view",
      "type": "function"
    },
    {
      "inputs": [
        {
          "internalType": "bytes32",
          "name": "",
          "type": "bytes32"
        }
      ],
      "name": "bots",
      "outputs": [
        {
          "internalType": "bytes32",
          "name": "botId",
          "type": "bytes32"
        },
        {
          "internalType": "string",
          "name": "botName",
          "type": "string"
        },
        {
          "internalType": "address",
          "name": "owner",
          "type": "address"
        },
        {
          "internalType": "bool",
          "name": "registered",
          "type": "bool"
        },
        {
          "internalType": "uint256",
          "name": "registeredAt",
          "type": "uint256"
        },
        {
          "internalType": "uint256",
          "name": "matchesPlayed",
          "type": "uint256"
        },
        {
          "internalType": "uint256",
          "name": "totalEarnings",
          "type": "uint256"
        },
        {
          "internalType": "uint256",
          "name": "salePrice",
          "type": "uint256"
        }
      ],
      "stateMutability": "view",
      "type": "function"
    },
    {
      "inputs": [
        {
          "internalType": "bytes32",
          "name": "_botId",
          "type": "bytes32"
        }
      ],
      "name": "buyBot",
      "outputs": [],
      "stateMutability": "payable",
      "type": "function"
    },
    {
      "inputs": [
        {
          "internalType": "bytes32",
          "name": "_botId",
          "type": "bytes32"
        }
      ],
      "name": "cancelSale",
      "outputs": [],
      "stateMutability": "nonpayable",
      "type": "function"
    },
    {
      "inputs": [
        {
          "internalType": "bytes32",
          "name": "_botId",
          "type": "bytes32"
        },
        {
          "internalType": "string",
          "name": "_botName",
          "type": "string"
        },
        {
          "internalType": "address",
          "name": "_creator",
          "type": "address"
        }
      ],
      "name": "createBot",
      "outputs": [],
      "stateMutability": "nonpayable",
      "type": "function"
    },
    {
      "inputs": [
        {
          "internalType": "bytes32",
          "name": "_botId",
          "type": "bytes32"
        }
      ],
      "name": "getBotById",
      "outputs": [
        {
          "components": [
            {
              "internalType": "bytes32",
              "name": "botId",
              "type": "bytes32"
            },
            {
              "internalType": "string",
              "name": "botName",
              "type": "string"
            },
            {
              "internalType": "address",
              "name": "owner",
              "type": "address"
            },
            {
              "internalType": "bool",
              "name": "registered",
              "type": "bool"
            },
            {
              "internalType": "uint256",
              "name": "registeredAt",
              "type": "uint256"
            },
            {
              "internalType": "uint256",
              "name": "matchesPlayed",
              "type": "uint256"
            },
            {
              "internalType": "uint256",
              "name": "totalEarnings",
              "type": "uint256"
            },
            {
              "internalType": "uint256",
              "name": "salePrice",
              "type": "uint256"
            }
          ],
          "internalType": "struct BotRegistry.Bot",
          "name": "",
          "type": "tuple"
        }
      ],
      "stateMutability": "view",
      "type": "function"
    },
    {
      "inputs": [
        {
          "internalType": "string",
          "name": "_name",
          "type": "string"
        }
      ],
      "name": "getBotByName",
      "outputs": [
        {
          "components": [
            {
              "internalType": "bytes32",
              "name": "botId",
              "type": "bytes32"
            },
            {
              "internalType": "string",
              "name": "botName",
              "type": "string"
            },
            {
              "internalType": "address",
              "name": "owner",
              "type": "address"
            },
            {
              "internalType": "bool",
              "name": "registered",
              "type": "bool"
            },
            {
              "internalType": "uint256",
              "name": "registeredAt",
              "type": "uint256"
            },
            {
              "internalType": "uint256",
              "name": "matchesPlayed",
              "type": "uint256"
            },
            {
              "internalType": "uint256",
              "name": "totalEarnings",
              "type": "uint256"
            },
            {
              "internalType": "uint256",
              "name": "salePrice",
              "type": "uint256"
            }
          ],
          "internalType": "struct BotRegistry.Bot",
          "name": "",
          "type": "tuple"
        }
      ],
      "stateMutability": "view",
      "type": "function"
    },
    {
      "inputs": [
        {
          "internalType": "uint256",
          "name": "_offset",
          "type": "uint256"
        },
        {
          "internalType": "uint256",
          "name": "_limit",
          "type": "uint256"
        }
      ],
      "name": "getBotsForSale",
      "outputs": [
        {
          "components": [
            {
              "internalType": "bytes32",
              "name": "botId",
              "type": "bytes32"
            },
            {
              "internalType": "string",
              "name": "botName",
              "type": "string"
            },
            {
              "internalType": "address",
              "name": "owner",
              "type": "address"
            },
            {
              "internalType": "bool",
              "name": "registered",
              "type": "bool"
            },
            {
              "internalType": "uint256",
              "name": "registeredAt",
              "type": "uint256"
            },
            {
              "internalType": "uint256",
              "name": "matchesPlayed",
              "type": "uint256"
            },
            {
              "internalType": "uint256",
              "name": "totalEarnings",
              "type": "uint256"
            },
            {
              "internalType": "uint256",
              "name": "salePrice",
              "type": "uint256"
            }
          ],
          "internalType": "struct BotRegistry.Bot[]",
          "name": "",
          "type": "tuple[]"
        }
      ],
      "stateMutability": "view",
      "type": "function"
    },
    {
      "inputs": [
        {
          "internalType": "address",
          "name": "_owner",
          "type": "address"
        }
      ],
      "name": "getOwnerBots",
      "outputs": [
        {
          "internalType": "bytes32[]",
          "name": "",
          "type": "bytes32[]"
        }
      ],
      "stateMutability": "view",
      "type": "function"
    },
    {
      "inputs": [],
      "name": "getRegistrationFee",
      "outputs": [
        {
          "internalType": "uint256",
          "name": "",
          "type": "uint256"
        }
      ],
      "stateMutability": "view",
      "type": "function"
    },
    {
      "inputs": [
        {
          "internalType": "address",
          "name": "",
          "type": "address"
        }
      ],
      "name": "hasRegistered",
      "outputs": [
        {
          "internalType": "bool",
          "name": "",
          "type": "bool"
        }
      ],
      "stateMutability": "view",
      "type": "function"
    },
    {
      "inputs": [
        {
          "internalType": "string",
          "name": "_name",
          "type": "string"
        }
      ],
      "name": "isNameAvailable",
      "outputs": [
        {
          "internalType": "bool",
          "name": "",
          "type": "bool"
        }
      ],
      "stateMutability": "view",
      "type": "function"
    },
    {
      "inputs": [
        {
          "internalType": "bytes32",
          "name": "_botId",
          "type": "bytes32"
        },
        {
          "internalType": "uint256",
          "name": "_price",
          "type": "uint256"
        }
      ],
      "name": "listForSale",
      "outputs": [],
      "stateMutability": "nonpayable",
      "type": "function"
    },
    {
      "inputs": [],
      "name": "marketplaceFeePercent",
      "outputs": [
        {
          "internalType": "uint256",
          "name": "",
          "type": "uint256"
        }
      ],
      "stateMutability": "view",
      "type": "function"
    },
    {
      "inputs": [
        {
          "internalType": "string",
          "name": "",
          "type": "string"
        }
      ],
      "name": "nameToBot",
      "outputs": [
        {
          "internalType": "bytes32",
          "name": "",
          "type": "bytes32"
        }
      ],
      "stateMutability": "view",
      "type": "function"
    },
    {
      "inputs": [],
      "name": "nftContract",
      "outputs": [
        {
          "internalType": "contract ISnakeBotNFT",
          "name": "",
          "type": "address"
        }
      ],
      "stateMutability": "view",
      "type": "function"
    },
    {
      "inputs": [],
      "name": "owner",
      "outputs": [
        {
          "internalType": "address",
          "name": "",
          "type": "address"
        }
      ],
      "stateMutability": "view",
      "type": "function"
    },
    {
      "inputs": [
        {
          "internalType": "address",
          "name": "",
          "type": "address"
        },
        {
          "internalType": "uint256",
          "name": "",
          "type": "uint256"
        }
      ],
      "name": "ownerBots",
      "outputs": [
        {
          "internalType": "bytes32",
          "name": "",
          "type": "bytes32"
        }
      ],
      "stateMutability": "view",
      "type": "function"
    },
    {
      "inputs": [],
      "name": "referralContract",
      "outputs": [
        {
          "internalType": "address",
          "name": "",
          "type": "address"
        }
      ],
      "stateMutability": "view",
      "type": "function"
    },
    {
      "inputs": [
        {
          "internalType": "bytes32",
          "name": "_botId",
          "type": "bytes32"
        },
        {
          "internalType": "address",
          "name": "_inviter",
          "type": "address"
        }
      ],
      "name": "registerBot",
      "outputs": [],
      "stateMutability": "payable",
      "type": "function"
    },
    {
      "inputs": [],
      "name": "registrationFee",
      "outputs": [
        {
          "internalType": "uint256",
          "name": "",
          "type": "uint256"
        }
      ],
      "stateMutability": "view",
      "type": "function"
    },
    {
      "inputs": [],
      "name": "renounceOwnership",
      "outputs": [],
      "stateMutability": "nonpayable",
      "type": "function"
    },
    {
      "inputs": [
        {
          "internalType": "address",
          "name": "_backendWallet",
          "type": "address"
        }
      ],
      "name": "setBackendWallet",
      "outputs": [],
      "stateMutability": "nonpayable",
      "type": "function"
    },
    {
      "inputs": [
        {
          "internalType": "uint256",
          "name": "_fee",
          "type": "uint256"
        }
      ],
      "name": "setMarketplaceFee",
      "outputs": [],
      "stateMutability": "nonpayable",
      "type": "function"
    },
    {
      "inputs": [
        {
          "internalType": "address",
          "name": "_nftContract",
          "type": "address"
        }
      ],
      "name": "setNFTContract",
      "outputs": [],
      "stateMutability": "nonpayable",
      "type": "function"
    },
    {
      "inputs": [
        {
          "internalType": "address",
          "name": "_referralContract",
          "type": "address"
        }
      ],
      "name": "setReferralContract",
      "outputs": [],
      "stateMutability": "nonpayable",
      "type": "function"
    },
    {
      "inputs": [
        {
          "internalType": "uint256",
          "name": "_fee",
          "type": "uint256"
        }
      ],
      "name": "setRegistrationFee",
      "outputs": [],
      "stateMutability": "nonpayable",
      "type": "function"
    },
    {
      "inputs": [
        {
          "internalType": "address",
          "name": "newOwner",
          "type": "address"
        }
      ],
      "name": "transferOwnership",
      "outputs": [],
      "stateMutability": "nonpayable",
      "type": "function"
    },
    {
      "inputs": [
        {
          "internalType": "bytes32",
          "name": "_botId",
          "type": "bytes32"
        },
        {
          "internalType": "bytes32",
          "name": "_newCodeHash",
          "type": "bytes32"
        }
      ],
      "name": "updateBotCode",
      "outputs": [],
      "stateMutability": "nonpayable",
      "type": "function"
    },
    {
      "inputs": [
        {
          "internalType": "bytes32",
          "name": "_botId",
          "type": "bytes32"
        },
        {
          "internalType": "uint256",
          "name": "_matchesPlayed",
          "type": "uint256"
        },
        {
          "internalType": "uint256",
          "name": "_totalEarnings",
          "type": "uint256"
        }
      ],
      "name": "updateBotStats",
      "outputs": [],
      "stateMutability": "nonpayable",
      "type": "function"
    },
    {
      "inputs": [],
      "name": "withdrawFees",
      "outputs": [],
      "stateMutability": "nonpayable",
      "type": "function"
    }
  ],
  "bytecode": "0x6080604052662386f26fc1000060035560fa6004553480156200002157600080fd5b5033600073ffffffffffffffffffffffffffffffffffffffff168173ffffffffffffffffffffffffffffffffffffffff1603620000985760006040517f1e4fbdf70000000000000000000000000000000000000000000000000000000081526004016200008f9190620001c0565b60405180910390fd5b620000a981620000b760201b60201c565b5060018081905550620001dd565b60008060009054906101000a900473ffffffffffffffffffffffffffffffffffffffff169050816000806101000a81548173ffffffffffffffffffffffffffffffffffffffff021916908373ffffffffffffffffffffffffffffffffffffffff1602179055508173ffffffffffffffffffffffffffffffffffffffff168173ffffffffffffffffffffffffffffffffffffffff167f8be0079c531659141344cd1fd0a4f28419497f9722a3daafe3b4186f6b6457e060405160405180910390a35050565b600073ffffffffffffffffffffffffffffffffffffffff82169050919050565b6000620001a8826200017b565b9050919050565b620001ba816200019b565b82525050565b6000602082019050620001d76000830184620001af565b92915050565b6146da80620001ed6000396000f3fe6080604052600436106101ee5760003560e01c80637dad19db1161010d578063a7ccabdf116100a0578063e378bba11161006f578063e378bba1146106f5578063e764fec91461071e578063e7b65e561461075b578063f2fde38b14610798578063f4655378146107c1576101ee565b8063a7ccabdf1461064d578063c320c72714610676578063d50973081461069f578063d56d229d146106ca576101ee565b80639407ea98116100dc5780639407ea981461059357806395cc3739146105bc578063a0d03526146105e5578063a680baaf14610622576101ee565b80637dad19db146104bc5780638cf44d21146104e75780638d77b866146105245780638da5cb5b14610568576101ee565b80632c4ee1ee11610185578063476343ee11610154578063476343ee146104355780636023b8b81461044c57806368e5722a14610489578063715018a6146104a5576101ee565b80632c4ee1ee146103675780632cb52a9e146103a457806338d73b0d146103e157806346c376331461040c576101ee565b80630edfe7ec116101c15780630edfe7ec146102ad57806313fa727a146102d657806314c44e09146102ff57806322428b671461032a576101ee565b806306ad5a47146101f3578063092fe5b11461021c5780630946e807146102595780630bea898514610284575b600080fd5b3480156101ff57600080fd5b5061021a60048036038101906102159190612c17565b6107dd565b005b34801561022857600080fd5b50610243600480360381019061023e9190612d8a565b610829565b6040516102509190612dec565b60405180910390f35b34801561026557600080fd5b5061026e610857565b60405161027b9190612e20565b60405180910390f35b34801561029057600080fd5b506102ab60048036038101906102a69190612e67565b610861565b005b3480156102b957600080fd5b506102d460048036038101906102cf9190612c17565b6109b0565b005b3480156102e257600080fd5b506102fd60048036038101906102f89190612e94565b6109fc565b005b34801561030b57600080fd5b50610314610ba0565b6040516103219190612e20565b60405180910390f35b34801561033657600080fd5b50610351600480360381019061034c9190612f00565b610ba6565b60405161035e9190612dec565b60405180910390f35b34801561037357600080fd5b5061038e60048036038101906103899190612c17565b610bca565b60405161039b9190612feb565b60405180910390f35b3480156103b057600080fd5b506103cb60048036038101906103c6919061306d565b610c61565b6040516103d89190613222565b60405180910390f35b3480156103ed57600080fd5b506103f6610e30565b6040516104039190612e20565b60405180910390f35b34801561041857600080fd5b50610433600480360381019061042e9190613244565b610e36565b005b34801561044157600080fd5b5061044a6112da565b005b34801561045857600080fd5b50610473600480360381019061046e91906132b8565b611418565b6040516104809190612dec565b60405180910390f35b6104a3600480360381019061049e9190612e67565b611449565b005b3480156104b157600080fd5b506104ba61177e565b005b3480156104c857600080fd5b506104d1611792565b6040516104de9190613307565b60405180910390f35b3480156104f357600080fd5b5061050e6004803603810190610509919061306d565b6117b8565b60405161051b9190613331565b60405180910390f35b34801561053057600080fd5b5061054b60048036038101906105469190612e67565b6117e8565b60405161055f989796959493929190613396565b60405180910390f35b34801561057457600080fd5b5061057d6118e5565b60405161058a9190613307565b60405180910390f35b34801561059f57600080fd5b506105ba60048036038101906105b59190612f00565b61190e565b005b3480156105c857600080fd5b506105e360048036038101906105de919061341b565b61199c565b005b3480156105f157600080fd5b5061060c60048036038101906106079190612c17565b6119d3565b6040516106199190613331565b60405180910390f35b34801561062e57600080fd5b506106376119f3565b6040516106449190613307565b60405180910390f35b34801561065957600080fd5b50610674600480360381019061066f9190612c17565b611a19565b005b34801561068257600080fd5b5061069d60048036038101906106989190612f00565b611a65565b005b3480156106ab57600080fd5b506106b4611aae565b6040516106c19190612e20565b60405180910390f35b3480156106d657600080fd5b506106df611ab3565b6040516106ec91906134cd565b60405180910390f35b34801561070157600080fd5b5061071c600480360381019061071791906134e8565b611ad9565b005b34801561072a57600080fd5b5061074560048036038101906107409190612e67565b611c76565b6040516107529190613222565b60405180910390f35b34801561076757600080fd5b50610782600480360381019061077d9190613528565b611dd9565b60405161078f91906136da565b60405180910390f35b3480156107a457600080fd5b506107bf60048036038101906107ba9190612c17565b6120e9565b005b6107db60048036038101906107d691906136fc565b61216f565b005b6107e56127d7565b80600a60006101000a81548173ffffffffffffffffffffffffffffffffffffffff021916908373ffffffffffffffffffffffffffffffffffffffff16021790555050565b6007818051602081018201805184825260208301602085012081835280955050505050506000915090505481565b6000600354905090565b803373ffffffffffffffffffffffffffffffffffffffff166006600083815260200190815260200160002060020160009054906101000a900473ffffffffffffffffffffffffffffffffffffffff1673ffffffffffffffffffffffffffffffffffffffff1614610906576040517f08c379a00000000000000000000000000000000000000000000000000000000081526004016108fd90613788565b60405180910390fd5b816000801b600660008381526020019081526020016000206000015403610962576040517f08c379a0000000000000000000000000000000000000000000000000000000008152600401610959906137f4565b60405180910390fd5b60006006600085815260200190815260200160002060060181905550827fa4ad22ac8c5bd7fbafb9b227157f8703502de98e563b9bbca8b455b87fca20b460405160405180910390a2505050565b6109b86127d7565b80600560006101000a81548173ffffffffffffffffffffffffffffffffffffffff021916908373ffffffffffffffffffffffffffffffffffffffff16021790555050565b813373ffffffffffffffffffffffffffffffffffffffff166006600083815260200190815260200160002060020160009054906101000a900473ffffffffffffffffffffffffffffffffffffffff1673ffffffffffffffffffffffffffffffffffffffff1614610aa1576040517f08c379a0000000000000000000000000000000000000000000000000000000008152600401610a9890613788565b60405180910390fd5b826000801b600660008381526020019081526020016000206000015403610afd576040517f08c379a0000000000000000000000000000000000000000000000000000000008152600401610af4906137f4565b60405180910390fd5b6006600085815260200190815260200160002060020160149054906101000a900460ff16610b60576040517f08c379a0000000000000000000000000000000000000000000000000000000008152600401610b5790613860565b60405180910390fd5b837fef24560bfd7d6cf87b2ac3904be3fd40cc254ec3b292a14551f40f8aa5dd3a058442604051610b92929190613880565b60405180910390a250505050565b60035481565b60098181548110610bb657600080fd5b906000526020600020016000915090505481565b6060600860008373ffffffffffffffffffffffffffffffffffffffff1673ffffffffffffffffffffffffffffffffffffffff168152602001908152602001600020805480602002602001604051908101604052809291908181526020018280548015610c5557602002820191906000526020600020905b815481526020019060010190808311610c41575b50505050509050919050565b610c69612b45565b600060078484604051610c7d9291906138d9565b90815260200160405180910390205490506000801b8103610cd3576040517f08c379a0000000000000000000000000000000000000000000000000000000008152600401610cca9061393e565b60405180910390fd5b600660008281526020019081526020016000206040518061010001604052908160008201548152602001600182018054610d0c9061398d565b80601f0160208091040260200160405190810160405280929190818152602001828054610d389061398d565b8015610d855780601f10610d5a57610100808354040283529160200191610d85565b820191906000526020600020905b815481529060010190602001808311610d6857829003601f168201915b505050505081526020016002820160009054906101000a900473ffffffffffffffffffffffffffffffffffffffff1673ffffffffffffffffffffffffffffffffffffffff1673ffffffffffffffffffffffffffffffffffffffff1681526020016002820160149054906101000a900460ff1615151515815260200160038201548152602001600482015481526020016005820154815260200160068201548152505091505092915050565b60045481565b600560009054906101000a900473ffffffffffffffffffffffffffffffffffffffff1673ffffffffffffffffffffffffffffffffffffffff163373ffffffffffffffffffffffffffffffffffffffff161480610ec45750610e956118e5565b73ffffffffffffffffffffffffffffffffffffffff163373ffffffffffffffffffffffffffffffffffffffff16145b610f03576040517f08c379a0000000000000000000000000000000000000000000000000000000008152600401610efa90613a0a565b60405180910390fd5b600073ffffffffffffffffffffffffffffffffffffffff166006600086815260200190815260200160002060020160009054906101000a900473ffffffffffffffffffffffffffffffffffffffff1673ffffffffffffffffffffffffffffffffffffffff1614610fa8576040517f08c379a0000000000000000000000000000000000000000000000000000000008152600401610f9f90613a76565b60405180910390fd5b600083839050118015610fbf575060208383905011155b610ffe576040517f08c379a0000000000000000000000000000000000000000000000000000000008152600401610ff590613ae2565b60405180910390fd5b6000801b600784846040516110149291906138d9565b90815260200160405180910390205414611063576040517f08c379a000000000000000000000000000000000000000000000000000000000815260040161105a90613b4e565b60405180910390fd5b60405180610100016040528085815260200184848080601f016020809104026020016040519081016040528093929190818152602001838380828437600081840152601f19601f8201169050808301925050505050505081526020018273ffffffffffffffffffffffffffffffffffffffff1681526020016000151581526020016000815260200160008152602001600081526020016000815250600660008681526020019081526020016000206000820151816000015560208201518160010190816111309190613d10565b5060408201518160020160006101000a81548173ffffffffffffffffffffffffffffffffffffffff021916908373ffffffffffffffffffffffffffffffffffffffff16021790555060608201518160020160146101000a81548160ff0219169083151502179055506080820151816003015560a0820151816004015560c0820151816005015560e0820151816006015590505083600784846040516111d69291906138d9565b908152602001604051809103902081905550600073ffffffffffffffffffffffffffffffffffffffff168173ffffffffffffffffffffffffffffffffffffffff161461128357600860008273ffffffffffffffffffffffffffffffffffffffff1673ffffffffffffffffffffffffffffffffffffffff1681526020019081526020016000208490806001815401808255809150506001900390600052602060002001600090919091909150555b8073ffffffffffffffffffffffffffffffffffffffff16847f64ae3a504b2ef7a8722f64613b6d7d80e015a433c31e6fec80e01fc50f46311385856040516112cc929190613e0f565b60405180910390a350505050565b6112e26127d7565b60004790506000811161132a576040517f08c379a000000000000000000000000000000000000000000000000000000000815260040161132190613e7f565b60405180910390fd5b60006113346118e5565b73ffffffffffffffffffffffffffffffffffffffff168260405161135790613ed0565b60006040518083038185875af1925050503d8060008114611394576040519150601f19603f3d011682016040523d82523d6000602084013e611399565b606091505b50509050806113dd576040517f08c379a00000000000000000000000000000000000000000000000000000000081526004016113d490613f31565b60405180910390fd5b7f9800e6f57aeb4360eaa72295a820a4293e1e66fbfcabcd8874ae141304a76deb8260405161140c9190612e20565b60405180910390a15050565b6008602052816000526040600020818154811061143457600080fd5b90600052602060002001600091509150505481565b61145161285e565b806000801b6006600083815260200190815260200160002060000154036114ad576040517f08c379a00000000000000000000000000000000000000000000000000000000081526004016114a4906137f4565b60405180910390fd5b6000600660008481526020019081526020016000209050600081600601541161150b576040517f08c379a000000000000000000000000000000000000000000000000000000000815260040161150290613f9d565b60405180910390fd5b8060060154341015611552576040517f08c379a000000000000000000000000000000000000000000000000000000000815260040161154990614009565b60405180910390fd5b3373ffffffffffffffffffffffffffffffffffffffff168160020160009054906101000a900473ffffffffffffffffffffffffffffffffffffffff1673ffffffffffffffffffffffffffffffffffffffff16036115e4576040517f08c379a00000000000000000000000000000000000000000000000000000000081526004016115db90614075565b60405180910390fd5b60008160020160009054906101000a900473ffffffffffffffffffffffffffffffffffffffff16905060008260060154905060006127106004548361162991906140c4565b6116339190614135565b9050600081836116439190614166565b90506116508785336128a4565b6000856006018190555060008473ffffffffffffffffffffffffffffffffffffffff168260405161168090613ed0565b60006040518083038185875af1925050503d80600081146116bd576040519150601f19603f3d011682016040523d82523d6000602084013e6116c2565b606091505b5050905080611706576040517f08c379a00000000000000000000000000000000000000000000000000000000081526004016116fd906141e6565b60405180910390fd5b3373ffffffffffffffffffffffffffffffffffffffff168573ffffffffffffffffffffffffffffffffffffffff16897f14c0cd320a419293f1aac5b7d165a3c54958ad2e72b47f9280ddcab160a6fc8a876040516117649190612e20565b60405180910390a45050505050505061177b612a70565b50565b6117866127d7565b6117906000612a79565b565b600a60009054906101000a900473ffffffffffffffffffffffffffffffffffffffff1681565b60008060001b600784846040516117d09291906138d9565b90815260200160405180910390205414905092915050565b60066020528060005260406000206000915090508060000154908060010180546118119061398d565b80601f016020809104026020016040519081016040528092919081815260200182805461183d9061398d565b801561188a5780601f1061185f5761010080835404028352916020019161188a565b820191906000526020600020905b81548152906001019060200180831161186d57829003601f168201915b5050505050908060020160009054906101000a900473ffffffffffffffffffffffffffffffffffffffff16908060020160149054906101000a900460ff16908060030154908060040154908060050154908060060154905088565b60008060009054906101000a900473ffffffffffffffffffffffffffffffffffffffff16905090565b6119166127d7565b6103e881111561195b576040517f08c379a000000000000000000000000000000000000000000000000000000000815260040161195290614252565b60405180910390fd5b806004819055507fe18aa129833f655a8166b6185277fee7a53f67e46fd32329bc2fc2ac21274d55816040516119919190612e20565b60405180910390a150565b6119a46127d7565b600060066000858152602001908152602001600020905082816004018190555081816005018190555050505050565b600b6020528060005260406000206000915054906101000a900460ff1681565b600560009054906101000a900473ffffffffffffffffffffffffffffffffffffffff1681565b611a216127d7565b80600260006101000a81548173ffffffffffffffffffffffffffffffffffffffff021916908373ffffffffffffffffffffffffffffffffffffffff16021790555050565b611a6d6127d7565b806003819055507fb120d26fad0e7bd128060711a484693f1283b8143bf94bde9df9b13217aa483681604051611aa39190612e20565b60405180910390a150565b600581565b600260009054906101000a900473ffffffffffffffffffffffffffffffffffffffff1681565b813373ffffffffffffffffffffffffffffffffffffffff166006600083815260200190815260200160002060020160009054906101000a900473ffffffffffffffffffffffffffffffffffffffff1673ffffffffffffffffffffffffffffffffffffffff1614611b7e576040517f08c379a0000000000000000000000000000000000000000000000000000000008152600401611b7590613788565b60405180910390fd5b826000801b600660008381526020019081526020016000206000015403611bda576040517f08c379a0000000000000000000000000000000000000000000000000000000008152600401611bd1906137f4565b60405180910390fd5b60008311611c1d576040517f08c379a0000000000000000000000000000000000000000000000000000000008152600401611c14906142be565b60405180910390fd5b826006600086815260200190815260200160002060060181905550837fbf2760ddc6ce9cc72f27a80af87278eff2ff95061e576f76b14000990f0cec3e84604051611c689190612e20565b60405180910390a250505050565b611c7e612b45565b600660008381526020019081526020016000206040518061010001604052908160008201548152602001600182018054611cb79061398d565b80601f0160208091040260200160405190810160405280929190818152602001828054611ce39061398d565b8015611d305780601f10611d0557610100808354040283529160200191611d30565b820191906000526020600020905b815481529060010190602001808311611d1357829003601f168201915b505050505081526020016002820160009054906101000a900473ffffffffffffffffffffffffffffffffffffffff1673ffffffffffffffffffffffffffffffffffffffff1673ffffffffffffffffffffffffffffffffffffffff1681526020016002820160149054906101000a900460ff161515151581526020016003820154815260200160048201548152602001600582015481526020016006820154815250509050919050565b60606000805b600980549050811015611e4b5760006006600060098481548110611e0657611e056142de565b5b90600052602060002001548152602001908152602001600020600601541115611e38578180611e349061430d565b9250505b8080611e439061430d565b915050611ddf565b506000818411611e5b5783611e5d565b815b905060008167ffffffffffffffff811115611e7b57611e7a612c5f565b5b604051908082528060200260200182016040528015611eb457816020015b611ea1612b45565b815260200190600190039081611e995790505b50905060008060005b60098054905081108015611ed057508482105b156120da5760006006600060098481548110611eef57611eee6142de565b5b906000526020600020015481526020019081526020016000206006015411156120c7578883106120b8576006600060098381548110611f3157611f306142de565b5b906000526020600020015481526020019081526020016000206040518061010001604052908160008201548152602001600182018054611f709061398d565b80601f0160208091040260200160405190810160405280929190818152602001828054611f9c9061398d565b8015611fe95780601f10611fbe57610100808354040283529160200191611fe9565b820191906000526020600020905b815481529060010190602001808311611fcc57829003601f168201915b505050505081526020016002820160009054906101000a900473ffffffffffffffffffffffffffffffffffffffff1673ffffffffffffffffffffffffffffffffffffffff1673ffffffffffffffffffffffffffffffffffffffff1681526020016002820160149054906101000a900460ff1615151515815260200160038201548152602001600482015481526020016005820154815260200160068201548152505084838151811061209e5761209d6142de565b5b602002602001018190525081806120b49061430d565b9250505b82806120c39061430d565b9350505b80806120d29061430d565b915050611ebd565b50829550505050505092915050565b6120f16127d7565b600073ffffffffffffffffffffffffffffffffffffffff168173ffffffffffffffffffffffffffffffffffffffff16036121635760006040517f1e4fbdf700000000000000000000000000000000000000000000000000000000815260040161215a9190613307565b60405180910390fd5b61216c81612a79565b50565b61217761285e565b816000801b6006600083815260200190815260200160002060000154036121d3576040517f08c379a00000000000000000000000000000000000000000000000000000000081526004016121ca906137f4565b60405180910390fd5b6006600084815260200190815260200160002060020160149054906101000a900460ff1615612237576040517f08c379a000000000000000000000000000000000000000000000000000000000815260040161222e906143a1565b60405180910390fd5b60035434101561227c576040517f08c379a00000000000000000000000000000000000000000000000000000000081526004016122739061440d565b60405180910390fd5b3373ffffffffffffffffffffffffffffffffffffffff168273ffffffffffffffffffffffffffffffffffffffff16036122ea576040517f08c379a00000000000000000000000000000000000000000000000000000000081526004016122e190614479565b60405180910390fd5b6000600660008581526020019081526020016000209050600073ffffffffffffffffffffffffffffffffffffffff168160020160009054906101000a900473ffffffffffffffffffffffffffffffffffffffff1673ffffffffffffffffffffffffffffffffffffffff160361248c576005600860003373ffffffffffffffffffffffffffffffffffffffff1673ffffffffffffffffffffffffffffffffffffffff16815260200190815260200160002080549050106123de576040517f08c379a00000000000000000000000000000000000000000000000000000000081526004016123d5906144e5565b60405180910390fd5b338160020160006101000a81548173ffffffffffffffffffffffffffffffffffffffff021916908373ffffffffffffffffffffffffffffffffffffffff160217905550600860003373ffffffffffffffffffffffffffffffffffffffff1673ffffffffffffffffffffffffffffffffffffffff16815260200190815260200160002084908060018154018082558091505060019003906000526020600020016000909190919091505561251f565b3373ffffffffffffffffffffffffffffffffffffffff168160020160009054906101000a900473ffffffffffffffffffffffffffffffffffffffff1673ffffffffffffffffffffffffffffffffffffffff161461251e576040517f08c379a000000000000000000000000000000000000000000000000000000000815260040161251590614551565b60405180910390fd5b5b60018160020160146101000a81548160ff0219169083151502179055504281600301819055506009849080600181540180825580915050600190039060005260206000200160009091909190915055600073ffffffffffffffffffffffffffffffffffffffff16600260009054906101000a900473ffffffffffffffffffffffffffffffffffffffff1673ffffffffffffffffffffffffffffffffffffffff161461266b57600260009054906101000a900473ffffffffffffffffffffffffffffffffffffffff1673ffffffffffffffffffffffffffffffffffffffff16638d9845da3386846001016040518463ffffffff1660e01b8152600401612626939291906145f5565b6020604051808303816000875af1158015612645573d6000803e3d6000fd5b505050506040513d601f19601f820116820180604052508101906126699190614648565b505b600b60003373ffffffffffffffffffffffffffffffffffffffff1673ffffffffffffffffffffffffffffffffffffffff16815260200190815260200160002060009054906101000a900460ff1661277a576001600b60003373ffffffffffffffffffffffffffffffffffffffff1673ffffffffffffffffffffffffffffffffffffffff16815260200190815260200160002060006101000a81548160ff0219169083151502179055508273ffffffffffffffffffffffffffffffffffffffff163373ffffffffffffffffffffffffffffffffffffffff167ff8656c9527edebaca04b8fa3d13ccf899f67118871c85c9b8ed2c63b8ac7a568426040516127719190612e20565b60405180910390a35b3373ffffffffffffffffffffffffffffffffffffffff16847f37c96697e37d51b5ebc91e3fa58490f07c7dabfcf475cf32787a3c2ebd7ab8ee346040516127c19190612e20565b60405180910390a350506127d3612a70565b5050565b6127df612b3d565b73ffffffffffffffffffffffffffffffffffffffff166127fd6118e5565b73ffffffffffffffffffffffffffffffffffffffff161461285c57612820612b3d565b6040517f118cdaa70000000000000000000000000000000000000000000000000000000081526004016128539190613307565b60405180910390fd5b565b60026001540361289a576040517f3ee5aeb500000000000000000000000000000000000000000000000000000000815260040160405180910390fd5b6002600181905550565b6000600660008581526020019081526020016000209050818160020160006101000a81548173ffffffffffffffffffffffffffffffffffffffff021916908373ffffffffffffffffffffffffffffffffffffffff1602179055506000600860008573ffffffffffffffffffffffffffffffffffffffff1673ffffffffffffffffffffffffffffffffffffffff168152602001908152602001600020905060005b8180549050811015612a025785828281548110612964576129636142de565b5b9060005260206000200154036129ef5781600183805490506129869190614166565b81548110612997576129966142de565b5b90600052602060002001548282815481106129b5576129b46142de565b5b9060005260206000200181905550818054806129d4576129d3614675565b5b60019003818190600052602060002001600090559055612a02565b80806129fa9061430d565b915050612944565b50600860008473ffffffffffffffffffffffffffffffffffffffff1673ffffffffffffffffffffffffffffffffffffffff1681526020019081526020016000208590806001815401808255809150506001900390600052602060002001600090919091909150555050505050565b60018081905550565b60008060009054906101000a900473ffffffffffffffffffffffffffffffffffffffff169050816000806101000a81548173ffffffffffffffffffffffffffffffffffffffff021916908373ffffffffffffffffffffffffffffffffffffffff1602179055508173ffffffffffffffffffffffffffffffffffffffff168173ffffffffffffffffffffffffffffffffffffffff167f8be0079c531659141344cd1fd0a4f28419497f9722a3daafe3b4186f6b6457e060405160405180910390a35050565b600033905090565b6040518061010001604052806000801916815260200160608152602001600073ffffffffffffffffffffffffffffffffffffffff168152602001600015158152602001600081526020016000815260200160008152602001600081525090565b6000604051905090565b600080fd5b600080fd5b600073ffffffffffffffffffffffffffffffffffffffff82169050919050565b6000612be482612bb9565b9050919050565b612bf481612bd9565b8114612bff57600080fd5b50565b600081359050612c1181612beb565b92915050565b600060208284031215612c2d57612c2c612baf565b5b6000612c3b84828501612c02565b91505092915050565b600080fd5b600080fd5b6000601f19601f8301169050919050565b7f4e487b7100000000000000000000000000000000000000000000000000000000600052604160045260246000fd5b612c9782612c4e565b810181811067ffffffffffffffff82111715612cb657612cb5612c5f565b5b80604052505050565b6000612cc9612ba5565b9050612cd58282612c8e565b919050565b600067ffffffffffffffff821115612cf557612cf4612c5f565b5b612cfe82612c4e565b9050602081019050919050565b82818337600083830152505050565b6000612d2d612d2884612cda565b612cbf565b905082815260208101848484011115612d4957612d48612c49565b5b612d54848285612d0b565b509392505050565b600082601f830112612d7157612d70612c44565b5b8135612d81848260208601612d1a565b91505092915050565b600060208284031215612da057612d9f612baf565b5b600082013567ffffffffffffffff811115612dbe57612dbd612bb4565b5b612dca84828501612d5c565b91505092915050565b6000819050919050565b612de681612dd3565b82525050565b6000602082019050612e016000830184612ddd565b92915050565b6000819050919050565b612e1a81612e07565b82525050565b6000602082019050612e356000830184612e11565b92915050565b612e4481612dd3565b8114612e4f57600080fd5b50565b600081359050612e6181612e3b565b92915050565b600060208284031215612e7d57612e7c612baf565b5b6000612e8b84828501612e52565b91505092915050565b60008060408385031215612eab57612eaa612baf565b5b6000612eb985828601612e52565b9250506020612eca85828601612e52565b9150509250929050565b612edd81612e07565b8114612ee857600080fd5b50565b600081359050612efa81612ed4565b92915050565b600060208284031215612f1657612f15612baf565b5b6000612f2484828501612eeb565b91505092915050565b600081519050919050565b600082825260208201905092915050565b6000819050602082019050919050565b612f6281612dd3565b82525050565b6000612f748383612f59565b60208301905092915050565b6000602082019050919050565b6000612f9882612f2d565b612fa28185612f38565b9350612fad83612f49565b8060005b83811015612fde578151612fc58882612f68565b9750612fd083612f80565b925050600181019050612fb1565b5085935050505092915050565b600060208201905081810360008301526130058184612f8d565b905092915050565b600080fd5b600080fd5b60008083601f84011261302d5761302c612c44565b5b8235905067ffffffffffffffff81111561304a5761304961300d565b5b60208301915083600182028301111561306657613065613012565b5b9250929050565b6000806020838503121561308457613083612baf565b5b600083013567ffffffffffffffff8111156130a2576130a1612bb4565b5b6130ae85828601613017565b92509250509250929050565b600081519050919050565b600082825260208201905092915050565b60005b838110156130f45780820151818401526020810190506130d9565b60008484015250505050565b600061310b826130ba565b61311581856130c5565b93506131258185602086016130d6565b61312e81612c4e565b840191505092915050565b61314281612bd9565b82525050565b60008115159050919050565b61315d81613148565b82525050565b61316c81612e07565b82525050565b60006101008301600083015161318b6000860182612f59565b50602083015184820360208601526131a38282613100565b91505060408301516131b86040860182613139565b5060608301516131cb6060860182613154565b5060808301516131de6080860182613163565b5060a08301516131f160a0860182613163565b5060c083015161320460c0860182613163565b5060e083015161321760e0860182613163565b508091505092915050565b6000602082019050818103600083015261323c8184613172565b905092915050565b6000806000806060858703121561325e5761325d612baf565b5b600061326c87828801612e52565b945050602085013567ffffffffffffffff81111561328d5761328c612bb4565b5b61329987828801613017565b935093505060406132ac87828801612c02565b91505092959194509250565b600080604083850312156132cf576132ce612baf565b5b60006132dd85828601612c02565b92505060206132ee85828601612eeb565b9150509250929050565b61330181612bd9565b82525050565b600060208201905061331c60008301846132f8565b92915050565b61332b81613148565b82525050565b60006020820190506133466000830184613322565b92915050565b600082825260208201905092915050565b6000613368826130ba565b613372818561334c565b93506133828185602086016130d6565b61338b81612c4e565b840191505092915050565b6000610100820190506133ac600083018b612ddd565b81810360208301526133be818a61335d565b90506133cd60408301896132f8565b6133da6060830188613322565b6133e76080830187612e11565b6133f460a0830186612e11565b61340160c0830185612e11565b61340e60e0830184612e11565b9998505050505050505050565b60008060006060848603121561343457613433612baf565b5b600061344286828701612e52565b935050602061345386828701612eeb565b925050604061346486828701612eeb565b9150509250925092565b6000819050919050565b600061349361348e61348984612bb9565b61346e565b612bb9565b9050919050565b60006134a582613478565b9050919050565b60006134b78261349a565b9050919050565b6134c7816134ac565b82525050565b60006020820190506134e260008301846134be565b92915050565b600080604083850312156134ff576134fe612baf565b5b600061350d85828601612e52565b925050602061351e85828601612eeb565b9150509250929050565b6000806040838503121561353f5761353e612baf565b5b600061354d85828601612eeb565b925050602061355e85828601612eeb565b9150509250929050565b600081519050919050565b600082825260208201905092915050565b6000819050602082019050919050565b6000610100830160008301516135ad6000860182612f59565b50602083015184820360208601526135c58282613100565b91505060408301516135da6040860182613139565b5060608301516135ed6060860182613154565b5060808301516136006080860182613163565b5060a083015161361360a0860182613163565b5060c083015161362660c0860182613163565b5060e083015161363960e0860182613163565b508091505092915050565b60006136508383613594565b905092915050565b6000602082019050919050565b600061367082613568565b61367a8185613573565b93508360208202850161368c85613584565b8060005b858110156136c857848403895281516136a98582613644565b94506136b483613658565b925060208a01995050600181019050613690565b50829750879550505050505092915050565b600060208201905081810360008301526136f48184613665565b905092915050565b6000806040838503121561371357613712612baf565b5b600061372185828601612e52565b925050602061373285828601612c02565b9150509250929050565b7f4e6f7420626f74206f776e657200000000000000000000000000000000000000600082015250565b6000613772600d8361334c565b915061377d8261373c565b602082019050919050565b600060208201905081810360008301526137a181613765565b9050919050565b7f426f7420646f6573206e6f742065786973740000000000000000000000000000600082015250565b60006137de60128361334c565b91506137e9826137a8565b602082019050919050565b6000602082019050818103600083015261380d816137d1565b9050919050565b7f426f74206e6f7420726567697374657265640000000000000000000000000000600082015250565b600061384a60128361334c565b915061385582613814565b602082019050919050565b600060208201905081810360008301526138798161383d565b9050919050565b60006040820190506138956000830185612ddd565b6138a26020830184612e11565b9392505050565b600081905092915050565b60006138c083856138a9565b93506138cd838584612d0b565b82840190509392505050565b60006138e68284866138b4565b91508190509392505050565b7f426f74206e6f7420666f756e6400000000000000000000000000000000000000600082015250565b6000613928600d8361334c565b9150613933826138f2565b602082019050919050565b600060208201905081810360008301526139578161391b565b9050919050565b7f4e487b7100000000000000000000000000000000000000000000000000000000600052602260045260246000fd5b600060028204905060018216806139a557607f821691505b6020821081036139b8576139b761395e565b5b50919050565b7f4e6f74206261636b656e64206f72206f776e6572000000000000000000000000600082015250565b60006139f460148361334c565b91506139ff826139be565b602082019050919050565b60006020820190508181036000830152613a23816139e7565b9050919050565b7f426f742065786973747300000000000000000000000000000000000000000000600082015250565b6000613a60600a8361334c565b9150613a6b82613a2a565b602082019050919050565b60006020820190508181036000830152613a8f81613a53565b9050919050565b7f496e76616c6964206e616d650000000000000000000000000000000000000000600082015250565b6000613acc600c8361334c565b9150613ad782613a96565b602082019050919050565b60006020820190508181036000830152613afb81613abf565b9050919050565b7f4e616d652074616b656e00000000000000000000000000000000000000000000600082015250565b6000613b38600a8361334c565b9150613b4382613b02565b602082019050919050565b60006020820190508181036000830152613b6781613b2b565b9050919050565b60008190508160005260206000209050919050565b60006020601f8301049050919050565b600082821b905092915050565b600060088302613bd07fffffffffffffffffffffffffffffffffffffffffffffffffffffffffffffffff82613b93565b613bda8683613b93565b95508019841693508086168417925050509392505050565b6000613c0d613c08613c0384612e07565b61346e565b612e07565b9050919050565b6000819050919050565b613c2783613bf2565b613c3b613c3382613c14565b848454613ba0565b825550505050565b600090565b613c50613c43565b613c5b818484613c1e565b505050565b5b81811015613c7f57613c74600082613c48565b600181019050613c61565b5050565b601f821115613cc457613c9581613b6e565b613c9e84613b83565b81016020851015613cad578190505b613cc1613cb985613b83565b830182613c60565b50505b505050565b600082821c905092915050565b6000613ce760001984600802613cc9565b1980831691505092915050565b6000613d008383613cd6565b9150826002028217905092915050565b613d19826130ba565b67ffffffffffffffff811115613d3257613d31612c5f565b5b613d3c825461398d565b613d47828285613c83565b600060209050601f831160018114613d7a5760008415613d68578287015190505b613d728582613cf4565b865550613dda565b601f198416613d8886613b6e565b60005b82811015613db057848901518255600182019150602085019450602081019050613d8b565b86831015613dcd5784890151613dc9601f891682613cd6565b8355505b6001600288020188555050505b505050505050565b6000613dee838561334c565b9350613dfb838584612d0b565b613e0483612c4e565b840190509392505050565b60006020820190508181036000830152613e2a818486613de2565b90509392505050565b7f4e6f2062616c616e636500000000000000000000000000000000000000000000600082015250565b6000613e69600a8361334c565b9150613e7482613e33565b602082019050919050565b60006020820190508181036000830152613e9881613e5c565b9050919050565b600081905092915050565b50565b6000613eba600083613e9f565b9150613ec582613eaa565b600082019050919050565b6000613edb82613ead565b9150819050919050565b7f5769746864726177206661696c65640000000000000000000000000000000000600082015250565b6000613f1b600f8361334c565b9150613f2682613ee5565b602082019050919050565b60006020820190508181036000830152613f4a81613f0e565b9050919050565b7f4e6f7420666f722073616c650000000000000000000000000000000000000000600082015250565b6000613f87600c8361334c565b9150613f9282613f51565b602082019050919050565b60006020820190508181036000830152613fb681613f7a565b9050919050565b7f496e73756666696369656e74207061796d656e74000000000000000000000000600082015250565b6000613ff360148361334c565b9150613ffe82613fbd565b602082019050919050565b6000602082019050818103600083015261402281613fe6565b9050919050565b7f43616e6e6f7420627579206f776e20626f740000000000000000000000000000600082015250565b600061405f60128361334c565b915061406a82614029565b602082019050919050565b6000602082019050818103600083015261408e81614052565b9050919050565b7f4e487b7100000000000000000000000000000000000000000000000000000000600052601160045260246000fd5b60006140cf82612e07565b91506140da83612e07565b92508282026140e881612e07565b915082820484148315176140ff576140fe614095565b5b5092915050565b7f4e487b7100000000000000000000000000000000000000000000000000000000600052601260045260246000fd5b600061414082612e07565b915061414b83612e07565b92508261415b5761415a614106565b5b828204905092915050565b600061417182612e07565b915061417c83612e07565b925082820390508181111561419457614193614095565b5b92915050565b7f5061796d656e7420746f2073656c6c6572206661696c65640000000000000000600082015250565b60006141d060188361334c565b91506141db8261419a565b602082019050919050565b600060208201905081810360008301526141ff816141c3565b9050919050565b7f4d61782031302500000000000000000000000000000000000000000000000000600082015250565b600061423c60078361334c565b915061424782614206565b602082019050919050565b6000602082019050818103600083015261426b8161422f565b9050919050565b7f5072696365206d757374206265203e2030000000000000000000000000000000600082015250565b60006142a860118361334c565b91506142b382614272565b602082019050919050565b600060208201905081810360008301526142d78161429b565b9050919050565b7f4e487b7100000000000000000000000000000000000000000000000000000000600052603260045260246000fd5b600061431882612e07565b91507fffffffffffffffffffffffffffffffffffffffffffffffffffffffffffffffff820361434a57614349614095565b5b600182019050919050565b7f416c726561647920726567697374657265640000000000000000000000000000600082015250565b600061438b60128361334c565b915061439682614355565b602082019050919050565b600060208201905081810360008301526143ba8161437e565b9050919050565b7f496e73756666696369656e742066656500000000000000000000000000000000600082015250565b60006143f760108361334c565b9150614402826143c1565b602082019050919050565b60006020820190508181036000830152614426816143ea565b9050919050565b7f43616e6e6f7420696e766974652073656c660000000000000000000000000000600082015250565b600061446360128361334c565b915061446e8261442d565b602082019050919050565b6000602082019050818103600083015261449281614456565b9050919050565b7f4d6178203520626f747320706572207573657200000000000000000000000000600082015250565b60006144cf60138361334c565b91506144da82614499565b602082019050919050565b600060208201905081810360008301526144fe816144c2565b9050919050565b7f426f74206f776e656420627920616e6f74686572000000000000000000000000600082015250565b600061453b60148361334c565b915061454682614505565b602082019050919050565b6000602082019050818103600083015261456a8161452e565b9050919050565b6000815461457e8161398d565b614588818661334c565b945060018216600081146145a357600181146145b9576145ec565b60ff1983168652811515602002860193506145ec565b6145c285613b6e565b60005b838110156145e4578154818901526001820191506020810190506145c5565b808801955050505b50505092915050565b600060608201905061460a60008301866132f8565b6146176020830185612ddd565b81810360408301526146298184614571565b9050949350505050565b60008151905061464281612ed4565b92915050565b60006020828403121561465e5761465d612baf565b5b600061466c84828501614633565b91505092915050565b7f4e487b7100000000000000000000000000000000000000000000000000000000600052603160045260246000fdfea26469706673582212205c1ad4691ca040ba0c829d802eef8559aacbe1c5762d65346d9fb133a1fca9f664736f6c63430008140033",
  "linkReferences": {},
  "deployedLinkReferences": {}
}