{
  "_format": "hh3-artifact-1",
  "contractName": "RewardDistributor",
  "sourceName": "contracts/RewardDistributor.sol",
  "abi": [
    {
      "inputs": [
        {
          "internalType": "address",
          "name": "_botRegistry",
          "type": "address"
        }
      ],
      "stateMutability": "nonpayable",
      "type": "constructor"
    },
    {
      "anonymous": false,
      "inputs": [
        {
          "indexed": false,
          "internalType": "uint256",
          "name": "botCount",
          "type": "uint256"
        },
        {
          "indexed": false,
          "internalType": "uint256",
          "name": "totalAmount",
          "type": "uint256"
        }
      ],
      "name": "BatchDistributed",
      "type": "event"
    },
    {
      "anonymous": false,
      "inputs": [
        {
          "indexed": false,
          "internalType": "address",
          "name": "from",
          "type": "address"
        },
        {
          "indexed": false,
          "internalType": "uint256",
          "name": "amount",
          "type": "uint256"
        }
      ],
      "name": "FundsDeposited",
      "type": "event"
    },
    {
      "anonymous": false,
      "inputs": [
        {
          "indexed": true,
          "internalType": "address",
          "name": "previousOwner",
          "type": "address"
        },
        {
          "indexed": true,
          "internalType": "address",
          "name": "newOwner",
          "type": "address"
        }
      ],
      "name": "OwnershipTransferred",
      "type": "event"
    },
    {
      "anonymous": false,
      "inputs": [
        {
          "indexed": true,
          "internalType": "bytes32",
          "name": "botId",
          "type": "bytes32"
        },
        {
          "indexed": false,
          "internalType": "uint256",
          "name": "amount",
          "type": "uint256"
        },
        {
          "indexed": false,
          "internalType": "uint256",
          "name": "matchId",
          "type": "uint256"
        },
        {
          "indexed": false,
          "internalType": "uint8",
          "name": "placement",
          "type": "uint8"
        }
      ],
      "name": "RewardAccumulated",
      "type": "event"
    },
    {
      "anonymous": false,
      "inputs": [
        {
          "indexed": true,
          "internalType": "bytes32",
          "name": "botId",
          "type": "bytes32"
        },
        {
          "indexed": true,
          "internalType": "address",
          "name": "owner",
          "type": "address"
        },
        {
          "indexed": false,
          "internalType": "uint256",
          "name": "amount",
          "type": "uint256"
        }
      ],
      "name": "RewardsDistributed",
      "type": "event"
    },
    {
      "inputs": [],
      "name": "MIN_CLAIM_THRESHOLD",
      "outputs": [
        {
          "internalType": "uint256",
          "name": "",
          "type": "uint256"
        }
      ],
      "stateMutability": "view",
      "type": "function"
    },
    {
      "inputs": [
        {
          "internalType": "bytes32",
          "name": "_botId",
          "type": "bytes32"
        },
        {
          "internalType": "uint256",
          "name": "_amount",
          "type": "uint256"
        },
        {
          "internalType": "uint256",
          "name": "_matchId",
          "type": "uint256"
        },
        {
          "internalType": "uint8",
          "name": "_placement",
          "type": "uint8"
        }
      ],
      "name": "accumulateReward",
      "outputs": [],
      "stateMutability": "nonpayable",
      "type": "function"
    },
    {
      "inputs": [
        {
          "internalType": "bytes32[]",
          "name": "_botIds",
          "type": "bytes32[]"
        },
        {
          "internalType": "uint256[]",
          "name": "_amounts",
          "type": "uint256[]"
        },
        {
          "internalType": "uint256[]",
          "name": "_matchIds",
          "type": "uint256[]"
        },
        {
          "internalType": "uint8[]",
          "name": "_placements",
          "type": "uint8[]"
        }
      ],
      "name": "batchAccumulateRewards",
      "outputs": [],
      "stateMutability": "nonpayable",
      "type": "function"
    },
    {
      "inputs": [],
      "name": "botRegistry",
      "outputs": [
        {
          "internalType": "contract BotRegistry",
          "name": "",
          "type": "address"
        }
      ],
      "stateMutability": "view",
      "type": "function"
    },
    {
      "inputs": [
        {
          "internalType": "bytes32",
          "name": "_botId",
          "type": "bytes32"
        }
      ],
      "name": "claimRewards",
      "outputs": [],
      "stateMutability": "nonpayable",
      "type": "function"
    },
    {
      "inputs": [
        {
          "internalType": "bytes32[]",
          "name": "_botIds",
          "type": "bytes32[]"
        }
      ],
      "name": "claimRewardsBatch",
      "outputs": [],
      "stateMutability": "nonpayable",
      "type": "function"
    },
    {
      "inputs": [],
      "name": "depositFunds",
      "outputs": [],
      "stateMutability": "payable",
      "type": "function"
    },
    {
      "inputs": [],
      "name": "emergencyWithdraw",
      "outputs": [],
      "stateMutability": "nonpayable",
      "type": "function"
    },
    {
      "inputs": [],
      "name": "getAvailableBalance",
      "outputs": [
        {
          "internalType": "uint256",
          "name": "",
          "type": "uint256"
        }
      ],
      "stateMutability": "view",
      "type": "function"
    },
    {
      "inputs": [],
      "name": "getContractBalance",
      "outputs": [
        {
          "internalType": "uint256",
          "name": "",
          "type": "uint256"
        }
      ],
      "stateMutability": "view",
      "type": "function"
    },
    {
      "inputs": [
        {
          "internalType": "bytes32",
          "name": "_botId",
          "type": "bytes32"
        }
      ],
      "name": "getPendingReward",
      "outputs": [
        {
          "internalType": "uint256",
          "name": "",
          "type": "uint256"
        }
      ],
      "stateMutability": "view",
      "type": "function"
    },
    {
      "inputs": [],
      "name": "owner",
      "outputs": [
        {
          "internalType": "address",
          "name": "",
          "type": "address"
        }
      ],
      "stateMutability": "view",
      "type": "function"
    },
    {
      "inputs": [
        {
          "internalType": "bytes32",
          "name": "",
          "type": "bytes32"
        }
      ],
      "name": "pendingRewards",
      "outputs": [
        {
          "internalType": "uint256",
          "name": "",
          "type": "uint256"
        }
      ],
      "stateMutability": "view",
      "type": "function"
    },
    {
      "inputs": [],
      "name": "renounceOwnership",
      "outputs": [],
      "stateMutability": "nonpayable",
      "type": "function"
    },
    {
      "inputs": [
        {
          "internalType": "bytes32",
          "name": "",
          "type": "bytes32"
        },
        {
          "internalType": "uint256",
          "name": "",
          "type": "uint256"
        }
      ],
      "name": "rewardHistory",
      "outputs": [
        {
          "internalType": "uint256",
          "name": "",
          "type": "uint256"
        }
      ],
      "stateMutability": "view",
      "type": "function"
    },
    {
      "inputs": [],
      "name": "totalPendingRewards",
      "outputs": [
        {
          "internalType": "uint256",
          "name": "",
          "type": "uint256"
        }
      ],
      "stateMutability": "view",
      "type": "function"
    },
    {
      "inputs": [
        {
          "internalType": "address",
          "name": "newOwner",
          "type": "address"
        }
      ],
      "name": "transferOwnership",
      "outputs": [],
      "stateMutability": "nonpayable",
      "type": "function"
    },
    {
      "stateMutability": "payable",
      "type": "receive"
    }
  ],
  "bytecode": "0x60806040523480156200001157600080fd5b506040516200268e3803806200268e8339818101604052810190620000379190620001dc565b620000576200004b620000a660201b60201c565b620000ae60201b60201c565b6001808190555080600260006101000a81548173ffffffffffffffffffffffffffffffffffffffff021916908373ffffffffffffffffffffffffffffffffffffffff160217905550506200020e565b600033905090565b60008060009054906101000a900473ffffffffffffffffffffffffffffffffffffffff169050816000806101000a81548173ffffffffffffffffffffffffffffffffffffffff021916908373ffffffffffffffffffffffffffffffffffffffff1602179055508173ffffffffffffffffffffffffffffffffffffffff168173ffffffffffffffffffffffffffffffffffffffff167f8be0079c531659141344cd1fd0a4f28419497f9722a3daafe3b4186f6b6457e060405160405180910390a35050565b600080fd5b600073ffffffffffffffffffffffffffffffffffffffff82169050919050565b6000620001a48262000177565b9050919050565b620001b68162000197565b8114620001c257600080fd5b50565b600081519050620001d681620001ab565b92915050565b600060208284031215620001f557620001f462000172565b5b60006200020584828501620001c5565b91505092915050565b612470806200021e6000396000f3fe6080604052600436106101025760003560e01c8063809dab6a11610095578063db89678f11610064578063db89678f1461033f578063e2c41dbc1461037c578063ec1371f214610386578063f2fde38b146103b1578063ffb91e0a146103da57610142565b8063809dab6a146102a95780638da5cb5b146102d4578063960d00bd146102ff578063db2e21bc1461032857610142565b8063683a783b116100d1578063683a783b146102135780636f9fb98a1461023e578063715018a6146102695780637790ddc61461028057610142565b806304ba41a2146101475780633448ec45146101845780633c2fb929146101c15780634364bfde146101ea57610142565b36610142577f543ba50a5eec5e6178218e364b1d0f396157b3c8fa278522c2cb7fd99407d474333460405161013892919061136a565b60405180910390a1005b600080fd5b34801561015357600080fd5b5061016e60048036038101906101699190611409565b610405565b60405161017b9190611449565b60405180910390f35b34801561019057600080fd5b506101ab60048036038101906101a69190611464565b61042a565b6040516101b89190611449565b60405180910390f35b3480156101cd57600080fd5b506101e860048036038101906101e391906114f6565b610447565b005b3480156101f657600080fd5b50610211600480360381019061020c919061157c565b610765565b005b34801561021f57600080fd5b506102286108b5565b6040516102359190611449565b60405180910390f35b34801561024a57600080fd5b506102536108c0565b6040516102609190611449565b60405180910390f35b34801561027557600080fd5b5061027e6108c8565b005b34801561028c57600080fd5b506102a760048036038101906102a29190611464565b6108dc565b005b3480156102b557600080fd5b506102be610bdc565b6040516102cb9190611449565b60405180910390f35b3480156102e057600080fd5b506102e9610c0a565b6040516102f691906115e3565b60405180910390f35b34801561030b57600080fd5b50610326600480360381019061032191906116aa565b610c33565b005b34801561033457600080fd5b5061033d610f0e565b005b34801561034b57600080fd5b5061036660048036038101906103619190611464565b61106c565b6040516103739190611449565b60405180910390f35b610384611084565b005b34801561039257600080fd5b5061039b6110bf565b6040516103a89190611449565b60405180910390f35b3480156103bd57600080fd5b506103d860048036038101906103d391906117bf565b6110c5565b005b3480156103e657600080fd5b506103ef611148565b6040516103fc919061184b565b60405180910390f35b6005602052816000526040600020602052806000526040600020600091509150505481565b600060036000838152602001908152602001600020549050919050565b61044f61116e565b6000805b8383905081101561064757600084848381811061047357610472611866565b5b905060200201359050600060036000838152602001908152602001600020549050600081036104a3575050610634565b6000600260009054906101000a900473ffffffffffffffffffffffffffffffffffffffff1673ffffffffffffffffffffffffffffffffffffffff1663e764fec9846040518263ffffffff1660e01b815260040161050091906118a4565b600060405180830381865afa15801561051d573d6000803e3d6000fd5b505050506040513d6000823e3d601f19601f820116820180604052508101906105469190611b82565b90503373ffffffffffffffffffffffffffffffffffffffff16816040015173ffffffffffffffffffffffffffffffffffffffff16146105ba576040517f08c379a00000000000000000000000000000000000000000000000000000000081526004016105b190611c28565b60405180910390fd5b6000600360008581526020019081526020016000208190555081856105df9190611c77565b94503373ffffffffffffffffffffffffffffffffffffffff16837ff10c7eca064d79e5798376592d7cadf5c7c57ad09c22523bdd91dc7b7a64fdfd846040516106289190611449565b60405180910390a35050505b808061063f90611cab565b915050610453565b5066038d7ea4c68000811015610692576040517f08c379a000000000000000000000000000000000000000000000000000000000815260040161068990611d65565b60405180910390fd5b80600460008282546106a49190611d85565b9250508190555060003373ffffffffffffffffffffffffffffffffffffffff16826040516106d190611dea565b60006040518083038185875af1925050503d806000811461070e576040519150601f19603f3d011682016040523d82523d6000602084013e610713565b606091505b5050905080610757576040517f08c379a000000000000000000000000000000000000000000000000000000000815260040161074e90611e4b565b60405180910390fd5b50506107616111bd565b5050565b61076d6111c6565b60018160ff1610158015610785575060038160ff1611155b6107c4576040517f08c379a00000000000000000000000000000000000000000000000000000000081526004016107bb90611eb7565b60405180910390fd5b60008311610807576040517f08c379a00000000000000000000000000000000000000000000000000000000081526004016107fe90611f23565b60405180910390fd5b8260036000868152602001908152602001600020600082825461082a9190611c77565b9250508190555082600460008282546108439190611c77565b925050819055508260056000868152602001908152602001600020600042815260200190815260200160002081905550837ff1e3babb5abbdd0ca3488685ad5a60235f0dc32856f5e67abb7fcea43be8e9318484846040516108a793929190611f52565b60405180910390a250505050565b66038d7ea4c6800081565b600047905090565b6108d06111c6565b6108da6000611244565b565b6108e461116e565b60006003600083815260200190815260200160002054905066038d7ea4c68000811015610946576040517f08c379a000000000000000000000000000000000000000000000000000000000815260040161093d90611ffb565b60405180910390fd5b6000600260009054906101000a900473ffffffffffffffffffffffffffffffffffffffff1673ffffffffffffffffffffffffffffffffffffffff1663e764fec9846040518263ffffffff1660e01b81526004016109a391906118a4565b600060405180830381865afa1580156109c0573d6000803e3d6000fd5b505050506040513d6000823e3d601f19601f820116820180604052508101906109e99190611b82565b90503373ffffffffffffffffffffffffffffffffffffffff16816040015173ffffffffffffffffffffffffffffffffffffffff1614610a5d576040517f08c379a0000000000000000000000000000000000000000000000000000000008152600401610a5490612067565b60405180910390fd5b8060600151610aa1576040517f08c379a0000000000000000000000000000000000000000000000000000000008152600401610a98906120d3565b60405180910390fd5b600060036000858152602001908152602001600020819055508160046000828254610acc9190611d85565b9250508190555060003373ffffffffffffffffffffffffffffffffffffffff1683604051610af990611dea565b60006040518083038185875af1925050503d8060008114610b36576040519150601f19603f3d011682016040523d82523d6000602084013e610b3b565b606091505b5050905080610b7f576040517f08c379a0000000000000000000000000000000000000000000000000000000008152600401610b7690611e4b565b60405180910390fd5b3373ffffffffffffffffffffffffffffffffffffffff16847ff10c7eca064d79e5798376592d7cadf5c7c57ad09c22523bdd91dc7b7a64fdfd85604051610bc69190611449565b60405180910390a3505050610bd96111bd565b50565b6000804790506004548111610bf5576000915050610c07565b60045481610c039190611d85565b9150505b90565b60008060009054906101000a900473ffffffffffffffffffffffffffffffffffffffff16905090565b610c3b6111c6565b8585905088889050148015610c5557508383905086869050145b8015610c6657508181905084849050145b610ca5576040517f08c379a0000000000000000000000000000000000000000000000000000000008152600401610c9c9061213f565b60405180910390fd5b60005b88889050811015610f03576001838383818110610cc857610cc7611866565b5b9050602002016020810190610cdd919061215f565b60ff1610158015610d1957506003838383818110610cfe57610cfd611866565b5b9050602002016020810190610d13919061215f565b60ff1611155b610d58576040517f08c379a0000000000000000000000000000000000000000000000000000000008152600401610d4f90611eb7565b60405180910390fd5b6000878783818110610d6d57610d6c611866565b5b9050602002013511610db4576040517f08c379a0000000000000000000000000000000000000000000000000000000008152600401610dab90611f23565b60405180910390fd5b868682818110610dc757610dc6611866565b5b90506020020135600360008b8b85818110610de557610de4611866565b5b9050602002013581526020019081526020016000206000828254610e099190611c77565b92505081905550868682818110610e2357610e22611866565b5b9050602002013560046000828254610e3b9190611c77565b92505081905550888882818110610e5557610e54611866565b5b905060200201357ff1e3babb5abbdd0ca3488685ad5a60235f0dc32856f5e67abb7fcea43be8e931888884818110610e9057610e8f611866565b5b90506020020135878785818110610eaa57610ea9611866565b5b90506020020135868686818110610ec457610ec3611866565b5b9050602002016020810190610ed9919061215f565b604051610ee893929190611f52565b60405180910390a28080610efb90611cab565b915050610ca8565b505050505050505050565b610f166111c6565b60004790506004548111610f5f576040517f08c379a0000000000000000000000000000000000000000000000000000000008152600401610f56906121d8565b60405180910390fd5b600060045482610f6f9190611d85565b905060008111610fb4576040517f08c379a0000000000000000000000000000000000000000000000000000000008152600401610fab90612244565b60405180910390fd5b6000610fbe610c0a565b73ffffffffffffffffffffffffffffffffffffffff1682604051610fe190611dea565b60006040518083038185875af1925050503d806000811461101e576040519150601f19603f3d011682016040523d82523d6000602084013e611023565b606091505b5050905080611067576040517f08c379a000000000000000000000000000000000000000000000000000000000815260040161105e906122b0565b60405180910390fd5b505050565b60036020528060005260406000206000915090505481565b7f543ba50a5eec5e6178218e364b1d0f396157b3c8fa278522c2cb7fd99407d47433346040516110b592919061136a565b60405180910390a1565b60045481565b6110cd6111c6565b600073ffffffffffffffffffffffffffffffffffffffff168173ffffffffffffffffffffffffffffffffffffffff160361113c576040517f08c379a000000000000000000000000000000000000000000000000000000000815260040161113390612342565b60405180910390fd5b61114581611244565b50565b600260009054906101000a900473ffffffffffffffffffffffffffffffffffffffff1681565b6002600154036111b3576040517f08c379a00000000000000000000000000000000000000000000000000000000081526004016111aa906123ae565b60405180910390fd5b6002600181905550565b60018081905550565b6111ce611308565b73ffffffffffffffffffffffffffffffffffffffff166111ec610c0a565b73ffffffffffffffffffffffffffffffffffffffff1614611242576040517f08c379a00000000000000000000000000000000000000000000000000000000081526004016112399061241a565b60405180910390fd5b565b60008060009054906101000a900473ffffffffffffffffffffffffffffffffffffffff169050816000806101000a81548173ffffffffffffffffffffffffffffffffffffffff021916908373ffffffffffffffffffffffffffffffffffffffff1602179055508173ffffffffffffffffffffffffffffffffffffffff168173ffffffffffffffffffffffffffffffffffffffff167f8be0079c531659141344cd1fd0a4f28419497f9722a3daafe3b4186f6b6457e060405160405180910390a35050565b600033905090565b600073ffffffffffffffffffffffffffffffffffffffff82169050919050565b600061133b82611310565b9050919050565b61134b81611330565b82525050565b6000819050919050565b61136481611351565b82525050565b600060408201905061137f6000830185611342565b61138c602083018461135b565b9392505050565b6000604051905090565b600080fd5b600080fd5b6000819050919050565b6113ba816113a7565b81146113c557600080fd5b50565b6000813590506113d7816113b1565b92915050565b6113e681611351565b81146113f157600080fd5b50565b600081359050611403816113dd565b92915050565b600080604083850312156114205761141f61139d565b5b600061142e858286016113c8565b925050602061143f858286016113f4565b9150509250929050565b600060208201905061145e600083018461135b565b92915050565b60006020828403121561147a5761147961139d565b5b6000611488848285016113c8565b91505092915050565b600080fd5b600080fd5b600080fd5b60008083601f8401126114b6576114b5611491565b5b8235905067ffffffffffffffff8111156114d3576114d2611496565b5b6020830191508360208202830111156114ef576114ee61149b565b5b9250929050565b6000806020838503121561150d5761150c61139d565b5b600083013567ffffffffffffffff81111561152b5761152a6113a2565b5b611537858286016114a0565b92509250509250929050565b600060ff82169050919050565b61155981611543565b811461156457600080fd5b50565b60008135905061157681611550565b92915050565b600080600080608085870312156115965761159561139d565b5b60006115a4878288016113c8565b94505060206115b5878288016113f4565b93505060406115c6878288016113f4565b92505060606115d787828801611567565b91505092959194509250565b60006020820190506115f86000830184611342565b92915050565b60008083601f84011261161457611613611491565b5b8235905067ffffffffffffffff81111561163157611630611496565b5b60208301915083602082028301111561164d5761164c61149b565b5b9250929050565b60008083601f84011261166a57611669611491565b5b8235905067ffffffffffffffff81111561168757611686611496565b5b6020830191508360208202830111156116a3576116a261149b565b5b9250929050565b6000806000806000806000806080898b0312156116ca576116c961139d565b5b600089013567ffffffffffffffff8111156116e8576116e76113a2565b5b6116f48b828c016114a0565b9850985050602089013567ffffffffffffffff811115611717576117166113a2565b5b6117238b828c016115fe565b9650965050604089013567ffffffffffffffff811115611746576117456113a2565b5b6117528b828c016115fe565b9450945050606089013567ffffffffffffffff811115611775576117746113a2565b5b6117818b828c01611654565b92509250509295985092959890939650565b61179c81611330565b81146117a757600080fd5b50565b6000813590506117b981611793565b92915050565b6000602082840312156117d5576117d461139d565b5b60006117e3848285016117aa565b91505092915050565b6000819050919050565b600061181161180c61180784611310565b6117ec565b611310565b9050919050565b6000611823826117f6565b9050919050565b600061183582611818565b9050919050565b6118458161182a565b82525050565b6000602082019050611860600083018461183c565b92915050565b7f4e487b7100000000000000000000000000000000000000000000000000000000600052603260045260246000fd5b61189e816113a7565b82525050565b60006020820190506118b96000830184611895565b92915050565b600080fd5b6000601f19601f8301169050919050565b7f4e487b7100000000000000000000000000000000000000000000000000000000600052604160045260246000fd5b61190d826118c4565b810181811067ffffffffffffffff8211171561192c5761192b6118d5565b5b80604052505050565b600061193f611393565b905061194b8282611904565b919050565b600080fd5b600081519050611964816113b1565b92915050565b600080fd5b600067ffffffffffffffff82111561198a576119896118d5565b5b611993826118c4565b9050602081019050919050565b60005b838110156119be5780820151818401526020810190506119a3565b60008484015250505050565b60006119dd6119d88461196f565b611935565b9050828152602081018484840111156119f9576119f861196a565b5b611a048482856119a0565b509392505050565b600082601f830112611a2157611a20611491565b5b8151611a318482602086016119ca565b91505092915050565b600081519050611a4981611793565b92915050565b60008115159050919050565b611a6481611a4f565b8114611a6f57600080fd5b50565b600081519050611a8181611a5b565b92915050565b600081519050611a96816113dd565b92915050565b60006101008284031215611ab357611ab26118bf565b5b611abe610100611935565b90506000611ace84828501611955565b600083015250602082015167ffffffffffffffff811115611af257611af1611950565b5b611afe84828501611a0c565b6020830152506040611b1284828501611a3a565b6040830152506060611b2684828501611a72565b6060830152506080611b3a84828501611a87565b60808301525060a0611b4e84828501611a87565b60a08301525060c0611b6284828501611a87565b60c08301525060e0611b7684828501611a87565b60e08301525092915050565b600060208284031215611b9857611b9761139d565b5b600082015167ffffffffffffffff811115611bb657611bb56113a2565b5b611bc284828501611a9c565b91505092915050565b600082825260208201905092915050565b7f4e6f74206f776e6572206f6620616c6c20626f74730000000000000000000000600082015250565b6000611c12601583611bcb565b9150611c1d82611bdc565b602082019050919050565b60006020820190508181036000830152611c4181611c05565b9050919050565b7f4e487b7100000000000000000000000000000000000000000000000000000000600052601160045260246000fd5b6000611c8282611351565b9150611c8d83611351565b9250828201905080821115611ca557611ca4611c48565b5b92915050565b6000611cb682611351565b91507fffffffffffffffffffffffffffffffffffffffffffffffffffffffffffffffff8203611ce857611ce7611c48565b5b600182019050919050565b7f546f74616c207265776172642062656c6f77207468726573686f6c642028302e60008201527f3030312045544829000000000000000000000000000000000000000000000000602082015250565b6000611d4f602883611bcb565b9150611d5a82611cf3565b604082019050919050565b60006020820190508181036000830152611d7e81611d42565b9050919050565b6000611d9082611351565b9150611d9b83611351565b9250828203905081811115611db357611db2611c48565b5b92915050565b600081905092915050565b50565b6000611dd4600083611db9565b9150611ddf82611dc4565b600082019050919050565b6000611df582611dc7565b9150819050919050565b7f5472616e73666572206661696c65640000000000000000000000000000000000600082015250565b6000611e35600f83611bcb565b9150611e4082611dff565b602082019050919050565b60006020820190508181036000830152611e6481611e28565b9050919050565b7f496e76616c696420706c6163656d656e74000000000000000000000000000000600082015250565b6000611ea1601183611bcb565b9150611eac82611e6b565b602082019050919050565b60006020820190508181036000830152611ed081611e94565b9050919050565b7f5a65726f20616d6f756e74000000000000000000000000000000000000000000600082015250565b6000611f0d600b83611bcb565b9150611f1882611ed7565b602082019050919050565b60006020820190508181036000830152611f3c81611f00565b9050919050565b611f4c81611543565b82525050565b6000606082019050611f67600083018661135b565b611f74602083018561135b565b611f816040830184611f43565b949350505050565b7f5265776172642062656c6f77207468726573686f6c642028302e30303120455460008201527f4829000000000000000000000000000000000000000000000000000000000000602082015250565b6000611fe5602283611bcb565b9150611ff082611f89565b604082019050919050565b6000602082019050818103600083015261201481611fd8565b9050919050565b7f4e6f74206f776e65720000000000000000000000000000000000000000000000600082015250565b6000612051600983611bcb565b915061205c8261201b565b602082019050919050565b6000602082019050818103600083015261208081612044565b9050919050565b7f426f74206e6f7420726567697374657265640000000000000000000000000000600082015250565b60006120bd601283611bcb565b91506120c882612087565b602082019050919050565b600060208201905081810360008301526120ec816120b0565b9050919050565b7f4c656e677468206d69736d617463680000000000000000000000000000000000600082015250565b6000612129600f83611bcb565b9150612134826120f3565b602082019050919050565b600060208201905081810360008301526121588161211c565b9050919050565b6000602082840312156121755761217461139d565b5b600061218384828501611567565b91505092915050565b7f43616e6e6f742077697468647261772070656e64696e67207265776172647300600082015250565b60006121c2601f83611bcb565b91506121cd8261218c565b602082019050919050565b600060208201905081810360008301526121f1816121b5565b9050919050565b7f4e6f7468696e6720746f20776974686472617700000000000000000000000000600082015250565b600061222e601383611bcb565b9150612239826121f8565b602082019050919050565b6000602082019050818103600083015261225d81612221565b9050919050565b7f5769746864726177206661696c65640000000000000000000000000000000000600082015250565b600061229a600f83611bcb565b91506122a582612264565b602082019050919050565b600060208201905081810360008301526122c98161228d565b9050919050565b7f4f776e61626c653a206e6577206f776e657220697320746865207a65726f206160008201527f6464726573730000000000000000000000000000000000000000000000000000602082015250565b600061232c602683611bcb565b9150612337826122d0565b604082019050919050565b6000602082019050818103600083015261235b8161231f565b9050919050565b7f5265656e7472616e637947756172643a207265656e7472616e742063616c6c00600082015250565b6000612398601f83611bcb565b91506123a382612362565b602082019050919050565b600060208201905081810360008301526123c78161238b565b9050919050565b7f4f776e61626c653a2063616c6c6572206973206e6f7420746865206f776e6572600082015250565b6000612404602083611bcb565b915061240f826123ce565b602082019050919050565b60006020820190508181036000830152612433816123f7565b905091905056fea2646970667358221220179f6fc53889a706679877995cf82844cadf9e871a5756e3a0eb9c9b8f859dd564736f6c63430008130033",
  "linkReferences": {},
  "deployedLinkReferences": {},
  "immutableReferences": {},
  "inputSourceName": "project/contracts/RewardDistributor.sol",
  "buildInfoId": "solc-0_8_19-f33a17bda213cba25f54a8a1b6fd732d6373c971"
}