{
  "_format": "hh-sol-artifact-1",
  "contractName": "RewardDistributor",
  "sourceName": "contracts/RewardDistributor.sol",
  "abi": [
    {
      "inputs": [
        {
          "internalType": "address",
          "name": "_botRegistry",
          "type": "address"
        }
      ],
      "stateMutability": "nonpayable",
      "type": "constructor"
    },
    {
      "inputs": [
        {
          "internalType": "address",
          "name": "owner",
          "type": "address"
        }
      ],
      "name": "OwnableInvalidOwner",
      "type": "error"
    },
    {
      "inputs": [
        {
          "internalType": "address",
          "name": "account",
          "type": "address"
        }
      ],
      "name": "OwnableUnauthorizedAccount",
      "type": "error"
    },
    {
      "inputs": [],
      "name": "ReentrancyGuardReentrantCall",
      "type": "error"
    },
    {
      "anonymous": false,
      "inputs": [
        {
          "indexed": false,
          "internalType": "uint256",
          "name": "botCount",
          "type": "uint256"
        },
        {
          "indexed": false,
          "internalType": "uint256",
          "name": "totalAmount",
          "type": "uint256"
        }
      ],
      "name": "BatchDistributed",
      "type": "event"
    },
    {
      "anonymous": false,
      "inputs": [
        {
          "indexed": false,
          "internalType": "address",
          "name": "from",
          "type": "address"
        },
        {
          "indexed": false,
          "internalType": "uint256",
          "name": "amount",
          "type": "uint256"
        }
      ],
      "name": "FundsDeposited",
      "type": "event"
    },
    {
      "anonymous": false,
      "inputs": [
        {
          "indexed": true,
          "internalType": "address",
          "name": "previousOwner",
          "type": "address"
        },
        {
          "indexed": true,
          "internalType": "address",
          "name": "newOwner",
          "type": "address"
        }
      ],
      "name": "OwnershipTransferred",
      "type": "event"
    },
    {
      "anonymous": false,
      "inputs": [
        {
          "indexed": true,
          "internalType": "bytes32",
          "name": "botId",
          "type": "bytes32"
        },
        {
          "indexed": false,
          "internalType": "uint256",
          "name": "amount",
          "type": "uint256"
        },
        {
          "indexed": false,
          "internalType": "uint256",
          "name": "matchId",
          "type": "uint256"
        },
        {
          "indexed": false,
          "internalType": "uint8",
          "name": "placement",
          "type": "uint8"
        }
      ],
      "name": "RewardAccumulated",
      "type": "event"
    },
    {
      "anonymous": false,
      "inputs": [
        {
          "indexed": true,
          "internalType": "bytes32",
          "name": "botId",
          "type": "bytes32"
        },
        {
          "indexed": true,
          "internalType": "address",
          "name": "owner",
          "type": "address"
        },
        {
          "indexed": false,
          "internalType": "uint256",
          "name": "amount",
          "type": "uint256"
        }
      ],
      "name": "RewardsDistributed",
      "type": "event"
    },
    {
      "inputs": [],
      "name": "MIN_CLAIM_THRESHOLD",
      "outputs": [
        {
          "internalType": "uint256",
          "name": "",
          "type": "uint256"
        }
      ],
      "stateMutability": "view",
      "type": "function"
    },
    {
      "inputs": [
        {
          "internalType": "bytes32",
          "name": "_botId",
          "type": "bytes32"
        },
        {
          "internalType": "uint256",
          "name": "_amount",
          "type": "uint256"
        },
        {
          "internalType": "uint256",
          "name": "_matchId",
          "type": "uint256"
        },
        {
          "internalType": "uint8",
          "name": "_placement",
          "type": "uint8"
        }
      ],
      "name": "accumulateReward",
      "outputs": [],
      "stateMutability": "nonpayable",
      "type": "function"
    },
    {
      "inputs": [
        {
          "internalType": "bytes32[]",
          "name": "_botIds",
          "type": "bytes32[]"
        },
        {
          "internalType": "uint256[]",
          "name": "_amounts",
          "type": "uint256[]"
        },
        {
          "internalType": "uint256[]",
          "name": "_matchIds",
          "type": "uint256[]"
        },
        {
          "internalType": "uint8[]",
          "name": "_placements",
          "type": "uint8[]"
        }
      ],
      "name": "batchAccumulateRewards",
      "outputs": [],
      "stateMutability": "nonpayable",
      "type": "function"
    },
    {
      "inputs": [],
      "name": "botRegistry",
      "outputs": [
        {
          "internalType": "contract BotRegistry",
          "name": "",
          "type": "address"
        }
      ],
      "stateMutability": "view",
      "type": "function"
    },
    {
      "inputs": [
        {
          "internalType": "bytes32",
          "name": "_botId",
          "type": "bytes32"
        }
      ],
      "name": "claimRewards",
      "outputs": [],
      "stateMutability": "nonpayable",
      "type": "function"
    },
    {
      "inputs": [
        {
          "internalType": "bytes32[]",
          "name": "_botIds",
          "type": "bytes32[]"
        }
      ],
      "name": "claimRewardsBatch",
      "outputs": [],
      "stateMutability": "nonpayable",
      "type": "function"
    },
    {
      "inputs": [],
      "name": "depositFunds",
      "outputs": [],
      "stateMutability": "payable",
      "type": "function"
    },
    {
      "inputs": [],
      "name": "emergencyWithdraw",
      "outputs": [],
      "stateMutability": "nonpayable",
      "type": "function"
    },
    {
      "inputs": [],
      "name": "getAvailableBalance",
      "outputs": [
        {
          "internalType": "uint256",
          "name": "",
          "type": "uint256"
        }
      ],
      "stateMutability": "view",
      "type": "function"
    },
    {
      "inputs": [],
      "name": "getContractBalance",
      "outputs": [
        {
          "internalType": "uint256",
          "name": "",
          "type": "uint256"
        }
      ],
      "stateMutability": "view",
      "type": "function"
    },
    {
      "inputs": [
        {
          "internalType": "bytes32",
          "name": "_botId",
          "type": "bytes32"
        }
      ],
      "name": "getPendingReward",
      "outputs": [
        {
          "internalType": "uint256",
          "name": "",
          "type": "uint256"
        }
      ],
      "stateMutability": "view",
      "type": "function"
    },
    {
      "inputs": [],
      "name": "owner",
      "outputs": [
        {
          "internalType": "address",
          "name": "",
          "type": "address"
        }
      ],
      "stateMutability": "view",
      "type": "function"
    },
    {
      "inputs": [
        {
          "internalType": "bytes32",
          "name": "",
          "type": "bytes32"
        }
      ],
      "name": "pendingRewards",
      "outputs": [
        {
          "internalType": "uint256",
          "name": "",
          "type": "uint256"
        }
      ],
      "stateMutability": "view",
      "type": "function"
    },
    {
      "inputs": [],
      "name": "renounceOwnership",
      "outputs": [],
      "stateMutability": "nonpayable",
      "type": "function"
    },
    {
      "inputs": [
        {
          "internalType": "bytes32",
          "name": "",
          "type": "bytes32"
        },
        {
          "internalType": "uint256",
          "name": "",
          "type": "uint256"
        }
      ],
      "name": "rewardHistory",
      "outputs": [
        {
          "internalType": "uint256",
          "name": "",
          "type": "uint256"
        }
      ],
      "stateMutability": "view",
      "type": "function"
    },
    {
      "inputs": [],
      "name": "totalPendingRewards",
      "outputs": [
        {
          "internalType": "uint256",
          "name": "",
          "type": "uint256"
        }
      ],
      "stateMutability": "view",
      "type": "function"
    },
    {
      "inputs": [
        {
          "internalType": "address",
          "name": "newOwner",
          "type": "address"
        }
      ],
      "name": "transferOwnership",
      "outputs": [],
      "stateMutability": "nonpayable",
      "type": "function"
    },
    {
      "stateMutability": "payable",
      "type": "receive"
    }
  ],
  "bytecode": "0x60806040523480156200001157600080fd5b50604051620025613803806200256183398181016040528101906200003791906200023c565b33600073ffffffffffffffffffffffffffffffffffffffff168173ffffffffffffffffffffffffffffffffffffffff1603620000ad5760006040517f1e4fbdf7000000000000000000000000000000000000000000000000000000008152600401620000a491906200027f565b60405180910390fd5b620000be816200010e60201b60201c565b506001808190555080600260006101000a81548173ffffffffffffffffffffffffffffffffffffffff021916908373ffffffffffffffffffffffffffffffffffffffff160217905550506200029c565b60008060009054906101000a900473ffffffffffffffffffffffffffffffffffffffff169050816000806101000a81548173ffffffffffffffffffffffffffffffffffffffff021916908373ffffffffffffffffffffffffffffffffffffffff1602179055508173ffffffffffffffffffffffffffffffffffffffff168173ffffffffffffffffffffffffffffffffffffffff167f8be0079c531659141344cd1fd0a4f28419497f9722a3daafe3b4186f6b6457e060405160405180910390a35050565b600080fd5b600073ffffffffffffffffffffffffffffffffffffffff82169050919050565b60006200020482620001d7565b9050919050565b6200021681620001f7565b81146200022257600080fd5b50565b60008151905062000236816200020b565b92915050565b600060208284031215620002555762000254620001d2565b5b6000620002658482850162000225565b91505092915050565b6200027981620001f7565b82525050565b60006020820190506200029660008301846200026e565b92915050565b6122b580620002ac6000396000f3fe6080604052600436106101025760003560e01c8063809dab6a11610095578063db89678f11610064578063db89678f1461033f578063e2c41dbc1461037c578063ec1371f214610386578063f2fde38b146103b1578063ffb91e0a146103da57610142565b8063809dab6a146102a95780638da5cb5b146102d4578063960d00bd146102ff578063db2e21bc1461032857610142565b8063683a783b116100d1578063683a783b146102135780636f9fb98a1461023e578063715018a6146102695780637790ddc61461028057610142565b806304ba41a2146101475780633448ec45146101845780633c2fb929146101c15780634364bfde146101ea57610142565b36610142577f543ba50a5eec5e6178218e364b1d0f396157b3c8fa278522c2cb7fd99407d4743334604051610138929190611361565b60405180910390a1005b600080fd5b34801561015357600080fd5b5061016e60048036038101906101699190611400565b610405565b60405161017b9190611440565b60405180910390f35b34801561019057600080fd5b506101ab60048036038101906101a6919061145b565b61042a565b6040516101b89190611440565b60405180910390f35b3480156101cd57600080fd5b506101e860048036038101906101e391906114ed565b610447565b005b3480156101f657600080fd5b50610211600480360381019061020c9190611573565b61075f565b005b34801561021f57600080fd5b506102286108af565b6040516102359190611440565b60405180910390f35b34801561024a57600080fd5b506102536108ba565b6040516102609190611440565b60405180910390f35b34801561027557600080fd5b5061027e6108c2565b005b34801561028c57600080fd5b506102a760048036038101906102a2919061145b565b6108d6565b005b3480156102b557600080fd5b506102be610bd6565b6040516102cb9190611440565b60405180910390f35b3480156102e057600080fd5b506102e9610c04565b6040516102f691906115da565b60405180910390f35b34801561030b57600080fd5b50610326600480360381019061032191906116a1565b610c2d565b005b34801561033457600080fd5b5061033d610f02565b005b34801561034b57600080fd5b506103666004803603810190610361919061145b565b611060565b6040516103739190611440565b60405180910390f35b610384611078565b005b34801561039257600080fd5b5061039b6110b3565b6040516103a89190611440565b60405180910390f35b3480156103bd57600080fd5b506103d860048036038101906103d391906117b6565b6110b9565b005b3480156103e657600080fd5b506103ef61113f565b6040516103fc9190611842565b60405180910390f35b6005602052816000526040600020602052806000526040600020600091509150505481565b600060036000838152602001908152602001600020549050919050565b61044f611165565b6000805b838390508110156106415760008484838181106104735761047261185d565b5b905060200201359050600060036000838152602001908152602001600020549050600081036104a3575050610634565b6000600260009054906101000a900473ffffffffffffffffffffffffffffffffffffffff1673ffffffffffffffffffffffffffffffffffffffff1663e764fec9846040518263ffffffff1660e01b8152600401610500919061189b565b600060405180830381865afa15801561051d573d6000803e3d6000fd5b505050506040513d6000823e3d601f19601f820116820180604052508101906105469190611b79565b90503373ffffffffffffffffffffffffffffffffffffffff16816040015173ffffffffffffffffffffffffffffffffffffffff16146105ba576040517f08c379a00000000000000000000000000000000000000000000000000000000081526004016105b190611c1f565b60405180910390fd5b6000600360008581526020019081526020016000208190555081856105df9190611c6e565b94503373ffffffffffffffffffffffffffffffffffffffff16837ff10c7eca064d79e5798376592d7cadf5c7c57ad09c22523bdd91dc7b7a64fdfd846040516106289190611440565b60405180910390a35050505b8080600101915050610453565b5066038d7ea4c6800081101561068c576040517f08c379a000000000000000000000000000000000000000000000000000000000815260040161068390611d14565b60405180910390fd5b806004600082825461069e9190611d34565b9250508190555060003373ffffffffffffffffffffffffffffffffffffffff16826040516106cb90611d99565b60006040518083038185875af1925050503d8060008114610708576040519150601f19603f3d011682016040523d82523d6000602084013e61070d565b606091505b5050905080610751576040517f08c379a000000000000000000000000000000000000000000000000000000000815260040161074890611dfa565b60405180910390fd5b505061075b6111ab565b5050565b6107676111b4565b60018160ff161015801561077f575060038160ff1611155b6107be576040517f08c379a00000000000000000000000000000000000000000000000000000000081526004016107b590611e66565b60405180910390fd5b60008311610801576040517f08c379a00000000000000000000000000000000000000000000000000000000081526004016107f890611ed2565b60405180910390fd5b826003600086815260200190815260200160002060008282546108249190611c6e565b92505081905550826004600082825461083d9190611c6e565b925050819055508260056000868152602001908152602001600020600042815260200190815260200160002081905550837ff1e3babb5abbdd0ca3488685ad5a60235f0dc32856f5e67abb7fcea43be8e9318484846040516108a193929190611f01565b60405180910390a250505050565b66038d7ea4c6800081565b600047905090565b6108ca6111b4565b6108d4600061123b565b565b6108de611165565b60006003600083815260200190815260200160002054905066038d7ea4c68000811015610940576040517f08c379a000000000000000000000000000000000000000000000000000000000815260040161093790611faa565b60405180910390fd5b6000600260009054906101000a900473ffffffffffffffffffffffffffffffffffffffff1673ffffffffffffffffffffffffffffffffffffffff1663e764fec9846040518263ffffffff1660e01b815260040161099d919061189b565b600060405180830381865afa1580156109ba573d6000803e3d6000fd5b505050506040513d6000823e3d601f19601f820116820180604052508101906109e39190611b79565b90503373ffffffffffffffffffffffffffffffffffffffff16816040015173ffffffffffffffffffffffffffffffffffffffff1614610a57576040517f08c379a0000000000000000000000000000000000000000000000000000000008152600401610a4e90612016565b60405180910390fd5b8060600151610a9b576040517f08c379a0000000000000000000000000000000000000000000000000000000008152600401610a9290612082565b60405180910390fd5b600060036000858152602001908152602001600020819055508160046000828254610ac69190611d34565b9250508190555060003373ffffffffffffffffffffffffffffffffffffffff1683604051610af390611d99565b60006040518083038185875af1925050503d8060008114610b30576040519150601f19603f3d011682016040523d82523d6000602084013e610b35565b606091505b5050905080610b79576040517f08c379a0000000000000000000000000000000000000000000000000000000008152600401610b7090611dfa565b60405180910390fd5b3373ffffffffffffffffffffffffffffffffffffffff16847ff10c7eca064d79e5798376592d7cadf5c7c57ad09c22523bdd91dc7b7a64fdfd85604051610bc09190611440565b60405180910390a3505050610bd36111ab565b50565b6000804790506004548111610bef576000915050610c01565b60045481610bfd9190611d34565b9150505b90565b60008060009054906101000a900473ffffffffffffffffffffffffffffffffffffffff16905090565b610c356111b4565b8585905088889050148015610c4f57508383905086869050145b8015610c6057508181905084849050145b610c9f576040517f08c379a0000000000000000000000000000000000000000000000000000000008152600401610c96906120ee565b60405180910390fd5b60005b88889050811015610ef7576001838383818110610cc257610cc161185d565b5b9050602002016020810190610cd7919061210e565b60ff1610158015610d1357506003838383818110610cf857610cf761185d565b5b9050602002016020810190610d0d919061210e565b60ff1611155b610d52576040517f08c379a0000000000000000000000000000000000000000000000000000000008152600401610d4990611e66565b60405180910390fd5b6000878783818110610d6757610d6661185d565b5b9050602002013511610dae576040517f08c379a0000000000000000000000000000000000000000000000000000000008152600401610da590611ed2565b60405180910390fd5b868682818110610dc157610dc061185d565b5b90506020020135600360008b8b85818110610ddf57610dde61185d565b5b9050602002013581526020019081526020016000206000828254610e039190611c6e565b92505081905550868682818110610e1d57610e1c61185d565b5b9050602002013560046000828254610e359190611c6e565b92505081905550888882818110610e4f57610e4e61185d565b5b905060200201357ff1e3babb5abbdd0ca3488685ad5a60235f0dc32856f5e67abb7fcea43be8e931888884818110610e8a57610e8961185d565b5b90506020020135878785818110610ea457610ea361185d565b5b90506020020135868686818110610ebe57610ebd61185d565b5b9050602002016020810190610ed3919061210e565b604051610ee293929190611f01565b60405180910390a28080600101915050610ca2565b505050505050505050565b610f0a6111b4565b60004790506004548111610f53576040517f08c379a0000000000000000000000000000000000000000000000000000000008152600401610f4a90612187565b60405180910390fd5b600060045482610f639190611d34565b905060008111610fa8576040517f08c379a0000000000000000000000000000000000000000000000000000000008152600401610f9f906121f3565b60405180910390fd5b6000610fb2610c04565b73ffffffffffffffffffffffffffffffffffffffff1682604051610fd590611d99565b60006040518083038185875af1925050503d8060008114611012576040519150601f19603f3d011682016040523d82523d6000602084013e611017565b606091505b505090508061105b576040517f08c379a00000000000000000000000000000000000000000000000000000000081526004016110529061225f565b60405180910390fd5b505050565b60036020528060005260406000206000915090505481565b7f543ba50a5eec5e6178218e364b1d0f396157b3c8fa278522c2cb7fd99407d47433346040516110a9929190611361565b60405180910390a1565b60045481565b6110c16111b4565b600073ffffffffffffffffffffffffffffffffffffffff168173ffffffffffffffffffffffffffffffffffffffff16036111335760006040517f1e4fbdf700000000000000000000000000000000000000000000000000000000815260040161112a91906115da565b60405180910390fd5b61113c8161123b565b50565b600260009054906101000a900473ffffffffffffffffffffffffffffffffffffffff1681565b6002600154036111a1576040517f3ee5aeb500000000000000000000000000000000000000000000000000000000815260040160405180910390fd5b6002600181905550565b60018081905550565b6111bc6112ff565b73ffffffffffffffffffffffffffffffffffffffff166111da610c04565b73ffffffffffffffffffffffffffffffffffffffff1614611239576111fd6112ff565b6040517f118cdaa700000000000000000000000000000000000000000000000000000000815260040161123091906115da565b60405180910390fd5b565b60008060009054906101000a900473ffffffffffffffffffffffffffffffffffffffff169050816000806101000a81548173ffffffffffffffffffffffffffffffffffffffff021916908373ffffffffffffffffffffffffffffffffffffffff1602179055508173ffffffffffffffffffffffffffffffffffffffff168173ffffffffffffffffffffffffffffffffffffffff167f8be0079c531659141344cd1fd0a4f28419497f9722a3daafe3b4186f6b6457e060405160405180910390a35050565b600033905090565b600073ffffffffffffffffffffffffffffffffffffffff82169050919050565b600061133282611307565b9050919050565b61134281611327565b82525050565b6000819050919050565b61135b81611348565b82525050565b60006040820190506113766000830185611339565b6113836020830184611352565b9392505050565b6000604051905090565b600080fd5b600080fd5b6000819050919050565b6113b18161139e565b81146113bc57600080fd5b50565b6000813590506113ce816113a8565b92915050565b6113dd81611348565b81146113e857600080fd5b50565b6000813590506113fa816113d4565b92915050565b6000806040838503121561141757611416611394565b5b6000611425858286016113bf565b9250506020611436858286016113eb565b9150509250929050565b60006020820190506114556000830184611352565b92915050565b60006020828403121561147157611470611394565b5b600061147f848285016113bf565b91505092915050565b600080fd5b600080fd5b600080fd5b60008083601f8401126114ad576114ac611488565b5b8235905067ffffffffffffffff8111156114ca576114c961148d565b5b6020830191508360208202830111156114e6576114e5611492565b5b9250929050565b6000806020838503121561150457611503611394565b5b600083013567ffffffffffffffff81111561152257611521611399565b5b61152e85828601611497565b92509250509250929050565b600060ff82169050919050565b6115508161153a565b811461155b57600080fd5b50565b60008135905061156d81611547565b92915050565b6000806000806080858703121561158d5761158c611394565b5b600061159b878288016113bf565b94505060206115ac878288016113eb565b93505060406115bd878288016113eb565b92505060606115ce8782880161155e565b91505092959194509250565b60006020820190506115ef6000830184611339565b92915050565b60008083601f84011261160b5761160a611488565b5b8235905067ffffffffffffffff8111156116285761162761148d565b5b60208301915083602082028301111561164457611643611492565b5b9250929050565b60008083601f84011261166157611660611488565b5b8235905067ffffffffffffffff81111561167e5761167d61148d565b5b60208301915083602082028301111561169a57611699611492565b5b9250929050565b6000806000806000806000806080898b0312156116c1576116c0611394565b5b600089013567ffffffffffffffff8111156116df576116de611399565b5b6116eb8b828c01611497565b9850985050602089013567ffffffffffffffff81111561170e5761170d611399565b5b61171a8b828c016115f5565b9650965050604089013567ffffffffffffffff81111561173d5761173c611399565b5b6117498b828c016115f5565b9450945050606089013567ffffffffffffffff81111561176c5761176b611399565b5b6117788b828c0161164b565b92509250509295985092959890939650565b61179381611327565b811461179e57600080fd5b50565b6000813590506117b08161178a565b92915050565b6000602082840312156117cc576117cb611394565b5b60006117da848285016117a1565b91505092915050565b6000819050919050565b60006118086118036117fe84611307565b6117e3565b611307565b9050919050565b600061181a826117ed565b9050919050565b600061182c8261180f565b9050919050565b61183c81611821565b82525050565b60006020820190506118576000830184611833565b92915050565b7f4e487b7100000000000000000000000000000000000000000000000000000000600052603260045260246000fd5b6118958161139e565b82525050565b60006020820190506118b0600083018461188c565b92915050565b600080fd5b6000601f19601f8301169050919050565b7f4e487b7100000000000000000000000000000000000000000000000000000000600052604160045260246000fd5b611904826118bb565b810181811067ffffffffffffffff82111715611923576119226118cc565b5b80604052505050565b600061193661138a565b905061194282826118fb565b919050565b600080fd5b60008151905061195b816113a8565b92915050565b600080fd5b600067ffffffffffffffff821115611981576119806118cc565b5b61198a826118bb565b9050602081019050919050565b60005b838110156119b557808201518184015260208101905061199a565b60008484015250505050565b60006119d46119cf84611966565b61192c565b9050828152602081018484840111156119f0576119ef611961565b5b6119fb848285611997565b509392505050565b600082601f830112611a1857611a17611488565b5b8151611a288482602086016119c1565b91505092915050565b600081519050611a408161178a565b92915050565b60008115159050919050565b611a5b81611a46565b8114611a6657600080fd5b50565b600081519050611a7881611a52565b92915050565b600081519050611a8d816113d4565b92915050565b60006101008284031215611aaa57611aa96118b6565b5b611ab561010061192c565b90506000611ac58482850161194c565b600083015250602082015167ffffffffffffffff811115611ae957611ae8611947565b5b611af584828501611a03565b6020830152506040611b0984828501611a31565b6040830152506060611b1d84828501611a69565b6060830152506080611b3184828501611a7e565b60808301525060a0611b4584828501611a7e565b60a08301525060c0611b5984828501611a7e565b60c08301525060e0611b6d84828501611a7e565b60e08301525092915050565b600060208284031215611b8f57611b8e611394565b5b600082015167ffffffffffffffff811115611bad57611bac611399565b5b611bb984828501611a93565b91505092915050565b600082825260208201905092915050565b7f4e6f74206f776e6572206f6620616c6c20626f74730000000000000000000000600082015250565b6000611c09601583611bc2565b9150611c1482611bd3565b602082019050919050565b60006020820190508181036000830152611c3881611bfc565b9050919050565b7f4e487b7100000000000000000000000000000000000000000000000000000000600052601160045260246000fd5b6000611c7982611348565b9150611c8483611348565b9250828201905080821115611c9c57611c9b611c3f565b5b92915050565b7f546f74616c207265776172642062656c6f77207468726573686f6c642028302e60008201527f3030312045544829000000000000000000000000000000000000000000000000602082015250565b6000611cfe602883611bc2565b9150611d0982611ca2565b604082019050919050565b60006020820190508181036000830152611d2d81611cf1565b9050919050565b6000611d3f82611348565b9150611d4a83611348565b9250828203905081811115611d6257611d61611c3f565b5b92915050565b600081905092915050565b50565b6000611d83600083611d68565b9150611d8e82611d73565b600082019050919050565b6000611da482611d76565b9150819050919050565b7f5472616e73666572206661696c65640000000000000000000000000000000000600082015250565b6000611de4600f83611bc2565b9150611def82611dae565b602082019050919050565b60006020820190508181036000830152611e1381611dd7565b9050919050565b7f496e76616c696420706c6163656d656e74000000000000000000000000000000600082015250565b6000611e50601183611bc2565b9150611e5b82611e1a565b602082019050919050565b60006020820190508181036000830152611e7f81611e43565b9050919050565b7f5a65726f20616d6f756e74000000000000000000000000000000000000000000600082015250565b6000611ebc600b83611bc2565b9150611ec782611e86565b602082019050919050565b60006020820190508181036000830152611eeb81611eaf565b9050919050565b611efb8161153a565b82525050565b6000606082019050611f166000830186611352565b611f236020830185611352565b611f306040830184611ef2565b949350505050565b7f5265776172642062656c6f77207468726573686f6c642028302e30303120455460008201527f4829000000000000000000000000000000000000000000000000000000000000602082015250565b6000611f94602283611bc2565b9150611f9f82611f38565b604082019050919050565b60006020820190508181036000830152611fc381611f87565b9050919050565b7f4e6f74206f776e65720000000000000000000000000000000000000000000000600082015250565b6000612000600983611bc2565b915061200b82611fca565b602082019050919050565b6000602082019050818103600083015261202f81611ff3565b9050919050565b7f426f74206e6f7420726567697374657265640000000000000000000000000000600082015250565b600061206c601283611bc2565b915061207782612036565b602082019050919050565b6000602082019050818103600083015261209b8161205f565b9050919050565b7f4c656e677468206d69736d617463680000000000000000000000000000000000600082015250565b60006120d8600f83611bc2565b91506120e3826120a2565b602082019050919050565b60006020820190508181036000830152612107816120cb565b9050919050565b60006020828403121561212457612123611394565b5b60006121328482850161155e565b91505092915050565b7f43616e6e6f742077697468647261772070656e64696e67207265776172647300600082015250565b6000612171601f83611bc2565b915061217c8261213b565b602082019050919050565b600060208201905081810360008301526121a081612164565b9050919050565b7f4e6f7468696e6720746f20776974686472617700000000000000000000000000600082015250565b60006121dd601383611bc2565b91506121e8826121a7565b602082019050919050565b6000602082019050818103600083015261220c816121d0565b9050919050565b7f5769746864726177206661696c65640000000000000000000000000000000000600082015250565b6000612249600f83611bc2565b915061225482612213565b602082019050919050565b600060208201905081810360008301526122788161223c565b905091905056fea2646970667358221220a6e758a78b98d4c1c3e6cd4e19cf5035de6ea30d9aec3721f65d4d9ec72277bb64736f6c63430008180033",
  "linkReferences": {},
  "deployedLinkReferences": {}
}