{
  "_format": "hh-sol-artifact-1",
  "contractName": "SnakeArenaPariMutuel",
  "sourceName": "contracts/SnakeArenaPariMutuel.sol",
  "abi": [
    {
      "inputs": [
        {
          "internalType": "address",
          "name": "_usdc",
          "type": "address"
        }
      ],
      "stateMutability": "nonpayable",
      "type": "constructor"
    },
    {
      "inputs": [],
      "name": "EnforcedPause",
      "type": "error"
    },
    {
      "inputs": [],
      "name": "ExpectedPause",
      "type": "error"
    },
    {
      "inputs": [
        {
          "internalType": "address",
          "name": "owner",
          "type": "address"
        }
      ],
      "name": "OwnableInvalidOwner",
      "type": "error"
    },
    {
      "inputs": [
        {
          "internalType": "address",
          "name": "account",
          "type": "address"
        }
      ],
      "name": "OwnableUnauthorizedAccount",
      "type": "error"
    },
    {
      "inputs": [],
      "name": "ReentrancyGuardReentrantCall",
      "type": "error"
    },
    {
      "anonymous": false,
      "inputs": [
        {
          "indexed": true,
          "internalType": "uint256",
          "name": "matchId",
          "type": "uint256"
        },
        {
          "indexed": true,
          "internalType": "address",
          "name": "bettor",
          "type": "address"
        },
        {
          "indexed": true,
          "internalType": "bytes32",
          "name": "botId",
          "type": "bytes32"
        },
        {
          "indexed": false,
          "internalType": "uint256",
          "name": "amount",
          "type": "uint256"
        },
        {
          "indexed": false,
          "internalType": "uint256",
          "name": "betIndex",
          "type": "uint256"
        }
      ],
      "name": "BetPlaced",
      "type": "event"
    },
    {
      "anonymous": false,
      "inputs": [
        {
          "indexed": true,
          "internalType": "uint256",
          "name": "matchId",
          "type": "uint256"
        },
        {
          "indexed": false,
          "internalType": "string",
          "name": "reason",
          "type": "string"
        }
      ],
      "name": "MatchCancelled",
      "type": "event"
    },
    {
      "anonymous": false,
      "inputs": [
        {
          "indexed": true,
          "internalType": "uint256",
          "name": "matchId",
          "type": "uint256"
        },
        {
          "indexed": false,
          "internalType": "uint256",
          "name": "startTime",
          "type": "uint256"
        }
      ],
      "name": "MatchCreated",
      "type": "event"
    },
    {
      "anonymous": false,
      "inputs": [
        {
          "indexed": true,
          "internalType": "uint256",
          "name": "matchId",
          "type": "uint256"
        },
        {
          "indexed": false,
          "internalType": "bytes32[]",
          "name": "winners",
          "type": "bytes32[]"
        },
        {
          "indexed": false,
          "internalType": "uint256",
          "name": "totalPool",
          "type": "uint256"
        },
        {
          "indexed": false,
          "internalType": "uint256",
          "name": "platformRake",
          "type": "uint256"
        },
        {
          "indexed": false,
          "internalType": "uint256",
          "name": "botRewards",
          "type": "uint256"
        }
      ],
      "name": "MatchSettled",
      "type": "event"
    },
    {
      "anonymous": false,
      "inputs": [
        {
          "indexed": false,
          "internalType": "address",
          "name": "oracle",
          "type": "address"
        }
      ],
      "name": "OracleAuthorized",
      "type": "event"
    },
    {
      "anonymous": false,
      "inputs": [
        {
          "indexed": false,
          "internalType": "address",
          "name": "oracle",
          "type": "address"
        }
      ],
      "name": "OracleRevoked",
      "type": "event"
    },
    {
      "anonymous": false,
      "inputs": [
        {
          "indexed": true,
          "internalType": "address",
          "name": "previousOwner",
          "type": "address"
        },
        {
          "indexed": true,
          "internalType": "address",
          "name": "newOwner",
          "type": "address"
        }
      ],
      "name": "OwnershipTransferred",
      "type": "event"
    },
    {
      "anonymous": false,
      "inputs": [
        {
          "indexed": false,
          "internalType": "address",
          "name": "account",
          "type": "address"
        }
      ],
      "name": "Paused",
      "type": "event"
    },
    {
      "anonymous": false,
      "inputs": [
        {
          "indexed": false,
          "internalType": "uint256",
          "name": "amount",
          "type": "uint256"
        }
      ],
      "name": "PlatformFeesWithdrawn",
      "type": "event"
    },
    {
      "anonymous": false,
      "inputs": [
        {
          "indexed": true,
          "internalType": "uint256",
          "name": "matchId",
          "type": "uint256"
        },
        {
          "indexed": true,
          "internalType": "address",
          "name": "bettor",
          "type": "address"
        },
        {
          "indexed": false,
          "internalType": "uint256",
          "name": "amount",
          "type": "uint256"
        }
      ],
      "name": "RefundClaimed",
      "type": "event"
    },
    {
      "anonymous": false,
      "inputs": [
        {
          "indexed": false,
          "internalType": "address",
          "name": "account",
          "type": "address"
        }
      ],
      "name": "Unpaused",
      "type": "event"
    },
    {
      "anonymous": false,
      "inputs": [
        {
          "indexed": true,
          "internalType": "uint256",
          "name": "matchId",
          "type": "uint256"
        },
        {
          "indexed": true,
          "internalType": "address",
          "name": "bettor",
          "type": "address"
        },
        {
          "indexed": false,
          "internalType": "uint256",
          "name": "amount",
          "type": "uint256"
        }
      ],
      "name": "WinningsClaimed",
      "type": "event"
    },
    {
      "inputs": [],
      "name": "FIRST_PLACE_SHARE",
      "outputs": [
        {
          "internalType": "uint256",
          "name": "",
          "type": "uint256"
        }
      ],
      "stateMutability": "view",
      "type": "function"
    },
    {
      "inputs": [],
      "name": "PERCENTAGE_BASE",
      "outputs": [
        {
          "internalType": "uint256",
          "name": "",
          "type": "uint256"
        }
      ],
      "stateMutability": "view",
      "type": "function"
    },
    {
      "inputs": [],
      "name": "PLATFORM_RAKE",
      "outputs": [
        {
          "internalType": "uint256",
          "name": "",
          "type": "uint256"
        }
      ],
      "stateMutability": "view",
      "type": "function"
    },
    {
      "inputs": [],
      "name": "SECOND_PLACE_SHARE",
      "outputs": [
        {
          "internalType": "uint256",
          "name": "",
          "type": "uint256"
        }
      ],
      "stateMutability": "view",
      "type": "function"
    },
    {
      "inputs": [],
      "name": "THIRD_PLACE_SHARE",
      "outputs": [
        {
          "internalType": "uint256",
          "name": "",
          "type": "uint256"
        }
      ],
      "stateMutability": "view",
      "type": "function"
    },
    {
      "inputs": [],
      "name": "TOTAL_RAKE",
      "outputs": [
        {
          "internalType": "uint256",
          "name": "",
          "type": "uint256"
        }
      ],
      "stateMutability": "view",
      "type": "function"
    },
    {
      "inputs": [],
      "name": "accumulatedPlatformFees",
      "outputs": [
        {
          "internalType": "uint256",
          "name": "",
          "type": "uint256"
        }
      ],
      "stateMutability": "view",
      "type": "function"
    },
    {
      "inputs": [
        {
          "internalType": "address",
          "name": "_oracle",
          "type": "address"
        }
      ],
      "name": "authorizeOracle",
      "outputs": [],
      "stateMutability": "nonpayable",
      "type": "function"
    },
    {
      "inputs": [
        {
          "internalType": "address",
          "name": "",
          "type": "address"
        }
      ],
      "name": "authorizedOracles",
      "outputs": [
        {
          "internalType": "bool",
          "name": "",
          "type": "bool"
        }
      ],
      "stateMutability": "view",
      "type": "function"
    },
    {
      "inputs": [
        {
          "internalType": "uint256",
          "name": "",
          "type": "uint256"
        },
        {
          "internalType": "address",
          "name": "",
          "type": "address"
        },
        {
          "internalType": "bytes32",
          "name": "",
          "type": "bytes32"
        },
        {
          "internalType": "uint256",
          "name": "",
          "type": "uint256"
        }
      ],
      "name": "bettorBotBets",
      "outputs": [
        {
          "internalType": "uint256",
          "name": "",
          "type": "uint256"
        }
      ],
      "stateMutability": "view",
      "type": "function"
    },
    {
      "inputs": [
        {
          "internalType": "uint256",
          "name": "",
          "type": "uint256"
        },
        {
          "internalType": "address",
          "name": "",
          "type": "address"
        }
      ],
      "name": "bettorTotalBet",
      "outputs": [
        {
          "internalType": "uint256",
          "name": "",
          "type": "uint256"
        }
      ],
      "stateMutability": "view",
      "type": "function"
    },
    {
      "inputs": [
        {
          "internalType": "uint256",
          "name": "",
          "type": "uint256"
        },
        {
          "internalType": "bytes32",
          "name": "",
          "type": "bytes32"
        }
      ],
      "name": "botTotalBets",
      "outputs": [
        {
          "internalType": "uint256",
          "name": "",
          "type": "uint256"
        }
      ],
      "stateMutability": "view",
      "type": "function"
    },
    {
      "inputs": [
        {
          "internalType": "uint256",
          "name": "_matchId",
          "type": "uint256"
        },
        {
          "internalType": "uint256",
          "name": "_betIndex",
          "type": "uint256"
        }
      ],
      "name": "calculateBetWinnings",
      "outputs": [
        {
          "internalType": "uint256",
          "name": "",
          "type": "uint256"
        }
      ],
      "stateMutability": "view",
      "type": "function"
    },
    {
      "inputs": [
        {
          "internalType": "uint256",
          "name": "_matchId",
          "type": "uint256"
        },
        {
          "internalType": "string",
          "name": "_reason",
          "type": "string"
        }
      ],
      "name": "cancelMatch",
      "outputs": [],
      "stateMutability": "nonpayable",
      "type": "function"
    },
    {
      "inputs": [
        {
          "internalType": "uint256",
          "name": "_matchId",
          "type": "uint256"
        }
      ],
      "name": "claimRefund",
      "outputs": [],
      "stateMutability": "nonpayable",
      "type": "function"
    },
    {
      "inputs": [
        {
          "internalType": "uint256",
          "name": "_matchId",
          "type": "uint256"
        }
      ],
      "name": "claimWinnings",
      "outputs": [],
      "stateMutability": "nonpayable",
      "type": "function"
    },
    {
      "inputs": [
        {
          "internalType": "uint256",
          "name": "_matchId",
          "type": "uint256"
        },
        {
          "internalType": "uint256",
          "name": "_startTime",
          "type": "uint256"
        }
      ],
      "name": "createMatch",
      "outputs": [],
      "stateMutability": "nonpayable",
      "type": "function"
    },
    {
      "inputs": [],
      "name": "emergencyWithdraw",
      "outputs": [],
      "stateMutability": "nonpayable",
      "type": "function"
    },
    {
      "inputs": [
        {
          "internalType": "uint256",
          "name": "_matchId",
          "type": "uint256"
        },
        {
          "internalType": "bytes32",
          "name": "_botId",
          "type": "bytes32"
        }
      ],
      "name": "getCurrentOdds",
      "outputs": [
        {
          "internalType": "uint256",
          "name": "",
          "type": "uint256"
        }
      ],
      "stateMutability": "view",
      "type": "function"
    },
    {
      "inputs": [
        {
          "internalType": "uint256",
          "name": "_matchId",
          "type": "uint256"
        }
      ],
      "name": "getMatchBets",
      "outputs": [
        {
          "components": [
            {
              "internalType": "address",
              "name": "bettor",
              "type": "address"
            },
            {
              "internalType": "bytes32",
              "name": "botId",
              "type": "bytes32"
            },
            {
              "internalType": "uint256",
              "name": "amount",
              "type": "uint256"
            },
            {
              "internalType": "bool",
              "name": "claimed",
              "type": "bool"
            }
          ],
          "internalType": "struct SnakeArenaPariMutuel.Bet[]",
          "name": "",
          "type": "tuple[]"
        }
      ],
      "stateMutability": "view",
      "type": "function"
    },
    {
      "inputs": [
        {
          "internalType": "uint256",
          "name": "_matchId",
          "type": "uint256"
        },
        {
          "internalType": "address",
          "name": "_bettor",
          "type": "address"
        }
      ],
      "name": "getUserPotentialWinnings",
      "outputs": [
        {
          "internalType": "uint256",
          "name": "",
          "type": "uint256"
        }
      ],
      "stateMutability": "view",
      "type": "function"
    },
    {
      "inputs": [
        {
          "internalType": "uint256",
          "name": "",
          "type": "uint256"
        },
        {
          "internalType": "uint256",
          "name": "",
          "type": "uint256"
        }
      ],
      "name": "matchBets",
      "outputs": [
        {
          "internalType": "address",
          "name": "bettor",
          "type": "address"
        },
        {
          "internalType": "bytes32",
          "name": "botId",
          "type": "bytes32"
        },
        {
          "internalType": "uint256",
          "name": "amount",
          "type": "uint256"
        },
        {
          "internalType": "bool",
          "name": "claimed",
          "type": "bool"
        }
      ],
      "stateMutability": "view",
      "type": "function"
    },
    {
      "inputs": [
        {
          "internalType": "uint256",
          "name": "",
          "type": "uint256"
        }
      ],
      "name": "matches",
      "outputs": [
        {
          "internalType": "uint256",
          "name": "matchId",
          "type": "uint256"
        },
        {
          "internalType": "uint256",
          "name": "startTime",
          "type": "uint256"
        },
        {
          "internalType": "uint256",
          "name": "endTime",
          "type": "uint256"
        },
        {
          "internalType": "uint256",
          "name": "totalPool",
          "type": "uint256"
        },
        {
          "internalType": "bool",
          "name": "settled",
          "type": "bool"
        },
        {
          "internalType": "bool",
          "name": "cancelled",
          "type": "bool"
        }
      ],
      "stateMutability": "view",
      "type": "function"
    },
    {
      "inputs": [],
      "name": "owner",
      "outputs": [
        {
          "internalType": "address",
          "name": "",
          "type": "address"
        }
      ],
      "stateMutability": "view",
      "type": "function"
    },
    {
      "inputs": [],
      "name": "pause",
      "outputs": [],
      "stateMutability": "nonpayable",
      "type": "function"
    },
    {
      "inputs": [],
      "name": "paused",
      "outputs": [
        {
          "internalType": "bool",
          "name": "",
          "type": "bool"
        }
      ],
      "stateMutability": "view",
      "type": "function"
    },
    {
      "inputs": [
        {
          "internalType": "uint256",
          "name": "_matchId",
          "type": "uint256"
        },
        {
          "internalType": "bytes32",
          "name": "_botId",
          "type": "bytes32"
        },
        {
          "internalType": "uint256",
          "name": "_amount",
          "type": "uint256"
        }
      ],
      "name": "placeBet",
      "outputs": [],
      "stateMutability": "nonpayable",
      "type": "function"
    },
    {
      "inputs": [],
      "name": "renounceOwnership",
      "outputs": [],
      "stateMutability": "nonpayable",
      "type": "function"
    },
    {
      "inputs": [
        {
          "internalType": "address",
          "name": "_oracle",
          "type": "address"
        }
      ],
      "name": "revokeOracle",
      "outputs": [],
      "stateMutability": "nonpayable",
      "type": "function"
    },
    {
      "inputs": [
        {
          "internalType": "address",
          "name": "_usdc",
          "type": "address"
        }
      ],
      "name": "setUsdc",
      "outputs": [],
      "stateMutability": "nonpayable",
      "type": "function"
    },
    {
      "inputs": [
        {
          "internalType": "uint256",
          "name": "_matchId",
          "type": "uint256"
        },
        {
          "internalType": "bytes32[]",
          "name": "_winners",
          "type": "bytes32[]"
        }
      ],
      "name": "settleMatch",
      "outputs": [],
      "stateMutability": "nonpayable",
      "type": "function"
    },
    {
      "inputs": [
        {
          "internalType": "address",
          "name": "newOwner",
          "type": "address"
        }
      ],
      "name": "transferOwnership",
      "outputs": [],
      "stateMutability": "nonpayable",
      "type": "function"
    },
    {
      "inputs": [],
      "name": "unpause",
      "outputs": [],
      "stateMutability": "nonpayable",
      "type": "function"
    },
    {
      "inputs": [],
      "name": "usdc",
      "outputs": [
        {
          "internalType": "contract IERC20",
          "name": "",
          "type": "address"
        }
      ],
      "stateMutability": "view",
      "type": "function"
    },
    {
      "inputs": [],
      "name": "withdrawPlatformFees",
      "outputs": [],
      "stateMutability": "nonpayable",
      "type": "function"
    }
  ],
  "bytecode": "0x60806040523480156200001157600080fd5b506040516200443d3803806200443d83398181016040528101906200003791906200023c565b33600073ffffffffffffffffffffffffffffffffffffffff168173ffffffffffffffffffffffffffffffffffffffff1603620000ad5760006040517f1e4fbdf7000000000000000000000000000000000000000000000000000000008152600401620000a491906200027f565b60405180910390fd5b620000be816200010e60201b60201c565b506001808190555080600260016101000a81548173ffffffffffffffffffffffffffffffffffffffff021916908373ffffffffffffffffffffffffffffffffffffffff160217905550506200029c565b60008060009054906101000a900473ffffffffffffffffffffffffffffffffffffffff169050816000806101000a81548173ffffffffffffffffffffffffffffffffffffffff021916908373ffffffffffffffffffffffffffffffffffffffff1602179055508173ffffffffffffffffffffffffffffffffffffffff168173ffffffffffffffffffffffffffffffffffffffff167f8be0079c531659141344cd1fd0a4f28419497f9722a3daafe3b4186f6b6457e060405160405180910390a35050565b600080fd5b600073ffffffffffffffffffffffffffffffffffffffff82169050919050565b60006200020482620001d7565b9050919050565b6200021681620001f7565b81146200022257600080fd5b50565b60008151905062000236816200020b565b92915050565b600060208284031215620002555762000254620001d2565b5b6000620002658482850162000225565b91505092915050565b6200027981620001f7565b82525050565b60006020820190506200029660008301846200026e565b92915050565b61419180620002ac6000396000f3fe608060405234801561001057600080fd5b50600436106102115760003560e01c806376b0285b11610125578063a897edc0116100ad578063d0b7830b1161007c578063d0b7830b146105f8578063db2e21bc14610602578063f2fde38b1461060c578063f435e4cc14610628578063f5a0ea6c1461065857610211565b8063a897edc014610586578063aa079eb0146105a4578063b9d9390a146105c0578063cb146879146105dc57610211565b80638456cb59116100f45780638456cb59146104e057806387c13943146104ea5780638da5cb5b146105085780639577644014610526578063a8752e6c1461055657610211565b806376b0285b14610458578063784e36ec146104765780637bd51a96146104925780637d317a9f146104c257610211565b80634aa3c804116101a857806361c992a31161017757806361c992a3146103a2578063677bd9ff146103d257806368fcbfb2146103ee5780636ea1219d1461041e578063715018a61461044e57610211565b80634aa3c8041461032e5780635983e6b01461034c5780635b7baf64146103685780635c975abb1461038457610211565b80633e413bee116101e45780633e413bee146102a15780633f4ba83a146102bf5780633fd7b4e6146102c95780634768d4ef146102f957610211565b80630f13b76314610216578063342f2df31461023257806334dddef9146102505780633c6da7bf14610283575b600080fd5b610230600480360381019061022b9190612d68565b610674565b005b61023a61070e565b6040516102479190612dae565b60405180910390f35b61026a60048036038101906102659190612df5565b610714565b60405161027a9493929190612e78565b60405180910390f35b61028b61078e565b6040516102989190612dae565b60405180910390f35b6102a9610794565b6040516102b69190612f1c565b60405180910390f35b6102c76107ba565b005b6102e360048036038101906102de9190612f63565b6107cc565b6040516102f09190612dae565b60405180910390f35b610313600480360381019061030e9190612fa3565b610881565b60405161032596959493929190612fd0565b60405180910390f35b6103366108d7565b6040516103439190612dae565b60405180910390f35b61036660048036038101906103619190612d68565b6108dd565b005b610382600480360381019061037d9190612fa3565b610977565b005b61038c610d13565b6040516103999190613031565b60405180910390f35b6103bc60048036038101906103b79190612d68565b610d2a565b6040516103c99190613031565b60405180910390f35b6103ec60048036038101906103e79190612fa3565b610d4a565b005b6104086004803603810190610403919061304c565b6110e1565b6040516104159190612dae565b60405180910390f35b61043860048036038101906104339190612df5565b61112c565b6040516104459190612dae565b60405180910390f35b61045661133e565b005b610460611352565b60405161046d9190612dae565b60405180910390f35b610490600480360381019061048b9190613118565b611358565b005b6104ac60048036038101906104a79190613178565b61178f565b6040516104b99190612dae565b60405180910390f35b6104ca611864565b6040516104d79190612dae565b60405180910390f35b6104e861186a565b005b6104f261187c565b6040516104ff9190612dae565b60405180910390f35b610510611882565b60405161051d91906131b8565b60405180910390f35b610540600480360381019061053b9190612f63565b6118ab565b60405161054d9190612dae565b60405180910390f35b610570600480360381019061056b9190613178565b6118d0565b60405161057d9190612dae565b60405180910390f35b61058e6118f5565b60405161059b9190612dae565b60405180910390f35b6105be60048036038101906105b99190613229565b6118fb565b005b6105da60048036038101906105d59190613289565b611b1a565b005b6105f660048036038101906105f19190612d68565b6120e8565b005b610600612134565b005b61060a6122ae565b005b61062660048036038101906106219190612d68565b61248a565b005b610642600480360381019061063d9190612fa3565b612510565b60405161064f919061341c565b60405180910390f35b610672600480360381019061066d9190612df5565b612607565b005b61067c6128f6565b6001600860008373ffffffffffffffffffffffffffffffffffffffff1673ffffffffffffffffffffffffffffffffffffffff16815260200190815260200160002060006101000a81548160ff0219169083151502179055507f5a7a3f71a35f5e2589980d29d1c6d8c75e39657751190874081e55208bae24b78160405161070391906131b8565b60405180910390a150565b60095481565b6004602052816000526040600020818154811061073057600080fd5b9060005260206000209060040201600091509150508060000160009054906101000a900473ffffffffffffffffffffffffffffffffffffffff16908060010154908060020154908060030160009054906101000a900460ff16905084565b6103e881565b600260019054906101000a900473ffffffffffffffffffffffffffffffffffffffff1681565b6107c26128f6565b6107ca61297d565b565b60008060036000858152602001908152602001600020600301549050600060056000868152602001908152602001600020600085815260200190815260200160002054905060008114806108205750600082145b156108305760009250505061087b565b60006127106103e8612710610845919061346d565b8461085091906134a1565b61085a9190613512565b9050816127108261086b91906134a1565b6108759190613512565b93505050505b92915050565b60036020528060005260406000206000915090508060000154908060010154908060020154908060030154908060040160009054906101000a900460ff16908060040160019054906101000a900460ff16905086565b610bb881565b6108e56128f6565b6000600860008373ffffffffffffffffffffffffffffffffffffffff1673ffffffffffffffffffffffffffffffffffffffff16815260200190815260200160002060006101000a81548160ff0219169083151502179055507f3c9c4af7c4c66de2ffc68abfa4e0d275fbce92f248473bca0d6787dc8caf8e318160405161096c91906131b8565b60405180910390a150565b61097f6129e0565b8060006003600083815260200190815260200160002060000154036109d9576040517f08c379a00000000000000000000000000000000000000000000000000000000081526004016109d0906135a0565b60405180910390fd5b6003600083815260200190815260200160002060040160019054906101000a900460ff16610a3c576040517f08c379a0000000000000000000000000000000000000000000000000000000008152600401610a339061360c565b60405180910390fd5b60008060046000858152602001908152602001600020905060005b8180549050811015610b93573373ffffffffffffffffffffffffffffffffffffffff16828281548110610a8d57610a8c61362c565b5b906000526020600020906004020160000160009054906101000a900473ffffffffffffffffffffffffffffffffffffffff1673ffffffffffffffffffffffffffffffffffffffff16148015610b115750818181548110610af057610aef61362c565b5b906000526020600020906004020160030160009054906101000a900460ff16155b15610b8657818181548110610b2957610b2861362c565b5b90600052602060002090600402016002015483610b46919061365b565b92506001828281548110610b5d57610b5c61362c565b5b906000526020600020906004020160030160006101000a81548160ff0219169083151502179055505b8080600101915050610a57565b5060008211610bd7576040517f08c379a0000000000000000000000000000000000000000000000000000000008152600401610bce906136db565b60405180910390fd5b600260019054906101000a900473ffffffffffffffffffffffffffffffffffffffff1673ffffffffffffffffffffffffffffffffffffffff1663a9059cbb33846040518363ffffffff1660e01b8152600401610c349291906136fb565b6020604051808303816000875af1158015610c53573d6000803e3d6000fd5b505050506040513d601f19601f82011682018060405250810190610c779190613750565b610cb6576040517f08c379a0000000000000000000000000000000000000000000000000000000008152600401610cad906137c9565b60405180910390fd5b3373ffffffffffffffffffffffffffffffffffffffff16847ff3f402280ef0a7905e124aa621b65eaeb2725c343e8b36d398ed78c29daf285c84604051610cfd9190612dae565b60405180910390a3505050610d10612a26565b50565b6000600260009054906101000a900460ff16905090565b60086020528060005260406000206000915054906101000a900460ff1681565b610d526129e0565b806000600360008381526020019081526020016000206000015403610dac576040517f08c379a0000000000000000000000000000000000000000000000000000000008152600401610da3906135a0565b60405180910390fd5b60006003600084815260200190815260200160002090508060040160009054906101000a900460ff16610e14576040517f08c379a0000000000000000000000000000000000000000000000000000000008152600401610e0b90613835565b60405180910390fd5b60008060046000868152602001908152602001600020905060005b8180549050811015610f60573373ffffffffffffffffffffffffffffffffffffffff16828281548110610e6557610e6461362c565b5b906000526020600020906004020160000160009054906101000a900473ffffffffffffffffffffffffffffffffffffffff1673ffffffffffffffffffffffffffffffffffffffff16148015610ee95750818181548110610ec857610ec761362c565b5b906000526020600020906004020160030160009054906101000a900460ff16155b15610f53576000610efa878361112c565b90506000811115610f51578084610f11919061365b565b93506001838381548110610f2857610f2761362c565b5b906000526020600020906004020160030160006101000a81548160ff0219169083151502179055505b505b8080600101915050610e2f565b5060008211610fa4576040517f08c379a0000000000000000000000000000000000000000000000000000000008152600401610f9b906138a1565b60405180910390fd5b600260019054906101000a900473ffffffffffffffffffffffffffffffffffffffff1673ffffffffffffffffffffffffffffffffffffffff1663a9059cbb33846040518363ffffffff1660e01b81526004016110019291906136fb565b6020604051808303816000875af1158015611020573d6000803e3d6000fd5b505050506040513d601f19601f820116820180604052508101906110449190613750565b611083576040517f08c379a000000000000000000000000000000000000000000000000000000000815260040161107a9061390d565b60405180910390fd5b3373ffffffffffffffffffffffffffffffffffffffff16857f5380cf6fe903b40c6d5a9e0dfbca2f3a423f0a21520b4d5947ed5169bdba946d846040516110ca9190612dae565b60405180910390a3505050506110de612a26565b50565b6006602052836000526040600020602052826000526040600020602052816000526040600020818154811061111557600080fd5b906000526020600020016000935093505050505481565b6000806004600085815260200190815260200160002083815481106111545761115361362c565b5b9060005260206000209060040201905060006003600086815260200190815260200160002090508060040160009054906101000a900460ff1615806111a757508160030160009054906101000a900460ff165b156111b757600092505050611338565b6000805b82600501805490508110156112165783600101548360050182815481106111e5576111e461362c565b5b90600052602060002001540361120957600181611202919061365b565b9150611216565b80806001019150506111bb565b506000810361122b5760009350505050611338565b60008260030154905060006127106103e8612710611249919061346d565b8361125491906134a1565b61125e9190613512565b90506000600184036112745761138890506112a9565b6002840361128657610bb890506112a8565b60038403611298576107d090506112a7565b60009650505050505050611338565b5b5b600061271082846112ba91906134a1565b6112c49190613512565b90506000600560008c81526020019081526020016000206000896001015481526020019081526020016000205490506000810361130c57600098505050505050505050611338565b600081838a6002015461131f91906134a1565b6113299190613512565b90508099505050505050505050505b92915050565b6113466128f6565b6113506000612a2f565b565b6103e881565b6113606129e0565b600860003373ffffffffffffffffffffffffffffffffffffffff1673ffffffffffffffffffffffffffffffffffffffff16815260200190815260200160002060009054906101000a900460ff166113ec576040517f08c379a00000000000000000000000000000000000000000000000000000000081526004016113e390613979565b60405180910390fd5b826000600360008381526020019081526020016000206000015403611446576040517f08c379a000000000000000000000000000000000000000000000000000000000815260040161143d906135a0565b60405180910390fd5b836003600082815260200190815260200160002060040160009054906101000a900460ff16156114ab576040517f08c379a00000000000000000000000000000000000000000000000000000000081526004016114a2906139e5565b60405180910390fd5b6003600082815260200190815260200160002060040160019054906101000a900460ff161561150f576040517f08c379a000000000000000000000000000000000000000000000000000000000815260040161150690613a51565b60405180910390fd5b600084849050118015611526575060038484905011155b611565576040517f08c379a000000000000000000000000000000000000000000000000000000000815260040161155c90613abd565b60405180910390fd5b60036000868152602001908152602001600020600101544210156115be576040517f08c379a00000000000000000000000000000000000000000000000000000000081526004016115b590613b29565b60405180910390fd5b600060036000878152602001908152602001600020905060018160040160006101000a81548160ff021916908315150217905550428160020181905550848482600501919061160e929190612bdf565b5060008160030154905060008082111561173c576127106103e88361163391906134a1565b61163d9190613512565b90508060096000828254611651919061365b565b9250508190555060008787905067ffffffffffffffff81111561167757611676613b49565b5b6040519080825280602002602001820160405280156116a55781602001602082028036833780820191505090505b50905060005b8888905081101561172057600560008b815260200190815260200160002060008a8a848181106116de576116dd61362c565b5b905060200201358152602001908152602001600020548282815181106117075761170661362c565b5b60200260200101818152505080806001019150506116ab565b5080846006019080519060200190611739929190612c2c565b50505b877fda5e8e3efcfcb8f0d64e2f3d73e11bf821f42e5ade6dfb4e86430f56c0a6c358888885856000604051611775959493929190613c2e565b60405180910390a2505050505061178a612a26565b505050565b60008060009050600060046000868152602001908152602001600020905060005b8180549050811015611858578473ffffffffffffffffffffffffffffffffffffffff168282815481106117e6576117e561362c565b5b906000526020600020906004020160000160009054906101000a900473ffffffffffffffffffffffffffffffffffffffff1673ffffffffffffffffffffffffffffffffffffffff160361184b5761183d868261112c565b83611848919061365b565b92505b80806001019150506117b0565b50819250505092915050565b6107d081565b6118726128f6565b61187a612af3565b565b61271081565b60008060009054906101000a900473ffffffffffffffffffffffffffffffffffffffff16905090565b6005602052816000526040600020602052806000526040600020600091509150505481565b6007602052816000526040600020602052806000526040600020600091509150505481565b61138881565b600860003373ffffffffffffffffffffffffffffffffffffffff1673ffffffffffffffffffffffffffffffffffffffff16815260200190815260200160002060009054906101000a900460ff16611987576040517f08c379a000000000000000000000000000000000000000000000000000000000815260040161197e90613979565b60405180910390fd5b8260006003600083815260200190815260200160002060000154036119e1576040517f08c379a00000000000000000000000000000000000000000000000000000000081526004016119d8906135a0565b60405180910390fd5b836003600082815260200190815260200160002060040160009054906101000a900460ff1615611a46576040517f08c379a0000000000000000000000000000000000000000000000000000000008152600401611a3d906139e5565b60405180910390fd5b6003600082815260200190815260200160002060040160019054906101000a900460ff1615611aaa576040517f08c379a0000000000000000000000000000000000000000000000000000000008152600401611aa190613a51565b60405180910390fd5b60016003600087815260200190815260200160002060040160016101000a81548160ff021916908315150217905550847fbe9561483b1664685b575e72966584b8b66b253bd4f2e55e045e00db8fc134af8585604051611b0b929190613cc9565b60405180910390a25050505050565b611b226129e0565b611b2a612b56565b826000600360008381526020019081526020016000206000015403611b84576040517f08c379a0000000000000000000000000000000000000000000000000000000008152600401611b7b906135a0565b60405180910390fd5b836003600082815260200190815260200160002060040160009054906101000a900460ff1615611be9576040517f08c379a0000000000000000000000000000000000000000000000000000000008152600401611be0906139e5565b60405180910390fd5b6003600082815260200190815260200160002060040160019054906101000a900460ff1615611c4d576040517f08c379a0000000000000000000000000000000000000000000000000000000008152600401611c4490613a51565b60405180910390fd5b60008311611c90576040517f08c379a0000000000000000000000000000000000000000000000000000000008152600401611c8790613d39565b60405180910390fd5b6000801b8403611cd5576040517f08c379a0000000000000000000000000000000000000000000000000000000008152600401611ccc90613da5565b60405180910390fd5b61012c6003600087815260200190815260200160002060010154611cf9919061365b565b4210611d3a576040517f08c379a0000000000000000000000000000000000000000000000000000000008152600401611d3190613e11565b60405180910390fd5b600260019054906101000a900473ffffffffffffffffffffffffffffffffffffffff1673ffffffffffffffffffffffffffffffffffffffff166323b872dd3330866040518463ffffffff1660e01b8152600401611d9993929190613e31565b6020604051808303816000875af1158015611db8573d6000803e3d6000fd5b505050506040513d601f19601f82011682018060405250810190611ddc9190613750565b611e1b576040517f08c379a0000000000000000000000000000000000000000000000000000000008152600401611e129061390d565b60405180910390fd5b600060405180608001604052803373ffffffffffffffffffffffffffffffffffffffff1681526020018681526020018581526020016000151581525090506000600460008881526020019081526020016000208054905090506004600088815260200190815260200160002082908060018154018082558091505060019003906000526020600020906004020160009091909190915060008201518160000160006101000a81548173ffffffffffffffffffffffffffffffffffffffff021916908373ffffffffffffffffffffffffffffffffffffffff160217905550602082015181600101556040820151816002015560608201518160030160006101000a81548160ff0219169083151502179055505050846005600089815260200190815260200160002060008881526020019081526020016000206000828254611f62919061365b565b92505081905550846007600089815260200190815260200160002060003373ffffffffffffffffffffffffffffffffffffffff1673ffffffffffffffffffffffffffffffffffffffff1681526020019081526020016000206000828254611fc9919061365b565b925050819055506006600088815260200190815260200160002060003373ffffffffffffffffffffffffffffffffffffffff1673ffffffffffffffffffffffffffffffffffffffff16815260200190815260200160002060008781526020019081526020016000208190806001815401808255809150506001900390600052602060002001600090919091909150558460036000898152602001908152602001600020600301600082825461207e919061365b565b92505081905550853373ffffffffffffffffffffffffffffffffffffffff16887fe3f12000d2e52ba630f53090b6ce84c0334e43fbe0e17603b46237748a0c407888856040516120cf929190613e68565b60405180910390a4505050506120e3612a26565b505050565b6120f06128f6565b80600260016101000a81548173ffffffffffffffffffffffffffffffffffffffff021916908373ffffffffffffffffffffffffffffffffffffffff16021790555050565b61213c6128f6565b6000600954905060008111612186576040517f08c379a000000000000000000000000000000000000000000000000000000000815260040161217d90613edd565b60405180910390fd5b6000600981905550600260019054906101000a900473ffffffffffffffffffffffffffffffffffffffff1673ffffffffffffffffffffffffffffffffffffffff1663a9059cbb6121d4611882565b836040518363ffffffff1660e01b81526004016121f29291906136fb565b6020604051808303816000875af1158015612211573d6000803e3d6000fd5b505050506040513d601f19601f820116820180604052508101906122359190613750565b612274576040517f08c379a000000000000000000000000000000000000000000000000000000000815260040161226b90613f49565b60405180910390fd5b7f9870c8023baa016ac002ddfa7cdad341155acddddee3032c07d4baa4947ae643816040516122a39190612dae565b60405180910390a150565b6122b66128f6565b6122be612b97565b6000600260019054906101000a900473ffffffffffffffffffffffffffffffffffffffff1673ffffffffffffffffffffffffffffffffffffffff166370a08231306040518263ffffffff1660e01b815260040161231b91906131b8565b602060405180830381865afa158015612338573d6000803e3d6000fd5b505050506040513d601f19601f8201168201806040525081019061235c9190613f7e565b9050600081116123a1576040517f08c379a000000000000000000000000000000000000000000000000000000000815260040161239890613ff7565b60405180910390fd5b600260019054906101000a900473ffffffffffffffffffffffffffffffffffffffff1673ffffffffffffffffffffffffffffffffffffffff1663a9059cbb6123e7611882565b836040518363ffffffff1660e01b81526004016124059291906136fb565b6020604051808303816000875af1158015612424573d6000803e3d6000fd5b505050506040513d601f19601f820116820180604052508101906124489190613750565b612487576040517f08c379a000000000000000000000000000000000000000000000000000000000815260040161247e90614063565b60405180910390fd5b50565b6124926128f6565b600073ffffffffffffffffffffffffffffffffffffffff168173ffffffffffffffffffffffffffffffffffffffff16036125045760006040517f1e4fbdf70000000000000000000000000000000000000000000000000000000081526004016124fb91906131b8565b60405180910390fd5b61250d81612a2f565b50565b606060046000838152602001908152602001600020805480602002602001604051908101604052809291908181526020016000905b828210156125fc57838290600052602060002090600402016040518060800160405290816000820160009054906101000a900473ffffffffffffffffffffffffffffffffffffffff1673ffffffffffffffffffffffffffffffffffffffff1673ffffffffffffffffffffffffffffffffffffffff16815260200160018201548152602001600282015481526020016003820160009054906101000a900460ff16151515158152505081526020019060010190612545565b505050509050919050565b600860003373ffffffffffffffffffffffffffffffffffffffff1673ffffffffffffffffffffffffffffffffffffffff16815260200190815260200160002060009054906101000a900460ff16612693576040517f08c379a000000000000000000000000000000000000000000000000000000000815260040161268a90613979565b60405180910390fd5b60006003600084815260200190815260200160002060000154146126ec576040517f08c379a00000000000000000000000000000000000000000000000000000000081526004016126e3906140cf565b60405180910390fd5b42811161272e576040517f08c379a00000000000000000000000000000000000000000000000000000000081526004016127259061413b565b60405180910390fd5b6040518061010001604052808381526020018281526020016000815260200160008152602001600015158152602001600015158152602001600067ffffffffffffffff81111561278157612780613b49565b5b6040519080825280602002602001820160405280156127af5781602001602082028036833780820191505090505b508152602001600067ffffffffffffffff8111156127d0576127cf613b49565b5b6040519080825280602002602001820160405280156127fe5781602001602082028036833780820191505090505b50815250600360008481526020019081526020016000206000820151816000015560208201518160010155604082015181600201556060820151816003015560808201518160040160006101000a81548160ff02191690831515021790555060a08201518160040160016101000a81548160ff02191690831515021790555060c0820151816005019080519060200190612899929190612c79565b5060e08201518160060190805190602001906128b6929190612c2c565b50905050817fd56886a1746d522b2004f5a22791ef766ad000208d143745de239399516bb5ab826040516128ea9190612dae565b60405180910390a25050565b6128fe612bd7565b73ffffffffffffffffffffffffffffffffffffffff1661291c611882565b73ffffffffffffffffffffffffffffffffffffffff161461297b5761293f612bd7565b6040517f118cdaa700000000000000000000000000000000000000000000000000000000815260040161297291906131b8565b60405180910390fd5b565b612985612b97565b6000600260006101000a81548160ff0219169083151502179055507f5db9ee0a495bf2e6ff9c91a7834c1ba4fdd244a5e8aa4e537bd38aeae4b073aa6129c9612bd7565b6040516129d691906131b8565b60405180910390a1565b600260015403612a1c576040517f3ee5aeb500000000000000000000000000000000000000000000000000000000815260040160405180910390fd5b6002600181905550565b60018081905550565b60008060009054906101000a900473ffffffffffffffffffffffffffffffffffffffff169050816000806101000a81548173ffffffffffffffffffffffffffffffffffffffff021916908373ffffffffffffffffffffffffffffffffffffffff1602179055508173ffffffffffffffffffffffffffffffffffffffff168173ffffffffffffffffffffffffffffffffffffffff167f8be0079c531659141344cd1fd0a4f28419497f9722a3daafe3b4186f6b6457e060405160405180910390a35050565b612afb612b56565b6001600260006101000a81548160ff0219169083151502179055507f62e78cea01bee320cd4e420270b5ea74000d11b0c9f74754ebdbfc544b05a258612b3f612bd7565b604051612b4c91906131b8565b60405180910390a1565b612b5e610d13565b15612b95576040517fd93c066500000000000000000000000000000000000000000000000000000000815260040160405180910390fd5b565b612b9f610d13565b612bd5576040517f8dfc202b00000000000000000000000000000000000000000000000000000000815260040160405180910390fd5b565b600033905090565b828054828255906000526020600020908101928215612c1b579160200282015b82811115612c1a578235825591602001919060010190612bff565b5b509050612c289190612cc6565b5090565b828054828255906000526020600020908101928215612c68579160200282015b82811115612c67578251825591602001919060010190612c4c565b5b509050612c759190612ce3565b5090565b828054828255906000526020600020908101928215612cb5579160200282015b82811115612cb4578251825591602001919060010190612c99565b5b509050612cc29190612cc6565b5090565b5b80821115612cdf576000816000905550600101612cc7565b5090565b5b80821115612cfc576000816000905550600101612ce4565b5090565b600080fd5b600080fd5b600073ffffffffffffffffffffffffffffffffffffffff82169050919050565b6000612d3582612d0a565b9050919050565b612d4581612d2a565b8114612d5057600080fd5b50565b600081359050612d6281612d3c565b92915050565b600060208284031215612d7e57612d7d612d00565b5b6000612d8c84828501612d53565b91505092915050565b6000819050919050565b612da881612d95565b82525050565b6000602082019050612dc36000830184612d9f565b92915050565b612dd281612d95565b8114612ddd57600080fd5b50565b600081359050612def81612dc9565b92915050565b60008060408385031215612e0c57612e0b612d00565b5b6000612e1a85828601612de0565b9250506020612e2b85828601612de0565b9150509250929050565b612e3e81612d2a565b82525050565b6000819050919050565b612e5781612e44565b82525050565b60008115159050919050565b612e7281612e5d565b82525050565b6000608082019050612e8d6000830187612e35565b612e9a6020830186612e4e565b612ea76040830185612d9f565b612eb46060830184612e69565b95945050505050565b6000819050919050565b6000612ee2612edd612ed884612d0a565b612ebd565b612d0a565b9050919050565b6000612ef482612ec7565b9050919050565b6000612f0682612ee9565b9050919050565b612f1681612efb565b82525050565b6000602082019050612f316000830184612f0d565b92915050565b612f4081612e44565b8114612f4b57600080fd5b50565b600081359050612f5d81612f37565b92915050565b60008060408385031215612f7a57612f79612d00565b5b6000612f8885828601612de0565b9250506020612f9985828601612f4e565b9150509250929050565b600060208284031215612fb957612fb8612d00565b5b6000612fc784828501612de0565b91505092915050565b600060c082019050612fe56000830189612d9f565b612ff26020830188612d9f565b612fff6040830187612d9f565b61300c6060830186612d9f565b6130196080830185612e69565b61302660a0830184612e69565b979650505050505050565b60006020820190506130466000830184612e69565b92915050565b6000806000806080858703121561306657613065612d00565b5b600061307487828801612de0565b945050602061308587828801612d53565b935050604061309687828801612f4e565b92505060606130a787828801612de0565b91505092959194509250565b600080fd5b600080fd5b600080fd5b60008083601f8401126130d8576130d76130b3565b5b8235905067ffffffffffffffff8111156130f5576130f46130b8565b5b602083019150836020820283011115613111576131106130bd565b5b9250929050565b60008060006040848603121561313157613130612d00565b5b600061313f86828701612de0565b935050602084013567ffffffffffffffff8111156131605761315f612d05565b5b61316c868287016130c2565b92509250509250925092565b6000806040838503121561318f5761318e612d00565b5b600061319d85828601612de0565b92505060206131ae85828601612d53565b9150509250929050565b60006020820190506131cd6000830184612e35565b92915050565b60008083601f8401126131e9576131e86130b3565b5b8235905067ffffffffffffffff811115613206576132056130b8565b5b602083019150836001820283011115613222576132216130bd565b5b9250929050565b60008060006040848603121561324257613241612d00565b5b600061325086828701612de0565b935050602084013567ffffffffffffffff81111561327157613270612d05565b5b61327d868287016131d3565b92509250509250925092565b6000806000606084860312156132a2576132a1612d00565b5b60006132b086828701612de0565b93505060206132c186828701612f4e565b92505060406132d286828701612de0565b9150509250925092565b600081519050919050565b600082825260208201905092915050565b6000819050602082019050919050565b61331181612d2a565b82525050565b61332081612e44565b82525050565b61332f81612d95565b82525050565b61333e81612e5d565b82525050565b60808201600082015161335a6000850182613308565b50602082015161336d6020850182613317565b5060408201516133806040850182613326565b5060608201516133936060850182613335565b50505050565b60006133a58383613344565b60808301905092915050565b6000602082019050919050565b60006133c9826132dc565b6133d381856132e7565b93506133de836132f8565b8060005b8381101561340f5781516133f68882613399565b9750613401836133b1565b9250506001810190506133e2565b5085935050505092915050565b6000602082019050818103600083015261343681846133be565b905092915050565b7f4e487b7100000000000000000000000000000000000000000000000000000000600052601160045260246000fd5b600061347882612d95565b915061348383612d95565b925082820390508181111561349b5761349a61343e565b5b92915050565b60006134ac82612d95565b91506134b783612d95565b92508282026134c581612d95565b915082820484148315176134dc576134db61343e565b5b5092915050565b7f4e487b7100000000000000000000000000000000000000000000000000000000600052601260045260246000fd5b600061351d82612d95565b915061352883612d95565b925082613538576135376134e3565b5b828204905092915050565b600082825260208201905092915050565b7f4d6174636820646f6573206e6f74206578697374000000000000000000000000600082015250565b600061358a601483613543565b915061359582613554565b602082019050919050565b600060208201905081810360008301526135b98161357d565b9050919050565b7f4d61746368206e6f742063616e63656c6c656400000000000000000000000000600082015250565b60006135f6601383613543565b9150613601826135c0565b602082019050919050565b60006020820190508181036000830152613625816135e9565b9050919050565b7f4e487b7100000000000000000000000000000000000000000000000000000000600052603260045260246000fd5b600061366682612d95565b915061367183612d95565b92508282019050808211156136895761368861343e565b5b92915050565b7f4e6f20726566756e6420617661696c61626c6500000000000000000000000000600082015250565b60006136c5601383613543565b91506136d08261368f565b602082019050919050565b600060208201905081810360008301526136f4816136b8565b9050919050565b60006040820190506137106000830185612e35565b61371d6020830184612d9f565b9392505050565b61372d81612e5d565b811461373857600080fd5b50565b60008151905061374a81613724565b92915050565b60006020828403121561376657613765612d00565b5b60006137748482850161373b565b91505092915050565b7f526566756e64206661696c656400000000000000000000000000000000000000600082015250565b60006137b3600d83613543565b91506137be8261377d565b602082019050919050565b600060208201905081810360008301526137e2816137a6565b9050919050565b7f4d61746368206e6f7420736574746c6564000000000000000000000000000000600082015250565b600061381f601183613543565b915061382a826137e9565b602082019050919050565b6000602082019050818103600083015261384e81613812565b9050919050565b7f4e6f2077696e6e696e677320746f20636c61696d000000000000000000000000600082015250565b600061388b601483613543565b915061389682613855565b602082019050919050565b600060208201905081810360008301526138ba8161387e565b9050919050565b7f55534443207472616e73666572206661696c6564000000000000000000000000600082015250565b60006138f7601483613543565b9150613902826138c1565b602082019050919050565b60006020820190508181036000830152613926816138ea565b9050919050565b7f4e6f7420617574686f72697a6564206f7261636c650000000000000000000000600082015250565b6000613963601583613543565b915061396e8261392d565b602082019050919050565b6000602082019050818103600083015261399281613956565b9050919050565b7f4d6174636820616c726561647920736574746c65640000000000000000000000600082015250565b60006139cf601583613543565b91506139da82613999565b602082019050919050565b600060208201905081810360008301526139fe816139c2565b9050919050565b7f4d617463682063616e63656c6c65640000000000000000000000000000000000600082015250565b6000613a3b600f83613543565b9150613a4682613a05565b602082019050919050565b60006020820190508181036000830152613a6a81613a2e565b9050919050565b7f4e65656420312d332077696e6e65727300000000000000000000000000000000600082015250565b6000613aa7601083613543565b9150613ab282613a71565b602082019050919050565b60006020820190508181036000830152613ad681613a9a565b9050919050565b7f4d61746368206e6f742073746172746564000000000000000000000000000000600082015250565b6000613b13601183613543565b9150613b1e82613add565b602082019050919050565b60006020820190508181036000830152613b4281613b06565b9050919050565b7f4e487b7100000000000000000000000000000000000000000000000000000000600052604160045260246000fd5b600082825260208201905092915050565b600080fd5b82818337505050565b6000613ba38385613b78565b93507f07ffffffffffffffffffffffffffffffffffffffffffffffffffffffffffffff831115613bd657613bd5613b89565b5b602083029250613be7838584613b8e565b82840190509392505050565b6000819050919050565b6000613c18613c13613c0e84613bf3565b612ebd565b612d95565b9050919050565b613c2881613bfd565b82525050565b60006080820190508181036000830152613c49818789613b97565b9050613c586020830186612d9f565b613c656040830185612d9f565b613c726060830184613c1f565b9695505050505050565b82818337600083830152505050565b6000601f19601f8301169050919050565b6000613ca88385613543565b9350613cb5838584613c7c565b613cbe83613c8b565b840190509392505050565b60006020820190508181036000830152613ce4818486613c9c565b90509392505050565b7f42657420616d6f756e74206d757374206265203e203000000000000000000000600082015250565b6000613d23601683613543565b9150613d2e82613ced565b602082019050919050565b60006020820190508181036000830152613d5281613d16565b9050919050565b7f496e76616c696420626f74204944000000000000000000000000000000000000600082015250565b6000613d8f600e83613543565b9150613d9a82613d59565b602082019050919050565b60006020820190508181036000830152613dbe81613d82565b9050919050565b7f42657474696e6720636c6f736564000000000000000000000000000000000000600082015250565b6000613dfb600e83613543565b9150613e0682613dc5565b602082019050919050565b60006020820190508181036000830152613e2a81613dee565b9050919050565b6000606082019050613e466000830186612e35565b613e536020830185612e35565b613e606040830184612d9f565b949350505050565b6000604082019050613e7d6000830185612d9f565b613e8a6020830184612d9f565b9392505050565b7f4e6f20706c6174666f726d206665657300000000000000000000000000000000600082015250565b6000613ec7601083613543565b9150613ed282613e91565b602082019050919050565b60006020820190508181036000830152613ef681613eba565b9050919050565b7f5769746864726177206661696c65640000000000000000000000000000000000600082015250565b6000613f33600f83613543565b9150613f3e82613efd565b602082019050919050565b60006020820190508181036000830152613f6281613f26565b9050919050565b600081519050613f7881612dc9565b92915050565b600060208284031215613f9457613f93612d00565b5b6000613fa284828501613f69565b91505092915050565b7f4e6f20555344432062616c616e63650000000000000000000000000000000000600082015250565b6000613fe1600f83613543565b9150613fec82613fab565b602082019050919050565b6000602082019050818103600083015261401081613fd4565b9050919050565b7f5769746864726177616c206661696c6564000000000000000000000000000000600082015250565b600061404d601183613543565b915061405882614017565b602082019050919050565b6000602082019050818103600083015261407c81614040565b9050919050565b7f4d6174636820616c726561647920657869737473000000000000000000000000600082015250565b60006140b9601483613543565b91506140c482614083565b602082019050919050565b600060208201905081810360008301526140e8816140ac565b9050919050565b7f53746172742074696d65206d75737420626520696e2066757475726500000000600082015250565b6000614125601c83613543565b9150614130826140ef565b602082019050919050565b6000602082019050818103600083015261415481614118565b905091905056fea2646970667358221220826b096ed4394732bc3c193de3a4bb4c885f0883c9845d40227d3636721d7abe64736f6c63430008180033",
  "linkReferences": {},
  "deployedLinkReferences": {}
}