{
  "_format": "hh-sol-artifact-1",
  "contractName": "SnakeArenaPariMutuel",
  "sourceName": "contracts/SnakeArenaPariMutuel.sol",
  "abi": [
    {
      "inputs": [
        {
          "internalType": "address",
          "name": "_usdc",
          "type": "address"
        }
      ],
      "stateMutability": "nonpayable",
      "type": "constructor"
    },
    {
      "inputs": [],
      "name": "EnforcedPause",
      "type": "error"
    },
    {
      "inputs": [],
      "name": "ExpectedPause",
      "type": "error"
    },
    {
      "inputs": [
        {
          "internalType": "address",
          "name": "owner",
          "type": "address"
        }
      ],
      "name": "OwnableInvalidOwner",
      "type": "error"
    },
    {
      "inputs": [
        {
          "internalType": "address",
          "name": "account",
          "type": "address"
        }
      ],
      "name": "OwnableUnauthorizedAccount",
      "type": "error"
    },
    {
      "inputs": [],
      "name": "ReentrancyGuardReentrantCall",
      "type": "error"
    },
    {
      "anonymous": false,
      "inputs": [
        {
          "indexed": true,
          "internalType": "uint256",
          "name": "matchId",
          "type": "uint256"
        },
        {
          "indexed": true,
          "internalType": "address",
          "name": "bettor",
          "type": "address"
        },
        {
          "indexed": true,
          "internalType": "bytes32",
          "name": "botId",
          "type": "bytes32"
        },
        {
          "indexed": false,
          "internalType": "uint256",
          "name": "amount",
          "type": "uint256"
        },
        {
          "indexed": false,
          "internalType": "uint256",
          "name": "betIndex",
          "type": "uint256"
        }
      ],
      "name": "BetPlaced",
      "type": "event"
    },
    {
      "anonymous": false,
      "inputs": [
        {
          "indexed": true,
          "internalType": "uint256",
          "name": "matchId",
          "type": "uint256"
        },
        {
          "indexed": false,
          "internalType": "string",
          "name": "reason",
          "type": "string"
        }
      ],
      "name": "MatchCancelled",
      "type": "event"
    },
    {
      "anonymous": false,
      "inputs": [
        {
          "indexed": true,
          "internalType": "uint256",
          "name": "matchId",
          "type": "uint256"
        },
        {
          "indexed": false,
          "internalType": "uint256",
          "name": "startTime",
          "type": "uint256"
        }
      ],
      "name": "MatchCreated",
      "type": "event"
    },
    {
      "anonymous": false,
      "inputs": [
        {
          "indexed": true,
          "internalType": "uint256",
          "name": "matchId",
          "type": "uint256"
        },
        {
          "indexed": false,
          "internalType": "bytes32[]",
          "name": "winners",
          "type": "bytes32[]"
        },
        {
          "indexed": false,
          "internalType": "uint256",
          "name": "totalPool",
          "type": "uint256"
        },
        {
          "indexed": false,
          "internalType": "uint256",
          "name": "platformRake",
          "type": "uint256"
        },
        {
          "indexed": false,
          "internalType": "uint256",
          "name": "botRewards",
          "type": "uint256"
        }
      ],
      "name": "MatchSettled",
      "type": "event"
    },
    {
      "anonymous": false,
      "inputs": [
        {
          "indexed": false,
          "internalType": "address",
          "name": "oracle",
          "type": "address"
        }
      ],
      "name": "OracleAuthorized",
      "type": "event"
    },
    {
      "anonymous": false,
      "inputs": [
        {
          "indexed": false,
          "internalType": "address",
          "name": "oracle",
          "type": "address"
        }
      ],
      "name": "OracleRevoked",
      "type": "event"
    },
    {
      "anonymous": false,
      "inputs": [
        {
          "indexed": true,
          "internalType": "address",
          "name": "previousOwner",
          "type": "address"
        },
        {
          "indexed": true,
          "internalType": "address",
          "name": "newOwner",
          "type": "address"
        }
      ],
      "name": "OwnershipTransferred",
      "type": "event"
    },
    {
      "anonymous": false,
      "inputs": [
        {
          "indexed": false,
          "internalType": "address",
          "name": "account",
          "type": "address"
        }
      ],
      "name": "Paused",
      "type": "event"
    },
    {
      "anonymous": false,
      "inputs": [
        {
          "indexed": false,
          "internalType": "uint256",
          "name": "amount",
          "type": "uint256"
        }
      ],
      "name": "PlatformFeesWithdrawn",
      "type": "event"
    },
    {
      "anonymous": false,
      "inputs": [
        {
          "indexed": true,
          "internalType": "uint256",
          "name": "matchId",
          "type": "uint256"
        },
        {
          "indexed": true,
          "internalType": "address",
          "name": "bettor",
          "type": "address"
        },
        {
          "indexed": false,
          "internalType": "uint256",
          "name": "amount",
          "type": "uint256"
        }
      ],
      "name": "RefundClaimed",
      "type": "event"
    },
    {
      "anonymous": false,
      "inputs": [
        {
          "indexed": false,
          "internalType": "address",
          "name": "account",
          "type": "address"
        }
      ],
      "name": "Unpaused",
      "type": "event"
    },
    {
      "anonymous": false,
      "inputs": [
        {
          "indexed": true,
          "internalType": "uint256",
          "name": "matchId",
          "type": "uint256"
        },
        {
          "indexed": true,
          "internalType": "address",
          "name": "bettor",
          "type": "address"
        },
        {
          "indexed": false,
          "internalType": "uint256",
          "name": "amount",
          "type": "uint256"
        }
      ],
      "name": "WinningsClaimed",
      "type": "event"
    },
    {
      "inputs": [],
      "name": "FIRST_PLACE_SHARE",
      "outputs": [
        {
          "internalType": "uint256",
          "name": "",
          "type": "uint256"
        }
      ],
      "stateMutability": "view",
      "type": "function"
    },
    {
      "inputs": [],
      "name": "PERCENTAGE_BASE",
      "outputs": [
        {
          "internalType": "uint256",
          "name": "",
          "type": "uint256"
        }
      ],
      "stateMutability": "view",
      "type": "function"
    },
    {
      "inputs": [],
      "name": "PLATFORM_RAKE",
      "outputs": [
        {
          "internalType": "uint256",
          "name": "",
          "type": "uint256"
        }
      ],
      "stateMutability": "view",
      "type": "function"
    },
    {
      "inputs": [],
      "name": "SECOND_PLACE_SHARE",
      "outputs": [
        {
          "internalType": "uint256",
          "name": "",
          "type": "uint256"
        }
      ],
      "stateMutability": "view",
      "type": "function"
    },
    {
      "inputs": [],
      "name": "THIRD_PLACE_SHARE",
      "outputs": [
        {
          "internalType": "uint256",
          "name": "",
          "type": "uint256"
        }
      ],
      "stateMutability": "view",
      "type": "function"
    },
    {
      "inputs": [],
      "name": "TOTAL_RAKE",
      "outputs": [
        {
          "internalType": "uint256",
          "name": "",
          "type": "uint256"
        }
      ],
      "stateMutability": "view",
      "type": "function"
    },
    {
      "inputs": [],
      "name": "accumulatedPlatformFees",
      "outputs": [
        {
          "internalType": "uint256",
          "name": "",
          "type": "uint256"
        }
      ],
      "stateMutability": "view",
      "type": "function"
    },
    {
      "inputs": [
        {
          "internalType": "address",
          "name": "_oracle",
          "type": "address"
        }
      ],
      "name": "authorizeOracle",
      "outputs": [],
      "stateMutability": "nonpayable",
      "type": "function"
    },
    {
      "inputs": [
        {
          "internalType": "address",
          "name": "",
          "type": "address"
        }
      ],
      "name": "authorizedOracles",
      "outputs": [
        {
          "internalType": "bool",
          "name": "",
          "type": "bool"
        }
      ],
      "stateMutability": "view",
      "type": "function"
    },
    {
      "inputs": [
        {
          "internalType": "uint256",
          "name": "",
          "type": "uint256"
        },
        {
          "internalType": "address",
          "name": "",
          "type": "address"
        },
        {
          "internalType": "bytes32",
          "name": "",
          "type": "bytes32"
        },
        {
          "internalType": "uint256",
          "name": "",
          "type": "uint256"
        }
      ],
      "name": "bettorBotBets",
      "outputs": [
        {
          "internalType": "uint256",
          "name": "",
          "type": "uint256"
        }
      ],
      "stateMutability": "view",
      "type": "function"
    },
    {
      "inputs": [
        {
          "internalType": "uint256",
          "name": "",
          "type": "uint256"
        },
        {
          "internalType": "address",
          "name": "",
          "type": "address"
        }
      ],
      "name": "bettorTotalBet",
      "outputs": [
        {
          "internalType": "uint256",
          "name": "",
          "type": "uint256"
        }
      ],
      "stateMutability": "view",
      "type": "function"
    },
    {
      "inputs": [
        {
          "internalType": "uint256",
          "name": "",
          "type": "uint256"
        },
        {
          "internalType": "bytes32",
          "name": "",
          "type": "bytes32"
        }
      ],
      "name": "botTotalBets",
      "outputs": [
        {
          "internalType": "uint256",
          "name": "",
          "type": "uint256"
        }
      ],
      "stateMutability": "view",
      "type": "function"
    },
    {
      "inputs": [
        {
          "internalType": "uint256",
          "name": "_matchId",
          "type": "uint256"
        },
        {
          "internalType": "uint256",
          "name": "_betIndex",
          "type": "uint256"
        }
      ],
      "name": "calculateBetWinnings",
      "outputs": [
        {
          "internalType": "uint256",
          "name": "",
          "type": "uint256"
        }
      ],
      "stateMutability": "view",
      "type": "function"
    },
    {
      "inputs": [
        {
          "internalType": "uint256",
          "name": "_matchId",
          "type": "uint256"
        },
        {
          "internalType": "string",
          "name": "_reason",
          "type": "string"
        }
      ],
      "name": "cancelMatch",
      "outputs": [],
      "stateMutability": "nonpayable",
      "type": "function"
    },
    {
      "inputs": [
        {
          "internalType": "uint256",
          "name": "_matchId",
          "type": "uint256"
        }
      ],
      "name": "claimRefund",
      "outputs": [],
      "stateMutability": "nonpayable",
      "type": "function"
    },
    {
      "inputs": [
        {
          "internalType": "uint256",
          "name": "_matchId",
          "type": "uint256"
        }
      ],
      "name": "claimWinnings",
      "outputs": [],
      "stateMutability": "nonpayable",
      "type": "function"
    },
    {
      "inputs": [
        {
          "internalType": "uint256",
          "name": "_matchId",
          "type": "uint256"
        },
        {
          "internalType": "uint256",
          "name": "_startTime",
          "type": "uint256"
        }
      ],
      "name": "createMatch",
      "outputs": [],
      "stateMutability": "nonpayable",
      "type": "function"
    },
    {
      "inputs": [],
      "name": "emergencyWithdraw",
      "outputs": [],
      "stateMutability": "nonpayable",
      "type": "function"
    },
    {
      "inputs": [
        {
          "internalType": "uint256",
          "name": "_matchId",
          "type": "uint256"
        },
        {
          "internalType": "bytes32",
          "name": "_botId",
          "type": "bytes32"
        }
      ],
      "name": "getCurrentOdds",
      "outputs": [
        {
          "internalType": "uint256",
          "name": "",
          "type": "uint256"
        }
      ],
      "stateMutability": "view",
      "type": "function"
    },
    {
      "inputs": [
        {
          "internalType": "uint256",
          "name": "_matchId",
          "type": "uint256"
        }
      ],
      "name": "getMatchBets",
      "outputs": [
        {
          "components": [
            {
              "internalType": "address",
              "name": "bettor",
              "type": "address"
            },
            {
              "internalType": "bytes32",
              "name": "botId",
              "type": "bytes32"
            },
            {
              "internalType": "uint256",
              "name": "amount",
              "type": "uint256"
            },
            {
              "internalType": "bool",
              "name": "claimed",
              "type": "bool"
            }
          ],
          "internalType": "struct SnakeArenaPariMutuel.Bet[]",
          "name": "",
          "type": "tuple[]"
        }
      ],
      "stateMutability": "view",
      "type": "function"
    },
    {
      "inputs": [
        {
          "internalType": "uint256",
          "name": "_matchId",
          "type": "uint256"
        },
        {
          "internalType": "address",
          "name": "_bettor",
          "type": "address"
        }
      ],
      "name": "getUserPotentialWinnings",
      "outputs": [
        {
          "internalType": "uint256",
          "name": "",
          "type": "uint256"
        }
      ],
      "stateMutability": "view",
      "type": "function"
    },
    {
      "inputs": [
        {
          "internalType": "uint256",
          "name": "",
          "type": "uint256"
        },
        {
          "internalType": "uint256",
          "name": "",
          "type": "uint256"
        }
      ],
      "name": "matchBets",
      "outputs": [
        {
          "internalType": "address",
          "name": "bettor",
          "type": "address"
        },
        {
          "internalType": "bytes32",
          "name": "botId",
          "type": "bytes32"
        },
        {
          "internalType": "uint256",
          "name": "amount",
          "type": "uint256"
        },
        {
          "internalType": "bool",
          "name": "claimed",
          "type": "bool"
        }
      ],
      "stateMutability": "view",
      "type": "function"
    },
    {
      "inputs": [
        {
          "internalType": "uint256",
          "name": "",
          "type": "uint256"
        }
      ],
      "name": "matches",
      "outputs": [
        {
          "internalType": "uint256",
          "name": "matchId",
          "type": "uint256"
        },
        {
          "internalType": "uint256",
          "name": "startTime",
          "type": "uint256"
        },
        {
          "internalType": "uint256",
          "name": "endTime",
          "type": "uint256"
        },
        {
          "internalType": "uint256",
          "name": "totalPool",
          "type": "uint256"
        },
        {
          "internalType": "bool",
          "name": "settled",
          "type": "bool"
        },
        {
          "internalType": "bool",
          "name": "cancelled",
          "type": "bool"
        }
      ],
      "stateMutability": "view",
      "type": "function"
    },
    {
      "inputs": [],
      "name": "owner",
      "outputs": [
        {
          "internalType": "address",
          "name": "",
          "type": "address"
        }
      ],
      "stateMutability": "view",
      "type": "function"
    },
    {
      "inputs": [],
      "name": "pause",
      "outputs": [],
      "stateMutability": "nonpayable",
      "type": "function"
    },
    {
      "inputs": [],
      "name": "paused",
      "outputs": [
        {
          "internalType": "bool",
          "name": "",
          "type": "bool"
        }
      ],
      "stateMutability": "view",
      "type": "function"
    },
    {
      "inputs": [
        {
          "internalType": "uint256",
          "name": "_matchId",
          "type": "uint256"
        },
        {
          "internalType": "bytes32",
          "name": "_botId",
          "type": "bytes32"
        },
        {
          "internalType": "uint256",
          "name": "_amount",
          "type": "uint256"
        }
      ],
      "name": "placeBet",
      "outputs": [],
      "stateMutability": "nonpayable",
      "type": "function"
    },
    {
      "inputs": [],
      "name": "renounceOwnership",
      "outputs": [],
      "stateMutability": "nonpayable",
      "type": "function"
    },
    {
      "inputs": [
        {
          "internalType": "address",
          "name": "_oracle",
          "type": "address"
        }
      ],
      "name": "revokeOracle",
      "outputs": [],
      "stateMutability": "nonpayable",
      "type": "function"
    },
    {
      "inputs": [
        {
          "internalType": "address",
          "name": "_usdc",
          "type": "address"
        }
      ],
      "name": "setUsdc",
      "outputs": [],
      "stateMutability": "nonpayable",
      "type": "function"
    },
    {
      "inputs": [
        {
          "internalType": "uint256",
          "name": "_matchId",
          "type": "uint256"
        },
        {
          "internalType": "bytes32[]",
          "name": "_winners",
          "type": "bytes32[]"
        }
      ],
      "name": "settleMatch",
      "outputs": [],
      "stateMutability": "nonpayable",
      "type": "function"
    },
    {
      "inputs": [
        {
          "internalType": "address",
          "name": "newOwner",
          "type": "address"
        }
      ],
      "name": "transferOwnership",
      "outputs": [],
      "stateMutability": "nonpayable",
      "type": "function"
    },
    {
      "inputs": [],
      "name": "unpause",
      "outputs": [],
      "stateMutability": "nonpayable",
      "type": "function"
    },
    {
      "inputs": [],
      "name": "usdc",
      "outputs": [
        {
          "internalType": "contract IERC20",
          "name": "",
          "type": "address"
        }
      ],
      "stateMutability": "view",
      "type": "function"
    },
    {
      "inputs": [],
      "name": "withdrawPlatformFees",
      "outputs": [],
      "stateMutability": "nonpayable",
      "type": "function"
    }
  ],
  "bytecode": "0x60806040523480156200001157600080fd5b50604051620044a3380380620044a383398181016040528101906200003791906200023c565b33600073ffffffffffffffffffffffffffffffffffffffff168173ffffffffffffffffffffffffffffffffffffffff1603620000ad5760006040517f1e4fbdf7000000000000000000000000000000000000000000000000000000008152600401620000a491906200027f565b60405180910390fd5b620000be816200010e60201b60201c565b506001808190555080600260016101000a81548173ffffffffffffffffffffffffffffffffffffffff021916908373ffffffffffffffffffffffffffffffffffffffff160217905550506200029c565b60008060009054906101000a900473ffffffffffffffffffffffffffffffffffffffff169050816000806101000a81548173ffffffffffffffffffffffffffffffffffffffff021916908373ffffffffffffffffffffffffffffffffffffffff1602179055508173ffffffffffffffffffffffffffffffffffffffff168173ffffffffffffffffffffffffffffffffffffffff167f8be0079c531659141344cd1fd0a4f28419497f9722a3daafe3b4186f6b6457e060405160405180910390a35050565b600080fd5b600073ffffffffffffffffffffffffffffffffffffffff82169050919050565b60006200020482620001d7565b9050919050565b6200021681620001f7565b81146200022257600080fd5b50565b60008151905062000236816200020b565b92915050565b600060208284031215620002555762000254620001d2565b5b6000620002658482850162000225565b91505092915050565b6200027981620001f7565b82525050565b60006020820190506200029660008301846200026e565b92915050565b6141f780620002ac6000396000f3fe608060405234801561001057600080fd5b50600436106102115760003560e01c806376b0285b11610125578063a897edc0116100ad578063d0b7830b1161007c578063d0b7830b146105f8578063db2e21bc14610602578063f2fde38b1461060c578063f435e4cc14610628578063f5a0ea6c1461065857610211565b8063a897edc014610586578063aa079eb0146105a4578063b9d9390a146105c0578063cb146879146105dc57610211565b80638456cb59116100f45780638456cb59146104e057806387c13943146104ea5780638da5cb5b146105085780639577644014610526578063a8752e6c1461055657610211565b806376b0285b14610458578063784e36ec146104765780637bd51a96146104925780637d317a9f146104c257610211565b80634aa3c804116101a857806361c992a31161017757806361c992a3146103a2578063677bd9ff146103d257806368fcbfb2146103ee5780636ea1219d1461041e578063715018a61461044e57610211565b80634aa3c8041461032e5780635983e6b01461034c5780635b7baf64146103685780635c975abb1461038457610211565b80633e413bee116101e45780633e413bee146102a15780633f4ba83a146102bf5780633fd7b4e6146102c95780634768d4ef146102f957610211565b80630f13b76314610216578063342f2df31461023257806334dddef9146102505780633c6da7bf14610283575b600080fd5b610230600480360381019061022b9190612d86565b610674565b005b61023a61070e565b6040516102479190612dcc565b60405180910390f35b61026a60048036038101906102659190612e13565b610714565b60405161027a9493929190612e96565b60405180910390f35b61028b61078e565b6040516102989190612dcc565b60405180910390f35b6102a9610794565b6040516102b69190612f3a565b60405180910390f35b6102c76107ba565b005b6102e360048036038101906102de9190612f81565b6107cc565b6040516102f09190612dcc565b60405180910390f35b610313600480360381019061030e9190612fc1565b610881565b60405161032596959493929190612fee565b60405180910390f35b6103366108d7565b6040516103439190612dcc565b60405180910390f35b61036660048036038101906103619190612d86565b6108dd565b005b610382600480360381019061037d9190612fc1565b610977565b005b61038c610d19565b604051610399919061304f565b60405180910390f35b6103bc60048036038101906103b79190612d86565b610d30565b6040516103c9919061304f565b60405180910390f35b6103ec60048036038101906103e79190612fc1565b610d50565b005b6104086004803603810190610403919061306a565b6110ed565b6040516104159190612dcc565b60405180910390f35b61043860048036038101906104339190612e13565b611138565b6040516104459190612dcc565b60405180910390f35b610456611350565b005b610460611364565b60405161046d9190612dcc565b60405180910390f35b610490600480360381019061048b9190613136565b61136a565b005b6104ac60048036038101906104a79190613196565b6117a7565b6040516104b99190612dcc565b60405180910390f35b6104ca611882565b6040516104d79190612dcc565b60405180910390f35b6104e8611888565b005b6104f261189a565b6040516104ff9190612dcc565b60405180910390f35b6105106118a0565b60405161051d91906131d6565b60405180910390f35b610540600480360381019061053b9190612f81565b6118c9565b60405161054d9190612dcc565b60405180910390f35b610570600480360381019061056b9190613196565b6118ee565b60405161057d9190612dcc565b60405180910390f35b61058e611913565b60405161059b9190612dcc565b60405180910390f35b6105be60048036038101906105b99190613247565b611919565b005b6105da60048036038101906105d591906132a7565b611b38565b005b6105f660048036038101906105f19190612d86565b612106565b005b610600612152565b005b61060a6122cc565b005b61062660048036038101906106219190612d86565b6124a8565b005b610642600480360381019061063d9190612fc1565b61252e565b60405161064f919061343a565b60405180910390f35b610672600480360381019061066d9190612e13565b612625565b005b61067c612914565b6001600860008373ffffffffffffffffffffffffffffffffffffffff1673ffffffffffffffffffffffffffffffffffffffff16815260200190815260200160002060006101000a81548160ff0219169083151502179055507f5a7a3f71a35f5e2589980d29d1c6d8c75e39657751190874081e55208bae24b78160405161070391906131d6565b60405180910390a150565b60095481565b6004602052816000526040600020818154811061073057600080fd5b9060005260206000209060040201600091509150508060000160009054906101000a900473ffffffffffffffffffffffffffffffffffffffff16908060010154908060020154908060030160009054906101000a900460ff16905084565b6103e881565b600260019054906101000a900473ffffffffffffffffffffffffffffffffffffffff1681565b6107c2612914565b6107ca61299b565b565b60008060036000858152602001908152602001600020600301549050600060056000868152602001908152602001600020600085815260200190815260200160002054905060008114806108205750600082145b156108305760009250505061087b565b60006127106103e8612710610845919061348b565b8461085091906134bf565b61085a9190613530565b9050816127108261086b91906134bf565b6108759190613530565b93505050505b92915050565b60036020528060005260406000206000915090508060000154908060010154908060020154908060030154908060040160009054906101000a900460ff16908060040160019054906101000a900460ff16905086565b610bb881565b6108e5612914565b6000600860008373ffffffffffffffffffffffffffffffffffffffff1673ffffffffffffffffffffffffffffffffffffffff16815260200190815260200160002060006101000a81548160ff0219169083151502179055507f3c9c4af7c4c66de2ffc68abfa4e0d275fbce92f248473bca0d6787dc8caf8e318160405161096c91906131d6565b60405180910390a150565b61097f6129fe565b8060006003600083815260200190815260200160002060000154036109d9576040517f08c379a00000000000000000000000000000000000000000000000000000000081526004016109d0906135be565b60405180910390fd5b6003600083815260200190815260200160002060040160019054906101000a900460ff16610a3c576040517f08c379a0000000000000000000000000000000000000000000000000000000008152600401610a339061362a565b60405180910390fd5b60008060046000858152602001908152602001600020905060005b8180549050811015610b99573373ffffffffffffffffffffffffffffffffffffffff16828281548110610a8d57610a8c61364a565b5b906000526020600020906004020160000160009054906101000a900473ffffffffffffffffffffffffffffffffffffffff1673ffffffffffffffffffffffffffffffffffffffff16148015610b115750818181548110610af057610aef61364a565b5b906000526020600020906004020160030160009054906101000a900460ff16155b15610b8657818181548110610b2957610b2861364a565b5b90600052602060002090600402016002015483610b469190613679565b92506001828281548110610b5d57610b5c61364a565b5b906000526020600020906004020160030160006101000a81548160ff0219169083151502179055505b8080610b91906136ad565b915050610a57565b5060008211610bdd576040517f08c379a0000000000000000000000000000000000000000000000000000000008152600401610bd490613741565b60405180910390fd5b600260019054906101000a900473ffffffffffffffffffffffffffffffffffffffff1673ffffffffffffffffffffffffffffffffffffffff1663a9059cbb33846040518363ffffffff1660e01b8152600401610c3a929190613761565b6020604051808303816000875af1158015610c59573d6000803e3d6000fd5b505050506040513d601f19601f82011682018060405250810190610c7d91906137b6565b610cbc576040517f08c379a0000000000000000000000000000000000000000000000000000000008152600401610cb39061382f565b60405180910390fd5b3373ffffffffffffffffffffffffffffffffffffffff16847ff3f402280ef0a7905e124aa621b65eaeb2725c343e8b36d398ed78c29daf285c84604051610d039190612dcc565b60405180910390a3505050610d16612a44565b50565b6000600260009054906101000a900460ff16905090565b60086020528060005260406000206000915054906101000a900460ff1681565b610d586129fe565b806000600360008381526020019081526020016000206000015403610db2576040517f08c379a0000000000000000000000000000000000000000000000000000000008152600401610da9906135be565b60405180910390fd5b60006003600084815260200190815260200160002090508060040160009054906101000a900460ff16610e1a576040517f08c379a0000000000000000000000000000000000000000000000000000000008152600401610e119061389b565b60405180910390fd5b60008060046000868152602001908152602001600020905060005b8180549050811015610f6c573373ffffffffffffffffffffffffffffffffffffffff16828281548110610e6b57610e6a61364a565b5b906000526020600020906004020160000160009054906101000a900473ffffffffffffffffffffffffffffffffffffffff1673ffffffffffffffffffffffffffffffffffffffff16148015610eef5750818181548110610ece57610ecd61364a565b5b906000526020600020906004020160030160009054906101000a900460ff16155b15610f59576000610f008783611138565b90506000811115610f57578084610f179190613679565b93506001838381548110610f2e57610f2d61364a565b5b906000526020600020906004020160030160006101000a81548160ff0219169083151502179055505b505b8080610f64906136ad565b915050610e35565b5060008211610fb0576040517f08c379a0000000000000000000000000000000000000000000000000000000008152600401610fa790613907565b60405180910390fd5b600260019054906101000a900473ffffffffffffffffffffffffffffffffffffffff1673ffffffffffffffffffffffffffffffffffffffff1663a9059cbb33846040518363ffffffff1660e01b815260040161100d929190613761565b6020604051808303816000875af115801561102c573d6000803e3d6000fd5b505050506040513d601f19601f8201168201806040525081019061105091906137b6565b61108f576040517f08c379a000000000000000000000000000000000000000000000000000000000815260040161108690613973565b60405180910390fd5b3373ffffffffffffffffffffffffffffffffffffffff16857f5380cf6fe903b40c6d5a9e0dfbca2f3a423f0a21520b4d5947ed5169bdba946d846040516110d69190612dcc565b60405180910390a3505050506110ea612a44565b50565b6006602052836000526040600020602052826000526040600020602052816000526040600020818154811061112157600080fd5b906000526020600020016000935093505050505481565b6000806004600085815260200190815260200160002083815481106111605761115f61364a565b5b9060005260206000209060040201905060006003600086815260200190815260200160002090508060040160009054906101000a900460ff1615806111b357508160030160009054906101000a900460ff165b156111c35760009250505061134a565b6000805b82600501805490508110156112285783600101548360050182815481106111f1576111f061364a565b5b9060005260206000200154036112155760018161120e9190613679565b9150611228565b8080611220906136ad565b9150506111c7565b506000810361123d576000935050505061134a565b60008260030154905060006127106103e861271061125b919061348b565b8361126691906134bf565b6112709190613530565b90506000600184036112865761138890506112bb565b6002840361129857610bb890506112ba565b600384036112aa576107d090506112b9565b6000965050505050505061134a565b5b5b600061271082846112cc91906134bf565b6112d69190613530565b90506000600560008c81526020019081526020016000206000896001015481526020019081526020016000205490506000810361131e5760009850505050505050505061134a565b600081838a6002015461133191906134bf565b61133b9190613530565b90508099505050505050505050505b92915050565b611358612914565b6113626000612a4d565b565b6103e881565b6113726129fe565b600860003373ffffffffffffffffffffffffffffffffffffffff1673ffffffffffffffffffffffffffffffffffffffff16815260200190815260200160002060009054906101000a900460ff166113fe576040517f08c379a00000000000000000000000000000000000000000000000000000000081526004016113f5906139df565b60405180910390fd5b826000600360008381526020019081526020016000206000015403611458576040517f08c379a000000000000000000000000000000000000000000000000000000000815260040161144f906135be565b60405180910390fd5b836003600082815260200190815260200160002060040160009054906101000a900460ff16156114bd576040517f08c379a00000000000000000000000000000000000000000000000000000000081526004016114b490613a4b565b60405180910390fd5b6003600082815260200190815260200160002060040160019054906101000a900460ff1615611521576040517f08c379a000000000000000000000000000000000000000000000000000000000815260040161151890613ab7565b60405180910390fd5b600084849050118015611538575060038484905011155b611577576040517f08c379a000000000000000000000000000000000000000000000000000000000815260040161156e90613b23565b60405180910390fd5b60036000868152602001908152602001600020600101544210156115d0576040517f08c379a00000000000000000000000000000000000000000000000000000000081526004016115c790613b8f565b60405180910390fd5b600060036000878152602001908152602001600020905060018160040160006101000a81548160ff0219169083151502179055504281600201819055508484826005019190611620929190612bfd565b50600081600301549050600080821115611754576127106103e88361164591906134bf565b61164f9190613530565b905080600960008282546116639190613679565b9250508190555060008787905067ffffffffffffffff81111561168957611688613baf565b5b6040519080825280602002602001820160405280156116b75781602001602082028036833780820191505090505b50905060005b8888905081101561173857600560008b815260200190815260200160002060008a8a848181106116f0576116ef61364a565b5b905060200201358152602001908152602001600020548282815181106117195761171861364a565b5b6020026020010181815250508080611730906136ad565b9150506116bd565b5080846006019080519060200190611751929190612c4a565b50505b877fda5e8e3efcfcb8f0d64e2f3d73e11bf821f42e5ade6dfb4e86430f56c0a6c35888888585600060405161178d959493929190613c94565b60405180910390a250505050506117a2612a44565b505050565b60008060009050600060046000868152602001908152602001600020905060005b8180549050811015611876578473ffffffffffffffffffffffffffffffffffffffff168282815481106117fe576117fd61364a565b5b906000526020600020906004020160000160009054906101000a900473ffffffffffffffffffffffffffffffffffffffff1673ffffffffffffffffffffffffffffffffffffffff1603611863576118558682611138565b836118609190613679565b92505b808061186e906136ad565b9150506117c8565b50819250505092915050565b6107d081565b611890612914565b611898612b11565b565b61271081565b60008060009054906101000a900473ffffffffffffffffffffffffffffffffffffffff16905090565b6005602052816000526040600020602052806000526040600020600091509150505481565b6007602052816000526040600020602052806000526040600020600091509150505481565b61138881565b600860003373ffffffffffffffffffffffffffffffffffffffff1673ffffffffffffffffffffffffffffffffffffffff16815260200190815260200160002060009054906101000a900460ff166119a5576040517f08c379a000000000000000000000000000000000000000000000000000000000815260040161199c906139df565b60405180910390fd5b8260006003600083815260200190815260200160002060000154036119ff576040517f08c379a00000000000000000000000000000000000000000000000000000000081526004016119f6906135be565b60405180910390fd5b836003600082815260200190815260200160002060040160009054906101000a900460ff1615611a64576040517f08c379a0000000000000000000000000000000000000000000000000000000008152600401611a5b90613a4b565b60405180910390fd5b6003600082815260200190815260200160002060040160019054906101000a900460ff1615611ac8576040517f08c379a0000000000000000000000000000000000000000000000000000000008152600401611abf90613ab7565b60405180910390fd5b60016003600087815260200190815260200160002060040160016101000a81548160ff021916908315150217905550847fbe9561483b1664685b575e72966584b8b66b253bd4f2e55e045e00db8fc134af8585604051611b29929190613d2f565b60405180910390a25050505050565b611b406129fe565b611b48612b74565b826000600360008381526020019081526020016000206000015403611ba2576040517f08c379a0000000000000000000000000000000000000000000000000000000008152600401611b99906135be565b60405180910390fd5b836003600082815260200190815260200160002060040160009054906101000a900460ff1615611c07576040517f08c379a0000000000000000000000000000000000000000000000000000000008152600401611bfe90613a4b565b60405180910390fd5b6003600082815260200190815260200160002060040160019054906101000a900460ff1615611c6b576040517f08c379a0000000000000000000000000000000000000000000000000000000008152600401611c6290613ab7565b60405180910390fd5b60008311611cae576040517f08c379a0000000000000000000000000000000000000000000000000000000008152600401611ca590613d9f565b60405180910390fd5b6000801b8403611cf3576040517f08c379a0000000000000000000000000000000000000000000000000000000008152600401611cea90613e0b565b60405180910390fd5b61012c6003600087815260200190815260200160002060010154611d179190613679565b4210611d58576040517f08c379a0000000000000000000000000000000000000000000000000000000008152600401611d4f90613e77565b60405180910390fd5b600260019054906101000a900473ffffffffffffffffffffffffffffffffffffffff1673ffffffffffffffffffffffffffffffffffffffff166323b872dd3330866040518463ffffffff1660e01b8152600401611db793929190613e97565b6020604051808303816000875af1158015611dd6573d6000803e3d6000fd5b505050506040513d601f19601f82011682018060405250810190611dfa91906137b6565b611e39576040517f08c379a0000000000000000000000000000000000000000000000000000000008152600401611e3090613973565b60405180910390fd5b600060405180608001604052803373ffffffffffffffffffffffffffffffffffffffff1681526020018681526020018581526020016000151581525090506000600460008881526020019081526020016000208054905090506004600088815260200190815260200160002082908060018154018082558091505060019003906000526020600020906004020160009091909190915060008201518160000160006101000a81548173ffffffffffffffffffffffffffffffffffffffff021916908373ffffffffffffffffffffffffffffffffffffffff160217905550602082015181600101556040820151816002015560608201518160030160006101000a81548160ff0219169083151502179055505050846005600089815260200190815260200160002060008881526020019081526020016000206000828254611f809190613679565b92505081905550846007600089815260200190815260200160002060003373ffffffffffffffffffffffffffffffffffffffff1673ffffffffffffffffffffffffffffffffffffffff1681526020019081526020016000206000828254611fe79190613679565b925050819055506006600088815260200190815260200160002060003373ffffffffffffffffffffffffffffffffffffffff1673ffffffffffffffffffffffffffffffffffffffff16815260200190815260200160002060008781526020019081526020016000208190806001815401808255809150506001900390600052602060002001600090919091909150558460036000898152602001908152602001600020600301600082825461209c9190613679565b92505081905550853373ffffffffffffffffffffffffffffffffffffffff16887fe3f12000d2e52ba630f53090b6ce84c0334e43fbe0e17603b46237748a0c407888856040516120ed929190613ece565b60405180910390a450505050612101612a44565b505050565b61210e612914565b80600260016101000a81548173ffffffffffffffffffffffffffffffffffffffff021916908373ffffffffffffffffffffffffffffffffffffffff16021790555050565b61215a612914565b60006009549050600081116121a4576040517f08c379a000000000000000000000000000000000000000000000000000000000815260040161219b90613f43565b60405180910390fd5b6000600981905550600260019054906101000a900473ffffffffffffffffffffffffffffffffffffffff1673ffffffffffffffffffffffffffffffffffffffff1663a9059cbb6121f26118a0565b836040518363ffffffff1660e01b8152600401612210929190613761565b6020604051808303816000875af115801561222f573d6000803e3d6000fd5b505050506040513d601f19601f8201168201806040525081019061225391906137b6565b612292576040517f08c379a000000000000000000000000000000000000000000000000000000000815260040161228990613faf565b60405180910390fd5b7f9870c8023baa016ac002ddfa7cdad341155acddddee3032c07d4baa4947ae643816040516122c19190612dcc565b60405180910390a150565b6122d4612914565b6122dc612bb5565b6000600260019054906101000a900473ffffffffffffffffffffffffffffffffffffffff1673ffffffffffffffffffffffffffffffffffffffff166370a08231306040518263ffffffff1660e01b815260040161233991906131d6565b602060405180830381865afa158015612356573d6000803e3d6000fd5b505050506040513d601f19601f8201168201806040525081019061237a9190613fe4565b9050600081116123bf576040517f08c379a00000000000000000000000000000000000000000000000000000000081526004016123b69061405d565b60405180910390fd5b600260019054906101000a900473ffffffffffffffffffffffffffffffffffffffff1673ffffffffffffffffffffffffffffffffffffffff1663a9059cbb6124056118a0565b836040518363ffffffff1660e01b8152600401612423929190613761565b6020604051808303816000875af1158015612442573d6000803e3d6000fd5b505050506040513d601f19601f8201168201806040525081019061246691906137b6565b6124a5576040517f08c379a000000000000000000000000000000000000000000000000000000000815260040161249c906140c9565b60405180910390fd5b50565b6124b0612914565b600073ffffffffffffffffffffffffffffffffffffffff168173ffffffffffffffffffffffffffffffffffffffff16036125225760006040517f1e4fbdf700000000000000000000000000000000000000000000000000000000815260040161251991906131d6565b60405180910390fd5b61252b81612a4d565b50565b606060046000838152602001908152602001600020805480602002602001604051908101604052809291908181526020016000905b8282101561261a57838290600052602060002090600402016040518060800160405290816000820160009054906101000a900473ffffffffffffffffffffffffffffffffffffffff1673ffffffffffffffffffffffffffffffffffffffff1673ffffffffffffffffffffffffffffffffffffffff16815260200160018201548152602001600282015481526020016003820160009054906101000a900460ff16151515158152505081526020019060010190612563565b505050509050919050565b600860003373ffffffffffffffffffffffffffffffffffffffff1673ffffffffffffffffffffffffffffffffffffffff16815260200190815260200160002060009054906101000a900460ff166126b1576040517f08c379a00000000000000000000000000000000000000000000000000000000081526004016126a8906139df565b60405180910390fd5b600060036000848152602001908152602001600020600001541461270a576040517f08c379a000000000000000000000000000000000000000000000000000000000815260040161270190614135565b60405180910390fd5b42811161274c576040517f08c379a0000000000000000000000000000000000000000000000000000000008152600401612743906141a1565b60405180910390fd5b6040518061010001604052808381526020018281526020016000815260200160008152602001600015158152602001600015158152602001600067ffffffffffffffff81111561279f5761279e613baf565b5b6040519080825280602002602001820160405280156127cd5781602001602082028036833780820191505090505b508152602001600067ffffffffffffffff8111156127ee576127ed613baf565b5b60405190808252806020026020018201604052801561281c5781602001602082028036833780820191505090505b50815250600360008481526020019081526020016000206000820151816000015560208201518160010155604082015181600201556060820151816003015560808201518160040160006101000a81548160ff02191690831515021790555060a08201518160040160016101000a81548160ff02191690831515021790555060c08201518160050190805190602001906128b7929190612c97565b5060e08201518160060190805190602001906128d4929190612c4a565b50905050817fd56886a1746d522b2004f5a22791ef766ad000208d143745de239399516bb5ab826040516129089190612dcc565b60405180910390a25050565b61291c612bf5565b73ffffffffffffffffffffffffffffffffffffffff1661293a6118a0565b73ffffffffffffffffffffffffffffffffffffffff16146129995761295d612bf5565b6040517f118cdaa700000000000000000000000000000000000000000000000000000000815260040161299091906131d6565b60405180910390fd5b565b6129a3612bb5565b6000600260006101000a81548160ff0219169083151502179055507f5db9ee0a495bf2e6ff9c91a7834c1ba4fdd244a5e8aa4e537bd38aeae4b073aa6129e7612bf5565b6040516129f491906131d6565b60405180910390a1565b600260015403612a3a576040517f3ee5aeb500000000000000000000000000000000000000000000000000000000815260040160405180910390fd5b6002600181905550565b60018081905550565b60008060009054906101000a900473ffffffffffffffffffffffffffffffffffffffff169050816000806101000a81548173ffffffffffffffffffffffffffffffffffffffff021916908373ffffffffffffffffffffffffffffffffffffffff1602179055508173ffffffffffffffffffffffffffffffffffffffff168173ffffffffffffffffffffffffffffffffffffffff167f8be0079c531659141344cd1fd0a4f28419497f9722a3daafe3b4186f6b6457e060405160405180910390a35050565b612b19612b74565b6001600260006101000a81548160ff0219169083151502179055507f62e78cea01bee320cd4e420270b5ea74000d11b0c9f74754ebdbfc544b05a258612b5d612bf5565b604051612b6a91906131d6565b60405180910390a1565b612b7c610d19565b15612bb3576040517fd93c066500000000000000000000000000000000000000000000000000000000815260040160405180910390fd5b565b612bbd610d19565b612bf3576040517f8dfc202b00000000000000000000000000000000000000000000000000000000815260040160405180910390fd5b565b600033905090565b828054828255906000526020600020908101928215612c39579160200282015b82811115612c38578235825591602001919060010190612c1d565b5b509050612c469190612ce4565b5090565b828054828255906000526020600020908101928215612c86579160200282015b82811115612c85578251825591602001919060010190612c6a565b5b509050612c939190612d01565b5090565b828054828255906000526020600020908101928215612cd3579160200282015b82811115612cd2578251825591602001919060010190612cb7565b5b509050612ce09190612ce4565b5090565b5b80821115612cfd576000816000905550600101612ce5565b5090565b5b80821115612d1a576000816000905550600101612d02565b5090565b600080fd5b600080fd5b600073ffffffffffffffffffffffffffffffffffffffff82169050919050565b6000612d5382612d28565b9050919050565b612d6381612d48565b8114612d6e57600080fd5b50565b600081359050612d8081612d5a565b92915050565b600060208284031215612d9c57612d9b612d1e565b5b6000612daa84828501612d71565b91505092915050565b6000819050919050565b612dc681612db3565b82525050565b6000602082019050612de16000830184612dbd565b92915050565b612df081612db3565b8114612dfb57600080fd5b50565b600081359050612e0d81612de7565b92915050565b60008060408385031215612e2a57612e29612d1e565b5b6000612e3885828601612dfe565b9250506020612e4985828601612dfe565b9150509250929050565b612e5c81612d48565b82525050565b6000819050919050565b612e7581612e62565b82525050565b60008115159050919050565b612e9081612e7b565b82525050565b6000608082019050612eab6000830187612e53565b612eb86020830186612e6c565b612ec56040830185612dbd565b612ed26060830184612e87565b95945050505050565b6000819050919050565b6000612f00612efb612ef684612d28565b612edb565b612d28565b9050919050565b6000612f1282612ee5565b9050919050565b6000612f2482612f07565b9050919050565b612f3481612f19565b82525050565b6000602082019050612f4f6000830184612f2b565b92915050565b612f5e81612e62565b8114612f6957600080fd5b50565b600081359050612f7b81612f55565b92915050565b60008060408385031215612f9857612f97612d1e565b5b6000612fa685828601612dfe565b9250506020612fb785828601612f6c565b9150509250929050565b600060208284031215612fd757612fd6612d1e565b5b6000612fe584828501612dfe565b91505092915050565b600060c0820190506130036000830189612dbd565b6130106020830188612dbd565b61301d6040830187612dbd565b61302a6060830186612dbd565b6130376080830185612e87565b61304460a0830184612e87565b979650505050505050565b60006020820190506130646000830184612e87565b92915050565b6000806000806080858703121561308457613083612d1e565b5b600061309287828801612dfe565b94505060206130a387828801612d71565b93505060406130b487828801612f6c565b92505060606130c587828801612dfe565b91505092959194509250565b600080fd5b600080fd5b600080fd5b60008083601f8401126130f6576130f56130d1565b5b8235905067ffffffffffffffff811115613113576131126130d6565b5b60208301915083602082028301111561312f5761312e6130db565b5b9250929050565b60008060006040848603121561314f5761314e612d1e565b5b600061315d86828701612dfe565b935050602084013567ffffffffffffffff81111561317e5761317d612d23565b5b61318a868287016130e0565b92509250509250925092565b600080604083850312156131ad576131ac612d1e565b5b60006131bb85828601612dfe565b92505060206131cc85828601612d71565b9150509250929050565b60006020820190506131eb6000830184612e53565b92915050565b60008083601f840112613207576132066130d1565b5b8235905067ffffffffffffffff811115613224576132236130d6565b5b6020830191508360018202830111156132405761323f6130db565b5b9250929050565b6000806000604084860312156132605761325f612d1e565b5b600061326e86828701612dfe565b935050602084013567ffffffffffffffff81111561328f5761328e612d23565b5b61329b868287016131f1565b92509250509250925092565b6000806000606084860312156132c0576132bf612d1e565b5b60006132ce86828701612dfe565b93505060206132df86828701612f6c565b92505060406132f086828701612dfe565b9150509250925092565b600081519050919050565b600082825260208201905092915050565b6000819050602082019050919050565b61332f81612d48565b82525050565b61333e81612e62565b82525050565b61334d81612db3565b82525050565b61335c81612e7b565b82525050565b6080820160008201516133786000850182613326565b50602082015161338b6020850182613335565b50604082015161339e6040850182613344565b5060608201516133b16060850182613353565b50505050565b60006133c38383613362565b60808301905092915050565b6000602082019050919050565b60006133e7826132fa565b6133f18185613305565b93506133fc83613316565b8060005b8381101561342d57815161341488826133b7565b975061341f836133cf565b925050600181019050613400565b5085935050505092915050565b6000602082019050818103600083015261345481846133dc565b905092915050565b7f4e487b7100000000000000000000000000000000000000000000000000000000600052601160045260246000fd5b600061349682612db3565b91506134a183612db3565b92508282039050818111156134b9576134b861345c565b5b92915050565b60006134ca82612db3565b91506134d583612db3565b92508282026134e381612db3565b915082820484148315176134fa576134f961345c565b5b5092915050565b7f4e487b7100000000000000000000000000000000000000000000000000000000600052601260045260246000fd5b600061353b82612db3565b915061354683612db3565b92508261355657613555613501565b5b828204905092915050565b600082825260208201905092915050565b7f4d6174636820646f6573206e6f74206578697374000000000000000000000000600082015250565b60006135a8601483613561565b91506135b382613572565b602082019050919050565b600060208201905081810360008301526135d78161359b565b9050919050565b7f4d61746368206e6f742063616e63656c6c656400000000000000000000000000600082015250565b6000613614601383613561565b915061361f826135de565b602082019050919050565b6000602082019050818103600083015261364381613607565b9050919050565b7f4e487b7100000000000000000000000000000000000000000000000000000000600052603260045260246000fd5b600061368482612db3565b915061368f83612db3565b92508282019050808211156136a7576136a661345c565b5b92915050565b60006136b882612db3565b91507fffffffffffffffffffffffffffffffffffffffffffffffffffffffffffffffff82036136ea576136e961345c565b5b600182019050919050565b7f4e6f20726566756e6420617661696c61626c6500000000000000000000000000600082015250565b600061372b601383613561565b9150613736826136f5565b602082019050919050565b6000602082019050818103600083015261375a8161371e565b9050919050565b60006040820190506137766000830185612e53565b6137836020830184612dbd565b9392505050565b61379381612e7b565b811461379e57600080fd5b50565b6000815190506137b08161378a565b92915050565b6000602082840312156137cc576137cb612d1e565b5b60006137da848285016137a1565b91505092915050565b7f526566756e64206661696c656400000000000000000000000000000000000000600082015250565b6000613819600d83613561565b9150613824826137e3565b602082019050919050565b600060208201905081810360008301526138488161380c565b9050919050565b7f4d61746368206e6f7420736574746c6564000000000000000000000000000000600082015250565b6000613885601183613561565b91506138908261384f565b602082019050919050565b600060208201905081810360008301526138b481613878565b9050919050565b7f4e6f2077696e6e696e677320746f20636c61696d000000000000000000000000600082015250565b60006138f1601483613561565b91506138fc826138bb565b602082019050919050565b60006020820190508181036000830152613920816138e4565b9050919050565b7f55534443207472616e73666572206661696c6564000000000000000000000000600082015250565b600061395d601483613561565b915061396882613927565b602082019050919050565b6000602082019050818103600083015261398c81613950565b9050919050565b7f4e6f7420617574686f72697a6564206f7261636c650000000000000000000000600082015250565b60006139c9601583613561565b91506139d482613993565b602082019050919050565b600060208201905081810360008301526139f8816139bc565b9050919050565b7f4d6174636820616c726561647920736574746c65640000000000000000000000600082015250565b6000613a35601583613561565b9150613a40826139ff565b602082019050919050565b60006020820190508181036000830152613a6481613a28565b9050919050565b7f4d617463682063616e63656c6c65640000000000000000000000000000000000600082015250565b6000613aa1600f83613561565b9150613aac82613a6b565b602082019050919050565b60006020820190508181036000830152613ad081613a94565b9050919050565b7f4e65656420312d332077696e6e65727300000000000000000000000000000000600082015250565b6000613b0d601083613561565b9150613b1882613ad7565b602082019050919050565b60006020820190508181036000830152613b3c81613b00565b9050919050565b7f4d61746368206e6f742073746172746564000000000000000000000000000000600082015250565b6000613b79601183613561565b9150613b8482613b43565b602082019050919050565b60006020820190508181036000830152613ba881613b6c565b9050919050565b7f4e487b7100000000000000000000000000000000000000000000000000000000600052604160045260246000fd5b600082825260208201905092915050565b600080fd5b82818337505050565b6000613c098385613bde565b93507f07ffffffffffffffffffffffffffffffffffffffffffffffffffffffffffffff831115613c3c57613c3b613bef565b5b602083029250613c4d838584613bf4565b82840190509392505050565b6000819050919050565b6000613c7e613c79613c7484613c59565b612edb565b612db3565b9050919050565b613c8e81613c63565b82525050565b60006080820190508181036000830152613caf818789613bfd565b9050613cbe6020830186612dbd565b613ccb6040830185612dbd565b613cd86060830184613c85565b9695505050505050565b82818337600083830152505050565b6000601f19601f8301169050919050565b6000613d0e8385613561565b9350613d1b838584613ce2565b613d2483613cf1565b840190509392505050565b60006020820190508181036000830152613d4a818486613d02565b90509392505050565b7f42657420616d6f756e74206d757374206265203e203000000000000000000000600082015250565b6000613d89601683613561565b9150613d9482613d53565b602082019050919050565b60006020820190508181036000830152613db881613d7c565b9050919050565b7f496e76616c696420626f74204944000000000000000000000000000000000000600082015250565b6000613df5600e83613561565b9150613e0082613dbf565b602082019050919050565b60006020820190508181036000830152613e2481613de8565b9050919050565b7f42657474696e6720636c6f736564000000000000000000000000000000000000600082015250565b6000613e61600e83613561565b9150613e6c82613e2b565b602082019050919050565b60006020820190508181036000830152613e9081613e54565b9050919050565b6000606082019050613eac6000830186612e53565b613eb96020830185612e53565b613ec66040830184612dbd565b949350505050565b6000604082019050613ee36000830185612dbd565b613ef06020830184612dbd565b9392505050565b7f4e6f20706c6174666f726d206665657300000000000000000000000000000000600082015250565b6000613f2d601083613561565b9150613f3882613ef7565b602082019050919050565b60006020820190508181036000830152613f5c81613f20565b9050919050565b7f5769746864726177206661696c65640000000000000000000000000000000000600082015250565b6000613f99600f83613561565b9150613fa482613f63565b602082019050919050565b60006020820190508181036000830152613fc881613f8c565b9050919050565b600081519050613fde81612de7565b92915050565b600060208284031215613ffa57613ff9612d1e565b5b600061400884828501613fcf565b91505092915050565b7f4e6f20555344432062616c616e63650000000000000000000000000000000000600082015250565b6000614047600f83613561565b915061405282614011565b602082019050919050565b600060208201905081810360008301526140768161403a565b9050919050565b7f5769746864726177616c206661696c6564000000000000000000000000000000600082015250565b60006140b3601183613561565b91506140be8261407d565b602082019050919050565b600060208201905081810360008301526140e2816140a6565b9050919050565b7f4d6174636820616c726561647920657869737473000000000000000000000000600082015250565b600061411f601483613561565b915061412a826140e9565b602082019050919050565b6000602082019050818103600083015261414e81614112565b9050919050565b7f53746172742074696d65206d75737420626520696e2066757475726500000000600082015250565b600061418b601c83613561565b915061419682614155565b602082019050919050565b600060208201905081810360008301526141ba8161417e565b905091905056fea264697066735822122033ecff1f45b459d73019e2d5ffe365d1a3d66b4cf13e55fdae4fa31d6d8246e264736f6c63430008140033",
  "linkReferences": {},
  "deployedLinkReferences": {}
}