{
  "_format": "hh3-artifact-1",
  "contractName": "SnakeArenaPariMutuel",
  "sourceName": "contracts/SnakeArenaPariMutuel.sol",
  "abi": [
    {
      "inputs": [
        {
          "internalType": "address",
          "name": "_rewardDistributor",
          "type": "address"
        }
      ],
      "stateMutability": "nonpayable",
      "type": "constructor"
    },
    {
      "anonymous": false,
      "inputs": [
        {
          "indexed": true,
          "internalType": "uint256",
          "name": "matchId",
          "type": "uint256"
        },
        {
          "indexed": true,
          "internalType": "address",
          "name": "bettor",
          "type": "address"
        },
        {
          "indexed": true,
          "internalType": "bytes32",
          "name": "botId",
          "type": "bytes32"
        },
        {
          "indexed": false,
          "internalType": "uint256",
          "name": "amount",
          "type": "uint256"
        },
        {
          "indexed": false,
          "internalType": "uint256",
          "name": "betIndex",
          "type": "uint256"
        }
      ],
      "name": "BetPlaced",
      "type": "event"
    },
    {
      "anonymous": false,
      "inputs": [
        {
          "indexed": true,
          "internalType": "uint256",
          "name": "matchId",
          "type": "uint256"
        },
        {
          "indexed": false,
          "internalType": "string",
          "name": "reason",
          "type": "string"
        }
      ],
      "name": "MatchCancelled",
      "type": "event"
    },
    {
      "anonymous": false,
      "inputs": [
        {
          "indexed": true,
          "internalType": "uint256",
          "name": "matchId",
          "type": "uint256"
        },
        {
          "indexed": false,
          "internalType": "uint256",
          "name": "startTime",
          "type": "uint256"
        }
      ],
      "name": "MatchCreated",
      "type": "event"
    },
    {
      "anonymous": false,
      "inputs": [
        {
          "indexed": true,
          "internalType": "uint256",
          "name": "matchId",
          "type": "uint256"
        },
        {
          "indexed": false,
          "internalType": "bytes32[]",
          "name": "winners",
          "type": "bytes32[]"
        },
        {
          "indexed": false,
          "internalType": "uint256",
          "name": "totalPool",
          "type": "uint256"
        },
        {
          "indexed": false,
          "internalType": "uint256",
          "name": "platformRake",
          "type": "uint256"
        },
        {
          "indexed": false,
          "internalType": "uint256",
          "name": "botRewards",
          "type": "uint256"
        }
      ],
      "name": "MatchSettled",
      "type": "event"
    },
    {
      "anonymous": false,
      "inputs": [
        {
          "indexed": false,
          "internalType": "address",
          "name": "oracle",
          "type": "address"
        }
      ],
      "name": "OracleAuthorized",
      "type": "event"
    },
    {
      "anonymous": false,
      "inputs": [
        {
          "indexed": false,
          "internalType": "address",
          "name": "oracle",
          "type": "address"
        }
      ],
      "name": "OracleRevoked",
      "type": "event"
    },
    {
      "anonymous": false,
      "inputs": [
        {
          "indexed": true,
          "internalType": "address",
          "name": "previousOwner",
          "type": "address"
        },
        {
          "indexed": true,
          "internalType": "address",
          "name": "newOwner",
          "type": "address"
        }
      ],
      "name": "OwnershipTransferred",
      "type": "event"
    },
    {
      "anonymous": false,
      "inputs": [
        {
          "indexed": false,
          "internalType": "address",
          "name": "account",
          "type": "address"
        }
      ],
      "name": "Paused",
      "type": "event"
    },
    {
      "anonymous": false,
      "inputs": [
        {
          "indexed": false,
          "internalType": "uint256",
          "name": "amount",
          "type": "uint256"
        }
      ],
      "name": "PlatformFeesWithdrawn",
      "type": "event"
    },
    {
      "anonymous": false,
      "inputs": [
        {
          "indexed": true,
          "internalType": "uint256",
          "name": "matchId",
          "type": "uint256"
        },
        {
          "indexed": true,
          "internalType": "address",
          "name": "bettor",
          "type": "address"
        },
        {
          "indexed": false,
          "internalType": "uint256",
          "name": "amount",
          "type": "uint256"
        }
      ],
      "name": "RefundClaimed",
      "type": "event"
    },
    {
      "anonymous": false,
      "inputs": [
        {
          "indexed": false,
          "internalType": "address",
          "name": "account",
          "type": "address"
        }
      ],
      "name": "Unpaused",
      "type": "event"
    },
    {
      "anonymous": false,
      "inputs": [
        {
          "indexed": true,
          "internalType": "uint256",
          "name": "matchId",
          "type": "uint256"
        },
        {
          "indexed": true,
          "internalType": "address",
          "name": "bettor",
          "type": "address"
        },
        {
          "indexed": false,
          "internalType": "uint256",
          "name": "amount",
          "type": "uint256"
        }
      ],
      "name": "WinningsClaimed",
      "type": "event"
    },
    {
      "inputs": [],
      "name": "FIRST_BOT_REWARD",
      "outputs": [
        {
          "internalType": "uint256",
          "name": "",
          "type": "uint256"
        }
      ],
      "stateMutability": "view",
      "type": "function"
    },
    {
      "inputs": [],
      "name": "FIRST_PLACE_SHARE",
      "outputs": [
        {
          "internalType": "uint256",
          "name": "",
          "type": "uint256"
        }
      ],
      "stateMutability": "view",
      "type": "function"
    },
    {
      "inputs": [],
      "name": "PERCENTAGE_BASE",
      "outputs": [
        {
          "internalType": "uint256",
          "name": "",
          "type": "uint256"
        }
      ],
      "stateMutability": "view",
      "type": "function"
    },
    {
      "inputs": [],
      "name": "PLATFORM_RAKE",
      "outputs": [
        {
          "internalType": "uint256",
          "name": "",
          "type": "uint256"
        }
      ],
      "stateMutability": "view",
      "type": "function"
    },
    {
      "inputs": [],
      "name": "SECOND_BOT_REWARD",
      "outputs": [
        {
          "internalType": "uint256",
          "name": "",
          "type": "uint256"
        }
      ],
      "stateMutability": "view",
      "type": "function"
    },
    {
      "inputs": [],
      "name": "SECOND_PLACE_SHARE",
      "outputs": [
        {
          "internalType": "uint256",
          "name": "",
          "type": "uint256"
        }
      ],
      "stateMutability": "view",
      "type": "function"
    },
    {
      "inputs": [],
      "name": "THIRD_BOT_REWARD",
      "outputs": [
        {
          "internalType": "uint256",
          "name": "",
          "type": "uint256"
        }
      ],
      "stateMutability": "view",
      "type": "function"
    },
    {
      "inputs": [],
      "name": "THIRD_PLACE_SHARE",
      "outputs": [
        {
          "internalType": "uint256",
          "name": "",
          "type": "uint256"
        }
      ],
      "stateMutability": "view",
      "type": "function"
    },
    {
      "inputs": [],
      "name": "TOTAL_BOT_REWARD",
      "outputs": [
        {
          "internalType": "uint256",
          "name": "",
          "type": "uint256"
        }
      ],
      "stateMutability": "view",
      "type": "function"
    },
    {
      "inputs": [],
      "name": "TOTAL_RAKE",
      "outputs": [
        {
          "internalType": "uint256",
          "name": "",
          "type": "uint256"
        }
      ],
      "stateMutability": "view",
      "type": "function"
    },
    {
      "inputs": [
        {
          "internalType": "address",
          "name": "_oracle",
          "type": "address"
        }
      ],
      "name": "authorizeOracle",
      "outputs": [],
      "stateMutability": "nonpayable",
      "type": "function"
    },
    {
      "inputs": [
        {
          "internalType": "address",
          "name": "",
          "type": "address"
        }
      ],
      "name": "authorizedOracles",
      "outputs": [
        {
          "internalType": "bool",
          "name": "",
          "type": "bool"
        }
      ],
      "stateMutability": "view",
      "type": "function"
    },
    {
      "inputs": [
        {
          "internalType": "uint256",
          "name": "",
          "type": "uint256"
        },
        {
          "internalType": "address",
          "name": "",
          "type": "address"
        },
        {
          "internalType": "bytes32",
          "name": "",
          "type": "bytes32"
        },
        {
          "internalType": "uint256",
          "name": "",
          "type": "uint256"
        }
      ],
      "name": "bettorBotBets",
      "outputs": [
        {
          "internalType": "uint256",
          "name": "",
          "type": "uint256"
        }
      ],
      "stateMutability": "view",
      "type": "function"
    },
    {
      "inputs": [
        {
          "internalType": "uint256",
          "name": "",
          "type": "uint256"
        },
        {
          "internalType": "address",
          "name": "",
          "type": "address"
        }
      ],
      "name": "bettorTotalBet",
      "outputs": [
        {
          "internalType": "uint256",
          "name": "",
          "type": "uint256"
        }
      ],
      "stateMutability": "view",
      "type": "function"
    },
    {
      "inputs": [
        {
          "internalType": "uint256",
          "name": "",
          "type": "uint256"
        },
        {
          "internalType": "bytes32",
          "name": "",
          "type": "bytes32"
        }
      ],
      "name": "botTotalBets",
      "outputs": [
        {
          "internalType": "uint256",
          "name": "",
          "type": "uint256"
        }
      ],
      "stateMutability": "view",
      "type": "function"
    },
    {
      "inputs": [
        {
          "internalType": "uint256",
          "name": "_matchId",
          "type": "uint256"
        },
        {
          "internalType": "uint256",
          "name": "_betIndex",
          "type": "uint256"
        }
      ],
      "name": "calculateBetWinnings",
      "outputs": [
        {
          "internalType": "uint256",
          "name": "",
          "type": "uint256"
        }
      ],
      "stateMutability": "view",
      "type": "function"
    },
    {
      "inputs": [
        {
          "internalType": "uint256",
          "name": "_matchId",
          "type": "uint256"
        },
        {
          "internalType": "string",
          "name": "_reason",
          "type": "string"
        }
      ],
      "name": "cancelMatch",
      "outputs": [],
      "stateMutability": "nonpayable",
      "type": "function"
    },
    {
      "inputs": [
        {
          "internalType": "uint256",
          "name": "_matchId",
          "type": "uint256"
        }
      ],
      "name": "claimRefund",
      "outputs": [],
      "stateMutability": "nonpayable",
      "type": "function"
    },
    {
      "inputs": [
        {
          "internalType": "uint256",
          "name": "_matchId",
          "type": "uint256"
        }
      ],
      "name": "claimWinnings",
      "outputs": [],
      "stateMutability": "nonpayable",
      "type": "function"
    },
    {
      "inputs": [
        {
          "internalType": "uint256",
          "name": "_matchId",
          "type": "uint256"
        },
        {
          "internalType": "uint256",
          "name": "_startTime",
          "type": "uint256"
        }
      ],
      "name": "createMatch",
      "outputs": [],
      "stateMutability": "nonpayable",
      "type": "function"
    },
    {
      "inputs": [],
      "name": "emergencyWithdraw",
      "outputs": [],
      "stateMutability": "nonpayable",
      "type": "function"
    },
    {
      "inputs": [
        {
          "internalType": "uint256",
          "name": "_matchId",
          "type": "uint256"
        },
        {
          "internalType": "bytes32",
          "name": "_botId",
          "type": "bytes32"
        }
      ],
      "name": "getCurrentOdds",
      "outputs": [
        {
          "internalType": "uint256",
          "name": "",
          "type": "uint256"
        }
      ],
      "stateMutability": "view",
      "type": "function"
    },
    {
      "inputs": [
        {
          "internalType": "uint256",
          "name": "_matchId",
          "type": "uint256"
        }
      ],
      "name": "getMatchBets",
      "outputs": [
        {
          "components": [
            {
              "internalType": "address",
              "name": "bettor",
              "type": "address"
            },
            {
              "internalType": "bytes32",
              "name": "botId",
              "type": "bytes32"
            },
            {
              "internalType": "uint256",
              "name": "amount",
              "type": "uint256"
            },
            {
              "internalType": "bool",
              "name": "claimed",
              "type": "bool"
            }
          ],
          "internalType": "struct SnakeArenaPariMutuel.Bet[]",
          "name": "",
          "type": "tuple[]"
        }
      ],
      "stateMutability": "view",
      "type": "function"
    },
    {
      "inputs": [
        {
          "internalType": "uint256",
          "name": "_matchId",
          "type": "uint256"
        },
        {
          "internalType": "address",
          "name": "_bettor",
          "type": "address"
        }
      ],
      "name": "getUserPotentialWinnings",
      "outputs": [
        {
          "internalType": "uint256",
          "name": "",
          "type": "uint256"
        }
      ],
      "stateMutability": "view",
      "type": "function"
    },
    {
      "inputs": [
        {
          "internalType": "uint256",
          "name": "",
          "type": "uint256"
        },
        {
          "internalType": "uint256",
          "name": "",
          "type": "uint256"
        }
      ],
      "name": "matchBets",
      "outputs": [
        {
          "internalType": "address",
          "name": "bettor",
          "type": "address"
        },
        {
          "internalType": "bytes32",
          "name": "botId",
          "type": "bytes32"
        },
        {
          "internalType": "uint256",
          "name": "amount",
          "type": "uint256"
        },
        {
          "internalType": "bool",
          "name": "claimed",
          "type": "bool"
        }
      ],
      "stateMutability": "view",
      "type": "function"
    },
    {
      "inputs": [
        {
          "internalType": "uint256",
          "name": "",
          "type": "uint256"
        }
      ],
      "name": "matches",
      "outputs": [
        {
          "internalType": "uint256",
          "name": "matchId",
          "type": "uint256"
        },
        {
          "internalType": "uint256",
          "name": "startTime",
          "type": "uint256"
        },
        {
          "internalType": "uint256",
          "name": "endTime",
          "type": "uint256"
        },
        {
          "internalType": "uint256",
          "name": "totalPool",
          "type": "uint256"
        },
        {
          "internalType": "bool",
          "name": "settled",
          "type": "bool"
        },
        {
          "internalType": "bool",
          "name": "cancelled",
          "type": "bool"
        }
      ],
      "stateMutability": "view",
      "type": "function"
    },
    {
      "inputs": [],
      "name": "owner",
      "outputs": [
        {
          "internalType": "address",
          "name": "",
          "type": "address"
        }
      ],
      "stateMutability": "view",
      "type": "function"
    },
    {
      "inputs": [],
      "name": "pause",
      "outputs": [],
      "stateMutability": "nonpayable",
      "type": "function"
    },
    {
      "inputs": [],
      "name": "paused",
      "outputs": [
        {
          "internalType": "bool",
          "name": "",
          "type": "bool"
        }
      ],
      "stateMutability": "view",
      "type": "function"
    },
    {
      "inputs": [
        {
          "internalType": "uint256",
          "name": "_matchId",
          "type": "uint256"
        },
        {
          "internalType": "bytes32",
          "name": "_botId",
          "type": "bytes32"
        }
      ],
      "name": "placeBet",
      "outputs": [],
      "stateMutability": "payable",
      "type": "function"
    },
    {
      "inputs": [],
      "name": "renounceOwnership",
      "outputs": [],
      "stateMutability": "nonpayable",
      "type": "function"
    },
    {
      "inputs": [
        {
          "internalType": "address",
          "name": "_oracle",
          "type": "address"
        }
      ],
      "name": "revokeOracle",
      "outputs": [],
      "stateMutability": "nonpayable",
      "type": "function"
    },
    {
      "inputs": [],
      "name": "rewardDistributor",
      "outputs": [
        {
          "internalType": "contract RewardDistributor",
          "name": "",
          "type": "address"
        }
      ],
      "stateMutability": "view",
      "type": "function"
    },
    {
      "inputs": [
        {
          "internalType": "address",
          "name": "_distributor",
          "type": "address"
        }
      ],
      "name": "setRewardDistributor",
      "outputs": [],
      "stateMutability": "nonpayable",
      "type": "function"
    },
    {
      "inputs": [
        {
          "internalType": "uint256",
          "name": "_matchId",
          "type": "uint256"
        },
        {
          "internalType": "bytes32[]",
          "name": "_winners",
          "type": "bytes32[]"
        }
      ],
      "name": "settleMatch",
      "outputs": [],
      "stateMutability": "nonpayable",
      "type": "function"
    },
    {
      "inputs": [
        {
          "internalType": "address",
          "name": "newOwner",
          "type": "address"
        }
      ],
      "name": "transferOwnership",
      "outputs": [],
      "stateMutability": "nonpayable",
      "type": "function"
    },
    {
      "inputs": [],
      "name": "unpause",
      "outputs": [],
      "stateMutability": "nonpayable",
      "type": "function"
    },
    {
      "inputs": [],
      "name": "withdrawPlatformFees",
      "outputs": [],
      "stateMutability": "nonpayable",
      "type": "function"
    },
    {
      "stateMutability": "payable",
      "type": "receive"
    }
  ],
  "bytecode": "0x60806040523480156200001157600080fd5b506040516200472b3803806200472b8339818101604052810190620000379190620001f7565b620000576200004b620000c160201b60201c565b620000c960201b60201c565b600180819055506000600260006101000a81548160ff02191690831515021790555080600260016101000a81548173ffffffffffffffffffffffffffffffffffffffff021916908373ffffffffffffffffffffffffffffffffffffffff1602179055505062000229565b600033905090565b60008060009054906101000a900473ffffffffffffffffffffffffffffffffffffffff169050816000806101000a81548173ffffffffffffffffffffffffffffffffffffffff021916908373ffffffffffffffffffffffffffffffffffffffff1602179055508173ffffffffffffffffffffffffffffffffffffffff168173ffffffffffffffffffffffffffffffffffffffff167f8be0079c531659141344cd1fd0a4f28419497f9722a3daafe3b4186f6b6457e060405160405180910390a35050565b600080fd5b600073ffffffffffffffffffffffffffffffffffffffff82169050919050565b6000620001bf8262000192565b9050919050565b620001d181620001b2565b8114620001dd57600080fd5b50565b600081519050620001f181620001c6565b92915050565b60006020828403121562000210576200020f6200018d565b5b60006200022084828501620001e0565b91505092915050565b6144f280620002396000396000f3fe6080604052600436106102295760003560e01c8063784e36ec11610123578063a8752e6c116100ab578063db2e21bc1161006f578063db2e21bc14610836578063f2fde38b1461084d578063f435e4cc14610876578063f5a0ea6c146108b3578063ff03e13e146108dc57610269565b8063a8752e6c14610763578063a897edc0146107a0578063aa079eb0146107cb578063acc2166a146107f4578063d0b7830b1461081f57610269565b806387c13943116100f257806387c139431461067c5780638c859378146106a75780638da5cb5b146106d257806395776440146106fd578063a1809b951461073a57610269565b8063784e36ec146105d45780637bd51a96146105fd5780637d317a9f1461063a5780638456cb591461066557610269565b80634aa3c804116101b1578063677bd9ff11610175578063677bd9ff146104ef57806368fcbfb2146105185780636ea1219d14610555578063715018a61461059257806376b0285b146105a957610269565b80634aa3c8041461040a5780635983e6b0146104355780635b7baf641461045e5780635c975abb1461048757806361c992a3146104b257610269565b806338031335116101f8578063380313351461031e5780633c6da7bf146103495780633f4ba83a146103745780633fd7b4e61461038b5780634768d4ef146103c857610269565b80630f13b7631461026e5780632e9afae2146102975780633437f319146102b357806334dddef9146102de57610269565b36610269576040517f08c379a000000000000000000000000000000000000000000000000000000000815260040161026090612f16565b60405180910390fd5b600080fd5b34801561027a57600080fd5b5061029560048036038101906102909190612f9e565b610907565b005b6102b160048036038101906102ac9190613037565b6109a1565b005b3480156102bf57600080fd5b506102c8610e8d565b6040516102d59190613086565b60405180910390f35b3480156102ea57600080fd5b50610305600480360381019061030091906130a1565b610e92565b604051610315949392919061311a565b60405180910390f35b34801561032a57600080fd5b50610333610f0c565b6040516103409190613086565b60405180910390f35b34801561035557600080fd5b5061035e610f12565b60405161036b9190613086565b60405180910390f35b34801561038057600080fd5b50610389610f18565b005b34801561039757600080fd5b506103b260048036038101906103ad9190613037565b610f2a565b6040516103bf9190613086565b60405180910390f35b3480156103d457600080fd5b506103ef60048036038101906103ea919061315f565b610fdf565b6040516104019695949392919061318c565b60405180910390f35b34801561041657600080fd5b5061041f611035565b60405161042c9190613086565b60405180910390f35b34801561044157600080fd5b5061045c60048036038101906104579190612f9e565b61103b565b005b34801561046a57600080fd5b506104856004803603810190610480919061315f565b6110d5565b005b34801561049357600080fd5b5061049c611445565b6040516104a991906131ed565b60405180910390f35b3480156104be57600080fd5b506104d960048036038101906104d49190612f9e565b61145c565b6040516104e691906131ed565b60405180910390f35b3480156104fb57600080fd5b506105166004803603810190610511919061315f565b61147c565b005b34801561052457600080fd5b5061053f600480360381019061053a9190613208565b6117e7565b60405161054c9190613086565b60405180910390f35b34801561056157600080fd5b5061057c600480360381019061057791906130a1565b611832565b6040516105899190613086565b60405180910390f35b34801561059e57600080fd5b506105a7611a4a565b005b3480156105b557600080fd5b506105be611a5e565b6040516105cb9190613086565b60405180910390f35b3480156105e057600080fd5b506105fb60048036038101906105f691906132d4565b611a64565b005b34801561060957600080fd5b50610624600480360381019061061f9190613334565b611fd7565b6040516106319190613086565b60405180910390f35b34801561064657600080fd5b5061064f6120b2565b60405161065c9190613086565b60405180910390f35b34801561067157600080fd5b5061067a6120b8565b005b34801561068857600080fd5b506106916120ca565b60405161069e9190613086565b60405180910390f35b3480156106b357600080fd5b506106bc6120d0565b6040516106c99190613086565b60405180910390f35b3480156106de57600080fd5b506106e76120d5565b6040516106f49190613374565b60405180910390f35b34801561070957600080fd5b50610724600480360381019061071f9190613037565b6120fe565b6040516107319190613086565b60405180910390f35b34801561074657600080fd5b50610761600480360381019061075c9190612f9e565b612123565b005b34801561076f57600080fd5b5061078a60048036038101906107859190613334565b61216f565b6040516107979190613086565b60405180910390f35b3480156107ac57600080fd5b506107b5612194565b6040516107c29190613086565b60405180910390f35b3480156107d757600080fd5b506107f260048036038101906107ed91906133e5565b61219a565b005b34801561080057600080fd5b506108096123b9565b60405161081691906134a4565b60405180910390f35b34801561082b57600080fd5b506108346123df565b005b34801561084257600080fd5b5061084b61251f565b005b34801561085957600080fd5b50610874600480360381019061086f9190612f9e565b61262e565b005b34801561088257600080fd5b5061089d6004803603810190610898919061315f565b6126b1565b6040516108aa91906135ff565b60405180910390f35b3480156108bf57600080fd5b506108da60048036038101906108d591906130a1565b6127a8565b005b3480156108e857600080fd5b506108f1612a97565b6040516108fe9190613086565b60405180910390f35b61090f612a9d565b6001600860008373ffffffffffffffffffffffffffffffffffffffff1673ffffffffffffffffffffffffffffffffffffffff16815260200190815260200160002060006101000a81548160ff0219169083151502179055507f5a7a3f71a35f5e2589980d29d1c6d8c75e39657751190874081e55208bae24b7816040516109969190613374565b60405180910390a150565b6109a9612b1b565b6109b1612b6a565b816000600360008381526020019081526020016000206000015403610a0b576040517f08c379a0000000000000000000000000000000000000000000000000000000008152600401610a029061366d565b60405180910390fd5b826003600082815260200190815260200160002060040160009054906101000a900460ff1615610a70576040517f08c379a0000000000000000000000000000000000000000000000000000000008152600401610a67906136d9565b60405180910390fd5b6003600082815260200190815260200160002060040160019054906101000a900460ff1615610ad4576040517f08c379a0000000000000000000000000000000000000000000000000000000008152600401610acb90613745565b60405180910390fd5b60003411610b17576040517f08c379a0000000000000000000000000000000000000000000000000000000008152600401610b0e906137b1565b60405180910390fd5b6000801b8303610b5c576040517f08c379a0000000000000000000000000000000000000000000000000000000008152600401610b539061381d565b60405180910390fd5b61012c6003600086815260200190815260200160002060010154610b80919061386c565b4210610bc1576040517f08c379a0000000000000000000000000000000000000000000000000000000008152600401610bb8906138ec565b60405180910390fd5b600060405180608001604052803373ffffffffffffffffffffffffffffffffffffffff1681526020018581526020013481526020016000151581525090506000600460008781526020019081526020016000208054905090506004600087815260200190815260200160002082908060018154018082558091505060019003906000526020600020906004020160009091909190915060008201518160000160006101000a81548173ffffffffffffffffffffffffffffffffffffffff021916908373ffffffffffffffffffffffffffffffffffffffff160217905550602082015181600101556040820151816002015560608201518160030160006101000a81548160ff0219169083151502179055505050346005600088815260200190815260200160002060008781526020019081526020016000206000828254610d08919061386c565b92505081905550346007600088815260200190815260200160002060003373ffffffffffffffffffffffffffffffffffffffff1673ffffffffffffffffffffffffffffffffffffffff1681526020019081526020016000206000828254610d6f919061386c565b925050819055506006600087815260200190815260200160002060003373ffffffffffffffffffffffffffffffffffffffff1673ffffffffffffffffffffffffffffffffffffffff168152602001908152602001600020600086815260200190815260200160002081908060018154018082558091505060019003906000526020600020016000909190919091505534600360008881526020019081526020016000206003016000828254610e24919061386c565b92505081905550843373ffffffffffffffffffffffffffffffffffffffff16877fe3f12000d2e52ba630f53090b6ce84c0334e43fbe0e17603b46237748a0c40783485604051610e7592919061390c565b60405180910390a450505050610e89612bb4565b5050565b603281565b60046020528160005260406000208181548110610eae57600080fd5b9060005260206000209060040201600091509150508060000160009054906101000a900473ffffffffffffffffffffffffffffffffffffffff16908060010154908060020154908060030160009054906101000a900460ff16905084565b61012c81565b6101f481565b610f20612a9d565b610f28612bbd565b565b6000806003600085815260200190815260200160002060030154905060006005600086815260200190815260200160002060008581526020019081526020016000205490506000811480610f7e5750600082145b15610f8e57600092505050610fd9565b60006127106103e8612710610fa39190613935565b84610fae9190613969565b610fb891906139da565b90508161271082610fc99190613969565b610fd391906139da565b93505050505b92915050565b60036020528060005260406000206000915090508060000154908060010154908060020154908060030154908060040160009054906101000a900460ff16908060040160019054906101000a900460ff16905086565b610bb881565b611043612a9d565b6000600860008373ffffffffffffffffffffffffffffffffffffffff1673ffffffffffffffffffffffffffffffffffffffff16815260200190815260200160002060006101000a81548160ff0219169083151502179055507f3c9c4af7c4c66de2ffc68abfa4e0d275fbce92f248473bca0d6787dc8caf8e31816040516110ca9190613374565b60405180910390a150565b6110dd612b1b565b806000600360008381526020019081526020016000206000015403611137576040517f08c379a000000000000000000000000000000000000000000000000000000000815260040161112e9061366d565b60405180910390fd5b6003600083815260200190815260200160002060040160019054906101000a900460ff1661119a576040517f08c379a000000000000000000000000000000000000000000000000000000000815260040161119190613a57565b60405180910390fd5b60008060046000858152602001908152602001600020905060005b81805490508110156112f7573373ffffffffffffffffffffffffffffffffffffffff168282815481106111eb576111ea613a77565b5b906000526020600020906004020160000160009054906101000a900473ffffffffffffffffffffffffffffffffffffffff1673ffffffffffffffffffffffffffffffffffffffff1614801561126f575081818154811061124e5761124d613a77565b5b906000526020600020906004020160030160009054906101000a900460ff16155b156112e45781818154811061128757611286613a77565b5b906000526020600020906004020160020154836112a4919061386c565b925060018282815481106112bb576112ba613a77565b5b906000526020600020906004020160030160006101000a81548160ff0219169083151502179055505b80806112ef90613aa6565b9150506111b5565b506000821161133b576040517f08c379a000000000000000000000000000000000000000000000000000000000815260040161133290613b3a565b60405180910390fd5b60003373ffffffffffffffffffffffffffffffffffffffff168360405161136190613b8b565b60006040518083038185875af1925050503d806000811461139e576040519150601f19603f3d011682016040523d82523d6000602084013e6113a3565b606091505b50509050806113e7576040517f08c379a00000000000000000000000000000000000000000000000000000000081526004016113de90613bec565b60405180910390fd5b3373ffffffffffffffffffffffffffffffffffffffff16857ff3f402280ef0a7905e124aa621b65eaeb2725c343e8b36d398ed78c29daf285c8560405161142e9190613086565b60405180910390a350505050611442612bb4565b50565b6000600260009054906101000a900460ff16905090565b60086020528060005260406000206000915054906101000a900460ff1681565b611484612b1b565b8060006003600083815260200190815260200160002060000154036114de576040517f08c379a00000000000000000000000000000000000000000000000000000000081526004016114d59061366d565b60405180910390fd5b60006003600084815260200190815260200160002090508060040160009054906101000a900460ff16611546576040517f08c379a000000000000000000000000000000000000000000000000000000000815260040161153d90613c58565b60405180910390fd5b60008060046000868152602001908152602001600020905060005b8180549050811015611698573373ffffffffffffffffffffffffffffffffffffffff1682828154811061159757611596613a77565b5b906000526020600020906004020160000160009054906101000a900473ffffffffffffffffffffffffffffffffffffffff1673ffffffffffffffffffffffffffffffffffffffff1614801561161b57508181815481106115fa576115f9613a77565b5b906000526020600020906004020160030160009054906101000a900460ff16155b1561168557600061162c8783611832565b90506000811115611683578084611643919061386c565b9350600183838154811061165a57611659613a77565b5b906000526020600020906004020160030160006101000a81548160ff0219169083151502179055505b505b808061169090613aa6565b915050611561565b50600082116116dc576040517f08c379a00000000000000000000000000000000000000000000000000000000081526004016116d390613cc4565b60405180910390fd5b60003373ffffffffffffffffffffffffffffffffffffffff168360405161170290613b8b565b60006040518083038185875af1925050503d806000811461173f576040519150601f19603f3d011682016040523d82523d6000602084013e611744565b606091505b5050905080611788576040517f08c379a000000000000000000000000000000000000000000000000000000000815260040161177f90613d30565b60405180910390fd5b3373ffffffffffffffffffffffffffffffffffffffff16867f5380cf6fe903b40c6d5a9e0dfbca2f3a423f0a21520b4d5947ed5169bdba946d856040516117cf9190613086565b60405180910390a350505050506117e4612bb4565b50565b6006602052836000526040600020602052826000526040600020602052816000526040600020818154811061181b57600080fd5b906000526020600020016000935093505050505481565b60008060046000858152602001908152602001600020838154811061185a57611859613a77565b5b9060005260206000209060040201905060006003600086815260200190815260200160002090508060040160009054906101000a900460ff1615806118ad57508160030160009054906101000a900460ff165b156118bd57600092505050611a44565b6000805b82600501805490508110156119225783600101548360050182815481106118eb576118ea613a77565b5b90600052602060002001540361190f57600181611908919061386c565b9150611922565b808061191a90613aa6565b9150506118c1565b50600081036119375760009350505050611a44565b60008260030154905060006127106103e86127106119559190613935565b836119609190613969565b61196a91906139da565b90506000600184036119805761138890506119b5565b6002840361199257610bb890506119b4565b600384036119a4576107d090506119b3565b60009650505050505050611a44565b5b5b600061271082846119c69190613969565b6119d091906139da565b90506000600560008c815260200190815260200160002060008960010154815260200190815260200160002054905060008103611a1857600098505050505050505050611a44565b600081838a60020154611a2b9190613969565b611a3591906139da565b90508099505050505050505050505b92915050565b611a52612a9d565b611a5c6000612c20565b565b6103e881565b611a6c612b1b565b600860003373ffffffffffffffffffffffffffffffffffffffff1673ffffffffffffffffffffffffffffffffffffffff16815260200190815260200160002060009054906101000a900460ff16611af8576040517f08c379a0000000000000000000000000000000000000000000000000000000008152600401611aef90613d9c565b60405180910390fd5b826000600360008381526020019081526020016000206000015403611b52576040517f08c379a0000000000000000000000000000000000000000000000000000000008152600401611b499061366d565b60405180910390fd5b836003600082815260200190815260200160002060040160009054906101000a900460ff1615611bb7576040517f08c379a0000000000000000000000000000000000000000000000000000000008152600401611bae906136d9565b60405180910390fd5b6003600082815260200190815260200160002060040160019054906101000a900460ff1615611c1b576040517f08c379a0000000000000000000000000000000000000000000000000000000008152600401611c1290613745565b60405180910390fd5b600084849050118015611c32575060038484905011155b611c71576040517f08c379a0000000000000000000000000000000000000000000000000000000008152600401611c6890613e08565b60405180910390fd5b6003600086815260200190815260200160002060010154421015611cca576040517f08c379a0000000000000000000000000000000000000000000000000000000008152600401611cc190613e74565b60405180910390fd5b600060036000878152602001908152602001600020905060018160040160006101000a81548160ff0219169083151502179055504281600201819055508484826005019190611d1a929190612d98565b506000816003015490506000806000831115611f84576127106101f484611d419190613969565b611d4b91906139da565b91506000604051806060016040528061012c8152602001609681526020016032815250905060005b8989905081108015611d855750600381105b15611e98576000612710838360038110611da257611da1613a77565b5b602002015187611db29190613969565b611dbc91906139da565b90508084611dca919061386c565b9350600260019054906101000a900473ffffffffffffffffffffffffffffffffffffffff1673ffffffffffffffffffffffffffffffffffffffff16634364bfde8c8c85818110611e1d57611e1c613a77565b5b90506020020135838f600187611e33919061386c565b6040518563ffffffff1660e01b8152600401611e529493929190613eb0565b600060405180830381600087803b158015611e6c57600080fd5b505af1158015611e80573d6000803e3d6000fd5b50505050508080611e9090613aa6565b915050611d73565b5060008989905067ffffffffffffffff811115611eb857611eb7613ef5565b5b604051908082528060200260200182016040528015611ee65781602001602082028036833780820191505090505b50905060005b8a8a9050811015611f6757600560008d815260200190815260200160002060008c8c84818110611f1f57611f1e613a77565b5b90506020020135815260200190815260200160002054828281518110611f4857611f47613a77565b5b6020026020010181815250508080611f5f90613aa6565b915050611eec565b5080866006019080519060200190611f80929190612de5565b5050505b887fda5e8e3efcfcb8f0d64e2f3d73e11bf821f42e5ade6dfb4e86430f56c0a6c3588989868686604051611fbc959493929190613f9f565b60405180910390a2505050505050611fd2612bb4565b505050565b60008060009050600060046000868152602001908152602001600020905060005b81805490508110156120a6578473ffffffffffffffffffffffffffffffffffffffff1682828154811061202e5761202d613a77565b5b906000526020600020906004020160000160009054906101000a900473ffffffffffffffffffffffffffffffffffffffff1673ffffffffffffffffffffffffffffffffffffffff1603612093576120858682611832565b83612090919061386c565b92505b808061209e90613aa6565b915050611ff8565b50819250505092915050565b6107d081565b6120c0612a9d565b6120c8612ce4565b565b61271081565b609681565b60008060009054906101000a900473ffffffffffffffffffffffffffffffffffffffff16905090565b6005602052816000526040600020602052806000526040600020600091509150505481565b61212b612a9d565b80600260016101000a81548173ffffffffffffffffffffffffffffffffffffffff021916908373ffffffffffffffffffffffffffffffffffffffff16021790555050565b6007602052816000526040600020602052806000526040600020600091509150505481565b61138881565b600860003373ffffffffffffffffffffffffffffffffffffffff1673ffffffffffffffffffffffffffffffffffffffff16815260200190815260200160002060009054906101000a900460ff16612226576040517f08c379a000000000000000000000000000000000000000000000000000000000815260040161221d90613d9c565b60405180910390fd5b826000600360008381526020019081526020016000206000015403612280576040517f08c379a00000000000000000000000000000000000000000000000000000000081526004016122779061366d565b60405180910390fd5b836003600082815260200190815260200160002060040160009054906101000a900460ff16156122e5576040517f08c379a00000000000000000000000000000000000000000000000000000000081526004016122dc906136d9565b60405180910390fd5b6003600082815260200190815260200160002060040160019054906101000a900460ff1615612349576040517f08c379a000000000000000000000000000000000000000000000000000000000815260040161234090613745565b60405180910390fd5b60016003600087815260200190815260200160002060040160016101000a81548160ff021916908315150217905550847fbe9561483b1664685b575e72966584b8b66b253bd4f2e55e045e00db8fc134af85856040516123aa92919061403a565b60405180910390a25050505050565b600260019054906101000a900473ffffffffffffffffffffffffffffffffffffffff1681565b6123e7612a9d565b60008047905060008111612430576040517f08c379a0000000000000000000000000000000000000000000000000000000008152600401612427906140aa565b60405180910390fd5b600061243a6120d5565b73ffffffffffffffffffffffffffffffffffffffff168260405161245d90613b8b565b60006040518083038185875af1925050503d806000811461249a576040519150601f19603f3d011682016040523d82523d6000602084013e61249f565b606091505b50509050806124e3576040517f08c379a00000000000000000000000000000000000000000000000000000000081526004016124da90614116565b60405180910390fd5b7f9870c8023baa016ac002ddfa7cdad341155acddddee3032c07d4baa4947ae643826040516125129190613086565b60405180910390a1505050565b612527612a9d565b61252f612d47565b600047905060008111612577576040517f08c379a000000000000000000000000000000000000000000000000000000000815260040161256e906140aa565b60405180910390fd5b60006125816120d5565b73ffffffffffffffffffffffffffffffffffffffff16826040516125a490613b8b565b60006040518083038185875af1925050503d80600081146125e1576040519150601f19603f3d011682016040523d82523d6000602084013e6125e6565b606091505b505090508061262a576040517f08c379a000000000000000000000000000000000000000000000000000000000815260040161262190614182565b60405180910390fd5b5050565b612636612a9d565b600073ffffffffffffffffffffffffffffffffffffffff168173ffffffffffffffffffffffffffffffffffffffff16036126a5576040517f08c379a000000000000000000000000000000000000000000000000000000000815260040161269c90614214565b60405180910390fd5b6126ae81612c20565b50565b606060046000838152602001908152602001600020805480602002602001604051908101604052809291908181526020016000905b8282101561279d57838290600052602060002090600402016040518060800160405290816000820160009054906101000a900473ffffffffffffffffffffffffffffffffffffffff1673ffffffffffffffffffffffffffffffffffffffff1673ffffffffffffffffffffffffffffffffffffffff16815260200160018201548152602001600282015481526020016003820160009054906101000a900460ff161515151581525050815260200190600101906126e6565b505050509050919050565b600860003373ffffffffffffffffffffffffffffffffffffffff1673ffffffffffffffffffffffffffffffffffffffff16815260200190815260200160002060009054906101000a900460ff16612834576040517f08c379a000000000000000000000000000000000000000000000000000000000815260040161282b90613d9c565b60405180910390fd5b600060036000848152602001908152602001600020600001541461288d576040517f08c379a000000000000000000000000000000000000000000000000000000000815260040161288490614280565b60405180910390fd5b4281116128cf576040517f08c379a00000000000000000000000000000000000000000000000000000000081526004016128c6906142ec565b60405180910390fd5b6040518061010001604052808381526020018281526020016000815260200160008152602001600015158152602001600015158152602001600067ffffffffffffffff81111561292257612921613ef5565b5b6040519080825280602002602001820160405280156129505781602001602082028036833780820191505090505b508152602001600067ffffffffffffffff81111561297157612970613ef5565b5b60405190808252806020026020018201604052801561299f5781602001602082028036833780820191505090505b50815250600360008481526020019081526020016000206000820151816000015560208201518160010155604082015181600201556060820151816003015560808201518160040160006101000a81548160ff02191690831515021790555060a08201518160040160016101000a81548160ff02191690831515021790555060c0820151816005019080519060200190612a3a929190612e32565b5060e0820151816006019080519060200190612a57929190612de5565b50905050817fd56886a1746d522b2004f5a22791ef766ad000208d143745de239399516bb5ab82604051612a8b9190613086565b60405180910390a25050565b6101f481565b612aa5612d90565b73ffffffffffffffffffffffffffffffffffffffff16612ac36120d5565b73ffffffffffffffffffffffffffffffffffffffff1614612b19576040517f08c379a0000000000000000000000000000000000000000000000000000000008152600401612b1090614358565b60405180910390fd5b565b600260015403612b60576040517f08c379a0000000000000000000000000000000000000000000000000000000008152600401612b57906143c4565b60405180910390fd5b6002600181905550565b612b72611445565b15612bb2576040517f08c379a0000000000000000000000000000000000000000000000000000000008152600401612ba990614430565b60405180910390fd5b565b60018081905550565b612bc5612d47565b6000600260006101000a81548160ff0219169083151502179055507f5db9ee0a495bf2e6ff9c91a7834c1ba4fdd244a5e8aa4e537bd38aeae4b073aa612c09612d90565b604051612c169190613374565b60405180910390a1565b60008060009054906101000a900473ffffffffffffffffffffffffffffffffffffffff169050816000806101000a81548173ffffffffffffffffffffffffffffffffffffffff021916908373ffffffffffffffffffffffffffffffffffffffff1602179055508173ffffffffffffffffffffffffffffffffffffffff168173ffffffffffffffffffffffffffffffffffffffff167f8be0079c531659141344cd1fd0a4f28419497f9722a3daafe3b4186f6b6457e060405160405180910390a35050565b612cec612b6a565b6001600260006101000a81548160ff0219169083151502179055507f62e78cea01bee320cd4e420270b5ea74000d11b0c9f74754ebdbfc544b05a258612d30612d90565b604051612d3d9190613374565b60405180910390a1565b612d4f611445565b612d8e576040517f08c379a0000000000000000000000000000000000000000000000000000000008152600401612d859061449c565b60405180910390fd5b565b600033905090565b828054828255906000526020600020908101928215612dd4579160200282015b82811115612dd3578235825591602001919060010190612db8565b5b509050612de19190612e7f565b5090565b828054828255906000526020600020908101928215612e21579160200282015b82811115612e20578251825591602001919060010190612e05565b5b509050612e2e9190612e9c565b5090565b828054828255906000526020600020908101928215612e6e579160200282015b82811115612e6d578251825591602001919060010190612e52565b5b509050612e7b9190612e7f565b5090565b5b80821115612e98576000816000905550600101612e80565b5090565b5b80821115612eb5576000816000905550600101612e9d565b5090565b600082825260208201905092915050565b7f446972656374206465706f73697473206e6f7420616c6c6f7765640000000000600082015250565b6000612f00601b83612eb9565b9150612f0b82612eca565b602082019050919050565b60006020820190508181036000830152612f2f81612ef3565b9050919050565b600080fd5b600080fd5b600073ffffffffffffffffffffffffffffffffffffffff82169050919050565b6000612f6b82612f40565b9050919050565b612f7b81612f60565b8114612f8657600080fd5b50565b600081359050612f9881612f72565b92915050565b600060208284031215612fb457612fb3612f36565b5b6000612fc284828501612f89565b91505092915050565b6000819050919050565b612fde81612fcb565b8114612fe957600080fd5b50565b600081359050612ffb81612fd5565b92915050565b6000819050919050565b61301481613001565b811461301f57600080fd5b50565b6000813590506130318161300b565b92915050565b6000806040838503121561304e5761304d612f36565b5b600061305c85828601612fec565b925050602061306d85828601613022565b9150509250929050565b61308081612fcb565b82525050565b600060208201905061309b6000830184613077565b92915050565b600080604083850312156130b8576130b7612f36565b5b60006130c685828601612fec565b92505060206130d785828601612fec565b9150509250929050565b6130ea81612f60565b82525050565b6130f981613001565b82525050565b60008115159050919050565b613114816130ff565b82525050565b600060808201905061312f60008301876130e1565b61313c60208301866130f0565b6131496040830185613077565b613156606083018461310b565b95945050505050565b60006020828403121561317557613174612f36565b5b600061318384828501612fec565b91505092915050565b600060c0820190506131a16000830189613077565b6131ae6020830188613077565b6131bb6040830187613077565b6131c86060830186613077565b6131d5608083018561310b565b6131e260a083018461310b565b979650505050505050565b6000602082019050613202600083018461310b565b92915050565b6000806000806080858703121561322257613221612f36565b5b600061323087828801612fec565b945050602061324187828801612f89565b935050604061325287828801613022565b925050606061326387828801612fec565b91505092959194509250565b600080fd5b600080fd5b600080fd5b60008083601f8401126132945761329361326f565b5b8235905067ffffffffffffffff8111156132b1576132b0613274565b5b6020830191508360208202830111156132cd576132cc613279565b5b9250929050565b6000806000604084860312156132ed576132ec612f36565b5b60006132fb86828701612fec565b935050602084013567ffffffffffffffff81111561331c5761331b612f3b565b5b6133288682870161327e565b92509250509250925092565b6000806040838503121561334b5761334a612f36565b5b600061335985828601612fec565b925050602061336a85828601612f89565b9150509250929050565b600060208201905061338960008301846130e1565b92915050565b60008083601f8401126133a5576133a461326f565b5b8235905067ffffffffffffffff8111156133c2576133c1613274565b5b6020830191508360018202830111156133de576133dd613279565b5b9250929050565b6000806000604084860312156133fe576133fd612f36565b5b600061340c86828701612fec565b935050602084013567ffffffffffffffff81111561342d5761342c612f3b565b5b6134398682870161338f565b92509250509250925092565b6000819050919050565b600061346a61346561346084612f40565b613445565b612f40565b9050919050565b600061347c8261344f565b9050919050565b600061348e82613471565b9050919050565b61349e81613483565b82525050565b60006020820190506134b96000830184613495565b92915050565b600081519050919050565b600082825260208201905092915050565b6000819050602082019050919050565b6134f481612f60565b82525050565b61350381613001565b82525050565b61351281612fcb565b82525050565b613521816130ff565b82525050565b60808201600082015161353d60008501826134eb565b50602082015161355060208501826134fa565b5060408201516135636040850182613509565b5060608201516135766060850182613518565b50505050565b60006135888383613527565b60808301905092915050565b6000602082019050919050565b60006135ac826134bf565b6135b681856134ca565b93506135c1836134db565b8060005b838110156135f25781516135d9888261357c565b97506135e483613594565b9250506001810190506135c5565b5085935050505092915050565b6000602082019050818103600083015261361981846135a1565b905092915050565b7f4d6174636820646f6573206e6f74206578697374000000000000000000000000600082015250565b6000613657601483612eb9565b915061366282613621565b602082019050919050565b600060208201905081810360008301526136868161364a565b9050919050565b7f4d6174636820616c726561647920736574746c65640000000000000000000000600082015250565b60006136c3601583612eb9565b91506136ce8261368d565b602082019050919050565b600060208201905081810360008301526136f2816136b6565b9050919050565b7f4d617463682063616e63656c6c65640000000000000000000000000000000000600082015250565b600061372f600f83612eb9565b915061373a826136f9565b602082019050919050565b6000602082019050818103600083015261375e81613722565b9050919050565b7f42657420616d6f756e74206d757374206265203e203000000000000000000000600082015250565b600061379b601683612eb9565b91506137a682613765565b602082019050919050565b600060208201905081810360008301526137ca8161378e565b9050919050565b7f496e76616c696420626f74204944000000000000000000000000000000000000600082015250565b6000613807600e83612eb9565b9150613812826137d1565b602082019050919050565b60006020820190508181036000830152613836816137fa565b9050919050565b7f4e487b7100000000000000000000000000000000000000000000000000000000600052601160045260246000fd5b600061387782612fcb565b915061388283612fcb565b925082820190508082111561389a5761389961383d565b5b92915050565b7f42657474696e6720636c6f736564000000000000000000000000000000000000600082015250565b60006138d6600e83612eb9565b91506138e1826138a0565b602082019050919050565b60006020820190508181036000830152613905816138c9565b9050919050565b60006040820190506139216000830185613077565b61392e6020830184613077565b9392505050565b600061394082612fcb565b915061394b83612fcb565b92508282039050818111156139635761396261383d565b5b92915050565b600061397482612fcb565b915061397f83612fcb565b925082820261398d81612fcb565b915082820484148315176139a4576139a361383d565b5b5092915050565b7f4e487b7100000000000000000000000000000000000000000000000000000000600052601260045260246000fd5b60006139e582612fcb565b91506139f083612fcb565b925082613a00576139ff6139ab565b5b828204905092915050565b7f4d61746368206e6f742063616e63656c6c656400000000000000000000000000600082015250565b6000613a41601383612eb9565b9150613a4c82613a0b565b602082019050919050565b60006020820190508181036000830152613a7081613a34565b9050919050565b7f4e487b7100000000000000000000000000000000000000000000000000000000600052603260045260246000fd5b6000613ab182612fcb565b91507fffffffffffffffffffffffffffffffffffffffffffffffffffffffffffffffff8203613ae357613ae261383d565b5b600182019050919050565b7f4e6f20726566756e6420617661696c61626c6500000000000000000000000000600082015250565b6000613b24601383612eb9565b9150613b2f82613aee565b602082019050919050565b60006020820190508181036000830152613b5381613b17565b9050919050565b600081905092915050565b50565b6000613b75600083613b5a565b9150613b8082613b65565b600082019050919050565b6000613b9682613b68565b9150819050919050565b7f526566756e64206661696c656400000000000000000000000000000000000000600082015250565b6000613bd6600d83612eb9565b9150613be182613ba0565b602082019050919050565b60006020820190508181036000830152613c0581613bc9565b9050919050565b7f4d61746368206e6f7420736574746c6564000000000000000000000000000000600082015250565b6000613c42601183612eb9565b9150613c4d82613c0c565b602082019050919050565b60006020820190508181036000830152613c7181613c35565b9050919050565b7f4e6f2077696e6e696e677320746f20636c61696d000000000000000000000000600082015250565b6000613cae601483612eb9565b9150613cb982613c78565b602082019050919050565b60006020820190508181036000830152613cdd81613ca1565b9050919050565b7f5472616e73666572206661696c65640000000000000000000000000000000000600082015250565b6000613d1a600f83612eb9565b9150613d2582613ce4565b602082019050919050565b60006020820190508181036000830152613d4981613d0d565b9050919050565b7f4e6f7420617574686f72697a6564206f7261636c650000000000000000000000600082015250565b6000613d86601583612eb9565b9150613d9182613d50565b602082019050919050565b60006020820190508181036000830152613db581613d79565b9050919050565b7f4e65656420312d332077696e6e65727300000000000000000000000000000000600082015250565b6000613df2601083612eb9565b9150613dfd82613dbc565b602082019050919050565b60006020820190508181036000830152613e2181613de5565b9050919050565b7f4d61746368206e6f742073746172746564000000000000000000000000000000600082015250565b6000613e5e601183612eb9565b9150613e6982613e28565b602082019050919050565b60006020820190508181036000830152613e8d81613e51565b9050919050565b600060ff82169050919050565b613eaa81613e94565b82525050565b6000608082019050613ec560008301876130f0565b613ed26020830186613077565b613edf6040830185613077565b613eec6060830184613ea1565b95945050505050565b7f4e487b7100000000000000000000000000000000000000000000000000000000600052604160045260246000fd5b600082825260208201905092915050565b600080fd5b82818337505050565b6000613f4f8385613f24565b93507f07ffffffffffffffffffffffffffffffffffffffffffffffffffffffffffffff831115613f8257613f81613f35565b5b602083029250613f93838584613f3a565b82840190509392505050565b60006080820190508181036000830152613fba818789613f43565b9050613fc96020830186613077565b613fd66040830185613077565b613fe36060830184613077565b9695505050505050565b82818337600083830152505050565b6000601f19601f8301169050919050565b60006140198385612eb9565b9350614026838584613fed565b61402f83613ffc565b840190509392505050565b6000602082019050818103600083015261405581848661400d565b90509392505050565b7f4e6f2062616c616e636500000000000000000000000000000000000000000000600082015250565b6000614094600a83612eb9565b915061409f8261405e565b602082019050919050565b600060208201905081810360008301526140c381614087565b9050919050565b7f5769746864726177206661696c65640000000000000000000000000000000000600082015250565b6000614100600f83612eb9565b915061410b826140ca565b602082019050919050565b6000602082019050818103600083015261412f816140f3565b9050919050565b7f5769746864726177616c206661696c6564000000000000000000000000000000600082015250565b600061416c601183612eb9565b915061417782614136565b602082019050919050565b6000602082019050818103600083015261419b8161415f565b9050919050565b7f4f776e61626c653a206e6577206f776e657220697320746865207a65726f206160008201527f6464726573730000000000000000000000000000000000000000000000000000602082015250565b60006141fe602683612eb9565b9150614209826141a2565b604082019050919050565b6000602082019050818103600083015261422d816141f1565b9050919050565b7f4d6174636820616c726561647920657869737473000000000000000000000000600082015250565b600061426a601483612eb9565b915061427582614234565b602082019050919050565b600060208201905081810360008301526142998161425d565b9050919050565b7f53746172742074696d65206d75737420626520696e2066757475726500000000600082015250565b60006142d6601c83612eb9565b91506142e1826142a0565b602082019050919050565b60006020820190508181036000830152614305816142c9565b9050919050565b7f4f776e61626c653a2063616c6c6572206973206e6f7420746865206f776e6572600082015250565b6000614342602083612eb9565b915061434d8261430c565b602082019050919050565b6000602082019050818103600083015261437181614335565b9050919050565b7f5265656e7472616e637947756172643a207265656e7472616e742063616c6c00600082015250565b60006143ae601f83612eb9565b91506143b982614378565b602082019050919050565b600060208201905081810360008301526143dd816143a1565b9050919050565b7f5061757361626c653a2070617573656400000000000000000000000000000000600082015250565b600061441a601083612eb9565b9150614425826143e4565b602082019050919050565b600060208201905081810360008301526144498161440d565b9050919050565b7f5061757361626c653a206e6f7420706175736564000000000000000000000000600082015250565b6000614486601483612eb9565b915061449182614450565b602082019050919050565b600060208201905081810360008301526144b581614479565b905091905056fea2646970667358221220199e87fbb4c7b33af2c665c8a81c522b7e8f71ef0b22eefc10e5cd910aa8a71064736f6c63430008130033",
  "linkReferences": {},
  "deployedLinkReferences": {},
  "immutableReferences": {},
  "inputSourceName": "project/contracts/SnakeArenaPariMutuel.sol",
  "buildInfoId": "solc-0_8_19-80987926feb82dc42fffd62eefe286d0ae2b467e"
}