{
  "_format": "hh3-artifact-1",
  "contractName": "ReferralRewards",
  "sourceName": "contracts/ReferralRewards.sol",
  "abi": [
    {
      "inputs": [
        {
          "internalType": "address",
          "name": "_signer",
          "type": "address"
        }
      ],
      "stateMutability": "nonpayable",
      "type": "constructor"
    },
    {
      "anonymous": false,
      "inputs": [
        {
          "indexed": true,
          "internalType": "address",
          "name": "user",
          "type": "address"
        },
        {
          "indexed": false,
          "internalType": "uint256",
          "name": "amount",
          "type": "uint256"
        },
        {
          "indexed": false,
          "internalType": "uint256",
          "name": "nonce",
          "type": "uint256"
        },
        {
          "indexed": false,
          "internalType": "uint256",
          "name": "newTotalClaimed",
          "type": "uint256"
        }
      ],
      "name": "Claimed",
      "type": "event"
    },
    {
      "anonymous": false,
      "inputs": [
        {
          "indexed": true,
          "internalType": "address",
          "name": "from",
          "type": "address"
        },
        {
          "indexed": false,
          "internalType": "uint256",
          "name": "amount",
          "type": "uint256"
        }
      ],
      "name": "FundsReceived",
      "type": "event"
    },
    {
      "anonymous": false,
      "inputs": [
        {
          "indexed": true,
          "internalType": "address",
          "name": "to",
          "type": "address"
        },
        {
          "indexed": false,
          "internalType": "uint256",
          "name": "amount",
          "type": "uint256"
        }
      ],
      "name": "FundsWithdrawn",
      "type": "event"
    },
    {
      "anonymous": false,
      "inputs": [
        {
          "indexed": true,
          "internalType": "address",
          "name": "previousOwner",
          "type": "address"
        },
        {
          "indexed": true,
          "internalType": "address",
          "name": "newOwner",
          "type": "address"
        }
      ],
      "name": "OwnershipTransferred",
      "type": "event"
    },
    {
      "anonymous": false,
      "inputs": [
        {
          "indexed": true,
          "internalType": "address",
          "name": "oldSigner",
          "type": "address"
        },
        {
          "indexed": true,
          "internalType": "address",
          "name": "newSigner",
          "type": "address"
        }
      ],
      "name": "SignerUpdated",
      "type": "event"
    },
    {
      "stateMutability": "payable",
      "type": "fallback"
    },
    {
      "inputs": [],
      "name": "CLAIM_TYPEHASH",
      "outputs": [
        {
          "internalType": "bytes32",
          "name": "",
          "type": "bytes32"
        }
      ],
      "stateMutability": "view",
      "type": "function"
    },
    {
      "inputs": [],
      "name": "DOMAIN_SEPARATOR",
      "outputs": [
        {
          "internalType": "bytes32",
          "name": "",
          "type": "bytes32"
        }
      ],
      "stateMutability": "view",
      "type": "function"
    },
    {
      "inputs": [
        {
          "internalType": "uint256",
          "name": "amount",
          "type": "uint256"
        },
        {
          "internalType": "uint256",
          "name": "nonce",
          "type": "uint256"
        },
        {
          "internalType": "bytes",
          "name": "signature",
          "type": "bytes"
        }
      ],
      "name": "claim",
      "outputs": [],
      "stateMutability": "nonpayable",
      "type": "function"
    },
    {
      "inputs": [
        {
          "internalType": "uint256[]",
          "name": "amounts",
          "type": "uint256[]"
        },
        {
          "internalType": "uint256[]",
          "name": "noncesList",
          "type": "uint256[]"
        },
        {
          "internalType": "bytes[]",
          "name": "signatures",
          "type": "bytes[]"
        }
      ],
      "name": "claimBatch",
      "outputs": [],
      "stateMutability": "nonpayable",
      "type": "function"
    },
    {
      "inputs": [
        {
          "internalType": "address",
          "name": "",
          "type": "address"
        }
      ],
      "name": "claimed",
      "outputs": [
        {
          "internalType": "uint256",
          "name": "",
          "type": "uint256"
        }
      ],
      "stateMutability": "view",
      "type": "function"
    },
    {
      "inputs": [
        {
          "internalType": "address",
          "name": "user",
          "type": "address"
        }
      ],
      "name": "getClaimed",
      "outputs": [
        {
          "internalType": "uint256",
          "name": "",
          "type": "uint256"
        }
      ],
      "stateMutability": "view",
      "type": "function"
    },
    {
      "inputs": [
        {
          "internalType": "address",
          "name": "user",
          "type": "address"
        }
      ],
      "name": "getNonce",
      "outputs": [
        {
          "internalType": "uint256",
          "name": "",
          "type": "uint256"
        }
      ],
      "stateMutability": "view",
      "type": "function"
    },
    {
      "inputs": [
        {
          "internalType": "address",
          "name": "",
          "type": "address"
        }
      ],
      "name": "nonces",
      "outputs": [
        {
          "internalType": "uint256",
          "name": "",
          "type": "uint256"
        }
      ],
      "stateMutability": "view",
      "type": "function"
    },
    {
      "inputs": [],
      "name": "owner",
      "outputs": [
        {
          "internalType": "address",
          "name": "",
          "type": "address"
        }
      ],
      "stateMutability": "view",
      "type": "function"
    },
    {
      "inputs": [],
      "name": "renounceOwnership",
      "outputs": [],
      "stateMutability": "nonpayable",
      "type": "function"
    },
    {
      "inputs": [
        {
          "internalType": "address",
          "name": "_newSigner",
          "type": "address"
        }
      ],
      "name": "setSigner",
      "outputs": [],
      "stateMutability": "nonpayable",
      "type": "function"
    },
    {
      "inputs": [],
      "name": "signer",
      "outputs": [
        {
          "internalType": "address",
          "name": "",
          "type": "address"
        }
      ],
      "stateMutability": "view",
      "type": "function"
    },
    {
      "inputs": [],
      "name": "totalDistributed",
      "outputs": [
        {
          "internalType": "uint256",
          "name": "",
          "type": "uint256"
        }
      ],
      "stateMutability": "view",
      "type": "function"
    },
    {
      "inputs": [
        {
          "internalType": "address",
          "name": "newOwner",
          "type": "address"
        }
      ],
      "name": "transferOwnership",
      "outputs": [],
      "stateMutability": "nonpayable",
      "type": "function"
    },
    {
      "inputs": [
        {
          "internalType": "address payable",
          "name": "to",
          "type": "address"
        },
        {
          "internalType": "uint256",
          "name": "amount",
          "type": "uint256"
        }
      ],
      "name": "withdraw",
      "outputs": [],
      "stateMutability": "nonpayable",
      "type": "function"
    },
    {
      "stateMutability": "payable",
      "type": "receive"
    }
  ],
  "bytecode": "0x60a06040523480156200001157600080fd5b50604051620028ce380380620028ce833981810160405281019062000037919062000317565b620000576200004b620001e160201b60201c565b620001e960201b60201c565b600073ffffffffffffffffffffffffffffffffffffffff168173ffffffffffffffffffffffffffffffffffffffff1603620000c9576040517f08c379a0000000000000000000000000000000000000000000000000000000008152600401620000c090620003aa565b60405180910390fd5b80600160006101000a81548173ffffffffffffffffffffffffffffffffffffffff021916908373ffffffffffffffffffffffffffffffffffffffff1602179055507f8b73c3c69bb8fe3d512ecc4cf759cc79239f7b179b0ffacaa9a75d522b39400f6040518060400160405280600d81526020017f536e616b65526566657272616c00000000000000000000000000000000000000815250805190602001206040518060400160405280600181526020017f3100000000000000000000000000000000000000000000000000000000000000815250805190602001204630604051602001620001bd95949392919062000413565b60405160208183030381529060405280519060200120608081815250505062000470565b600033905090565b60008060009054906101000a900473ffffffffffffffffffffffffffffffffffffffff169050816000806101000a81548173ffffffffffffffffffffffffffffffffffffffff021916908373ffffffffffffffffffffffffffffffffffffffff1602179055508173ffffffffffffffffffffffffffffffffffffffff168173ffffffffffffffffffffffffffffffffffffffff167f8be0079c531659141344cd1fd0a4f28419497f9722a3daafe3b4186f6b6457e060405160405180910390a35050565b600080fd5b600073ffffffffffffffffffffffffffffffffffffffff82169050919050565b6000620002df82620002b2565b9050919050565b620002f181620002d2565b8114620002fd57600080fd5b50565b6000815190506200031181620002e6565b92915050565b60006020828403121562000330576200032f620002ad565b5b6000620003408482850162000300565b91505092915050565b600082825260208201905092915050565b7f496e76616c6964207369676e6572000000000000000000000000000000000000600082015250565b600062000392600e8362000349565b91506200039f826200035a565b602082019050919050565b60006020820190508181036000830152620003c58162000383565b9050919050565b6000819050919050565b620003e181620003cc565b82525050565b6000819050919050565b620003fc81620003e7565b82525050565b6200040d81620002d2565b82525050565b600060a0820190506200042a6000830188620003d6565b620004396020830187620003d6565b620004486040830186620003d6565b620004576060830185620003f1565b62000466608083018462000402565b9695505050505050565b60805161243b62000493600039600081816104b101526110e8015261243b6000f3fe6080604052600436106100ec5760003560e01c806374b426bb1161008a578063eb46260e11610059578063eb46260e14610386578063efca2eed146103c3578063f2fde38b146103ee578063f3fef3a31461041757610141565b806374b426bb146102b85780637ecebe00146102e15780638da5cb5b1461031e578063c884ef831461034957610141565b80635eddd157116100c65780635eddd157146102245780636b0509b11461024d5780636c19e78314610278578063715018a6146102a157610141565b8063238ac933146101915780632d0335ab146101bc5780633644e515146101f957610141565b36610141573373ffffffffffffffffffffffffffffffffffffffff167f8e47b87b0ef542cdfa1659c551d88bad38aa7f452d2bbb349ab7530dfec8be8f346040516101379190611608565b60405180910390a2005b3373ffffffffffffffffffffffffffffffffffffffff167f8e47b87b0ef542cdfa1659c551d88bad38aa7f452d2bbb349ab7530dfec8be8f346040516101879190611608565b60405180910390a2005b34801561019d57600080fd5b506101a6610440565b6040516101b39190611664565b60405180910390f35b3480156101c857600080fd5b506101e360048036038101906101de91906116b5565b610466565b6040516101f09190611608565b60405180910390f35b34801561020557600080fd5b5061020e6104af565b60405161021b91906116fb565b60405180910390f35b34801561023057600080fd5b5061024b600480360381019061024691906117a7565b6104d3565b005b34801561025957600080fd5b5061026261082e565b60405161026f91906116fb565b60405180910390f35b34801561028457600080fd5b5061029f600480360381019061029a91906116b5565b610852565b005b3480156102ad57600080fd5b506102b661098f565b005b3480156102c457600080fd5b506102df60048036038101906102da91906118c7565b6109a3565b005b3480156102ed57600080fd5b50610308600480360381019061030391906116b5565b610e1b565b6040516103159190611608565b60405180910390f35b34801561032a57600080fd5b50610333610e33565b6040516103409190611664565b60405180910390f35b34801561035557600080fd5b50610370600480360381019061036b91906116b5565b610e5c565b60405161037d9190611608565b60405180910390f35b34801561039257600080fd5b506103ad60048036038101906103a891906116b5565b610e74565b6040516103ba9190611608565b60405180910390f35b3480156103cf57600080fd5b506103d8610ebd565b6040516103e59190611608565b60405180910390f35b3480156103fa57600080fd5b50610415600480360381019061041091906116b5565b610ec3565b005b34801561042357600080fd5b5061043e600480360381019061043991906119b9565b610f46565b005b600160009054906101000a900473ffffffffffffffffffffffffffffffffffffffff1681565b6000600260008373ffffffffffffffffffffffffffffffffffffffff1673ffffffffffffffffffffffffffffffffffffffff168152602001908152602001600020549050919050565b7f000000000000000000000000000000000000000000000000000000000000000081565b600260003373ffffffffffffffffffffffffffffffffffffffff1673ffffffffffffffffffffffffffffffffffffffff168152602001908152602001600020548314610554576040517f08c379a000000000000000000000000000000000000000000000000000000000815260040161054b90611a56565b60405180910390fd5b60008411610597576040517f08c379a000000000000000000000000000000000000000000000000000000000815260040161058e90611ac2565b60405180910390fd5b834710156105da576040517f08c379a00000000000000000000000000000000000000000000000000000000081526004016105d190611b2e565b60405180910390fd5b6105e73385858585611090565b610626576040517f08c379a000000000000000000000000000000000000000000000000000000000815260040161061d90611b9a565b60405180910390fd5b600260003373ffffffffffffffffffffffffffffffffffffffff1673ffffffffffffffffffffffffffffffffffffffff168152602001908152602001600020600081548092919061067690611be9565b919050555083600360003373ffffffffffffffffffffffffffffffffffffffff1673ffffffffffffffffffffffffffffffffffffffff16815260200190815260200160002060008282546106ca9190611c31565b9250508190555083600460008282546106e39190611c31565b9250508190555060003373ffffffffffffffffffffffffffffffffffffffff168560405161071090611c96565b60006040518083038185875af1925050503d806000811461074d576040519150601f19603f3d011682016040523d82523d6000602084013e610752565b606091505b5050905080610796576040517f08c379a000000000000000000000000000000000000000000000000000000000815260040161078d90611cf7565b60405180910390fd5b3373ffffffffffffffffffffffffffffffffffffffff167f9cdcf2f7714cca3508c7f0110b04a90a80a3a8dd0e35de99689db74d28c5383e8686600360003373ffffffffffffffffffffffffffffffffffffffff1673ffffffffffffffffffffffffffffffffffffffff1681526020019081526020016000205460405161081f93929190611d17565b60405180910390a25050505050565b7ff01e4b5ef500dede42d1a18d8e44fd0ca19a8b3ec5cc1cce152fd337bf23029f81565b61085a6111e5565b600073ffffffffffffffffffffffffffffffffffffffff168173ffffffffffffffffffffffffffffffffffffffff16036108c9576040517f08c379a00000000000000000000000000000000000000000000000000000000081526004016108c090611d9a565b60405180910390fd5b6000600160009054906101000a900473ffffffffffffffffffffffffffffffffffffffff16905081600160006101000a81548173ffffffffffffffffffffffffffffffffffffffff021916908373ffffffffffffffffffffffffffffffffffffffff1602179055508173ffffffffffffffffffffffffffffffffffffffff168173ffffffffffffffffffffffffffffffffffffffff167f2d025324f0a785e8c12d0a0d91a9caa49df4ef20ff87e0df7213a1d4f3157beb60405160405180910390a35050565b6109976111e5565b6109a16000611263565b565b8181905086869050146109eb576040517f08c379a00000000000000000000000000000000000000000000000000000000081526004016109e290611e06565b60405180910390fd5b838390508686905014610a33576040517f08c379a0000000000000000000000000000000000000000000000000000000008152600401610a2a90611e06565b60405180910390fd5b600080600260003373ffffffffffffffffffffffffffffffffffffffff1673ffffffffffffffffffffffffffffffffffffffff16815260200190815260200160002054905060005b88889050811015610bc7578082610a929190611c31565b878783818110610aa557610aa4611e26565b5b9050602002013514610aec576040517f08c379a0000000000000000000000000000000000000000000000000000000008152600401610ae390611ea1565b60405180910390fd5b610b4e338a8a84818110610b0357610b02611e26565b5b90506020020135898985818110610b1d57610b1c611e26565b5b90506020020135888886818110610b3757610b36611e26565b5b9050602002810190610b499190611ed0565b611090565b610b8d576040517f08c379a0000000000000000000000000000000000000000000000000000000008152600401610b8490611b9a565b60405180910390fd5b888882818110610ba057610b9f611e26565b5b9050602002013583610bb29190611c31565b92508080610bbf90611be9565b915050610a7b565b5081471015610c0b576040517f08c379a0000000000000000000000000000000000000000000000000000000008152600401610c0290611f7f565b60405180910390fd5b87879050600260003373ffffffffffffffffffffffffffffffffffffffff1673ffffffffffffffffffffffffffffffffffffffff1681526020019081526020016000206000828254610c5d9190611c31565b9250508190555081600360003373ffffffffffffffffffffffffffffffffffffffff1673ffffffffffffffffffffffffffffffffffffffff1681526020019081526020016000206000828254610cb39190611c31565b925050819055508160046000828254610ccc9190611c31565b9250508190555060003373ffffffffffffffffffffffffffffffffffffffff1683604051610cf990611c96565b60006040518083038185875af1925050503d8060008114610d36576040519150601f19603f3d011682016040523d82523d6000602084013e610d3b565b606091505b5050905080610d7f576040517f08c379a0000000000000000000000000000000000000000000000000000000008152600401610d7690611cf7565b60405180910390fd5b3373ffffffffffffffffffffffffffffffffffffffff167f9cdcf2f7714cca3508c7f0110b04a90a80a3a8dd0e35de99689db74d28c5383e8484600360003373ffffffffffffffffffffffffffffffffffffffff1673ffffffffffffffffffffffffffffffffffffffff16815260200190815260200160002054604051610e0893929190611d17565b60405180910390a2505050505050505050565b60026020528060005260406000206000915090505481565b60008060009054906101000a900473ffffffffffffffffffffffffffffffffffffffff16905090565b60036020528060005260406000206000915090505481565b6000600360008373ffffffffffffffffffffffffffffffffffffffff1673ffffffffffffffffffffffffffffffffffffffff168152602001908152602001600020549050919050565b60045481565b610ecb6111e5565b600073ffffffffffffffffffffffffffffffffffffffff168173ffffffffffffffffffffffffffffffffffffffff1603610f3a576040517f08c379a0000000000000000000000000000000000000000000000000000000008152600401610f3190612011565b60405180910390fd5b610f4381611263565b50565b610f4e6111e5565b47811115610f91576040517f08c379a0000000000000000000000000000000000000000000000000000000008152600401610f8890611f7f565b60405180910390fd5b60008273ffffffffffffffffffffffffffffffffffffffff1682604051610fb790611c96565b60006040518083038185875af1925050503d8060008114610ff4576040519150601f19603f3d011682016040523d82523d6000602084013e610ff9565b606091505b505090508061103d576040517f08c379a00000000000000000000000000000000000000000000000000000000081526004016110349061207d565b60405180910390fd5b8273ffffffffffffffffffffffffffffffffffffffff167feaff4b37086828766ad3268786972c0cd24259d4c87a80f9d3963a3c3d999b0d836040516110839190611608565b60405180910390a2505050565b6000807ff01e4b5ef500dede42d1a18d8e44fd0ca19a8b3ec5cc1cce152fd337bf23029f878787466040516020016110cc95949392919061209d565b60405160208183030381529060405280519060200120905060007f000000000000000000000000000000000000000000000000000000000000000082604051602001611119929190612168565b604051602081830303815290604052805190602001209050600160009054906101000a900473ffffffffffffffffffffffffffffffffffffffff1673ffffffffffffffffffffffffffffffffffffffff166111c186868080601f016020809104026020016040519081016040528093929190818152602001838380828437600081840152601f19601f820116905080830192505050505050508361132790919063ffffffff16565b73ffffffffffffffffffffffffffffffffffffffff16149250505095945050505050565b6111ed61134e565b73ffffffffffffffffffffffffffffffffffffffff1661120b610e33565b73ffffffffffffffffffffffffffffffffffffffff1614611261576040517f08c379a0000000000000000000000000000000000000000000000000000000008152600401611258906121eb565b60405180910390fd5b565b60008060009054906101000a900473ffffffffffffffffffffffffffffffffffffffff169050816000806101000a81548173ffffffffffffffffffffffffffffffffffffffff021916908373ffffffffffffffffffffffffffffffffffffffff1602179055508173ffffffffffffffffffffffffffffffffffffffff168173ffffffffffffffffffffffffffffffffffffffff167f8be0079c531659141344cd1fd0a4f28419497f9722a3daafe3b4186f6b6457e060405160405180910390a35050565b60008060006113368585611356565b91509150611343816113a7565b819250505092915050565b600033905090565b60008060418351036113975760008060006020860151925060408601519150606086015160001a905061138b8782858561150d565b945094505050506113a0565b60006002915091505b9250929050565b600060048111156113bb576113ba61220b565b5b8160048111156113ce576113cd61220b565b5b031561150a57600160048111156113e8576113e761220b565b5b8160048111156113fb576113fa61220b565b5b0361143b576040517f08c379a000000000000000000000000000000000000000000000000000000000815260040161143290612286565b60405180910390fd5b6002600481111561144f5761144e61220b565b5b8160048111156114625761146161220b565b5b036114a2576040517f08c379a0000000000000000000000000000000000000000000000000000000008152600401611499906122f2565b60405180910390fd5b600360048111156114b6576114b561220b565b5b8160048111156114c9576114c861220b565b5b03611509576040517f08c379a000000000000000000000000000000000000000000000000000000000815260040161150090612384565b60405180910390fd5b5b50565b6000807f7fffffffffffffffffffffffffffffff5d576e7357a4501ddfe92f46681b20a08360001c11156115485760006003915091506115e6565b60006001878787876040516000815260200160405260405161156d94939291906123c0565b6020604051602081039080840390855afa15801561158f573d6000803e3d6000fd5b505050602060405103519050600073ffffffffffffffffffffffffffffffffffffffff168173ffffffffffffffffffffffffffffffffffffffff16036115dd576000600192509250506115e6565b80600092509250505b94509492505050565b6000819050919050565b611602816115ef565b82525050565b600060208201905061161d60008301846115f9565b92915050565b600073ffffffffffffffffffffffffffffffffffffffff82169050919050565b600061164e82611623565b9050919050565b61165e81611643565b82525050565b60006020820190506116796000830184611655565b92915050565b600080fd5b600080fd5b61169281611643565b811461169d57600080fd5b50565b6000813590506116af81611689565b92915050565b6000602082840312156116cb576116ca61167f565b5b60006116d9848285016116a0565b91505092915050565b6000819050919050565b6116f5816116e2565b82525050565b600060208201905061171060008301846116ec565b92915050565b61171f816115ef565b811461172a57600080fd5b50565b60008135905061173c81611716565b92915050565b600080fd5b600080fd5b600080fd5b60008083601f84011261176757611766611742565b5b8235905067ffffffffffffffff81111561178457611783611747565b5b6020830191508360018202830111156117a05761179f61174c565b5b9250929050565b600080600080606085870312156117c1576117c061167f565b5b60006117cf8782880161172d565b94505060206117e08782880161172d565b935050604085013567ffffffffffffffff81111561180157611800611684565b5b61180d87828801611751565b925092505092959194509250565b60008083601f84011261183157611830611742565b5b8235905067ffffffffffffffff81111561184e5761184d611747565b5b60208301915083602082028301111561186a5761186961174c565b5b9250929050565b60008083601f84011261188757611886611742565b5b8235905067ffffffffffffffff8111156118a4576118a3611747565b5b6020830191508360208202830111156118c0576118bf61174c565b5b9250929050565b600080600080600080606087890312156118e4576118e361167f565b5b600087013567ffffffffffffffff81111561190257611901611684565b5b61190e89828a0161181b565b9650965050602087013567ffffffffffffffff81111561193157611930611684565b5b61193d89828a0161181b565b9450945050604087013567ffffffffffffffff8111156119605761195f611684565b5b61196c89828a01611871565b92509250509295509295509295565b600061198682611623565b9050919050565b6119968161197b565b81146119a157600080fd5b50565b6000813590506119b38161198d565b92915050565b600080604083850312156119d0576119cf61167f565b5b60006119de858286016119a4565b92505060206119ef8582860161172d565b9150509250929050565b600082825260208201905092915050565b7f496e76616c6964206e6f6e636500000000000000000000000000000000000000600082015250565b6000611a40600d836119f9565b9150611a4b82611a0a565b602082019050919050565b60006020820190508181036000830152611a6f81611a33565b9050919050565b7f496e76616c696420616d6f756e74000000000000000000000000000000000000600082015250565b6000611aac600e836119f9565b9150611ab782611a76565b602082019050919050565b60006020820190508181036000830152611adb81611a9f565b9050919050565b7f496e73756666696369656e7420636f6e74726163742062616c616e6365000000600082015250565b6000611b18601d836119f9565b9150611b2382611ae2565b602082019050919050565b60006020820190508181036000830152611b4781611b0b565b9050919050565b7f496e76616c6964207369676e6174757265000000000000000000000000000000600082015250565b6000611b846011836119f9565b9150611b8f82611b4e565b602082019050919050565b60006020820190508181036000830152611bb381611b77565b9050919050565b7f4e487b7100000000000000000000000000000000000000000000000000000000600052601160045260246000fd5b6000611bf4826115ef565b91507fffffffffffffffffffffffffffffffffffffffffffffffffffffffffffffffff8203611c2657611c25611bba565b5b600182019050919050565b6000611c3c826115ef565b9150611c47836115ef565b9250828201905080821115611c5f57611c5e611bba565b5b92915050565b600081905092915050565b50565b6000611c80600083611c65565b9150611c8b82611c70565b600082019050919050565b6000611ca182611c73565b9150819050919050565b7f455448207472616e73666572206661696c656400000000000000000000000000600082015250565b6000611ce16013836119f9565b9150611cec82611cab565b602082019050919050565b60006020820190508181036000830152611d1081611cd4565b9050919050565b6000606082019050611d2c60008301866115f9565b611d3960208301856115f9565b611d4660408301846115f9565b949350505050565b7f496e76616c6964207369676e6572000000000000000000000000000000000000600082015250565b6000611d84600e836119f9565b9150611d8f82611d4e565b602082019050919050565b60006020820190508181036000830152611db381611d77565b9050919050565b7f4c656e677468206d69736d617463680000000000000000000000000000000000600082015250565b6000611df0600f836119f9565b9150611dfb82611dba565b602082019050919050565b60006020820190508181036000830152611e1f81611de3565b9050919050565b7f4e487b7100000000000000000000000000000000000000000000000000000000600052603260045260246000fd5b7f496e76616c6964206e6f6e63652073657175656e636500000000000000000000600082015250565b6000611e8b6016836119f9565b9150611e9682611e55565b602082019050919050565b60006020820190508181036000830152611eba81611e7e565b9050919050565b600080fd5b600080fd5b600080fd5b60008083356001602003843603038112611eed57611eec611ec1565b5b80840192508235915067ffffffffffffffff821115611f0f57611f0e611ec6565b5b602083019250600182023603831315611f2b57611f2a611ecb565b5b509250929050565b7f496e73756666696369656e742062616c616e6365000000000000000000000000600082015250565b6000611f696014836119f9565b9150611f7482611f33565b602082019050919050565b60006020820190508181036000830152611f9881611f5c565b9050919050565b7f4f776e61626c653a206e6577206f776e657220697320746865207a65726f206160008201527f6464726573730000000000000000000000000000000000000000000000000000602082015250565b6000611ffb6026836119f9565b915061200682611f9f565b604082019050919050565b6000602082019050818103600083015261202a81611fee565b9050919050565b7f5472616e73666572206661696c65640000000000000000000000000000000000600082015250565b6000612067600f836119f9565b915061207282612031565b602082019050919050565b600060208201905081810360008301526120968161205a565b9050919050565b600060a0820190506120b260008301886116ec565b6120bf6020830187611655565b6120cc60408301866115f9565b6120d960608301856115f9565b6120e660808301846115f9565b9695505050505050565b600081905092915050565b7f1901000000000000000000000000000000000000000000000000000000000000600082015250565b60006121316002836120f0565b915061213c826120fb565b600282019050919050565b6000819050919050565b61216261215d826116e2565b612147565b82525050565b600061217382612124565b915061217f8285612151565b60208201915061218f8284612151565b6020820191508190509392505050565b7f4f776e61626c653a2063616c6c6572206973206e6f7420746865206f776e6572600082015250565b60006121d56020836119f9565b91506121e08261219f565b602082019050919050565b60006020820190508181036000830152612204816121c8565b9050919050565b7f4e487b7100000000000000000000000000000000000000000000000000000000600052602160045260246000fd5b7f45434453413a20696e76616c6964207369676e61747572650000000000000000600082015250565b60006122706018836119f9565b915061227b8261223a565b602082019050919050565b6000602082019050818103600083015261229f81612263565b9050919050565b7f45434453413a20696e76616c6964207369676e6174757265206c656e67746800600082015250565b60006122dc601f836119f9565b91506122e7826122a6565b602082019050919050565b6000602082019050818103600083015261230b816122cf565b9050919050565b7f45434453413a20696e76616c6964207369676e6174757265202773272076616c60008201527f7565000000000000000000000000000000000000000000000000000000000000602082015250565b600061236e6022836119f9565b915061237982612312565b604082019050919050565b6000602082019050818103600083015261239d81612361565b9050919050565b600060ff82169050919050565b6123ba816123a4565b82525050565b60006080820190506123d560008301876116ec565b6123e260208301866123b1565b6123ef60408301856116ec565b6123fc60608301846116ec565b9594505050505056fea26469706673582212201e9e9be20a2828b2bc3fb5e633d520302a04b194537ecdb76d670139305bdc0364736f6c63430008130033",
  "linkReferences": {},
  "deployedLinkReferences": {},
  "immutableReferences": {
    "2955": [
      {
        "length": 32,
        "start": 1201
      },
      {
        "length": 32,
        "start": 4328
      }
    ]
  },
  "inputSourceName": "project/contracts/ReferralRewards.sol",
  "buildInfoId": "solc-0_8_19-80987926feb82dc42fffd62eefe286d0ae2b467e"
}