{
  "_format": "hh-sol-artifact-1",
  "contractName": "ReferralRewards",
  "sourceName": "contracts/ReferralRewards.sol",
  "abi": [
    {
      "inputs": [
        {
          "internalType": "address",
          "name": "_signer",
          "type": "address"
        }
      ],
      "stateMutability": "nonpayable",
      "type": "constructor"
    },
    {
      "inputs": [],
      "name": "ECDSAInvalidSignature",
      "type": "error"
    },
    {
      "inputs": [
        {
          "internalType": "uint256",
          "name": "length",
          "type": "uint256"
        }
      ],
      "name": "ECDSAInvalidSignatureLength",
      "type": "error"
    },
    {
      "inputs": [
        {
          "internalType": "bytes32",
          "name": "s",
          "type": "bytes32"
        }
      ],
      "name": "ECDSAInvalidSignatureS",
      "type": "error"
    },
    {
      "inputs": [
        {
          "internalType": "address",
          "name": "owner",
          "type": "address"
        }
      ],
      "name": "OwnableInvalidOwner",
      "type": "error"
    },
    {
      "inputs": [
        {
          "internalType": "address",
          "name": "account",
          "type": "address"
        }
      ],
      "name": "OwnableUnauthorizedAccount",
      "type": "error"
    },
    {
      "anonymous": false,
      "inputs": [
        {
          "indexed": true,
          "internalType": "address",
          "name": "user",
          "type": "address"
        },
        {
          "indexed": false,
          "internalType": "uint256",
          "name": "amount",
          "type": "uint256"
        },
        {
          "indexed": false,
          "internalType": "uint256",
          "name": "nonce",
          "type": "uint256"
        },
        {
          "indexed": false,
          "internalType": "uint256",
          "name": "newTotalClaimed",
          "type": "uint256"
        }
      ],
      "name": "Claimed",
      "type": "event"
    },
    {
      "anonymous": false,
      "inputs": [
        {
          "indexed": true,
          "internalType": "address",
          "name": "from",
          "type": "address"
        },
        {
          "indexed": false,
          "internalType": "uint256",
          "name": "amount",
          "type": "uint256"
        }
      ],
      "name": "FundsReceived",
      "type": "event"
    },
    {
      "anonymous": false,
      "inputs": [
        {
          "indexed": true,
          "internalType": "address",
          "name": "to",
          "type": "address"
        },
        {
          "indexed": false,
          "internalType": "uint256",
          "name": "amount",
          "type": "uint256"
        }
      ],
      "name": "FundsWithdrawn",
      "type": "event"
    },
    {
      "anonymous": false,
      "inputs": [
        {
          "indexed": true,
          "internalType": "address",
          "name": "previousOwner",
          "type": "address"
        },
        {
          "indexed": true,
          "internalType": "address",
          "name": "newOwner",
          "type": "address"
        }
      ],
      "name": "OwnershipTransferred",
      "type": "event"
    },
    {
      "anonymous": false,
      "inputs": [
        {
          "indexed": true,
          "internalType": "address",
          "name": "oldSigner",
          "type": "address"
        },
        {
          "indexed": true,
          "internalType": "address",
          "name": "newSigner",
          "type": "address"
        }
      ],
      "name": "SignerUpdated",
      "type": "event"
    },
    {
      "stateMutability": "payable",
      "type": "fallback"
    },
    {
      "inputs": [],
      "name": "CLAIM_TYPEHASH",
      "outputs": [
        {
          "internalType": "bytes32",
          "name": "",
          "type": "bytes32"
        }
      ],
      "stateMutability": "view",
      "type": "function"
    },
    {
      "inputs": [],
      "name": "DOMAIN_SEPARATOR",
      "outputs": [
        {
          "internalType": "bytes32",
          "name": "",
          "type": "bytes32"
        }
      ],
      "stateMutability": "view",
      "type": "function"
    },
    {
      "inputs": [
        {
          "internalType": "uint256",
          "name": "amount",
          "type": "uint256"
        },
        {
          "internalType": "uint256",
          "name": "nonce",
          "type": "uint256"
        },
        {
          "internalType": "bytes",
          "name": "signature",
          "type": "bytes"
        }
      ],
      "name": "claim",
      "outputs": [],
      "stateMutability": "nonpayable",
      "type": "function"
    },
    {
      "inputs": [
        {
          "internalType": "uint256[]",
          "name": "amounts",
          "type": "uint256[]"
        },
        {
          "internalType": "uint256[]",
          "name": "noncesList",
          "type": "uint256[]"
        },
        {
          "internalType": "bytes[]",
          "name": "signatures",
          "type": "bytes[]"
        }
      ],
      "name": "claimBatch",
      "outputs": [],
      "stateMutability": "nonpayable",
      "type": "function"
    },
    {
      "inputs": [
        {
          "internalType": "address",
          "name": "",
          "type": "address"
        }
      ],
      "name": "claimed",
      "outputs": [
        {
          "internalType": "uint256",
          "name": "",
          "type": "uint256"
        }
      ],
      "stateMutability": "view",
      "type": "function"
    },
    {
      "inputs": [
        {
          "internalType": "address",
          "name": "user",
          "type": "address"
        }
      ],
      "name": "getClaimed",
      "outputs": [
        {
          "internalType": "uint256",
          "name": "",
          "type": "uint256"
        }
      ],
      "stateMutability": "view",
      "type": "function"
    },
    {
      "inputs": [
        {
          "internalType": "address",
          "name": "user",
          "type": "address"
        }
      ],
      "name": "getNonce",
      "outputs": [
        {
          "internalType": "uint256",
          "name": "",
          "type": "uint256"
        }
      ],
      "stateMutability": "view",
      "type": "function"
    },
    {
      "inputs": [
        {
          "internalType": "address",
          "name": "",
          "type": "address"
        }
      ],
      "name": "nonces",
      "outputs": [
        {
          "internalType": "uint256",
          "name": "",
          "type": "uint256"
        }
      ],
      "stateMutability": "view",
      "type": "function"
    },
    {
      "inputs": [],
      "name": "owner",
      "outputs": [
        {
          "internalType": "address",
          "name": "",
          "type": "address"
        }
      ],
      "stateMutability": "view",
      "type": "function"
    },
    {
      "inputs": [],
      "name": "renounceOwnership",
      "outputs": [],
      "stateMutability": "nonpayable",
      "type": "function"
    },
    {
      "inputs": [
        {
          "internalType": "address",
          "name": "_newSigner",
          "type": "address"
        }
      ],
      "name": "setSigner",
      "outputs": [],
      "stateMutability": "nonpayable",
      "type": "function"
    },
    {
      "inputs": [],
      "name": "signer",
      "outputs": [
        {
          "internalType": "address",
          "name": "",
          "type": "address"
        }
      ],
      "stateMutability": "view",
      "type": "function"
    },
    {
      "inputs": [],
      "name": "totalDistributed",
      "outputs": [
        {
          "internalType": "uint256",
          "name": "",
          "type": "uint256"
        }
      ],
      "stateMutability": "view",
      "type": "function"
    },
    {
      "inputs": [
        {
          "internalType": "address",
          "name": "newOwner",
          "type": "address"
        }
      ],
      "name": "transferOwnership",
      "outputs": [],
      "stateMutability": "nonpayable",
      "type": "function"
    },
    {
      "inputs": [
        {
          "internalType": "address payable",
          "name": "to",
          "type": "address"
        },
        {
          "internalType": "uint256",
          "name": "amount",
          "type": "uint256"
        }
      ],
      "name": "withdraw",
      "outputs": [],
      "stateMutability": "nonpayable",
      "type": "function"
    },
    {
      "stateMutability": "payable",
      "type": "receive"
    }
  ],
  "bytecode": "0x60a06040523480156200001157600080fd5b506040516200270938038062002709833981810160405281019062000037919062000377565b33600073ffffffffffffffffffffffffffffffffffffffff168173ffffffffffffffffffffffffffffffffffffffff1603620000ad5760006040517f1e4fbdf7000000000000000000000000000000000000000000000000000000008152600401620000a49190620003ba565b60405180910390fd5b620000be816200024960201b60201c565b50600073ffffffffffffffffffffffffffffffffffffffff168173ffffffffffffffffffffffffffffffffffffffff160362000131576040517f08c379a0000000000000000000000000000000000000000000000000000000008152600401620001289062000438565b60405180910390fd5b80600160006101000a81548173ffffffffffffffffffffffffffffffffffffffff021916908373ffffffffffffffffffffffffffffffffffffffff1602179055507f8b73c3c69bb8fe3d512ecc4cf759cc79239f7b179b0ffacaa9a75d522b39400f6040518060400160405280600d81526020017f536e616b65526566657272616c00000000000000000000000000000000000000815250805190602001206040518060400160405280600181526020017f31000000000000000000000000000000000000000000000000000000000000008152508051906020012046306040516020016200022595949392919062000490565b604051602081830303815290604052805190602001206080818152505050620004ed565b60008060009054906101000a900473ffffffffffffffffffffffffffffffffffffffff169050816000806101000a81548173ffffffffffffffffffffffffffffffffffffffff021916908373ffffffffffffffffffffffffffffffffffffffff1602179055508173ffffffffffffffffffffffffffffffffffffffff168173ffffffffffffffffffffffffffffffffffffffff167f8be0079c531659141344cd1fd0a4f28419497f9722a3daafe3b4186f6b6457e060405160405180910390a35050565b600080fd5b600073ffffffffffffffffffffffffffffffffffffffff82169050919050565b60006200033f8262000312565b9050919050565b620003518162000332565b81146200035d57600080fd5b50565b600081519050620003718162000346565b92915050565b60006020828403121562000390576200038f6200030d565b5b6000620003a08482850162000360565b91505092915050565b620003b48162000332565b82525050565b6000602082019050620003d16000830184620003a9565b92915050565b600082825260208201905092915050565b7f496e76616c6964207369676e6572000000000000000000000000000000000000600082015250565b600062000420600e83620003d7565b91506200042d82620003e8565b602082019050919050565b60006020820190508181036000830152620004538162000411565b9050919050565b6000819050919050565b6200046f816200045a565b82525050565b6000819050919050565b6200048a8162000475565b82525050565b600060a082019050620004a7600083018862000464565b620004b6602083018762000464565b620004c5604083018662000464565b620004d460608301856200047f565b620004e36080830184620003a9565b9695505050505050565b6080516121f962000510600039600081816104b101526110e501526121f96000f3fe6080604052600436106100ec5760003560e01c806374b426bb1161008a578063eb46260e11610059578063eb46260e14610386578063efca2eed146103c3578063f2fde38b146103ee578063f3fef3a31461041757610141565b806374b426bb146102b85780637ecebe00146102e15780638da5cb5b1461031e578063c884ef831461034957610141565b80635eddd157116100c65780635eddd157146102245780636b0509b11461024d5780636c19e78314610278578063715018a6146102a157610141565b8063238ac933146101915780632d0335ab146101bc5780633644e515146101f957610141565b36610141573373ffffffffffffffffffffffffffffffffffffffff167f8e47b87b0ef542cdfa1659c551d88bad38aa7f452d2bbb349ab7530dfec8be8f34604051610137919061162e565b60405180910390a2005b3373ffffffffffffffffffffffffffffffffffffffff167f8e47b87b0ef542cdfa1659c551d88bad38aa7f452d2bbb349ab7530dfec8be8f34604051610187919061162e565b60405180910390a2005b34801561019d57600080fd5b506101a6610440565b6040516101b3919061168a565b60405180910390f35b3480156101c857600080fd5b506101e360048036038101906101de91906116db565b610466565b6040516101f0919061162e565b60405180910390f35b34801561020557600080fd5b5061020e6104af565b60405161021b9190611721565b60405180910390f35b34801561023057600080fd5b5061024b600480360381019061024691906117cd565b6104d3565b005b34801561025957600080fd5b5061026261082e565b60405161026f9190611721565b60405180910390f35b34801561028457600080fd5b5061029f600480360381019061029a91906116db565b610852565b005b3480156102ad57600080fd5b506102b661098f565b005b3480156102c457600080fd5b506102df60048036038101906102da91906118ed565b6109a3565b005b3480156102ed57600080fd5b50610308600480360381019061030391906116db565b610e15565b604051610315919061162e565b60405180910390f35b34801561032a57600080fd5b50610333610e2d565b604051610340919061168a565b60405180910390f35b34801561035557600080fd5b50610370600480360381019061036b91906116db565b610e56565b60405161037d919061162e565b60405180910390f35b34801561039257600080fd5b506103ad60048036038101906103a891906116db565b610e6e565b6040516103ba919061162e565b60405180910390f35b3480156103cf57600080fd5b506103d8610eb7565b6040516103e5919061162e565b60405180910390f35b3480156103fa57600080fd5b50610415600480360381019061041091906116db565b610ebd565b005b34801561042357600080fd5b5061043e600480360381019061043991906119df565b610f43565b005b600160009054906101000a900473ffffffffffffffffffffffffffffffffffffffff1681565b6000600260008373ffffffffffffffffffffffffffffffffffffffff1673ffffffffffffffffffffffffffffffffffffffff168152602001908152602001600020549050919050565b7f000000000000000000000000000000000000000000000000000000000000000081565b600260003373ffffffffffffffffffffffffffffffffffffffff1673ffffffffffffffffffffffffffffffffffffffff168152602001908152602001600020548314610554576040517f08c379a000000000000000000000000000000000000000000000000000000000815260040161054b90611a7c565b60405180910390fd5b60008411610597576040517f08c379a000000000000000000000000000000000000000000000000000000000815260040161058e90611ae8565b60405180910390fd5b834710156105da576040517f08c379a00000000000000000000000000000000000000000000000000000000081526004016105d190611b54565b60405180910390fd5b6105e7338585858561108d565b610626576040517f08c379a000000000000000000000000000000000000000000000000000000000815260040161061d90611bc0565b60405180910390fd5b600260003373ffffffffffffffffffffffffffffffffffffffff1673ffffffffffffffffffffffffffffffffffffffff168152602001908152602001600020600081548092919061067690611c0f565b919050555083600360003373ffffffffffffffffffffffffffffffffffffffff1673ffffffffffffffffffffffffffffffffffffffff16815260200190815260200160002060008282546106ca9190611c57565b9250508190555083600460008282546106e39190611c57565b9250508190555060003373ffffffffffffffffffffffffffffffffffffffff168560405161071090611cbc565b60006040518083038185875af1925050503d806000811461074d576040519150601f19603f3d011682016040523d82523d6000602084013e610752565b606091505b5050905080610796576040517f08c379a000000000000000000000000000000000000000000000000000000000815260040161078d90611d1d565b60405180910390fd5b3373ffffffffffffffffffffffffffffffffffffffff167f9cdcf2f7714cca3508c7f0110b04a90a80a3a8dd0e35de99689db74d28c5383e8686600360003373ffffffffffffffffffffffffffffffffffffffff1673ffffffffffffffffffffffffffffffffffffffff1681526020019081526020016000205460405161081f93929190611d3d565b60405180910390a25050505050565b7ff01e4b5ef500dede42d1a18d8e44fd0ca19a8b3ec5cc1cce152fd337bf23029f81565b61085a6111e2565b600073ffffffffffffffffffffffffffffffffffffffff168173ffffffffffffffffffffffffffffffffffffffff16036108c9576040517f08c379a00000000000000000000000000000000000000000000000000000000081526004016108c090611dc0565b60405180910390fd5b6000600160009054906101000a900473ffffffffffffffffffffffffffffffffffffffff16905081600160006101000a81548173ffffffffffffffffffffffffffffffffffffffff021916908373ffffffffffffffffffffffffffffffffffffffff1602179055508173ffffffffffffffffffffffffffffffffffffffff168173ffffffffffffffffffffffffffffffffffffffff167f2d025324f0a785e8c12d0a0d91a9caa49df4ef20ff87e0df7213a1d4f3157beb60405160405180910390a35050565b6109976111e2565b6109a16000611269565b565b8181905086869050146109eb576040517f08c379a00000000000000000000000000000000000000000000000000000000081526004016109e290611e2c565b60405180910390fd5b838390508686905014610a33576040517f08c379a0000000000000000000000000000000000000000000000000000000008152600401610a2a90611e2c565b60405180910390fd5b600080600260003373ffffffffffffffffffffffffffffffffffffffff1673ffffffffffffffffffffffffffffffffffffffff16815260200190815260200160002054905060005b88889050811015610bc1578082610a929190611c57565b878783818110610aa557610aa4611e4c565b5b9050602002013514610aec576040517f08c379a0000000000000000000000000000000000000000000000000000000008152600401610ae390611ec7565b60405180910390fd5b610b4e338a8a84818110610b0357610b02611e4c565b5b90506020020135898985818110610b1d57610b1c611e4c565b5b90506020020135888886818110610b3757610b36611e4c565b5b9050602002810190610b499190611ef6565b61108d565b610b8d576040517f08c379a0000000000000000000000000000000000000000000000000000000008152600401610b8490611bc0565b60405180910390fd5b888882818110610ba057610b9f611e4c565b5b9050602002013583610bb29190611c57565b92508080600101915050610a7b565b5081471015610c05576040517f08c379a0000000000000000000000000000000000000000000000000000000008152600401610bfc90611fa5565b60405180910390fd5b87879050600260003373ffffffffffffffffffffffffffffffffffffffff1673ffffffffffffffffffffffffffffffffffffffff1681526020019081526020016000206000828254610c579190611c57565b9250508190555081600360003373ffffffffffffffffffffffffffffffffffffffff1673ffffffffffffffffffffffffffffffffffffffff1681526020019081526020016000206000828254610cad9190611c57565b925050819055508160046000828254610cc69190611c57565b9250508190555060003373ffffffffffffffffffffffffffffffffffffffff1683604051610cf390611cbc565b60006040518083038185875af1925050503d8060008114610d30576040519150601f19603f3d011682016040523d82523d6000602084013e610d35565b606091505b5050905080610d79576040517f08c379a0000000000000000000000000000000000000000000000000000000008152600401610d7090611d1d565b60405180910390fd5b3373ffffffffffffffffffffffffffffffffffffffff167f9cdcf2f7714cca3508c7f0110b04a90a80a3a8dd0e35de99689db74d28c5383e8484600360003373ffffffffffffffffffffffffffffffffffffffff1673ffffffffffffffffffffffffffffffffffffffff16815260200190815260200160002054604051610e0293929190611d3d565b60405180910390a2505050505050505050565b60026020528060005260406000206000915090505481565b60008060009054906101000a900473ffffffffffffffffffffffffffffffffffffffff16905090565b60036020528060005260406000206000915090505481565b6000600360008373ffffffffffffffffffffffffffffffffffffffff1673ffffffffffffffffffffffffffffffffffffffff168152602001908152602001600020549050919050565b60045481565b610ec56111e2565b600073ffffffffffffffffffffffffffffffffffffffff168173ffffffffffffffffffffffffffffffffffffffff1603610f375760006040517f1e4fbdf7000000000000000000000000000000000000000000000000000000008152600401610f2e919061168a565b60405180910390fd5b610f4081611269565b50565b610f4b6111e2565b47811115610f8e576040517f08c379a0000000000000000000000000000000000000000000000000000000008152600401610f8590611fa5565b60405180910390fd5b60008273ffffffffffffffffffffffffffffffffffffffff1682604051610fb490611cbc565b60006040518083038185875af1925050503d8060008114610ff1576040519150601f19603f3d011682016040523d82523d6000602084013e610ff6565b606091505b505090508061103a576040517f08c379a000000000000000000000000000000000000000000000000000000000815260040161103190612011565b60405180910390fd5b8273ffffffffffffffffffffffffffffffffffffffff167feaff4b37086828766ad3268786972c0cd24259d4c87a80f9d3963a3c3d999b0d83604051611080919061162e565b60405180910390a2505050565b6000807ff01e4b5ef500dede42d1a18d8e44fd0ca19a8b3ec5cc1cce152fd337bf23029f878787466040516020016110c9959493929190612031565b60405160208183030381529060405280519060200120905060007f0000000000000000000000000000000000000000000000000000000000000000826040516020016111169291906120fc565b604051602081830303815290604052805190602001209050600160009054906101000a900473ffffffffffffffffffffffffffffffffffffffff1673ffffffffffffffffffffffffffffffffffffffff166111be86868080601f016020809104026020016040519081016040528093929190818152602001838380828437600081840152601f19601f820116905080830192505050505050508361132d90919063ffffffff16565b73ffffffffffffffffffffffffffffffffffffffff16149250505095945050505050565b6111ea611359565b73ffffffffffffffffffffffffffffffffffffffff16611208610e2d565b73ffffffffffffffffffffffffffffffffffffffff16146112675761122b611359565b6040517f118cdaa700000000000000000000000000000000000000000000000000000000815260040161125e919061168a565b60405180910390fd5b565b60008060009054906101000a900473ffffffffffffffffffffffffffffffffffffffff169050816000806101000a81548173ffffffffffffffffffffffffffffffffffffffff021916908373ffffffffffffffffffffffffffffffffffffffff1602179055508173ffffffffffffffffffffffffffffffffffffffff168173ffffffffffffffffffffffffffffffffffffffff167f8be0079c531659141344cd1fd0a4f28419497f9722a3daafe3b4186f6b6457e060405160405180910390a35050565b60008060008061133d8686611361565b92509250925061134d82826113bd565b82935050505092915050565b600033905090565b600080600060418451036113a65760008060006020870151925060408701519150606087015160001a905061139888828585611521565b9550955095505050506113b6565b60006002855160001b9250925092505b9250925092565b600060038111156113d1576113d0612133565b5b8260038111156113e4576113e3612133565b5b031561151d57600160038111156113fe576113fd612133565b5b82600381111561141157611410612133565b5b03611448576040517ff645eedf00000000000000000000000000000000000000000000000000000000815260040160405180910390fd5b6002600381111561145c5761145b612133565b5b82600381111561146f5761146e612133565b5b036114b4578060001c6040517ffce698f70000000000000000000000000000000000000000000000000000000081526004016114ab919061162e565b60405180910390fd5b6003808111156114c7576114c6612133565b5b8260038111156114da576114d9612133565b5b0361151c57806040517fd78bce0c0000000000000000000000000000000000000000000000000000000081526004016115139190611721565b60405180910390fd5b5b5050565b60008060007f7fffffffffffffffffffffffffffffff5d576e7357a4501ddfe92f46681b20a08460001c111561156157600060038592509250925061160b565b600060018888888860405160008152602001604052604051611586949392919061217e565b6020604051602081039080840390855afa1580156115a8573d6000803e3d6000fd5b505050602060405103519050600073ffffffffffffffffffffffffffffffffffffffff168173ffffffffffffffffffffffffffffffffffffffff16036115fc57600060016000801b9350935093505061160b565b8060008060001b935093509350505b9450945094915050565b6000819050919050565b61162881611615565b82525050565b6000602082019050611643600083018461161f565b92915050565b600073ffffffffffffffffffffffffffffffffffffffff82169050919050565b600061167482611649565b9050919050565b61168481611669565b82525050565b600060208201905061169f600083018461167b565b92915050565b600080fd5b600080fd5b6116b881611669565b81146116c357600080fd5b50565b6000813590506116d5816116af565b92915050565b6000602082840312156116f1576116f06116a5565b5b60006116ff848285016116c6565b91505092915050565b6000819050919050565b61171b81611708565b82525050565b60006020820190506117366000830184611712565b92915050565b61174581611615565b811461175057600080fd5b50565b6000813590506117628161173c565b92915050565b600080fd5b600080fd5b600080fd5b60008083601f84011261178d5761178c611768565b5b8235905067ffffffffffffffff8111156117aa576117a961176d565b5b6020830191508360018202830111156117c6576117c5611772565b5b9250929050565b600080600080606085870312156117e7576117e66116a5565b5b60006117f587828801611753565b945050602061180687828801611753565b935050604085013567ffffffffffffffff811115611827576118266116aa565b5b61183387828801611777565b925092505092959194509250565b60008083601f84011261185757611856611768565b5b8235905067ffffffffffffffff8111156118745761187361176d565b5b6020830191508360208202830111156118905761188f611772565b5b9250929050565b60008083601f8401126118ad576118ac611768565b5b8235905067ffffffffffffffff8111156118ca576118c961176d565b5b6020830191508360208202830111156118e6576118e5611772565b5b9250929050565b6000806000806000806060878903121561190a576119096116a5565b5b600087013567ffffffffffffffff811115611928576119276116aa565b5b61193489828a01611841565b9650965050602087013567ffffffffffffffff811115611957576119566116aa565b5b61196389828a01611841565b9450945050604087013567ffffffffffffffff811115611986576119856116aa565b5b61199289828a01611897565b92509250509295509295509295565b60006119ac82611649565b9050919050565b6119bc816119a1565b81146119c757600080fd5b50565b6000813590506119d9816119b3565b92915050565b600080604083850312156119f6576119f56116a5565b5b6000611a04858286016119ca565b9250506020611a1585828601611753565b9150509250929050565b600082825260208201905092915050565b7f496e76616c6964206e6f6e636500000000000000000000000000000000000000600082015250565b6000611a66600d83611a1f565b9150611a7182611a30565b602082019050919050565b60006020820190508181036000830152611a9581611a59565b9050919050565b7f496e76616c696420616d6f756e74000000000000000000000000000000000000600082015250565b6000611ad2600e83611a1f565b9150611add82611a9c565b602082019050919050565b60006020820190508181036000830152611b0181611ac5565b9050919050565b7f496e73756666696369656e7420636f6e74726163742062616c616e6365000000600082015250565b6000611b3e601d83611a1f565b9150611b4982611b08565b602082019050919050565b60006020820190508181036000830152611b6d81611b31565b9050919050565b7f496e76616c6964207369676e6174757265000000000000000000000000000000600082015250565b6000611baa601183611a1f565b9150611bb582611b74565b602082019050919050565b60006020820190508181036000830152611bd981611b9d565b9050919050565b7f4e487b7100000000000000000000000000000000000000000000000000000000600052601160045260246000fd5b6000611c1a82611615565b91507fffffffffffffffffffffffffffffffffffffffffffffffffffffffffffffffff8203611c4c57611c4b611be0565b5b600182019050919050565b6000611c6282611615565b9150611c6d83611615565b9250828201905080821115611c8557611c84611be0565b5b92915050565b600081905092915050565b50565b6000611ca6600083611c8b565b9150611cb182611c96565b600082019050919050565b6000611cc782611c99565b9150819050919050565b7f455448207472616e73666572206661696c656400000000000000000000000000600082015250565b6000611d07601383611a1f565b9150611d1282611cd1565b602082019050919050565b60006020820190508181036000830152611d3681611cfa565b9050919050565b6000606082019050611d52600083018661161f565b611d5f602083018561161f565b611d6c604083018461161f565b949350505050565b7f496e76616c6964207369676e6572000000000000000000000000000000000000600082015250565b6000611daa600e83611a1f565b9150611db582611d74565b602082019050919050565b60006020820190508181036000830152611dd981611d9d565b9050919050565b7f4c656e677468206d69736d617463680000000000000000000000000000000000600082015250565b6000611e16600f83611a1f565b9150611e2182611de0565b602082019050919050565b60006020820190508181036000830152611e4581611e09565b9050919050565b7f4e487b7100000000000000000000000000000000000000000000000000000000600052603260045260246000fd5b7f496e76616c6964206e6f6e63652073657175656e636500000000000000000000600082015250565b6000611eb1601683611a1f565b9150611ebc82611e7b565b602082019050919050565b60006020820190508181036000830152611ee081611ea4565b9050919050565b600080fd5b600080fd5b600080fd5b60008083356001602003843603038112611f1357611f12611ee7565b5b80840192508235915067ffffffffffffffff821115611f3557611f34611eec565b5b602083019250600182023603831315611f5157611f50611ef1565b5b509250929050565b7f496e73756666696369656e742062616c616e6365000000000000000000000000600082015250565b6000611f8f601483611a1f565b9150611f9a82611f59565b602082019050919050565b60006020820190508181036000830152611fbe81611f82565b9050919050565b7f5472616e73666572206661696c65640000000000000000000000000000000000600082015250565b6000611ffb600f83611a1f565b915061200682611fc5565b602082019050919050565b6000602082019050818103600083015261202a81611fee565b9050919050565b600060a0820190506120466000830188611712565b612053602083018761167b565b612060604083018661161f565b61206d606083018561161f565b61207a608083018461161f565b9695505050505050565b600081905092915050565b7f1901000000000000000000000000000000000000000000000000000000000000600082015250565b60006120c5600283612084565b91506120d08261208f565b600282019050919050565b6000819050919050565b6120f66120f182611708565b6120db565b82525050565b6000612107826120b8565b915061211382856120e5565b60208201915061212382846120e5565b6020820191508190509392505050565b7f4e487b7100000000000000000000000000000000000000000000000000000000600052602160045260246000fd5b600060ff82169050919050565b61217881612162565b82525050565b60006080820190506121936000830187611712565b6121a0602083018661216f565b6121ad6040830185611712565b6121ba6060830184611712565b9594505050505056fea2646970667358221220c14bd4ed8d1d6db128aaeab27736bce702eec27534895197de1c9169a598fe9664736f6c63430008180033",
  "linkReferences": {},
  "deployedLinkReferences": {}
}